{"abi":[{"type":"constructor","inputs":[{"name":"_owner","type":"address","internalType":"address"},{"name":"_usdc","type":"address","internalType":"address"},{"name":"_novis","type":"address","internalType":"address"},{"name":"_router","type":"address","internalType":"address"},{"name":"_factory","type":"address","internalType":"address"},{"name":"_treasury","type":"address","internalType":"address"}],"stateMutability":"nonpayable"},{"type":"receive","stateMutability":"payable"},{"type":"function","name":"BPS_DENOMINATOR","inputs":[],"outputs":[{"name":"","type":"uint16","internalType":"uint16"}],"stateMutability":"view"},{"type":"function","name":"allocate","inputs":[{"name":"usdcAmount","type":"uint256","internalType":"uint256"}],"outputs":[],"stateMutability":"nonpayable"},{"type":"function","name":"autoBurnEnabled","inputs":[],"outputs":[{"name":"","type":"bool","internalType":"bool"}],"stateMutability":"view"},{"type":"function","name":"autoSlippageBps","inputs":[],"outputs":[{"name":"","type":"uint16","internalType":"uint16"}],"stateMutability":"view"},{"type":"function","name":"backingBps","inputs":[],"outputs":[{"name":"","type":"uint256","internalType":"uint256"}],"stateMutability":"view"},{"type":"function","name":"bufferBps","inputs":[],"outputs":[{"name":"","type":"uint256","internalType":"uint256"}],"stateMutability":"view"},{"type":"function","name":"bufferUSDC","inputs":[],"outputs":[{"name":"buffer","type":"uint256","internalType":"uint256"},{"name":"theoreticalUSDC","type":"uint256","internalType":"uint256"}],"stateMutability":"view"},{"type":"function","name":"buyAndBurn","inputs":[{"name":"usdcAmount","type":"uint256","internalType":"uint256"},{"name":"minNovisOut","type":"uint256","internalType":"uint256"}],"outputs":[],"stateMutability":"nonpayable"},{"type":"function","name":"buyAndBurnEnabled","inputs":[],"outputs":[{"name":"","type":"bool","internalType":"bool"}],"stateMutability":"view"},{"type":"function","name":"canBuyAndBurn","inputs":[],"outputs":[{"name":"","type":"bool","internalType":"bool"}],"stateMutability":"view"},{"type":"function","name":"cooldown","inputs":[],"outputs":[{"name":"","type":"uint32","internalType":"uint32"}],"stateMutability":"view"},{"type":"function","name":"deallocate","inputs":[{"name":"shares","type":"uint256","internalType":"uint256"}],"outputs":[],"stateMutability":"nonpayable"},{"type":"function","name":"deposit","inputs":[{"name":"usdcAmount","type":"uint256","internalType":"uint256"}],"outputs":[],"stateMutability":"nonpayable"},{"type":"function","name":"executeBuyAndBurn","inputs":[{"name":"usdcAmount","type":"uint256","internalType":"uint256"},{"name":"minNovisOut","type":"uint256","internalType":"uint256"}],"outputs":[],"stateMutability":"nonpayable"},{"type":"function","name":"factory","inputs":[],"outputs":[{"name":"","type":"address","internalType":"address"}],"stateMutability":"view"},{"type":"function","name":"lastBuyAndBurn","inputs":[],"outputs":[{"name":"","type":"uint256","internalType":"uint256"}],"stateMutability":"view"},{"type":"function","name":"maxBuyAndBurnUSDC","inputs":[],"outputs":[{"name":"","type":"uint256","internalType":"uint256"}],"stateMutability":"view"},{"type":"function","name":"maxBuyBps","inputs":[],"outputs":[{"name":"","type":"uint16","internalType":"uint16"}],"stateMutability":"view"},{"type":"function","name":"novis","inputs":[],"outputs":[{"name":"","type":"address","internalType":"contract INOVISv2"}],"stateMutability":"view"},{"type":"function","name":"owner","inputs":[],"outputs":[{"name":"","type":"address","internalType":"address"}],"stateMutability":"view"},{"type":"function","name":"pause","inputs":[],"outputs":[],"stateMutability":"nonpayable"},{"type":"function","name":"paused","inputs":[],"outputs":[{"name":"","type":"bool","internalType":"bool"}],"stateMutability":"view"},{"type":"function","name":"poolStable","inputs":[],"outputs":[{"name":"","type":"bool","internalType":"bool"}],"stateMutability":"view"},{"type":"function","name":"redeem","inputs":[{"name":"novisAmount","type":"uint256","internalType":"uint256"}],"outputs":[],"stateMutability":"nonpayable"},{"type":"function","name":"renounceOwnership","inputs":[],"outputs":[],"stateMutability":"nonpayable"},{"type":"function","name":"rescueETH","inputs":[{"name":"amount","type":"uint256","internalType":"uint256"}],"outputs":[],"stateMutability":"nonpayable"},{"type":"function","name":"rescueToken","inputs":[{"name":"token","type":"address","internalType":"address"},{"name":"amount","type":"uint256","internalType":"uint256"}],"outputs":[],"stateMutability":"nonpayable"},{"type":"function","name":"router","inputs":[],"outputs":[{"name":"","type":"address","internalType":"contract IAerodromeRouter"}],"stateMutability":"view"},{"type":"function","name":"setAutoSlippageBps","inputs":[{"name":"_slippageBps","type":"uint16","internalType":"uint16"}],"outputs":[],"stateMutability":"nonpayable"},{"type":"function","name":"setBuyAndBurnParams","inputs":[{"name":"_triggerBufferBps","type":"uint16","internalType":"uint16"},{"name":"_maxBuyBps","type":"uint16","internalType":"uint16"},{"name":"_treasuryFeeBps","type":"uint16","internalType":"uint16"},{"name":"_cooldown","type":"uint32","internalType":"uint32"}],"outputs":[],"stateMutability":"nonpayable"},{"type":"function","name":"setPoolStable","inputs":[{"name":"_stable","type":"bool","internalType":"bool"}],"outputs":[],"stateMutability":"nonpayable"},{"type":"function","name":"setStrategy","inputs":[{"name":"_strategy","type":"address","internalType":"address"}],"outputs":[],"stateMutability":"nonpayable"},{"type":"function","name":"setTreasury","inputs":[{"name":"_treasury","type":"address","internalType":"address"}],"outputs":[],"stateMutability":"nonpayable"},{"type":"function","name":"strategy","inputs":[],"outputs":[{"name":"","type":"address","internalType":"contract IStrategy"}],"stateMutability":"view"},{"type":"function","name":"toggleAutoBurn","inputs":[{"name":"_enabled","type":"bool","internalType":"bool"}],"outputs":[],"stateMutability":"nonpayable"},{"type":"function","name":"toggleBuyAndBurn","inputs":[{"name":"_enabled","type":"bool","internalType":"bool"}],"outputs":[],"stateMutability":"nonpayable"},{"type":"function","name":"totalBackingUSDC","inputs":[],"outputs":[{"name":"","type":"uint256","internalType":"uint256"}],"stateMutability":"view"},{"type":"function","name":"transferOwnership","inputs":[{"name":"newOwner","type":"address","internalType":"address"}],"outputs":[],"stateMutability":"nonpayable"},{"type":"function","name":"transferTokenOwnership","inputs":[{"name":"newOwner","type":"address","internalType":"address"}],"outputs":[],"stateMutability":"nonpayable"},{"type":"function","name":"treasury","inputs":[],"outputs":[{"name":"","type":"address","internalType":"address"}],"stateMutability":"view"},{"type":"function","name":"treasuryFeeBps","inputs":[],"outputs":[{"name":"","type":"uint16","internalType":"uint16"}],"stateMutability":"view"},{"type":"function","name":"triggerBufferBps","inputs":[],"outputs":[{"name":"","type":"uint16","internalType":"uint16"}],"stateMutability":"view"},{"type":"function","name":"unpause","inputs":[],"outputs":[],"stateMutability":"nonpayable"},{"type":"function","name":"usdc","inputs":[],"outputs":[{"name":"","type":"address","internalType":"contract IERC20"}],"stateMutability":"view"},{"type":"function","name":"vaultUSDC","inputs":[],"outputs":[{"name":"","type":"uint256","internalType":"uint256"}],"stateMutability":"view"},{"type":"event","name":"Allocated","inputs":[{"name":"usdcAmount","type":"uint256","indexed":false,"internalType":"uint256"},{"name":"sharesReceived","type":"uint256","indexed":false,"internalType":"uint256"}],"anonymous":false},{"type":"event","name":"AutoBurnToggled","inputs":[{"name":"enabled","type":"bool","indexed":false,"internalType":"bool"}],"anonymous":false},{"type":"event","name":"AutoBuyAndBurnFailed","inputs":[{"name":"reason","type":"string","indexed":false,"internalType":"string"}],"anonymous":false},{"type":"event","name":"BuyAndBurn","inputs":[{"name":"caller","type":"address","indexed":true,"internalType":"address"},{"name":"usdcSpent","type":"uint256","indexed":false,"internalType":"uint256"},{"name":"novisBurned","type":"uint256","indexed":false,"internalType":"uint256"},{"name":"treasuryFee","type":"uint256","indexed":false,"internalType":"uint256"},{"name":"newBackingBps","type":"uint256","indexed":false,"internalType":"uint256"}],"anonymous":false},{"type":"event","name":"BuyAndBurnParamsSet","inputs":[{"name":"triggerBps","type":"uint16","indexed":false,"internalType":"uint16"},{"name":"maxBuyBps","type":"uint16","indexed":false,"internalType":"uint16"},{"name":"treasuryFeeBps","type":"uint16","indexed":false,"internalType":"uint16"},{"name":"cooldown","type":"uint32","indexed":false,"internalType":"uint32"}],"anonymous":false},{"type":"event","name":"BuyAndBurnToggled","inputs":[{"name":"enabled","type":"bool","indexed":false,"internalType":"bool"}],"anonymous":false},{"type":"event","name":"Deallocated","inputs":[{"name":"sharesBurned","type":"uint256","indexed":false,"internalType":"uint256"},{"name":"usdcReceived","type":"uint256","indexed":false,"internalType":"uint256"}],"anonymous":false},{"type":"event","name":"Deposit","inputs":[{"name":"user","type":"address","indexed":true,"internalType":"address"},{"name":"usdcAmount","type":"uint256","indexed":false,"internalType":"uint256"},{"name":"novisMinted","type":"uint256","indexed":false,"internalType":"uint256"}],"anonymous":false},{"type":"event","name":"ETHRescued","inputs":[{"name":"amount","type":"uint256","indexed":false,"internalType":"uint256"}],"anonymous":false},{"type":"event","name":"OwnershipTransferred","inputs":[{"name":"previousOwner","type":"address","indexed":true,"internalType":"address"},{"name":"newOwner","type":"address","indexed":true,"internalType":"address"}],"anonymous":false},{"type":"event","name":"Paused","inputs":[{"name":"account","type":"address","indexed":false,"internalType":"address"}],"anonymous":false},{"type":"event","name":"Redeem","inputs":[{"name":"user","type":"address","indexed":true,"internalType":"address"},{"name":"novisBurned","type":"uint256","indexed":false,"internalType":"uint256"},{"name":"usdcReturned","type":"uint256","indexed":false,"internalType":"uint256"}],"anonymous":false},{"type":"event","name":"StrategySet","inputs":[{"name":"strategy","type":"address","indexed":true,"internalType":"address"}],"anonymous":false},{"type":"event","name":"TokenOwnershipTransferred","inputs":[{"name":"newOwner","type":"address","indexed":true,"internalType":"address"}],"anonymous":false},{"type":"event","name":"TokensRescued","inputs":[{"name":"token","type":"address","indexed":true,"internalType":"address"},{"name":"amount","type":"uint256","indexed":false,"internalType":"uint256"}],"anonymous":false},{"type":"event","name":"TreasurySet","inputs":[{"name":"treasury","type":"address","indexed":true,"internalType":"address"}],"anonymous":false},{"type":"event","name":"Unpaused","inputs":[{"name":"account","type":"address","indexed":false,"internalType":"address"}],"anonymous":false},{"type":"error","name":"AddressEmptyCode","inputs":[{"name":"target","type":"address","internalType":"address"}]},{"type":"error","name":"AddressInsufficientBalance","inputs":[{"name":"account","type":"address","internalType":"address"}]},{"type":"error","name":"EnforcedPause","inputs":[]},{"type":"error","name":"ExpectedPause","inputs":[]},{"type":"error","name":"FailedInnerCall","inputs":[]},{"type":"error","name":"OwnableInvalidOwner","inputs":[{"name":"owner","type":"address","internalType":"address"}]},{"type":"error","name":"OwnableUnauthorizedAccount","inputs":[{"name":"account","type":"address","internalType":"address"}]},{"type":"error","name":"ReentrancyGuardReentrantCall","inputs":[]},{"type":"error","name":"SafeERC20FailedOperation","inputs":[{"name":"token","type":"address","internalType":"address"}]}],"bytecode":{"object":"0x61010060405234801562000011575f80fd5b506040516200316f3803806200316f83398101604081905262000034916200026c565b856001600160a01b0381166200006457604051631e4fbdf760e01b81525f60048201526024015b60405180910390fd5b6200006f8162000201565b505f805460ff60a01b19169055600180556001600160a01b038516620000c45760405162461bcd60e51b815260206004820152600960248201526875736463207a65726f60b81b60448201526064016200005b565b6001600160a01b038416620001095760405162461bcd60e51b815260206004820152600a6024820152696e6f766973207a65726f60b01b60448201526064016200005b565b6001600160a01b0383166200014f5760405162461bcd60e51b815260206004820152600b60248201526a726f75746572207a65726f60a81b60448201526064016200005b565b6001600160a01b038216620001965760405162461bcd60e51b815260206004820152600c60248201526b666163746f7279207a65726f60a01b60448201526064016200005b565b6001600160a01b0394851660805292841660a05290831660c052821660e05260038054919092166001600160b01b031990911617607d60a31b176001600160b01b0316672a30003e807d027160b31b179055506005805461010162ffffff19909116179055620002e9565b5f80546001600160a01b038381166001600160a01b0319831681178455604051919092169283917f8be0079c531659141344cd1fd0a4f28419497f9722a3daafe3b4186f6b6457e09190a35050565b80516001600160a01b038116811462000267575f80fd5b919050565b5f805f805f8060c0878903121562000282575f80fd5b6200028d8762000250565b95506200029d6020880162000250565b9450620002ad6040880162000250565b9350620002bd6060880162000250565b9250620002cd6080880162000250565b9150620002dd60a0880162000250565b90509295509295509295565b60805160a05160c05160e051612db1620003be5f395f818161064b015261203f01525f81816107ee01528181611ed9015261209201525f818161034d0152818161096301528181610b9d01528181610d43015281816113080152818161177f015281816119d201528181611a1001528181611ff901526121a601525f818161039801528181610a4501528181610b63015281816113cf015281816114c5015281816117280152818161193201528181611a7c01528181611da001528181611e9901528181611f080152611fca0152612db15ff3fe60806040526004361061026d575f3560e01c806390ca796b1161014a578063cb50d0ba116100be578063edc8b8e511610078578063edc8b8e51461076a578063ef2046a71461078b578063f0f442601461079f578063f2fde38b146107be578063f887ea40146107dd578063ffc149da14610810575f80fd5b8063cb50d0ba146106a1578063db006a75146106c0578063df80a523146106df578063dfb3f51a14610713578063e1a4521814610734578063e80cfa5e14610749575f80fd5b8063ab5ab48c1161010f578063ab5ab48c146105f3578063b6b55f2514610607578063c37b633714610626578063c45a01551461063a578063c5175a1e1461066d578063cac71bb61461068c575f80fd5b806390ca796b1461055f5780639dd255da1461057e5780639e252f001461059c578063a6b857d0146105bb578063a8c62e76146105d4575f80fd5b8063670cdc4f116101e1578063820dfa0a116101a6578063820dfa0a146104bf5780638456cb59146104d357806389842e92146104e757806389b968dc146105065780638a8f773f1461052f5780638da5cb5b14610543575f80fd5b8063670cdc4f146104165780636f6c441f14610435578063715018a614610454578063759d584414610468578063787a08a614610487575f80fd5b80633610945511610232578063361094551461031557806337eb4f8f1461033c5780633e413bee146103875780633f4ba83a146103ba5780635c975abb146103ce57806361d027b3146103f7575f80fd5b806309ad7cad1461027857806319a56b011461029957806321e6b53d146102b857806333a100ca146102d757806333f3d628146102f6575f80fd5b3661027457005b5f80fd5b348015610283575f80fd5b50610297610292366004612872565b61082f565b005b3480156102a4575f80fd5b506102976102b33660046128a3565b61087f565b3480156102c3575f80fd5b506102976102d23660046128d0565b6108f5565b3480156102e2575f80fd5b506102976102f13660046128d0565b6109f0565b348015610301575f80fd5b506102976103103660046128eb565b610b59565b348015610320575f80fd5b50610329610d34565b6040519081526020015b60405180910390f35b348015610347575f80fd5b5061036f7f000000000000000000000000000000000000000000000000000000000000000081565b6040516001600160a01b039091168152602001610333565b348015610392575f80fd5b5061036f7f000000000000000000000000000000000000000000000000000000000000000081565b3480156103c5575f80fd5b50610297610e17565b3480156103d9575f80fd5b505f54600160a01b900460ff165b6040519015158152602001610333565b348015610402575f80fd5b5060035461036f906001600160a01b031681565b348015610421575f80fd5b50610297610430366004612915565b610e29565b348015610440575f80fd5b5061029761044f366004612935565b610fd7565b34801561045f575f80fd5b50610297611103565b348015610473575f80fd5b50610297610482366004612872565b611114565b348015610492575f80fd5b506003546104aa90600160e01b900463ffffffff1681565b60405163ffffffff9091168152602001610333565b3480156104ca575f80fd5b506103e7611138565b3480156104de575f80fd5b50610297611199565b3480156104f2575f80fd5b5061029761050136600461294c565b6111a9565b348015610511575f80fd5b5061051a6112f8565b60408051928352602083019190915201610333565b34801561053a575f80fd5b506103296113b8565b34801561054e575f80fd5b505f546001600160a01b031661036f565b34801561056a575f80fd5b50610297610579366004612935565b611445565b348015610589575f80fd5b506005546103e790610100900460ff1681565b3480156105a7575f80fd5b506102976105b6366004612935565b6115dd565b3480156105c6575f80fd5b506005546103e79060ff1681565b3480156105df575f80fd5b5060025461036f906001600160a01b031681565b3480156105fe575f80fd5b506103296116b2565b348015610612575f80fd5b50610297610621366004612935565b6116ec565b348015610631575f80fd5b5061032961182b565b348015610645575f80fd5b5061036f7f000000000000000000000000000000000000000000000000000000000000000081565b348015610678575f80fd5b50610297610687366004612915565b611853565b348015610697575f80fd5b5061032960045481565b3480156106ac575f80fd5b506005546103e79062010000900460ff1681565b3480156106cb575f80fd5b506102976106da366004612935565b611898565b3480156106ea575f80fd5b5060035461070090600160d01b900461ffff1681565b60405161ffff9091168152602001610333565b34801561071e575f80fd5b5060035461070090600160b01b900461ffff1681565b34801561073f575f80fd5b5061070061271081565b348015610754575f80fd5b5060035461070090600160c01b900461ffff1681565b348015610775575f80fd5b5060035461070090600160a01b900461ffff1681565b348015610796575f80fd5b50610329611af3565b3480156107aa575f80fd5b506102976107b93660046128d0565b611b9f565b3480156107c9575f80fd5b506102976107d83660046128d0565b611bf0565b3480156107e8575f80fd5b5061036f7f000000000000000000000000000000000000000000000000000000000000000081565b34801561081b575f80fd5b5061029761082a366004612872565b611c2a565b610837611c7b565b6005805460ff19168215159081179091556040519081527fa2f7bdae623c9dd6f7d6e7aed0b764cf282f9b80768c00582bfad352f04fd7e6906020015b60405180910390a150565b610887611c7b565b6107d08161ffff1611156108d35760405162461bcd60e51b815260206004820152600e60248201526d736c697070616765203e2032302560901b60448201526064015b60405180910390fd5b6003805461ffff909216600160d01b0261ffff60d01b19909216919091179055565b6108fd611c7b565b6001600160a01b0381166109445760405162461bcd60e51b815260206004820152600e60248201526d6e6577206f776e6572207a65726f60901b60448201526064016108ca565b60405163f2fde38b60e01b81526001600160a01b0382811660048301527f0000000000000000000000000000000000000000000000000000000000000000169063f2fde38b906024015f604051808303815f87803b1580156109a4575f80fd5b505af11580156109b6573d5f803e3d5ffd5b50506040516001600160a01b03841692507f286c0f711d43c1602559a3b4946805984ec0c75f1e4818f159665a73740c346091505f90a250565b6109f8611c7b565b6001600160a01b038116610a4357600280546001600160a01b03191690556040515f907fe70d79dad95c835bdd87e9cf4665651c9e5abb3b756e4fd2bf45f29c95c3aa40908290a250565b7f00000000000000000000000000000000000000000000000000000000000000006001600160a01b0316816001600160a01b03166338d52e0f6040518163ffffffff1660e01b8152600401602060405180830381865afa158015610aa9573d5f803e3d5ffd5b505050506040513d601f19601f82011682018060405250810190610acd91906129a7565b6001600160a01b031614610b0f5760405162461bcd60e51b815260206004820152600960248201526818985908185cdcd95d60ba1b60448201526064016108ca565b600280546001600160a01b0319166001600160a01b0383169081179091556040517fe70d79dad95c835bdd87e9cf4665651c9e5abb3b756e4fd2bf45f29c95c3aa40905f90a25b50565b610b61611c7b565b7f00000000000000000000000000000000000000000000000000000000000000006001600160a01b0316826001600160a01b031603610cc8575f7f00000000000000000000000000000000000000000000000000000000000000006001600160a01b03166318160ddd6040518163ffffffff1660e01b8152600401602060405180830381865afa158015610bf7573d5f803e3d5ffd5b505050506040513d601f19601f82011682018060405250810190610c1b91906129c2565b90505f610c2d64e8d4a51000836129ed565b90505f610c38611af3565b9050818111610c755760405162461bcd60e51b81526020600482015260096024820152686e6f2065786365737360b81b60448201526064016108ca565b5f610c808383612a0c565b905080851115610cc35760405162461bcd60e51b815260206004820152600e60248201526d657863656564732065786365737360901b60448201526064016108ca565b505050505b610ced610cdc5f546001600160a01b031690565b6001600160a01b0384169083611ca7565b816001600160a01b03167f68f67de89e96b13a3ea058af5fd44cc125efceb528482d539c7b43db2faa066e82604051610d2891815260200190565b60405180910390a25050565b5f80610d3e611af3565b90505f7f00000000000000000000000000000000000000000000000000000000000000006001600160a01b03166318160ddd6040518163ffffffff1660e01b8152600401602060405180830381865afa158015610d9d573d5f803e3d5ffd5b505050506040513d601f19601f82011682018060405250810190610dc191906129c2565b9050805f03610dd4575061271092915050565b5f610de464e8d4a51000836129ed565b9050805f03610df857506127109392505050565b80610e0561271085612a1f565b610e0f91906129ed565b935050505090565b610e1f611c7b565b610e27611d0b565b565b610e31611d5f565b60055460ff16610e6e5760405162461bcd60e51b8152602060048201526008602482015267191a5cd8589b195960c21b60448201526064016108ca565b600354600160a01b900461ffff16610e8461182b565b1015610ec35760405162461bcd60e51b815260206004820152600e60248201526d62756666657220746f6f206c6f7760901b60448201526064016108ca565b600354600454610ee091600160e01b900463ffffffff1690612a36565b421015610f1a5760405162461bcd60e51b815260206004820152600860248201526731b7b7b63237bbb760c11b60448201526064016108ca565b5f8211610f395760405162461bcd60e51b81526004016108ca90612a49565b5f8111610f765760405162461bcd60e51b815260206004820152600b60248201526a6d696e4f7574207a65726f60a81b60448201526064016108ca565b5f610f7f6116b2565b905080831115610fbf5760405162461bcd60e51b815260206004820152600b60248201526a0caf0c6cacac8e640dac2f60ab1b60448201526064016108ca565b610fc98383611d89565b50610fd360018055565b5050565b610fdf611c7b565b610fe7611d5f565b6002546001600160a01b031661100f5760405162461bcd60e51b81526004016108ca90612a6e565b5f811161104c5760405162461bcd60e51b815260206004820152600b60248201526a736861726573207a65726f60a81b60448201526064016108ca565b600254604051627b8a6760e11b8152600481018390523060248201525f916001600160a01b03169062f714ce906044016020604051808303815f875af1158015611098573d5f803e3d5ffd5b505050506040513d601f19601f820116820180604052508101906110bc91906129c2565b60408051848152602081018390529192507f45c7b09725b519c56f6c8002e81499c39ba974a242e07699ea72bc0417607dff91015b60405180910390a150610b5660018055565b61110b611c7b565b610e275f612264565b61111c611c7b565b60058054911515620100000262ff000019909216919091179055565b6005545f9060ff1661114957505f90565b600354600160a01b900461ffff1661115f61182b565b101561116a57505f90565b60035460045461118791600160e01b900463ffffffff1690612a36565b42101561119357505f90565b50600190565b6111a1611c7b565b610e276122b3565b6111b1611c7b565b61271061ffff841611156111f75760405162461bcd60e51b815260206004820152600d60248201526c6d6178427579203e203130302560981b60448201526064016108ca565b61271061ffff8316111561123a5760405162461bcd60e51b815260206004820152600a602482015269666565203e203130302560b01b60448201526064016108ca565b6003805463ffffffff60a01b1916600160a01b61ffff87811691820261ffff60b01b191692909217600160b01b87841690810291909117600163ffff000160c01b0316600160c01b9387169384026001600160e01b031617600160e01b63ffffffff87169081029190911790945560408051928352602083019190915281019190915260608101919091527f669b30f129410a8fc63031ffd482207dd1747799f3ab6d418bdf617e4c7e55d29060800160405180910390a150505050565b5f805f611303611af3565b90505f7f00000000000000000000000000000000000000000000000000000000000000006001600160a01b03166318160ddd6040518163ffffffff1660e01b8152600401602060405180830381865afa158015611362573d5f803e3d5ffd5b505050506040513d601f19601f8201168201806040525081019061138691906129c2565b905061139764e8d4a51000826129ed565b92508282116113a6575f6113b0565b6113b08383612a0c565b935050509091565b6040516370a0823160e01b81523060048201525f907f00000000000000000000000000000000000000000000000000000000000000006001600160a01b0316906370a0823190602401602060405180830381865afa15801561141c573d5f803e3d5ffd5b505050506040513d601f19601f8201168201806040525081019061144091906129c2565b905090565b61144d611c7b565b611455611d5f565b6002546001600160a01b031661147d5760405162461bcd60e51b81526004016108ca90612a6e565b5f811161149c5760405162461bcd60e51b81526004016108ca90612a49565b60025460405163095ea7b360e01b81526001600160a01b039182166004820152602481018390527f00000000000000000000000000000000000000000000000000000000000000009091169063095ea7b3906044016020604051808303815f875af115801561150d573d5f803e3d5ffd5b505050506040513d601f19601f820116820180604052508101906115319190612a93565b50600254604051636e553f6560e01b8152600481018390523060248201525f916001600160a01b031690636e553f65906044016020604051808303815f875af1158015611580573d5f803e3d5ffd5b505050506040513d601f19601f820116820180604052508101906115a491906129c2565b60408051848152602081018390529192507f06686aaa593b19d01617ac400575a79693899102504b038ef5e3371ff51e4d9f91016110f1565b6115e5611c7b565b5f80546040516001600160a01b039091169083908381818185875af1925050503d805f811461162f576040519150601f19603f3d011682016040523d82523d5f602084013e611634565b606091505b505090508061167b5760405162461bcd60e51b8152602060048201526013602482015272115512081d1c985b9cd9995c8819985a5b1959606a1b60448201526064016108ca565b6040518281527f2935defdd9ec65bb02dc9049597c404aae26083909722b8e4ecd474eea640a909060200160405180910390a15050565b5f806116bc6112f8565b50600354909150612710906116dc90600160b01b900461ffff1683612a1f565b6116e691906129ed565b91505090565b6116f46122f5565b6116fc611d5f565b5f811161171b5760405162461bcd60e51b81526004016108ca90612a49565b6117506001600160a01b037f00000000000000000000000000000000000000000000000000000000000000001633308461231f565b5f61176064e8d4a5100083612a1f565b6040516340c10f1960e01b8152336004820152602481018290529091507f00000000000000000000000000000000000000000000000000000000000000006001600160a01b0316906340c10f19906044015f604051808303815f87803b1580156117c8575f80fd5b505af11580156117da573d5f803e3d5ffd5b505060408051858152602081018590523393507f90890809c654f11d6e72a28fa60149770a0d11ec6c92319d6ceb2bb0a4ea1a1592500160405180910390a261182161235e565b50610b5660018055565b5f80611835610d34565b90506127108111611847575f91505090565b6116e661271082612a0c565b33301461188e5760405162461bcd60e51b815260206004820152600960248201526837b7363c9039b2b63360b91b60448201526064016108ca565b610fd38282611d89565b6118a06122f5565b6118a8611d5f565b5f81116118c75760405162461bcd60e51b81526004016108ca90612a49565b5f6118d764e8d4a51000836129ed565b90505f811161191b5760405162461bcd60e51b815260206004820152601060248201526f185b5bdd5b9d081d1bdbc81cdb585b1b60821b60448201526064016108ca565b6040516370a0823160e01b81523060048201525f907f00000000000000000000000000000000000000000000000000000000000000006001600160a01b0316906370a0823190602401602060405180830381865afa15801561197f573d5f803e3d5ffd5b505050506040513d601f19601f820116820180604052508101906119a391906129c2565b9050818110156119c5575f6119b88284612a0c565b90506119c381612551565b505b6119fa6001600160a01b037f00000000000000000000000000000000000000000000000000000000000000001633308661231f565b604051630852cd8d60e31b8152600481018490527f00000000000000000000000000000000000000000000000000000000000000006001600160a01b0316906342966c68906024015f604051808303815f87803b158015611a59575f80fd5b505af1158015611a6b573d5f803e3d5ffd5b50611aa59250506001600160a01b037f00000000000000000000000000000000000000000000000000000000000000001690503384611ca7565b604080518481526020810184905233917fe5b754fb1abb7f01b499791d0b820ae3b6af3424ac1c59768edb53f4ec31a929910160405180910390a2611ae861235e565b5050610b5660018055565b5f80611afd6113b8565b6002549091505f906001600160a01b0316611b18575f611b8c565b60025f9054906101000a90046001600160a01b03166001600160a01b03166301e1d1146040518163ffffffff1660e01b8152600401602060405180830381865afa158015611b68573d5f803e3d5ffd5b505050506040513d601f19601f82011682018060405250810190611b8c91906129c2565b9050611b988183612a36565b9250505090565b611ba7611c7b565b600380546001600160a01b0319166001600160a01b0383169081179091556040517f3c864541ef71378c6229510ed90f376565ee42d9c5e0904a984a9e863e6db44f905f90a250565b611bf8611c7b565b6001600160a01b038116611c2157604051631e4fbdf760e01b81525f60048201526024016108ca565b610b5681612264565b611c32611c7b565b600580548215156101000261ff00199091161790556040517f78fc20422fbd33cc7aef5e4e1c182fdc815f20c1c15af2ff53e83c223017dbf89061087490831515815260200190565b5f546001600160a01b03163314610e275760405163118cdaa760e01b81523360048201526024016108ca565b6040516001600160a01b03838116602483015260448201839052611d0691859182169063a9059cbb906064015b604051602081830303815290604052915060e01b6020820180516001600160e01b0383818316178352505050506126a5565b505050565b611d13612706565b5f805460ff60a01b191690557f5db9ee0a495bf2e6ff9c91a7834c1ba4fdd244a5e8aa4e537bd38aeae4b073aa335b6040516001600160a01b03909116815260200160405180910390a1565b600260015403611d8257604051633ee5aeb560e01b815260040160405180910390fd5b6002600155565b6040516370a0823160e01b81523060048201525f907f00000000000000000000000000000000000000000000000000000000000000006001600160a01b0316906370a0823190602401602060405180830381865afa158015611ded573d5f803e3d5ffd5b505050506040513d601f19601f82011682018060405250810190611e1191906129c2565b905082811015611e33575f611e268285612a0c565b9050611e3181612551565b505b6003545f9061271090611e5190600160c01b900461ffff1686612a1f565b611e5b91906129ed565b90505f611e688286612a0c565b90505f82118015611e8357506003546001600160a01b031615155b15611ec257600354611ec2906001600160a01b037f00000000000000000000000000000000000000000000000000000000000000008116911684611ca7565b60405163095ea7b360e01b81526001600160a01b037f000000000000000000000000000000000000000000000000000000000000000081166004830152602482018390527f0000000000000000000000000000000000000000000000000000000000000000169063095ea7b3906044016020604051808303815f875af1158015611f4e573d5f803e3d5ffd5b505050506040513d601f19601f82011682018060405250810190611f729190612a93565b506040805160018082528183019092525f91816020015b604080516080810182525f8082526020808301829052928201819052606082015282525f19909201910181611f8957905050905060405180608001604052807f00000000000000000000000000000000000000000000000000000000000000006001600160a01b031681526020017f00000000000000000000000000000000000000000000000000000000000000006001600160a01b03168152602001600560029054906101000a900460ff16151581526020017f00000000000000000000000000000000000000000000000000000000000000006001600160a01b0316815250815f8151811061207c5761207c612ac2565b60209081029190910101525f6001600160a01b037f00000000000000000000000000000000000000000000000000000000000000001663cac88ea9848885306120c742610258612a36565b6040518663ffffffff1660e01b81526004016120e7959493929190612ad6565b5f604051808303815f875af1158015612102573d5f803e3d5ffd5b505050506040513d5f823e601f3d908101601f191682016040526121299190810190612ba6565b90505f816001835161213b9190612a0c565b8151811061214b5761214b612ac2565b60200260200101519050868110156121905760405162461bcd60e51b8152602060048201526008602482015267736c69707061676560c01b60448201526064016108ca565b604051630852cd8d60e31b8152600481018290527f00000000000000000000000000000000000000000000000000000000000000006001600160a01b0316906342966c68906024015f604051808303815f87803b1580156121ef575f80fd5b505af1158015612201573d5f803e3d5ffd5b505042600455503090507f43d5ca07d16cb34153ec6a6da0a7d227c02bd8d588f899c1195cf377bf2db0aa898388612237610d34565b60408051948552602085019390935291830152606082015260800160405180910390a25050505050505050565b5f80546001600160a01b038381166001600160a01b0319831681178455604051919092169283917f8be0079c531659141344cd1fd0a4f28419497f9722a3daafe3b4186f6b6457e09190a35050565b6122bb6122f5565b5f805460ff60a01b1916600160a01b1790557f62e78cea01bee320cd4e420270b5ea74000d11b0c9f74754ebdbfc544b05a258611d423390565b5f54600160a01b900460ff1615610e275760405163d93c066560e01b815260040160405180910390fd5b6040516001600160a01b0384811660248301528381166044830152606482018390526123589186918216906323b872dd90608401611cd4565b50505050565b600554610100900460ff1661236f57565b60055460ff1661237b57565b600354600160a01b900461ffff1661239161182b565b101561239957565b6003546004546123b691600160e01b900463ffffffff1690612a36565b4210156123bf57565b5f6123c86116b2565b9050805f036123d45750565b5f6123e06002836129ed565b9050620f42408110156123f1575050565b5f61240164e8d4a5100083612a1f565b6003549091505f906127109061242290600160d01b900461ffff1682612c48565b6124309061ffff1684612a1f565b61243a91906129ed565b60405163628bad0f60e11b81526004810185905260248101829052909150309063c5175a1e906044015f604051808303815f87803b15801561247a575f80fd5b505af192505050801561248b575060015b61235857612497612c6a565b806308c379a0036124f357506124ab612c83565b806124b657506124f5565b7fd314414cc11b710b92b9ef782f355a959b4d2023600c36fd87115ca5b4683a8b816040516124e59190612d2e565b60405180910390a150612358565b505b7fd314414cc11b710b92b9ef782f355a959b4d2023600c36fd87115ca5b4683a8b604051612544906020808252600d908201526c3ab735b737bbb71032b93937b960991b604082015260600190565b60405180910390a1612358565b6002546001600160a01b03166125795760405162461bcd60e51b81526004016108ca90612a6e565b600254604080516278744560e21b815290515f926001600160a01b0316916301e1d1149160048083019260209291908290030181865afa1580156125bf573d5f803e3d5ffd5b505050506040513d601f19601f820116820180604052508101906125e391906129c2565b9050818110156126355760405162461bcd60e51b815260206004820152601d60248201527f696e73756666696369656e742073747261746567792062616c616e636500000060448201526064016108ca565b600254604051627b8a6760e11b8152600481018490523060248201526001600160a01b039091169062f714ce906044016020604051808303815f875af1158015612681573d5f803e3d5ffd5b505050506040513d601f19601f82011682018060405250810190611d0691906129c2565b5f6126b96001600160a01b0384168361272f565b905080515f141580156126dd5750808060200190518101906126db9190612a93565b155b15611d0657604051635274afe760e01b81526001600160a01b03841660048201526024016108ca565b5f54600160a01b900460ff16610e2757604051638dfc202b60e01b815260040160405180910390fd5b606061273c83835f612745565b90505b92915050565b60608147101561276a5760405163cd78605960e01b81523060048201526024016108ca565b5f80856001600160a01b031684866040516127859190612d60565b5f6040518083038185875af1925050503d805f81146127bf576040519150601f19603f3d011682016040523d82523d5f602084013e6127c4565b606091505b50915091506127d48683836127e0565b925050505b9392505050565b6060826127f5576127f08261283c565b6127d9565b815115801561280c57506001600160a01b0384163b155b1561283557604051639996b31560e01b81526001600160a01b03851660048201526024016108ca565b50806127d9565b80511561284c5780518082602001fd5b604051630a12f52160e11b815260040160405180910390fd5b8015158114610b56575f80fd5b5f60208284031215612882575f80fd5b81356127d981612865565b803561ffff8116811461289e575f80fd5b919050565b5f602082840312156128b3575f80fd5b61273c8261288d565b6001600160a01b0381168114610b56575f80fd5b5f602082840312156128e0575f80fd5b81356127d9816128bc565b5f80604083850312156128fc575f80fd5b8235612907816128bc565b946020939093013593505050565b5f8060408385031215612926575f80fd5b50508035926020909101359150565b5f60208284031215612945575f80fd5b5035919050565b5f805f806080858703121561295f575f80fd5b6129688561288d565b93506129766020860161288d565b92506129846040860161288d565b9150606085013563ffffffff8116811461299c575f80fd5b939692955090935050565b5f602082840312156129b7575f80fd5b81516127d9816128bc565b5f602082840312156129d2575f80fd5b5051919050565b634e487b7160e01b5f52601160045260245ffd5b5f82612a0757634e487b7160e01b5f52601260045260245ffd5b500490565b8181038181111561273f5761273f6129d9565b808202811582820484141761273f5761273f6129d9565b8082018082111561273f5761273f6129d9565b6020808252600b908201526a616d6f756e74207a65726f60a81b604082015260600190565b6020808252600b908201526a6e6f20737472617465677960a81b604082015260600190565b5f60208284031215612aa3575f80fd5b81516127d981612865565b634e487b7160e01b5f52604160045260245ffd5b634e487b7160e01b5f52603260045260245ffd5b5f60a082018783526020876020850152604060a0604086015282885180855260c08701915060208a0194505f5b81811015612b4d57855180516001600160a01b0390811685528682015181168786015285820151151586860152606091820151169084015294840194608090920191600101612b03565b50506001600160a01b03881660608701529350612b6992505050565b8260808301529695505050505050565b601f8201601f1916810167ffffffffffffffff81118282101715612b9f57612b9f612aae565b6040525050565b5f6020808385031215612bb7575f80fd5b825167ffffffffffffffff80821115612bce575f80fd5b818501915085601f830112612be1575f80fd5b815181811115612bf357612bf3612aae565b8060051b9150604051612c0885840182612b79565b81815291830184019184810188841115612c20575f80fd5b938501935b83851015612c3c5784518152938501938501612c25565b50979650505050505050565b61ffff828116828216039080821115612c6357612c636129d9565b5092915050565b5f60033d1115612c805760045f803e505f5160e01c5b90565b5f60443d1015612c905790565b6040516003193d81016004833e81513d67ffffffffffffffff8160248401118184111715612cc057505050505090565b8285019150815181811115612cd85750505050505090565b843d8701016020828501011115612cf25750505050505090565b612d0160208286010187612b79565b509095945050505050565b5f5b83811015612d26578181015183820152602001612d0e565b50505f910152565b602081525f8251806020840152612d4c816040850160208701612d0c565b601f01601f19169190910160400192915050565b5f8251612d71818460208701612d0c565b919091019291505056fea264697066735822122094d9065ef2aed00521d740b4c93d92f95d9cf480669c62512bcbfec6c3f0488a64736f6c63430008180033","linkReferences":{}},"methodIdentifiers":{"BPS_DENOMINATOR()":"e1a45218","allocate(uint256)":"90ca796b","autoBurnEnabled()":"9dd255da","autoSlippageBps()":"df80a523","backingBps()":"36109455","bufferBps()":"c37b6337","bufferUSDC()":"89b968dc","buyAndBurn(uint256,uint256)":"670cdc4f","buyAndBurnEnabled()":"a6b857d0","canBuyAndBurn()":"820dfa0a","cooldown()":"787a08a6","deallocate(uint256)":"6f6c441f","deposit(uint256)":"b6b55f25","executeBuyAndBurn(uint256,uint256)":"c5175a1e","factory()":"c45a0155","lastBuyAndBurn()":"cac71bb6","maxBuyAndBurnUSDC()":"ab5ab48c","maxBuyBps()":"dfb3f51a","novis()":"37eb4f8f","owner()":"8da5cb5b","pause()":"8456cb59","paused()":"5c975abb","poolStable()":"cb50d0ba","redeem(uint256)":"db006a75","renounceOwnership()":"715018a6","rescueETH(uint256)":"9e252f00","rescueToken(address,uint256)":"33f3d628","router()":"f887ea40","setAutoSlippageBps(uint16)":"19a56b01","setBuyAndBurnParams(uint16,uint16,uint16,uint32)":"89842e92","setPoolStable(bool)":"759d5844","setStrategy(address)":"33a100ca","setTreasury(address)":"f0f44260","strategy()":"a8c62e76","toggleAutoBurn(bool)":"ffc149da","toggleBuyAndBurn(bool)":"09ad7cad","totalBackingUSDC()":"ef2046a7","transferOwnership(address)":"f2fde38b","transferTokenOwnership(address)":"21e6b53d","treasury()":"61d027b3","treasuryFeeBps()":"e80cfa5e","triggerBufferBps()":"edc8b8e5","unpause()":"3f4ba83a","usdc()":"3e413bee","vaultUSDC()":"8a8f773f"},"id":30}