{"abi":[{"type":"constructor","inputs":[{"name":"_usdc","type":"address","internalType":"address"},{"name":"_eusd","type":"address","internalType":"address"},{"name":"_owner","type":"address","internalType":"address"}],"stateMutability":"nonpayable"},{"type":"function","name":"allocate","inputs":[{"name":"amountUSDC","type":"uint256","internalType":"uint256"}],"outputs":[],"stateMutability":"nonpayable"},{"type":"function","name":"deallocate","inputs":[{"name":"shares","type":"uint256","internalType":"uint256"}],"outputs":[],"stateMutability":"nonpayable"},{"type":"function","name":"deposit","inputs":[{"name":"amountUSDC","type":"uint256","internalType":"uint256"}],"outputs":[],"stateMutability":"nonpayable"},{"type":"function","name":"eusd","inputs":[],"outputs":[{"name":"","type":"address","internalType":"contract IEUSD"}],"stateMutability":"view"},{"type":"function","name":"owner","inputs":[],"outputs":[{"name":"","type":"address","internalType":"address"}],"stateMutability":"view"},{"type":"function","name":"pause","inputs":[],"outputs":[],"stateMutability":"nonpayable"},{"type":"function","name":"paused","inputs":[],"outputs":[{"name":"","type":"bool","internalType":"bool"}],"stateMutability":"view"},{"type":"function","name":"redeem","inputs":[{"name":"amountEUSD","type":"uint256","internalType":"uint256"}],"outputs":[],"stateMutability":"nonpayable"},{"type":"function","name":"renounceOwnership","inputs":[],"outputs":[],"stateMutability":"nonpayable"},{"type":"function","name":"setStrategy","inputs":[{"name":"s","type":"address","internalType":"address"}],"outputs":[],"stateMutability":"nonpayable"},{"type":"function","name":"strategy","inputs":[],"outputs":[{"name":"","type":"address","internalType":"contract IStrategy"}],"stateMutability":"view"},{"type":"function","name":"strategyShares","inputs":[{"name":"","type":"address","internalType":"address"}],"outputs":[{"name":"","type":"uint256","internalType":"uint256"}],"stateMutability":"view"},{"type":"function","name":"strategyShares","inputs":[],"outputs":[{"name":"","type":"uint256","internalType":"uint256"}],"stateMutability":"view"},{"type":"function","name":"totalBackingUSDC","inputs":[],"outputs":[{"name":"","type":"uint256","internalType":"uint256"}],"stateMutability":"view"},{"type":"function","name":"totalSupply","inputs":[],"outputs":[{"name":"","type":"uint256","internalType":"uint256"}],"stateMutability":"view"},{"type":"function","name":"transferOwnership","inputs":[{"name":"newOwner","type":"address","internalType":"address"}],"outputs":[],"stateMutability":"nonpayable"},{"type":"function","name":"unpause","inputs":[],"outputs":[],"stateMutability":"nonpayable"},{"type":"function","name":"usdc","inputs":[],"outputs":[{"name":"","type":"address","internalType":"contract IERC20"}],"stateMutability":"view"},{"type":"function","name":"vaultUSDC","inputs":[],"outputs":[{"name":"","type":"uint256","internalType":"uint256"}],"stateMutability":"view"},{"type":"event","name":"Allocated","inputs":[{"name":"amountUSDC","type":"uint256","indexed":false,"internalType":"uint256"},{"name":"sharesReceived","type":"uint256","indexed":false,"internalType":"uint256"}],"anonymous":false},{"type":"event","name":"Deallocated","inputs":[{"name":"sharesBurned","type":"uint256","indexed":false,"internalType":"uint256"},{"name":"assetsReceived","type":"uint256","indexed":false,"internalType":"uint256"}],"anonymous":false},{"type":"event","name":"OwnershipTransferred","inputs":[{"name":"previousOwner","type":"address","indexed":true,"internalType":"address"},{"name":"newOwner","type":"address","indexed":true,"internalType":"address"}],"anonymous":false},{"type":"event","name":"Paused","inputs":[{"name":"account","type":"address","indexed":false,"internalType":"address"}],"anonymous":false},{"type":"event","name":"StrategySet","inputs":[{"name":"strategy","type":"address","indexed":true,"internalType":"address"}],"anonymous":false},{"type":"event","name":"Unpaused","inputs":[{"name":"account","type":"address","indexed":false,"internalType":"address"}],"anonymous":false},{"type":"error","name":"AddressEmptyCode","inputs":[{"name":"target","type":"address","internalType":"address"}]},{"type":"error","name":"AddressInsufficientBalance","inputs":[{"name":"account","type":"address","internalType":"address"}]},{"type":"error","name":"EnforcedPause","inputs":[]},{"type":"error","name":"ExpectedPause","inputs":[]},{"type":"error","name":"FailedInnerCall","inputs":[]},{"type":"error","name":"OwnableInvalidOwner","inputs":[{"name":"owner","type":"address","internalType":"address"}]},{"type":"error","name":"OwnableUnauthorizedAccount","inputs":[{"name":"account","type":"address","internalType":"address"}]},{"type":"error","name":"ReentrancyGuardReentrantCall","inputs":[]},{"type":"error","name":"SafeERC20FailedOperation","inputs":[{"name":"token","type":"address","internalType":"address"}]}],"bytecode":{"object":"0x60c060405234801562000010575f80fd5b50604051620012db380380620012db83398101604081905262000033916200016f565b828282806001600160a01b0381166200006657604051631e4fbdf760e01b81525f60048201526024015b60405180910390fd5b620000718162000104565b505f805460ff60a01b19169055600180556200008d8162000104565b6001600160a01b03831615801590620000ae57506001600160a01b03821615155b620000e75760405162461bcd60e51b81526020600482015260086024820152673130b21030b2323960c11b60448201526064016200005d565b506001600160a01b039182166080521660a05250620001b6915050565b5f80546001600160a01b038381166001600160a01b0319831681178455604051919092169283917f8be0079c531659141344cd1fd0a4f28419497f9722a3daafe3b4186f6b6457e09190a35050565b80516001600160a01b03811681146200016a575f80fd5b919050565b5f805f6060848603121562000182575f80fd5b6200018d8462000153565b92506200019d6020850162000153565b9150620001ad6040850162000153565b90509250925092565b60805160a0516110c4620002175f395f81816101b80152818161029a015281816108e4015281816109b701526109f501525f818161015501528181610372015281816106890152818161075e015281816108b20152610a7501526110c45ff3fe608060405234801561000f575f80fd5b506004361061011c575f3560e01c80637fc938b9116100a9578063a8c62e761161006e578063a8c62e7614610243578063b6b55f2514610256578063db006a7514610269578063ef2046a71461027c578063f2fde38b14610284575f80fd5b80637fc938b9146102085780638456cb59146102105780638a8f773f146102185780638da5cb5b1461022057806390ca796b14610230575f80fd5b80635c975abb116100ef5780635c975abb146101975780636019f28a146101b3578063696240ee146101da5780636f6c441f146101ed578063715018a614610200575f80fd5b806318160ddd1461012057806333a100ca1461013b5780633e413bee146101505780633f4ba83a1461018f575b5f80fd5b610128610297565b6040519081526020015b60405180910390f35b61014e610149366004610f60565b61031d565b005b6101777f000000000000000000000000000000000000000000000000000000000000000081565b6040516001600160a01b039091168152602001610132565b61014e61048b565b5f54600160a01b900460ff166040519015158152602001610132565b6101777f000000000000000000000000000000000000000000000000000000000000000081565b6101286101e8366004610f60565b61049d565b61014e6101fb366004610f7b565b6104ac565b61014e6105f3565b610128610604565b61014e610662565b610128610672565b5f546001600160a01b0316610177565b61014e61023e366004610f7b565b6106c0565b600254610177906001600160a01b031681565b61014e610264366004610f7b565b610876565b61014e610277366004610f7b565b61097b565b610128610aa6565b61014e610292366004610f60565b610b4e565b5f7f00000000000000000000000000000000000000000000000000000000000000006001600160a01b03166318160ddd6040518163ffffffff1660e01b8152600401602060405180830381865afa1580156102f4573d5f803e3d5ffd5b505050506040513d601f19601f820116820180604052508101906103189190610f92565b905090565b610325610b88565b6001600160a01b03811661037057600280546001600160a01b03191690556040515f907fe70d79dad95c835bdd87e9cf4665651c9e5abb3b756e4fd2bf45f29c95c3aa40908290a250565b7f00000000000000000000000000000000000000000000000000000000000000006001600160a01b0316816001600160a01b03166338d52e0f6040518163ffffffff1660e01b8152600401602060405180830381865afa1580156103d6573d5f803e3d5ffd5b505050506040513d601f19601f820116820180604052508101906103fa9190610fa9565b6001600160a01b0316146104415760405162461bcd60e51b815260206004820152600960248201526818985908185cdcd95d60ba1b60448201526064015b60405180910390fd5b600280546001600160a01b0319166001600160a01b0383169081179091556040517fe70d79dad95c835bdd87e9cf4665651c9e5abb3b756e4fd2bf45f29c95c3aa40905f90a25b50565b610493610b88565b61049b610bb4565b565b5f6104a6610604565b92915050565b6104b4610b88565b6104bc610c08565b6002546001600160a01b03166105025760405162461bcd60e51b815260206004820152600b60248201526a6e6f20737472617465677960a81b6044820152606401610438565b5f811161053c5760405162461bcd60e51b815260206004820152600860248201526707368617265733d360c41b6044820152606401610438565b600254604051627b8a6760e11b8152600481018390523060248201525f916001600160a01b03169062f714ce906044016020604051808303815f875af1158015610588573d5f803e3d5ffd5b505050506040513d601f19601f820116820180604052508101906105ac9190610f92565b60408051848152602081018390529192507f45c7b09725b519c56f6c8002e81499c39ba974a242e07699ea72bc0417607dff91015b60405180910390a15061048860018055565b6105fb610b88565b61049b5f610c32565b6002545f906001600160a01b031661061b57505f90565b6002546040516370a0823160e01b81523060048201526001600160a01b03909116906370a08231906024015b602060405180830381865afa1580156102f4573d5f803e3d5ffd5b61066a610b88565b61049b610c81565b6040516370a0823160e01b81523060048201525f907f00000000000000000000000000000000000000000000000000000000000000006001600160a01b0316906370a0823190602401610647565b6106c8610b88565b6106d0610c08565b6002546001600160a01b03166107165760405162461bcd60e51b815260206004820152600b60248201526a6e6f20737472617465677960a81b6044820152606401610438565b5f81116107355760405162461bcd60e51b815260040161043890610fc4565b60025460405163095ea7b360e01b81526001600160a01b039182166004820152602481018390527f00000000000000000000000000000000000000000000000000000000000000009091169063095ea7b3906044016020604051808303815f875af11580156107a6573d5f803e3d5ffd5b505050506040513d601f19601f820116820180604052508101906107ca9190610fe6565b50600254604051636e553f6560e01b8152600481018390523060248201525f916001600160a01b031690636e553f65906044016020604051808303815f875af1158015610819573d5f803e3d5ffd5b505050506040513d601f19601f8201168201806040525081019061083d9190610f92565b60408051848152602081018390529192507f06686aaa593b19d01617ac400575a79693899102504b038ef5e3371ff51e4d9f91016105e1565b61087e610cc3565b610886610c08565b5f81116108a55760405162461bcd60e51b815260040161043890610fc4565b6108da6001600160a01b037f000000000000000000000000000000000000000000000000000000000000000016333084610ced565b6001600160a01b037f0000000000000000000000000000000000000000000000000000000000000000166340c10f193361091964e8d4a5100085611019565b6040516001600160e01b031960e085901b1681526001600160a01b03909216600483015260248201526044015f604051808303815f87803b15801561095c575f80fd5b505af115801561096e573d5f803e3d5ffd5b5050505061048860018055565b610983610cc3565b61098b610c08565b5f81116109aa5760405162461bcd60e51b815260040161043890610fc4565b6109df6001600160a01b037f000000000000000000000000000000000000000000000000000000000000000016333084610ced565b604051630852cd8d60e31b8152600481018290527f00000000000000000000000000000000000000000000000000000000000000006001600160a01b0316906342966c68906024015f604051808303815f87803b158015610a3e575f80fd5b505af1158015610a50573d5f803e3d5ffd5b505050505f64e8d4a5100082610a669190611030565b9050610a9c6001600160a01b037f0000000000000000000000000000000000000000000000000000000000000000163383610d5a565b5061048860018055565b5f80610ab0610672565b6002549091505f906001600160a01b031615610b3d5760025f9054906101000a90046001600160a01b03166001600160a01b03166301e1d1146040518163ffffffff1660e01b8152600401602060405180830381865afa158015610b16573d5f803e3d5ffd5b505050506040513d601f19601f82011682018060405250810190610b3a9190610f92565b90505b610b47818361104f565b9250505090565b610b56610b88565b6001600160a01b038116610b7f57604051631e4fbdf760e01b81525f6004820152602401610438565b61048881610c32565b5f546001600160a01b0316331461049b5760405163118cdaa760e01b8152336004820152602401610438565b610bbc610d90565b5f805460ff60a01b191690557f5db9ee0a495bf2e6ff9c91a7834c1ba4fdd244a5e8aa4e537bd38aeae4b073aa335b6040516001600160a01b03909116815260200160405180910390a1565b600260015403610c2b57604051633ee5aeb560e01b815260040160405180910390fd5b6002600155565b5f80546001600160a01b038381166001600160a01b0319831681178455604051919092169283917f8be0079c531659141344cd1fd0a4f28419497f9722a3daafe3b4186f6b6457e09190a35050565b610c89610cc3565b5f805460ff60a01b1916600160a01b1790557f62e78cea01bee320cd4e420270b5ea74000d11b0c9f74754ebdbfc544b05a258610beb3390565b5f54600160a01b900460ff161561049b5760405163d93c066560e01b815260040160405180910390fd5b6040516001600160a01b038481166024830152838116604483015260648201839052610d549186918216906323b872dd906084015b604051602081830303815290604052915060e01b6020820180516001600160e01b038381831617835250505050610db9565b50505050565b6040516001600160a01b03838116602483015260448201839052610d8b91859182169063a9059cbb90606401610d22565b505050565b5f54600160a01b900460ff1661049b57604051638dfc202b60e01b815260040160405180910390fd5b5f610dcd6001600160a01b03841683610e1a565b905080515f14158015610df1575080806020019051810190610def9190610fe6565b155b15610d8b57604051635274afe760e01b81526001600160a01b0384166004820152602401610438565b6060610e2783835f610e2e565b9392505050565b606081471015610e535760405163cd78605960e01b8152306004820152602401610438565b5f80856001600160a01b03168486604051610e6e9190611062565b5f6040518083038185875af1925050503d805f8114610ea8576040519150601f19603f3d011682016040523d82523d5f602084013e610ead565b606091505b5091509150610ebd868383610ec7565b9695505050505050565b606082610edc57610ed782610f23565b610e27565b8151158015610ef357506001600160a01b0384163b155b15610f1c57604051639996b31560e01b81526001600160a01b0385166004820152602401610438565b5080610e27565b805115610f335780518082602001fd5b604051630a12f52160e11b815260040160405180910390fd5b6001600160a01b0381168114610488575f80fd5b5f60208284031215610f70575f80fd5b8135610e2781610f4c565b5f60208284031215610f8b575f80fd5b5035919050565b5f60208284031215610fa2575f80fd5b5051919050565b5f60208284031215610fb9575f80fd5b8151610e2781610f4c565b6020808252600890820152670616d6f756e743d360c41b604082015260600190565b5f60208284031215610ff6575f80fd5b81518015158114610e27575f80fd5b634e487b7160e01b5f52601160045260245ffd5b80820281158282048414176104a6576104a6611005565b5f8261104a57634e487b7160e01b5f52601260045260245ffd5b500490565b808201808211156104a6576104a6611005565b5f82515f5b818110156110815760208186018101518583015201611067565b505f92019182525091905056fea2646970667358221220aece0e08f7d391ddcf067370faf1c6852eef27f79ac488a7fe23e6caed5a756764736f6c63430008180033","linkReferences":{}},"methodIdentifiers":{"allocate(uint256)":"90ca796b","deallocate(uint256)":"6f6c441f","deposit(uint256)":"b6b55f25","eusd()":"6019f28a","owner()":"8da5cb5b","pause()":"8456cb59","paused()":"5c975abb","redeem(uint256)":"db006a75","renounceOwnership()":"715018a6","setStrategy(address)":"33a100ca","strategy()":"a8c62e76","strategyShares()":"7fc938b9","strategyShares(address)":"696240ee","totalBackingUSDC()":"ef2046a7","totalSupply()":"18160ddd","transferOwnership(address)":"f2fde38b","unpause()":"3f4ba83a","usdc()":"3e413bee","vaultUSDC()":"8a8f773f"},"id":74}