{"abi":[{"type":"constructor","inputs":[{"name":"_usdc","type":"address","internalType":"address"},{"name":"_comet","type":"address","internalType":"address"},{"name":"_vault","type":"address","internalType":"address"}],"stateMutability":"nonpayable"},{"type":"function","name":"allowance","inputs":[{"name":"owner","type":"address","internalType":"address"},{"name":"spender","type":"address","internalType":"address"}],"outputs":[{"name":"","type":"uint256","internalType":"uint256"}],"stateMutability":"view"},{"type":"function","name":"approve","inputs":[{"name":"spender","type":"address","internalType":"address"},{"name":"value","type":"uint256","internalType":"uint256"}],"outputs":[{"name":"","type":"bool","internalType":"bool"}],"stateMutability":"nonpayable"},{"type":"function","name":"asset","inputs":[],"outputs":[{"name":"","type":"address","internalType":"address"}],"stateMutability":"view"},{"type":"function","name":"balanceOf","inputs":[{"name":"account","type":"address","internalType":"address"}],"outputs":[{"name":"","type":"uint256","internalType":"uint256"}],"stateMutability":"view"},{"type":"function","name":"comet","inputs":[],"outputs":[{"name":"","type":"address","internalType":"contract ICometLike"}],"stateMutability":"view"},{"type":"function","name":"decimals","inputs":[],"outputs":[{"name":"","type":"uint8","internalType":"uint8"}],"stateMutability":"view"},{"type":"function","name":"deposit","inputs":[{"name":"assets","type":"uint256","internalType":"uint256"},{"name":"onBehalfOf","type":"address","internalType":"address"}],"outputs":[{"name":"shares","type":"uint256","internalType":"uint256"}],"stateMutability":"nonpayable"},{"type":"function","name":"name","inputs":[],"outputs":[{"name":"","type":"string","internalType":"string"}],"stateMutability":"view"},{"type":"function","name":"symbol","inputs":[],"outputs":[{"name":"","type":"string","internalType":"string"}],"stateMutability":"view"},{"type":"function","name":"totalAssets","inputs":[],"outputs":[{"name":"","type":"uint256","internalType":"uint256"}],"stateMutability":"view"},{"type":"function","name":"totalSupply","inputs":[],"outputs":[{"name":"","type":"uint256","internalType":"uint256"}],"stateMutability":"view"},{"type":"function","name":"transfer","inputs":[{"name":"to","type":"address","internalType":"address"},{"name":"value","type":"uint256","internalType":"uint256"}],"outputs":[{"name":"","type":"bool","internalType":"bool"}],"stateMutability":"nonpayable"},{"type":"function","name":"transferFrom","inputs":[{"name":"from","type":"address","internalType":"address"},{"name":"to","type":"address","internalType":"address"},{"name":"value","type":"uint256","internalType":"uint256"}],"outputs":[{"name":"","type":"bool","internalType":"bool"}],"stateMutability":"nonpayable"},{"type":"function","name":"usdc","inputs":[],"outputs":[{"name":"","type":"address","internalType":"contract IERC20"}],"stateMutability":"view"},{"type":"function","name":"vault","inputs":[],"outputs":[{"name":"","type":"address","internalType":"address"}],"stateMutability":"view"},{"type":"function","name":"withdraw","inputs":[{"name":"shares","type":"uint256","internalType":"uint256"},{"name":"to","type":"address","internalType":"address"}],"outputs":[{"name":"assets","type":"uint256","internalType":"uint256"}],"stateMutability":"nonpayable"},{"type":"event","name":"Approval","inputs":[{"name":"owner","type":"address","indexed":true,"internalType":"address"},{"name":"spender","type":"address","indexed":true,"internalType":"address"},{"name":"value","type":"uint256","indexed":false,"internalType":"uint256"}],"anonymous":false},{"type":"event","name":"Transfer","inputs":[{"name":"from","type":"address","indexed":true,"internalType":"address"},{"name":"to","type":"address","indexed":true,"internalType":"address"},{"name":"value","type":"uint256","indexed":false,"internalType":"uint256"}],"anonymous":false},{"type":"error","name":"AddressEmptyCode","inputs":[{"name":"target","type":"address","internalType":"address"}]},{"type":"error","name":"AddressInsufficientBalance","inputs":[{"name":"account","type":"address","internalType":"address"}]},{"type":"error","name":"ERC20InsufficientAllowance","inputs":[{"name":"spender","type":"address","internalType":"address"},{"name":"allowance","type":"uint256","internalType":"uint256"},{"name":"needed","type":"uint256","internalType":"uint256"}]},{"type":"error","name":"ERC20InsufficientBalance","inputs":[{"name":"sender","type":"address","internalType":"address"},{"name":"balance","type":"uint256","internalType":"uint256"},{"name":"needed","type":"uint256","internalType":"uint256"}]},{"type":"error","name":"ERC20InvalidApprover","inputs":[{"name":"approver","type":"address","internalType":"address"}]},{"type":"error","name":"ERC20InvalidReceiver","inputs":[{"name":"receiver","type":"address","internalType":"address"}]},{"type":"error","name":"ERC20InvalidSender","inputs":[{"name":"sender","type":"address","internalType":"address"}]},{"type":"error","name":"ERC20InvalidSpender","inputs":[{"name":"spender","type":"address","internalType":"address"}]},{"type":"error","name":"FailedInnerCall","inputs":[]},{"type":"error","name":"SafeERC20FailedOperation","inputs":[{"name":"token","type":"address","internalType":"address"}]}],"bytecode":{"object":"0x60e060405234801562000010575f80fd5b50604051620016c0380380620016c08339810160408190526200003391620001f6565b6040518060400160405280601981526020017f4555534420436f6d6574205374726174656779205368617265000000000000008152506040518060400160405280600b81526020016a65757364434f4d4554763360a81b81525081600390816200009e9190620002db565b506004620000ad8282620002db565b5050506001600160a01b0383166200010c5760405162461bcd60e51b815260206004820152601760248201527f5374726174656779436f6d657456333a20757364633d3000000000000000000060448201526064015b60405180910390fd5b6001600160a01b038216620001645760405162461bcd60e51b815260206004820152601860248201527f5374726174656779436f6d657456333a20636f6d65743d300000000000000000604482015260640162000103565b6001600160a01b038116620001bc5760405162461bcd60e51b815260206004820152601860248201527f5374726174656779436f6d657456333a207661756c743d300000000000000000604482015260640162000103565b6001600160a01b0392831660805290821660a0521660c052620003a7565b80516001600160a01b0381168114620001f1575f80fd5b919050565b5f805f6060848603121562000209575f80fd5b6200021484620001da565b92506200022460208501620001da565b91506200023460408501620001da565b90509250925092565b634e487b7160e01b5f52604160045260245ffd5b600181811c908216806200026657607f821691505b6020821081036200028557634e487b7160e01b5f52602260045260245ffd5b50919050565b601f821115620002d657805f5260205f20601f840160051c81016020851015620002b25750805b601f840160051c820191505b81811015620002d3575f8155600101620002be565b50505b505050565b81516001600160401b03811115620002f757620002f76200023d565b6200030f8162000308845462000251565b846200028b565b602080601f83116001811462000345575f84156200032d5750858301515b5f19600386901b1c1916600185901b1785556200039f565b5f85815260208120601f198616915b82811015620003755788860151825594840194600190910190840162000354565b50858210156200039357878501515f19600388901b60f8161c191681555b505060018460011b0185555b505050505050565b60805160a05160c05161128c620004345f395f81816102a9015281816102d701526106f601525f818161024a015281816104fa015281816105a6015281816108670152818161091701526109f701525f8181610190015281816101cd015281816104cb0152818161055e01528181610828015281816108950152818161094601526109c8015261128c5ff3fe608060405234801561000f575f80fd5b50600436106100fa575f3560e01c80633e413bee11610093578063a9059cbb11610063578063a9059cbb14610232578063ba3e9c1214610245578063dd62ed3e1461026c578063fbfa77cf146102a4575f80fd5b80633e413bee146101c85780636e553f65146101ef57806370a082311461020257806395d89b411461022a575f80fd5b806318160ddd116100ce57806318160ddd1461016457806323b872dd1461016c578063313ce5671461017f57806338d52e0f1461018e575f80fd5b8062f714ce146100fe57806301e1d1141461012457806306fdde031461012c578063095ea7b314610141575b5f80fd5b61011161010c366004611050565b6102cb565b6040519081526020015b60405180910390f35b61011161058f565b61013461061c565b60405161011b919061109c565b61015461014f3660046110ce565b6106ac565b604051901515815260200161011b565b600254610111565b61015461017a3660046110f6565b6106c5565b6040516012815260200161011b565b7f00000000000000000000000000000000000000000000000000000000000000005b6040516001600160a01b03909116815260200161011b565b6101b07f000000000000000000000000000000000000000000000000000000000000000081565b6101116101fd366004611050565b6106ea565b61011161021036600461112f565b6001600160a01b03165f9081526020819052604090205490565b610134610ad4565b6101546102403660046110ce565b610ae3565b6101b07f000000000000000000000000000000000000000000000000000000000000000081565b61011161027a366004611148565b6001600160a01b039182165f90815260016020908152604080832093909416825291909152205490565b6101b07f000000000000000000000000000000000000000000000000000000000000000081565b5f336001600160a01b037f000000000000000000000000000000000000000000000000000000000000000016146103495760405162461bcd60e51b815260206004820152601b60248201527f5374726174656779436f6d657456333a206f6e6c79207661756c74000000000060448201526064015b60405180910390fd5b5f83116103945760405162461bcd60e51b815260206004820152601960248201527805374726174656779436f6d657456333a207368617265733d3603c1b6044820152606401610340565b6001600160a01b0382166103e25760405162461bcd60e51b815260206004820152601560248201527405374726174656779436f6d657456333a20746f3d3605c1b6044820152606401610340565b5f6103ec60025490565b90505f811161043d5760405162461bcd60e51b815260206004820152601a60248201527f5374726174656779436f6d657456333a206e6f2d7368617265730000000000006044820152606401610340565b5f61044661058f565b9050816104538287611184565b61045d919061119b565b92505f83116104aa5760405162461bcd60e51b815260206004820152601960248201527805374726174656779436f6d657456333a206173736574733d3603c1b6044820152606401610340565b6104b43386610af0565b60405163f3fef3a360e01b81526001600160a01b037f000000000000000000000000000000000000000000000000000000000000000081166004830152602482018590527f0000000000000000000000000000000000000000000000000000000000000000169063f3fef3a3906044015f604051808303815f87803b15801561053b575f80fd5b505af115801561054d573d5f803e3d5ffd5b506105879250506001600160a01b037f00000000000000000000000000000000000000000000000000000000000000001690508585610b28565b505092915050565b6040516370a0823160e01b81523060048201525f907f00000000000000000000000000000000000000000000000000000000000000006001600160a01b0316906370a0823190602401602060405180830381865afa1580156105f3573d5f803e3d5ffd5b505050506040513d601f19601f8201168201806040525081019061061791906111ba565b905090565b60606003805461062b906111d1565b80601f0160208091040260200160405190810160405280929190818152602001828054610657906111d1565b80156106a25780601f10610679576101008083540402835291602001916106a2565b820191905f5260205f20905b81548152906001019060200180831161068557829003601f168201915b5050505050905090565b5f336106b9818585610b8c565b60019150505b92915050565b5f336106d2858285610b99565b6106dd858585610c14565b60019150505b9392505050565b5f336001600160a01b037f000000000000000000000000000000000000000000000000000000000000000016146107635760405162461bcd60e51b815260206004820152601b60248201527f5374726174656779436f6d657456333a206f6e6c79207661756c7400000000006044820152606401610340565b5f83116107ae5760405162461bcd60e51b815260206004820152601960248201527805374726174656779436f6d657456333a206173736574733d3603c1b6044820152606401610340565b6001600160a01b0382166108045760405162461bcd60e51b815260206004820152601d60248201527f5374726174656779436f6d657456333a206f6e426568616c664f663d300000006044820152606401610340565b5f61080d61058f565b90505f61081960025490565b90506108506001600160a01b037f000000000000000000000000000000000000000000000000000000000000000016333088610c71565b60405163095ea7b360e01b81526001600160a01b037f0000000000000000000000000000000000000000000000000000000000000000811660048301525f60248301527f0000000000000000000000000000000000000000000000000000000000000000169063095ea7b3906044016020604051808303815f875af11580156108db573d5f803e3d5ffd5b505050506040513d601f19601f820116820180604052508101906108ff9190611209565b5060405163095ea7b360e01b81526001600160a01b037f000000000000000000000000000000000000000000000000000000000000000081166004830152602482018790527f0000000000000000000000000000000000000000000000000000000000000000169063095ea7b3906044016020604051808303815f875af115801561098c573d5f803e3d5ffd5b505050506040513d601f19601f820116820180604052508101906109b09190611209565b50604051631e573fb760e31b81526001600160a01b037f000000000000000000000000000000000000000000000000000000000000000081166004830152602482018790527f0000000000000000000000000000000000000000000000000000000000000000169063f2b9fdb8906044015f604051808303815f87803b158015610a38575f80fd5b505af1158015610a4a573d5f803e3d5ffd5b50505050805f1480610a5a575081155b15610a6757849250610a7f565b81610a728287611184565b610a7c919061119b565b92505b5f8311610aca5760405162461bcd60e51b815260206004820152601960248201527805374726174656779436f6d657456333a207368617265733d3603c1b6044820152606401610340565b6105878484610caa565b60606004805461062b906111d1565b5f336106b9818585610c14565b6001600160a01b038216610b1957604051634b637e8f60e11b81525f6004820152602401610340565b610b24825f83610cda565b5050565b6040516001600160a01b03838116602483015260448201839052610b8791859182169063a9059cbb906064015b604051602081830303815290604052915060e01b6020820180516001600160e01b038381831617835250505050610e00565b505050565b610b878383836001610e61565b6001600160a01b038381165f908152600160209081526040808320938616835292905220545f198114610c0e5781811015610c0057604051637dc7a0d960e11b81526001600160a01b03841660048201526024810182905260448101839052606401610340565b610c0e84848484035f610e61565b50505050565b6001600160a01b038316610c3d57604051634b637e8f60e11b81525f6004820152602401610340565b6001600160a01b038216610c665760405163ec442f0560e01b81525f6004820152602401610340565b610b87838383610cda565b6040516001600160a01b038481166024830152838116604483015260648201839052610c0e9186918216906323b872dd90608401610b55565b6001600160a01b038216610cd35760405163ec442f0560e01b81525f6004820152602401610340565b610b245f83835b6001600160a01b038316610d04578060025f828254610cf99190611228565b90915550610d749050565b6001600160a01b0383165f9081526020819052604090205481811015610d565760405163391434e360e21b81526001600160a01b03851660048201526024810182905260448101839052606401610340565b6001600160a01b0384165f9081526020819052604090209082900390555b6001600160a01b038216610d9057600280548290039055610dae565b6001600160a01b0382165f9081526020819052604090208054820190555b816001600160a01b0316836001600160a01b03167fddf252ad1be2c89b69c2b068fc378daa952ba7f163c4a11628f55a4df523b3ef83604051610df391815260200190565b60405180910390a3505050565b5f610e146001600160a01b03841683610f33565b905080515f14158015610e38575080806020019051810190610e369190611209565b155b15610b8757604051635274afe760e01b81526001600160a01b0384166004820152602401610340565b6001600160a01b038416610e8a5760405163e602df0560e01b81525f6004820152602401610340565b6001600160a01b038316610eb357604051634a1406b160e11b81525f6004820152602401610340565b6001600160a01b038085165f9081526001602090815260408083209387168352929052208290558015610c0e57826001600160a01b0316846001600160a01b03167f8c5be1e5ebec7d5bd14f71427d1e84f3dd0314c0f7b2291e5b200ac8c7c3b92584604051610f2591815260200190565b60405180910390a350505050565b60606106e383835f845f80856001600160a01b03168486604051610f57919061123b565b5f6040518083038185875af1925050503d805f8114610f91576040519150601f19603f3d011682016040523d82523d5f602084013e610f96565b606091505b5091509150610fa6868383610fb0565b9695505050505050565b606082610fc557610fc08261100c565b6106e3565b8151158015610fdc57506001600160a01b0384163b155b1561100557604051639996b31560e01b81526001600160a01b0385166004820152602401610340565b50806106e3565b80511561101c5780518082602001fd5b604051630a12f52160e11b815260040160405180910390fd5b80356001600160a01b038116811461104b575f80fd5b919050565b5f8060408385031215611061575f80fd5b8235915061107160208401611035565b90509250929050565b5f5b8381101561109457818101518382015260200161107c565b50505f910152565b602081525f82518060208401526110ba81604085016020870161107a565b601f01601f19169190910160400192915050565b5f80604083850312156110df575f80fd5b6110e883611035565b946020939093013593505050565b5f805f60608486031215611108575f80fd5b61111184611035565b925061111f60208501611035565b9150604084013590509250925092565b5f6020828403121561113f575f80fd5b6106e382611035565b5f8060408385031215611159575f80fd5b61116283611035565b915061107160208401611035565b634e487b7160e01b5f52601160045260245ffd5b80820281158282048414176106bf576106bf611170565b5f826111b557634e487b7160e01b5f52601260045260245ffd5b500490565b5f602082840312156111ca575f80fd5b5051919050565b600181811c908216806111e557607f821691505b60208210810361120357634e487b7160e01b5f52602260045260245ffd5b50919050565b5f60208284031215611219575f80fd5b815180151581146106e3575f80fd5b808201808211156106bf576106bf611170565b5f825161124c81846020870161107a565b919091019291505056fea26469706673582212202313f2a0afe9c487c801e0b46b766bbebed60b2ab4d8c9b1c5c31f80d134a2d364736f6c63430008180033","linkReferences":{}},"methodIdentifiers":{"allowance(address,address)":"dd62ed3e","approve(address,uint256)":"095ea7b3","asset()":"38d52e0f","balanceOf(address)":"70a08231","comet()":"ba3e9c12","decimals()":"313ce567","deposit(uint256,address)":"6e553f65","name()":"06fdde03","symbol()":"95d89b41","totalAssets()":"01e1d114","totalSupply()":"18160ddd","transfer(address,uint256)":"a9059cbb","transferFrom(address,address,uint256)":"23b872dd","usdc()":"3e413bee","vault()":"fbfa77cf","withdraw(uint256,address)":"00f714ce"},"id":6}