{"abi":[{"type":"constructor","inputs":[{"name":"_owner","type":"address","internalType":"address"},{"name":"_vault","type":"address","internalType":"address"},{"name":"_novis","type":"address","internalType":"address"},{"name":"_usdc","type":"address","internalType":"address"},{"name":"_router","type":"address","internalType":"address"},{"name":"_factory","type":"address","internalType":"address"},{"name":"_treasury","type":"address","internalType":"address"}],"stateMutability":"nonpayable"},{"type":"function","name":"BPS_DENOMINATOR","inputs":[],"outputs":[{"name":"","type":"uint16","internalType":"uint16"}],"stateMutability":"view"},{"type":"function","name":"allocate","inputs":[{"name":"amount","type":"uint256","internalType":"uint256"}],"outputs":[],"stateMutability":"nonpayable"},{"type":"function","name":"backingBps","inputs":[],"outputs":[{"name":"","type":"uint256","internalType":"uint256"}],"stateMutability":"view"},{"type":"function","name":"bufferBps","inputs":[],"outputs":[{"name":"","type":"uint256","internalType":"uint256"}],"stateMutability":"view"},{"type":"function","name":"bufferUSDC","inputs":[],"outputs":[{"name":"buffer","type":"uint256","internalType":"uint256"},{"name":"theoreticalUSDC","type":"uint256","internalType":"uint256"}],"stateMutability":"view"},{"type":"function","name":"buyAndBurn","inputs":[{"name":"usdcAmount","type":"uint256","internalType":"uint256"},{"name":"minNovisOut","type":"uint256","internalType":"uint256"}],"outputs":[],"stateMutability":"nonpayable"},{"type":"function","name":"buyAndBurnEnabled","inputs":[],"outputs":[{"name":"","type":"bool","internalType":"bool"}],"stateMutability":"view"},{"type":"function","name":"canBuyAndBurn","inputs":[],"outputs":[{"name":"","type":"bool","internalType":"bool"}],"stateMutability":"view"},{"type":"function","name":"cooldown","inputs":[],"outputs":[{"name":"","type":"uint32","internalType":"uint32"}],"stateMutability":"view"},{"type":"function","name":"deallocate","inputs":[{"name":"shares","type":"uint256","internalType":"uint256"}],"outputs":[],"stateMutability":"nonpayable"},{"type":"function","name":"exec","inputs":[{"name":"target","type":"address","internalType":"address"},{"name":"value","type":"uint256","internalType":"uint256"},{"name":"data","type":"bytes","internalType":"bytes"}],"outputs":[{"name":"","type":"bytes","internalType":"bytes"}],"stateMutability":"nonpayable"},{"type":"function","name":"factory","inputs":[],"outputs":[{"name":"","type":"address","internalType":"address"}],"stateMutability":"view"},{"type":"function","name":"guardian","inputs":[],"outputs":[{"name":"","type":"address","internalType":"address"}],"stateMutability":"view"},{"type":"function","name":"lastBuyAndBurn","inputs":[],"outputs":[{"name":"","type":"uint256","internalType":"uint256"}],"stateMutability":"view"},{"type":"function","name":"maxBuyAndBurnUSDC","inputs":[],"outputs":[{"name":"","type":"uint256","internalType":"uint256"}],"stateMutability":"view"},{"type":"function","name":"maxBuyBps","inputs":[],"outputs":[{"name":"","type":"uint16","internalType":"uint16"}],"stateMutability":"view"},{"type":"function","name":"novis","inputs":[],"outputs":[{"name":"","type":"address","internalType":"contract INOVIS"}],"stateMutability":"view"},{"type":"function","name":"owner","inputs":[],"outputs":[{"name":"","type":"address","internalType":"address"}],"stateMutability":"view"},{"type":"function","name":"rescueToken","inputs":[{"name":"token","type":"address","internalType":"address"},{"name":"amount","type":"uint256","internalType":"uint256"}],"outputs":[],"stateMutability":"nonpayable"},{"type":"function","name":"router","inputs":[],"outputs":[{"name":"","type":"address","internalType":"contract IAerodromeRouter"}],"stateMutability":"view"},{"type":"function","name":"setBuyAndBurnParams","inputs":[{"name":"_triggerBufferBps","type":"uint16","internalType":"uint16"},{"name":"_maxBuyBps","type":"uint16","internalType":"uint16"},{"name":"_cooldown","type":"uint32","internalType":"uint32"},{"name":"_treasuryFeeBps","type":"uint16","internalType":"uint16"}],"outputs":[],"stateMutability":"nonpayable"},{"type":"function","name":"setGuardian","inputs":[{"name":"_guardian","type":"address","internalType":"address"}],"outputs":[],"stateMutability":"nonpayable"},{"type":"function","name":"setOwner","inputs":[{"name":"_owner","type":"address","internalType":"address"}],"outputs":[],"stateMutability":"nonpayable"},{"type":"function","name":"setPoolType","inputs":[{"name":"_stable","type":"bool","internalType":"bool"}],"outputs":[],"stateMutability":"nonpayable"},{"type":"function","name":"setTreasury","inputs":[{"name":"_treasury","type":"address","internalType":"address"}],"outputs":[],"stateMutability":"nonpayable"},{"type":"function","name":"stable","inputs":[],"outputs":[{"name":"","type":"bool","internalType":"bool"}],"stateMutability":"view"},{"type":"function","name":"toggleBuyAndBurn","inputs":[{"name":"_enabled","type":"bool","internalType":"bool"}],"outputs":[],"stateMutability":"nonpayable"},{"type":"function","name":"treasury","inputs":[],"outputs":[{"name":"","type":"address","internalType":"address"}],"stateMutability":"view"},{"type":"function","name":"treasuryFeeBps","inputs":[],"outputs":[{"name":"","type":"uint16","internalType":"uint16"}],"stateMutability":"view"},{"type":"function","name":"triggerBufferBps","inputs":[],"outputs":[{"name":"","type":"uint16","internalType":"uint16"}],"stateMutability":"view"},{"type":"function","name":"usdc","inputs":[],"outputs":[{"name":"","type":"address","internalType":"contract IERC20"}],"stateMutability":"view"},{"type":"function","name":"vault","inputs":[],"outputs":[{"name":"","type":"address","internalType":"contract IVaultV2"}],"stateMutability":"view"},{"type":"event","name":"BuyAndBurn","inputs":[{"name":"caller","type":"address","indexed":true,"internalType":"address"},{"name":"usdcSpent","type":"uint256","indexed":false,"internalType":"uint256"},{"name":"novisBurned","type":"uint256","indexed":false,"internalType":"uint256"},{"name":"treasuryFee","type":"uint256","indexed":false,"internalType":"uint256"},{"name":"newBackingBps","type":"uint256","indexed":false,"internalType":"uint256"}],"anonymous":false},{"type":"event","name":"BuyAndBurnParamsSet","inputs":[{"name":"triggerBps","type":"uint16","indexed":false,"internalType":"uint16"},{"name":"maxBuyBps","type":"uint16","indexed":false,"internalType":"uint16"},{"name":"cooldown","type":"uint32","indexed":false,"internalType":"uint32"},{"name":"treasuryFeeBps","type":"uint16","indexed":false,"internalType":"uint16"}],"anonymous":false},{"type":"event","name":"BuyAndBurnToggled","inputs":[{"name":"enabled","type":"bool","indexed":false,"internalType":"bool"}],"anonymous":false},{"type":"event","name":"GuardianSet","inputs":[{"name":"newGuardian","type":"address","indexed":true,"internalType":"address"}],"anonymous":false},{"type":"event","name":"OwnerSet","inputs":[{"name":"newOwner","type":"address","indexed":true,"internalType":"address"}],"anonymous":false},{"type":"event","name":"TreasurySet","inputs":[{"name":"newTreasury","type":"address","indexed":true,"internalType":"address"}],"anonymous":false},{"type":"error","name":"AddressEmptyCode","inputs":[{"name":"target","type":"address","internalType":"address"}]},{"type":"error","name":"AddressInsufficientBalance","inputs":[{"name":"account","type":"address","internalType":"address"}]},{"type":"error","name":"FailedInnerCall","inputs":[]},{"type":"error","name":"SafeERC20FailedOperation","inputs":[{"name":"token","type":"address","internalType":"address"}]}],"bytecode":{"object":"0x61012060405234801562000011575f80fd5b506040516200216938038062002169833981016040819052620000349162000288565b6001600160a01b0387166200007d5760405162461bcd60e51b815260206004820152600a6024820152696f776e6572207a65726f60b01b60448201526064015b60405180910390fd5b6001600160a01b038616620000c25760405162461bcd60e51b815260206004820152600a6024820152697661756c74207a65726f60b01b604482015260640162000074565b6001600160a01b038516620001075760405162461bcd60e51b815260206004820152600a6024820152696e6f766973207a65726f60b01b604482015260640162000074565b6001600160a01b0384166200014b5760405162461bcd60e51b815260206004820152600960248201526875736463207a65726f60b81b604482015260640162000074565b6001600160a01b038316620001915760405162461bcd60e51b815260206004820152600b60248201526a726f75746572207a65726f60a81b604482015260640162000074565b6001600160a01b038216620001d85760405162461bcd60e51b815260206004820152600c60248201526b666163746f7279207a65726f60a01b604482015260640162000074565b5f80546001600160a01b0319166001600160a01b0398891617905594861660805292851660a05290841660c052831660e0528216610100526003805460018054600160a01b600160e01b031916652a300271007d60a31b17815562010000600160c01b031990911662010000939094169290920261ffff60b01b191692909217607d60b31b1761ffff191617905562000318565b80516001600160a01b038116811462000283575f80fd5b919050565b5f805f805f805f60e0888a0312156200029f575f80fd5b620002aa886200026c565b9650620002ba602089016200026c565b9550620002ca604089016200026c565b9450620002da606089016200026c565b9350620002ea608089016200026c565b9250620002fa60a089016200026c565b91506200030a60c089016200026c565b905092959891949750929550565b60805160a05160c05160e05161010051611d80620003e95f395f81816104100152610f0b01525f81816104ae01528181610da50152610f5e01525f81816102cb0152818161075701528181610bdd01528181610ce201528181610d5f01528181610dd40152610e9601525f818161028c01528181610794015281816108a501528181610ec50152818161107201526112bc01525f81816104d50152818161082201528181610bb001528181610c7401528181610d040152818161117001528181611239015261141d0152611d805ff3fe608060405234801561000f575f80fd5b50600436106101e7575f3560e01c80638a0dac4a11610109578063cac71bb61161009e578063edc8b8e51161006e578063edc8b8e514610481578063f0f4426014610496578063f887ea40146104a9578063fbfa77cf146104d0575f80fd5b8063cac71bb614610432578063dfb3f51a1461043b578063e1a4521814610463578063e80cfa5e1461046c575f80fd5b8063a6b857d0116100d9578063a6b857d0146103ee578063ab5ab48c146103fb578063c37b633714610403578063c45a01551461040b575f80fd5b80638a0dac4a146103a35780638da5cb5b146103b657806390ca796b146103c85780639b96b424146103db575f80fd5b8063452a93201161017f5780636f6c441f1161014f5780636f6c441f1461033f578063787a08a614610352578063820dfa0a1461037e57806389b968dc14610386575f80fd5b8063452a9320146102ed57806361d027b31461030057806362ab6ea114610319578063670cdc4f1461032c575f80fd5b806333f3d628116101ba57806333f3d6281461025e578063361094551461027157806337eb4f8f146102875780633e413bee146102c6575f80fd5b80630565bb67146101eb57806309ad7cad1461021457806313af40351461022957806322be3de11461023c575b5f80fd5b6101fe6101f93660046118f6565b6104f7565b60405161020b9190611998565b60405180910390f35b6102276102223660046119d7565b6105d2565b005b6102276102373660046119f2565b61067d565b60035461024e90610100900460ff1681565b604051901515815260200161020b565b61022761026c366004611a0b565b61072c565b61027961081e565b60405190815260200161020b565b6102ae7f000000000000000000000000000000000000000000000000000000000000000081565b6040516001600160a01b03909116815260200161020b565b6102ae7f000000000000000000000000000000000000000000000000000000000000000081565b6001546102ae906001600160a01b031681565b6003546102ae906201000090046001600160a01b031681565b6102276103273660046119d7565b610975565b61022761033a366004611a33565b6109b8565b61022761034d366004611a53565b611131565b60015461036990600160c01b900463ffffffff1681565b60405163ffffffff909116815260200161020b565b61024e6111d3565b61038e611234565b6040805192835260208301919091520161020b565b6102276103b13660046119f2565b61136c565b5f546102ae906001600160a01b031681565b6102276103d6366004611a53565b6113de565b6102276103e9366004611a7b565b611454565b60035461024e9060ff1681565b6102796115c0565b6102796115fa565b6102ae7f000000000000000000000000000000000000000000000000000000000000000081565b61027960025481565b60015461045090600160b01b900461ffff1681565b60405161ffff909116815260200161020b565b61045061271081565b60035461045090600160b01b900461ffff1681565b60015461045090600160a01b900461ffff1681565b6102276104a43660046119f2565b611622565b6102ae7f000000000000000000000000000000000000000000000000000000000000000081565b6102ae7f000000000000000000000000000000000000000000000000000000000000000081565b5f546060906001600160a01b0316331461052c5760405162461bcd60e51b815260040161052390611ad6565b60405180910390fd5b5f80866001600160a01b0316868686604051610549929190611afa565b5f6040518083038185875af1925050503d805f8114610583576040519150601f19603f3d011682016040523d82523d5f602084013e610588565b606091505b5091509150816105c85760405162461bcd60e51b815260206004820152600b60248201526a195e1958c819985a5b195960aa1b6044820152606401610523565b9695505050505050565b5f546001600160a01b03163314806105f457506001546001600160a01b031633145b6106365760405162461bcd60e51b815260206004820152601360248201527237b7363c9033bab0b93234b0b717b7bbb732b960691b6044820152606401610523565b6003805460ff19168215159081179091556040519081527fa2f7bdae623c9dd6f7d6e7aed0b764cf282f9b80768c00582bfad352f04fd7e69060200160405180910390a150565b5f546001600160a01b031633146106a65760405162461bcd60e51b815260040161052390611ad6565b6001600160a01b0381166106e55760405162461bcd60e51b8152600401610523906020808252600490820152637a65726f60e01b604082015260600190565b5f80546001600160a01b0319166001600160a01b038316908117825560405190917f50146d0e3c60aa1d17a70635b05494f864e86144a2201275021014fbf08bafe291a250565b5f546001600160a01b031633146107555760405162461bcd60e51b815260040161052390611ad6565b7f00000000000000000000000000000000000000000000000000000000000000006001600160a01b0316826001600160a01b0316141580156107c957507f00000000000000000000000000000000000000000000000000000000000000006001600160a01b0316826001600160a01b031614155b6108015760405162461bcd60e51b81526020600482015260096024820152681c1c9bdd1958dd195960ba1b6044820152606401610523565b5f5461081a906001600160a01b0384811691168361169e565b5050565b5f807f00000000000000000000000000000000000000000000000000000000000000006001600160a01b031663ef2046a76040518163ffffffff1660e01b8152600401602060405180830381865afa15801561087c573d5f803e3d5ffd5b505050506040513d601f19601f820116820180604052508101906108a09190611b09565b90505f7f00000000000000000000000000000000000000000000000000000000000000006001600160a01b03166318160ddd6040518163ffffffff1660e01b8152600401602060405180830381865afa1580156108ff573d5f803e3d5ffd5b505050506040513d601f19601f820116820180604052508101906109239190611b09565b9050805f03610934575f9250505090565b5f61094464e8d4a5100083611b34565b9050805f03610956575f935050505090565b8061096361271085611b53565b61096d9190611b34565b935050505090565b5f546001600160a01b0316331461099e5760405162461bcd60e51b815260040161052390611ad6565b600380549115156101000261ff0019909216919091179055565b60035460ff166109f55760405162461bcd60e51b8152602060048201526008602482015267191a5cd8589b195960c21b6044820152606401610523565b600154600160a01b900461ffff16610a0b6115fa565b1015610a4a5760405162461bcd60e51b815260206004820152600e60248201526d62756666657220746f6f206c6f7760901b6044820152606401610523565b600154600254610a6791600160c01b900463ffffffff1690611b6a565b421015610aa15760405162461bcd60e51b815260206004820152600860248201526731b7b7b63237bbb760c11b6044820152606401610523565b5f8211610ade5760405162461bcd60e51b815260206004820152600b60248201526a616d6f756e74207a65726f60a81b6044820152606401610523565b5f8111610b1b5760405162461bcd60e51b815260206004820152600b60248201526a6d696e4f7574207a65726f60a81b6044820152606401610523565b5f610b246115c0565b905080831115610b645760405162461bcd60e51b815260206004820152600b60248201526a0caf0c6cacac8e640dac2f60ab1b6044820152606401610523565b6003545f9061271090610b8290600160b01b900461ffff1686611b53565b610b8c9190611b34565b90505f610b998286611b7d565b6040516370a0823160e01b81526001600160a01b037f0000000000000000000000000000000000000000000000000000000000000000811660048301529192505f917f000000000000000000000000000000000000000000000000000000000000000016906370a0823190602401602060405180830381865afa158015610c22573d5f803e3d5ffd5b505050506040513d601f19601f82011682018060405250810190610c469190611b09565b905085811015610cd5575f610c5b8288611b7d565b604051636f6c441f60e01b8152600481018290529091507f00000000000000000000000000000000000000000000000000000000000000006001600160a01b031690636f6c441f906024015f604051808303815f87803b158015610cbd575f80fd5b505af1158015610ccf573d5f803e3d5ffd5b50505050505b610d2a6001600160a01b037f0000000000000000000000000000000000000000000000000000000000000000167f00000000000000000000000000000000000000000000000000000000000000003089611702565b5f83118015610d4957506003546201000090046001600160a01b031615155b15610d8e57600354610d8e906001600160a01b037f0000000000000000000000000000000000000000000000000000000000000000811691620100009004168561169e565b60405163095ea7b360e01b81526001600160a01b037f000000000000000000000000000000000000000000000000000000000000000081166004830152602482018490527f0000000000000000000000000000000000000000000000000000000000000000169063095ea7b3906044016020604051808303815f875af1158015610e1a573d5f803e3d5ffd5b505050506040513d601f19601f82011682018060405250810190610e3e9190611b90565b506040805160018082528183019092525f91816020015b604080516080810182525f8082526020808301829052928201819052606082015282525f19909201910181610e5557905050905060405180608001604052807f00000000000000000000000000000000000000000000000000000000000000006001600160a01b031681526020017f00000000000000000000000000000000000000000000000000000000000000006001600160a01b03168152602001600360019054906101000a900460ff16151581526020017f00000000000000000000000000000000000000000000000000000000000000006001600160a01b0316815250815f81518110610f4857610f48611bbf565b60209081029190910101525f6001600160a01b037f00000000000000000000000000000000000000000000000000000000000000001663cac88ea985898530610f9342610258611b6a565b6040518663ffffffff1660e01b8152600401610fb3959493929190611bd3565b5f604051808303815f875af1158015610fce573d5f803e3d5ffd5b505050506040513d5f823e601f3d908101601f19168201604052610ff59190810190611c76565b90505f81600183516110079190611b7d565b8151811061101757611017611bbf565b602002602001015190508781101561105c5760405162461bcd60e51b8152602060048201526008602482015267736c69707061676560c01b6044820152606401610523565b604051630852cd8d60e31b8152600481018290527f00000000000000000000000000000000000000000000000000000000000000006001600160a01b0316906342966c68906024015f604051808303815f87803b1580156110bb575f80fd5b505af11580156110cd573d5f803e3d5ffd5b505042600255503390507f43d5ca07d16cb34153ec6a6da0a7d227c02bd8d588f899c1195cf377bf2db0aa8a838961110361081e565b60408051948552602085019390935291830152606082015260800160405180910390a2505050505050505050565b5f546001600160a01b0316331461115a5760405162461bcd60e51b815260040161052390611ad6565b604051636f6c441f60e01b8152600481018290527f00000000000000000000000000000000000000000000000000000000000000006001600160a01b031690636f6c441f906024015b5f604051808303815f87803b1580156111ba575f80fd5b505af11580156111cc573d5f803e3d5ffd5b5050505050565b6003545f9060ff166111e457505f90565b600154600160a01b900461ffff166111fa6115fa565b101561120557505f90565b60015460025461122291600160c01b900463ffffffff1690611b6a565b42101561122e57505f90565b50600190565b5f805f7f00000000000000000000000000000000000000000000000000000000000000006001600160a01b031663ef2046a76040518163ffffffff1660e01b8152600401602060405180830381865afa158015611293573d5f803e3d5ffd5b505050506040513d601f19601f820116820180604052508101906112b79190611b09565b90505f7f00000000000000000000000000000000000000000000000000000000000000006001600160a01b03166318160ddd6040518163ffffffff1660e01b8152600401602060405180830381865afa158015611316573d5f803e3d5ffd5b505050506040513d601f19601f8201168201806040525081019061133a9190611b09565b905061134b64e8d4a5100082611b34565b925082821161135a575f611364565b6113648383611b7d565b935050509091565b5f546001600160a01b031633146113955760405162461bcd60e51b815260040161052390611ad6565b600180546001600160a01b0319166001600160a01b0383169081179091556040517fe6c09ffe4572dc9ceaa5ddde4ae41befa655d6fdfe8052077af0970f700e942e905f90a250565b5f546001600160a01b031633146114075760405162461bcd60e51b815260040161052390611ad6565b6040516390ca796b60e01b8152600481018290527f00000000000000000000000000000000000000000000000000000000000000006001600160a01b0316906390ca796b906024016111a3565b5f546001600160a01b0316331461147d5760405162461bcd60e51b815260040161052390611ad6565b61271061ffff841611156114c35760405162461bcd60e51b815260206004820152600d60248201526c6d6178427579203e203130302560981b6044820152606401610523565b61271061ffff821611156115065760405162461bcd60e51b815260206004820152600a602482015269666565203e203130302560b01b6044820152606401610523565b6001805463ffffffff8416600160c01b810263ffffffff60c01b1961ffff888116600160b01b81810261ffff60b01b198d8516600160a01b8102821663ffffffff60a01b19909a169990991791909117949094169490941790965560038054918816938402919092161790556040805193845260208401949094529282015260608101919091527f91c0c2c2d9150eb3e29ecdfccec5464578627d4cdb21e04eabbde045de798c589060800160405180910390a150505050565b5f806115ca611234565b50600154909150612710906115ea90600160b01b900461ffff1683611b53565b6115f49190611b34565b91505090565b5f8061160461081e565b90506127108111611616575f91505090565b6115f461271082611b7d565b5f546001600160a01b0316331461164b5760405162461bcd60e51b815260040161052390611ad6565b6003805462010000600160b01b031916620100006001600160a01b038416908102919091179091556040517f3c864541ef71378c6229510ed90f376565ee42d9c5e0904a984a9e863e6db44f905f90a250565b6040516001600160a01b038381166024830152604482018390526116fd91859182169063a9059cbb906064015b604051602081830303815290604052915060e01b6020820180516001600160e01b038381831617835250505050611741565b505050565b6040516001600160a01b03848116602483015283811660448301526064820183905261173b9186918216906323b872dd906084016116cb565b50505050565b5f6117556001600160a01b038416836117a2565b905080515f141580156117795750808060200190518101906117779190611b90565b155b156116fd57604051635274afe760e01b81526001600160a01b0384166004820152602401610523565b60606117af83835f6117b8565b90505b92915050565b6060814710156117dd5760405163cd78605960e01b8152306004820152602401610523565b5f80856001600160a01b031684866040516117f89190611d2f565b5f6040518083038185875af1925050503d805f8114611832576040519150601f19603f3d011682016040523d82523d5f602084013e611837565b606091505b5091509150611847868383611853565b925050505b9392505050565b60608261186857611863826118af565b61184c565b815115801561187f57506001600160a01b0384163b155b156118a857604051639996b31560e01b81526001600160a01b0385166004820152602401610523565b508061184c565b8051156118bf5780518082602001fd5b604051630a12f52160e11b815260040160405180910390fd5b50565b80356001600160a01b03811681146118f1575f80fd5b919050565b5f805f8060608587031215611909575f80fd5b611912856118db565b935060208501359250604085013567ffffffffffffffff80821115611935575f80fd5b818701915087601f830112611948575f80fd5b813581811115611956575f80fd5b886020828501011115611967575f80fd5b95989497505060200194505050565b5f5b83811015611990578181015183820152602001611978565b50505f910152565b602081525f82518060208401526119b6816040850160208701611976565b601f01601f19169190910160400192915050565b80151581146118d8575f80fd5b5f602082840312156119e7575f80fd5b813561184c816119ca565b5f60208284031215611a02575f80fd5b6117af826118db565b5f8060408385031215611a1c575f80fd5b611a25836118db565b946020939093013593505050565b5f8060408385031215611a44575f80fd5b50508035926020909101359150565b5f60208284031215611a63575f80fd5b5035919050565b803561ffff811681146118f1575f80fd5b5f805f8060808587031215611a8e575f80fd5b611a9785611a6a565b9350611aa560208601611a6a565b9250604085013563ffffffff81168114611abd575f80fd5b9150611acb60608601611a6a565b905092959194509250565b6020808252600a908201526937b7363c9037bbb732b960b11b604082015260600190565b818382375f9101908152919050565b5f60208284031215611b19575f80fd5b5051919050565b634e487b7160e01b5f52601160045260245ffd5b5f82611b4e57634e487b7160e01b5f52601260045260245ffd5b500490565b80820281158282048414176117b2576117b2611b20565b808201808211156117b2576117b2611b20565b818103818111156117b2576117b2611b20565b5f60208284031215611ba0575f80fd5b815161184c816119ca565b634e487b7160e01b5f52604160045260245ffd5b634e487b7160e01b5f52603260045260245ffd5b5f60a082018783526020876020850152604060a0604086015282885180855260c08701915060208a0194505f5b81811015611c4a57855180516001600160a01b0390811685528682015181168786015285820151151586860152606091820151169084015294840194608090920191600101611c00565b50506001600160a01b03881660608701529350611c6692505050565b8260808301529695505050505050565b5f6020808385031215611c87575f80fd5b825167ffffffffffffffff80821115611c9e575f80fd5b818501915085601f830112611cb1575f80fd5b815181811115611cc357611cc3611bab565b8060051b604051601f19603f83011681018181108582111715611ce857611ce8611bab565b604052918252848201925083810185019188831115611d05575f80fd5b938501935b82851015611d2357845184529385019392850192611d0a565b98975050505050505050565b5f8251611d40818460208701611976565b919091019291505056fea2646970667358221220993b0314f7c88717879e70d40dc85a9f1420a84bd2bc19f2aad4a3d2df13548164736f6c63430008180033","linkReferences":{}},"methodIdentifiers":{"BPS_DENOMINATOR()":"e1a45218","allocate(uint256)":"90ca796b","backingBps()":"36109455","bufferBps()":"c37b6337","bufferUSDC()":"89b968dc","buyAndBurn(uint256,uint256)":"670cdc4f","buyAndBurnEnabled()":"a6b857d0","canBuyAndBurn()":"820dfa0a","cooldown()":"787a08a6","deallocate(uint256)":"6f6c441f","exec(address,uint256,bytes)":"0565bb67","factory()":"c45a0155","guardian()":"452a9320","lastBuyAndBurn()":"cac71bb6","maxBuyAndBurnUSDC()":"ab5ab48c","maxBuyBps()":"dfb3f51a","novis()":"37eb4f8f","owner()":"8da5cb5b","rescueToken(address,uint256)":"33f3d628","router()":"f887ea40","setBuyAndBurnParams(uint16,uint16,uint32,uint16)":"9b96b424","setGuardian(address)":"8a0dac4a","setOwner(address)":"13af4035","setPoolType(bool)":"62ab6ea1","setTreasury(address)":"f0f44260","stable()":"22be3de1","toggleBuyAndBurn(bool)":"09ad7cad","treasury()":"61d027b3","treasuryFeeBps()":"e80cfa5e","triggerBufferBps()":"edc8b8e5","usdc()":"3e413bee","vault()":"fbfa77cf"},"id":84}