{"abi":[{"type":"constructor","inputs":[{"name":"_owner","type":"address","internalType":"address"},{"name":"_vault","type":"address","internalType":"address"},{"name":"_eusd","type":"address","internalType":"address"},{"name":"_usdc","type":"address","internalType":"address"},{"name":"_strategy","type":"address","internalType":"address"}],"stateMutability":"nonpayable"},{"type":"function","name":"dailyAllocCap","inputs":[],"outputs":[{"name":"","type":"uint256","internalType":"uint256"}],"stateMutability":"view"},{"type":"function","name":"dailyDeallocCap","inputs":[],"outputs":[{"name":"","type":"uint256","internalType":"uint256"}],"stateMutability":"view"},{"type":"function","name":"eusd","inputs":[],"outputs":[{"name":"","type":"address","internalType":"address"}],"stateMutability":"view"},{"type":"function","name":"exec","inputs":[{"name":"target","type":"address","internalType":"address"},{"name":"value","type":"uint256","internalType":"uint256"},{"name":"data","type":"bytes","internalType":"bytes"}],"outputs":[{"name":"","type":"bytes","internalType":"bytes"}],"stateMutability":"nonpayable"},{"type":"function","name":"guardian","inputs":[],"outputs":[{"name":"","type":"address","internalType":"address"}],"stateMutability":"view"},{"type":"function","name":"lowerBps","inputs":[],"outputs":[{"name":"","type":"uint256","internalType":"uint256"}],"stateMutability":"view"},{"type":"function","name":"maxAllocPerTx","inputs":[],"outputs":[{"name":"","type":"uint256","internalType":"uint256"}],"stateMutability":"view"},{"type":"function","name":"maxDeallocPerTx","inputs":[],"outputs":[{"name":"","type":"uint256","internalType":"uint256"}],"stateMutability":"view"},{"type":"function","name":"owner","inputs":[],"outputs":[{"name":"","type":"address","internalType":"address"}],"stateMutability":"view"},{"type":"function","name":"setDailyCaps","inputs":[{"name":"_allocCap","type":"uint256","internalType":"uint256"},{"name":"_deallocCap","type":"uint256","internalType":"uint256"}],"outputs":[],"stateMutability":"nonpayable"},{"type":"function","name":"setEusd","inputs":[{"name":"_eusd","type":"address","internalType":"address"}],"outputs":[],"stateMutability":"nonpayable"},{"type":"function","name":"setGuardian","inputs":[{"name":"_guardian","type":"address","internalType":"address"}],"outputs":[],"stateMutability":"nonpayable"},{"type":"function","name":"setOwner","inputs":[{"name":"_owner","type":"address","internalType":"address"}],"outputs":[],"stateMutability":"nonpayable"},{"type":"function","name":"setParams","inputs":[{"name":"_targetBps","type":"uint256","internalType":"uint256"},{"name":"_upperBps","type":"uint256","internalType":"uint256"},{"name":"_lowerBps","type":"uint256","internalType":"uint256"}],"outputs":[],"stateMutability":"nonpayable"},{"type":"function","name":"setStrategy","inputs":[{"name":"_strategy","type":"address","internalType":"address"}],"outputs":[],"stateMutability":"nonpayable"},{"type":"function","name":"setTxCaps","inputs":[{"name":"_maxAllocPerTx","type":"uint256","internalType":"uint256"},{"name":"_maxDeallocPerTx","type":"uint256","internalType":"uint256"}],"outputs":[],"stateMutability":"nonpayable"},{"type":"function","name":"setUsdc","inputs":[{"name":"_usdc","type":"address","internalType":"address"}],"outputs":[],"stateMutability":"nonpayable"},{"type":"function","name":"setVault","inputs":[{"name":"_vault","type":"address","internalType":"address"}],"outputs":[],"stateMutability":"nonpayable"},{"type":"function","name":"strategy","inputs":[],"outputs":[{"name":"","type":"address","internalType":"address"}],"stateMutability":"view"},{"type":"function","name":"targetBps","inputs":[],"outputs":[{"name":"","type":"uint256","internalType":"uint256"}],"stateMutability":"view"},{"type":"function","name":"upperBps","inputs":[],"outputs":[{"name":"","type":"uint256","internalType":"uint256"}],"stateMutability":"view"},{"type":"function","name":"usdc","inputs":[],"outputs":[{"name":"","type":"address","internalType":"address"}],"stateMutability":"view"},{"type":"function","name":"vault","inputs":[],"outputs":[{"name":"","type":"address","internalType":"address"}],"stateMutability":"view"},{"type":"event","name":"DailyCapsSet","inputs":[{"name":"allocCap","type":"uint256","indexed":false,"internalType":"uint256"},{"name":"deallocCap","type":"uint256","indexed":false,"internalType":"uint256"}],"anonymous":false},{"type":"event","name":"GuardianSet","inputs":[{"name":"newGuardian","type":"address","indexed":true,"internalType":"address"}],"anonymous":false},{"type":"event","name":"OwnerSet","inputs":[{"name":"newOwner","type":"address","indexed":true,"internalType":"address"}],"anonymous":false},{"type":"event","name":"ParamsSet","inputs":[{"name":"target","type":"uint256","indexed":false,"internalType":"uint256"},{"name":"upper","type":"uint256","indexed":false,"internalType":"uint256"},{"name":"lower","type":"uint256","indexed":false,"internalType":"uint256"}],"anonymous":false},{"type":"event","name":"TxCapsSet","inputs":[{"name":"maxAlloc","type":"uint256","indexed":false,"internalType":"uint256"},{"name":"maxDealloc","type":"uint256","indexed":false,"internalType":"uint256"}],"anonymous":false},{"type":"event","name":"WiringUpdated","inputs":[{"name":"vault","type":"address","indexed":false,"internalType":"address"},{"name":"eusd","type":"address","indexed":false,"internalType":"address"},{"name":"usdc","type":"address","indexed":false,"internalType":"address"},{"name":"strategy","type":"address","indexed":false,"internalType":"address"}],"anonymous":false}],"bytecode":{"object":"0x608060405234801561000f575f80fd5b50604051610b7e380380610b7e83398101604081905261002e9161011f565b5f80546001600160a01b03199081166001600160a01b038881169182178455600280548416898316179055600380548416888316179055600480548416878316179055600580549093169085161790915560405190917f50146d0e3c60aa1d17a70635b05494f864e86144a2201275021014fbf08bafe291a2604080516001600160a01b0386811682528581166020830152848116828401528316606082015290517f4fe18a0dfbcf95df0aa389046b0da47b3fb5a059dca002f935c1c41f986dcaa89181900360800190a15050505050610180565b80516001600160a01b038116811461011a575f80fd5b919050565b5f805f805f60a08688031215610133575f80fd5b61013c86610104565b945061014a60208701610104565b935061015860408701610104565b925061016660608701610104565b915061017460808701610104565b90509295509295909350565b6109f18061018d5f395ff3fe608060405234801561000f575f80fd5b5060043610610148575f3560e01c80637d9efce6116100bf578063c626fd8711610079578063c626fd8714610296578063cb1468791461029f578063e3ee8ad0146102b2578063f03fc599146102c5578063f4cd9e05146102d8578063fbfa77cf146102e1575f80fd5b80637d9efce6146102435780638a0dac4a1461024c5780638da5cb5b1461025f5780639f16390514610271578063a8c62e761461027a578063bdb0e4841461028d575f80fd5b80633e413bee116101105780633e413bee146101c3578063452a9320146101ee5780635a0ce676146102015780636019f28a146102145780636817031b146102275780637834eed21461023a575f80fd5b8063016cfc9b1461014c57806301ae6d72146101685780630565bb671461017d57806313af40351461019d57806333a100ca146101b0575b5f80fd5b61015560095481565b6040519081526020015b60405180910390f35b61017b6101763660046107ee565b6102f4565b005b61019061018b366004610829565b61036e565b60405161015f91906108a9565b61017b6101ab3660046108f5565b610440565b61017b6101be3660046108f5565b6104b0565b6004546101d6906001600160a01b031681565b6040516001600160a01b03909116815260200161015f565b6001546101d6906001600160a01b031681565b61017b61020f366004610915565b610533565b6003546101d6906001600160a01b031681565b61017b6102353660046108f5565b6105b1565b61015560075481565b61015560085481565b61017b61025a3660046108f5565b610626565b5f546101d6906001600160a01b031681565b61015560065481565b6005546101d6906001600160a01b031681565b610155600b5481565b610155600a5481565b61017b6102ad3660046108f5565b610698565b61017b6102c03660046107ee565b61070f565b61017b6102d33660046108f5565b610778565b610155600c5481565b6002546101d6906001600160a01b031681565b5f546001600160a01b031633146103265760405162461bcd60e51b815260040161031d9061093e565b60405180910390fd5b6009829055600a81905560408051838152602081018390527f83ef3b9c3fe7e23def4aada1151baf06abbab9264074ae7756e72734ba69a08491015b60405180910390a15050565b5f546060906001600160a01b0316331461039a5760405162461bcd60e51b815260040161031d9061093e565b5f80866001600160a01b03168686866040516103b7929190610961565b5f6040518083038185875af1925050503d805f81146103f1576040519150601f19603f3d011682016040523d82523d5f602084013e6103f6565b606091505b5091509150816104365760405162461bcd60e51b815260206004820152600b60248201526a195e1958c81c995d995c9d60aa1b604482015260640161031d565b9695505050505050565b5f546001600160a01b031633146104695760405162461bcd60e51b815260040161031d9061093e565b5f80546001600160a01b0319166001600160a01b038316908117825560405190917f50146d0e3c60aa1d17a70635b05494f864e86144a2201275021014fbf08bafe291a250565b5f546001600160a01b031633146104d95760405162461bcd60e51b815260040161031d9061093e565b600580546001600160a01b0319166001600160a01b038381169182179092556002546003546004546040515f8051602061099c8339815191529561052895948116949381169392169190610970565b60405180910390a150565b5f546001600160a01b0316331461055c5760405162461bcd60e51b815260040161031d9061093e565b60068390556007829055600881905560408051848152602081018490529081018290527fee5d147c6dd8b96e80762594bab87a5a80c4c7ec653bdb804933445386340b019060600160405180910390a1505050565b5f546001600160a01b031633146105da5760405162461bcd60e51b815260040161031d9061093e565b600280546001600160a01b0319166001600160a01b038381169182179092556003546004546005546040515f8051602061099c8339815191529561052895948116938116921690610970565b5f546001600160a01b0316331461064f5760405162461bcd60e51b815260040161031d9061093e565b600180546001600160a01b0319166001600160a01b0383169081179091556040517fe6c09ffe4572dc9ceaa5ddde4ae41befa655d6fdfe8052077af0970f700e942e905f90a250565b5f546001600160a01b031633146106c15760405162461bcd60e51b815260040161031d9061093e565b600480546001600160a01b0319166001600160a01b038381169182179092556002546003546005546040515f8051602061099c83398151915295610528959481169493811693921690610970565b5f546001600160a01b031633146107385760405162461bcd60e51b815260040161031d9061093e565b600b829055600c81905560408051838152602081018390527f61a278a4f7e970f0899221d3d683cc29ecb4944197451752e79bcdc1944496669101610362565b5f546001600160a01b031633146107a15760405162461bcd60e51b815260040161031d9061093e565b600380546001600160a01b0319166001600160a01b038381169182179092556002546004546005546040515f8051602061099c833981519152956105289594811694938116921690610970565b5f80604083850312156107ff575f80fd5b50508035926020909101359150565b80356001600160a01b0381168114610824575f80fd5b919050565b5f805f806060858703121561083c575f80fd5b6108458561080e565b935060208501359250604085013567ffffffffffffffff80821115610868575f80fd5b818701915087601f83011261087b575f80fd5b813581811115610889575f80fd5b88602082850101111561089a575f80fd5b95989497505060200194505050565b5f602080835283518060208501525f5b818110156108d5578581018301518582016040015282016108b9565b505f604082860101526040601f19601f8301168501019250505092915050565b5f60208284031215610905575f80fd5b61090e8261080e565b9392505050565b5f805f60608486031215610927575f80fd5b505081359360208301359350604090920135919050565b6020808252600990820152683737ba1037bbb732b960b91b604082015260600190565b818382375f9101908152919050565b6001600160a01b0394851681529284166020840152908316604083015290911660608201526080019056fe4fe18a0dfbcf95df0aa389046b0da47b3fb5a059dca002f935c1c41f986dcaa8a2646970667358221220e6fd93ed867651e8045ef535a1803adf06bede30d90ac55982e5f2310129bb0464736f6c63430008180033","linkReferences":{}},"methodIdentifiers":{"dailyAllocCap()":"bdb0e484","dailyDeallocCap()":"f4cd9e05","eusd()":"6019f28a","exec(address,uint256,bytes)":"0565bb67","guardian()":"452a9320","lowerBps()":"7d9efce6","maxAllocPerTx()":"016cfc9b","maxDeallocPerTx()":"c626fd87","owner()":"8da5cb5b","setDailyCaps(uint256,uint256)":"e3ee8ad0","setEusd(address)":"f03fc599","setGuardian(address)":"8a0dac4a","setOwner(address)":"13af4035","setParams(uint256,uint256,uint256)":"5a0ce676","setStrategy(address)":"33a100ca","setTxCaps(uint256,uint256)":"01ae6d72","setUsdc(address)":"cb146879","setVault(address)":"6817031b","strategy()":"a8c62e76","targetBps()":"9f163905","upperBps()":"7834eed2","usdc()":"3e413bee","vault()":"fbfa77cf"},"id":83}