{"abi":[{"type":"receive","stateMutability":"payable"},{"type":"function","name":"FEE_BPS","inputs":[],"outputs":[{"name":"","type":"uint256","internalType":"uint256"}],"stateMutability":"view"},{"type":"function","name":"FEE_THRESHOLD","inputs":[],"outputs":[{"name":"","type":"uint256","internalType":"uint256"}],"stateMutability":"view"},{"type":"function","name":"TREASURY","inputs":[],"outputs":[{"name":"","type":"address","internalType":"address"}],"stateMutability":"view"},{"type":"function","name":"UPGRADE_INTERFACE_VERSION","inputs":[],"outputs":[{"name":"","type":"string","internalType":"string"}],"stateMutability":"view"},{"type":"function","name":"addGuardian","inputs":[{"name":"guardian","type":"address","internalType":"address"}],"outputs":[],"stateMutability":"nonpayable"},{"type":"function","name":"allowedTokens","inputs":[{"name":"","type":"address","internalType":"address"}],"outputs":[{"name":"","type":"bool","internalType":"bool"}],"stateMutability":"view"},{"type":"function","name":"createSessionKey","inputs":[{"name":"key","type":"address","internalType":"address"},{"name":"duration","type":"uint256","internalType":"uint256"},{"name":"spendingLimit","type":"uint256","internalType":"uint256"}],"outputs":[],"stateMutability":"nonpayable"},{"type":"function","name":"dailyLimit","inputs":[],"outputs":[{"name":"","type":"uint256","internalType":"uint256"}],"stateMutability":"view"},{"type":"function","name":"dailySpent","inputs":[],"outputs":[{"name":"","type":"uint256","internalType":"uint256"}],"stateMutability":"view"},{"type":"function","name":"entryPoint","inputs":[],"outputs":[{"name":"","type":"address","internalType":"address"}],"stateMutability":"view"},{"type":"function","name":"execute","inputs":[{"name":"to","type":"address","internalType":"address"},{"name":"value","type":"uint256","internalType":"uint256"},{"name":"data","type":"bytes","internalType":"bytes"}],"outputs":[{"name":"","type":"bytes","internalType":"bytes"}],"stateMutability":"nonpayable"},{"type":"function","name":"getBalance","inputs":[{"name":"token","type":"address","internalType":"address"}],"outputs":[{"name":"","type":"uint256","internalType":"uint256"}],"stateMutability":"view"},{"type":"function","name":"getDailySpending","inputs":[],"outputs":[{"name":"spent","type":"uint256","internalType":"uint256"},{"name":"limit","type":"uint256","internalType":"uint256"},{"name":"remaining","type":"uint256","internalType":"uint256"}],"stateMutability":"view"},{"type":"function","name":"guardianCount","inputs":[],"outputs":[{"name":"","type":"uint256","internalType":"uint256"}],"stateMutability":"view"},{"type":"function","name":"guardians","inputs":[{"name":"","type":"address","internalType":"address"}],"outputs":[{"name":"","type":"bool","internalType":"bool"}],"stateMutability":"view"},{"type":"function","name":"initialize","inputs":[{"name":"_owner","type":"address","internalType":"address"},{"name":"_entryPoint","type":"address","internalType":"address"},{"name":"_novisToken","type":"address","internalType":"address"},{"name":"_dailyLimit","type":"uint256","internalType":"uint256"}],"outputs":[],"stateMutability":"nonpayable"},{"type":"function","name":"isPaused","inputs":[],"outputs":[{"name":"","type":"bool","internalType":"bool"}],"stateMutability":"view"},{"type":"function","name":"isValidSignature","inputs":[{"name":"hash","type":"bytes32","internalType":"bytes32"},{"name":"signature","type":"bytes","internalType":"bytes"}],"outputs":[{"name":"","type":"bytes4","internalType":"bytes4"}],"stateMutability":"view"},{"type":"function","name":"lastResetDay","inputs":[],"outputs":[{"name":"","type":"uint256","internalType":"uint256"}],"stateMutability":"view"},{"type":"function","name":"novisToken","inputs":[],"outputs":[{"name":"","type":"address","internalType":"address"}],"stateMutability":"view"},{"type":"function","name":"owner","inputs":[],"outputs":[{"name":"","type":"address","internalType":"address"}],"stateMutability":"view"},{"type":"function","name":"pause","inputs":[],"outputs":[],"stateMutability":"nonpayable"},{"type":"function","name":"perTxLimit","inputs":[],"outputs":[{"name":"","type":"uint256","internalType":"uint256"}],"stateMutability":"view"},{"type":"function","name":"proxiableUUID","inputs":[],"outputs":[{"name":"","type":"bytes32","internalType":"bytes32"}],"stateMutability":"view"},{"type":"function","name":"sessionKeys","inputs":[{"name":"","type":"address","internalType":"address"}],"outputs":[{"name":"expiresAt","type":"uint256","internalType":"uint256"},{"name":"spendingLimit","type":"uint256","internalType":"uint256"},{"name":"spent","type":"uint256","internalType":"uint256"},{"name":"isActive","type":"bool","internalType":"bool"}],"stateMutability":"view"},{"type":"function","name":"setDailyLimit","inputs":[{"name":"newLimit","type":"uint256","internalType":"uint256"}],"outputs":[],"stateMutability":"nonpayable"},{"type":"function","name":"unpause","inputs":[],"outputs":[],"stateMutability":"nonpayable"},{"type":"function","name":"upgradeToAndCall","inputs":[{"name":"newImplementation","type":"address","internalType":"address"},{"name":"data","type":"bytes","internalType":"bytes"}],"outputs":[],"stateMutability":"payable"},{"type":"function","name":"validateUserOp","inputs":[{"name":"userOp","type":"tuple","internalType":"struct UserOperation","components":[{"name":"sender","type":"address","internalType":"address"},{"name":"nonce","type":"uint256","internalType":"uint256"},{"name":"initCode","type":"bytes","internalType":"bytes"},{"name":"callData","type":"bytes","internalType":"bytes"},{"name":"callGasLimit","type":"uint256","internalType":"uint256"},{"name":"verificationGasLimit","type":"uint256","internalType":"uint256"},{"name":"preVerificationGas","type":"uint256","internalType":"uint256"},{"name":"maxFeePerGas","type":"uint256","internalType":"uint256"},{"name":"maxPriorityFeePerGas","type":"uint256","internalType":"uint256"},{"name":"paymasterAndData","type":"bytes","internalType":"bytes"},{"name":"signature","type":"bytes","internalType":"bytes"}]},{"name":"userOpHash","type":"bytes32","internalType":"bytes32"},{"name":"missingAccountFunds","type":"uint256","internalType":"uint256"}],"outputs":[{"name":"validationData","type":"uint256","internalType":"uint256"}],"stateMutability":"nonpayable"},{"type":"event","name":"AccountInitialized","inputs":[{"name":"owner","type":"address","indexed":true,"internalType":"address"},{"name":"entryPoint","type":"address","indexed":true,"internalType":"address"}],"anonymous":false},{"type":"event","name":"AccountPaused","inputs":[],"anonymous":false},{"type":"event","name":"AccountUnpaused","inputs":[],"anonymous":false},{"type":"event","name":"DailyLimitSet","inputs":[{"name":"newLimit","type":"uint256","indexed":false,"internalType":"uint256"}],"anonymous":false},{"type":"event","name":"FeeCollected","inputs":[{"name":"from","type":"address","indexed":true,"internalType":"address"},{"name":"treasury","type":"address","indexed":true,"internalType":"address"},{"name":"amount","type":"uint256","indexed":false,"internalType":"uint256"}],"anonymous":false},{"type":"event","name":"GuardianAdded","inputs":[{"name":"guardian","type":"address","indexed":true,"internalType":"address"}],"anonymous":false},{"type":"event","name":"Initialized","inputs":[{"name":"version","type":"uint64","indexed":false,"internalType":"uint64"}],"anonymous":false},{"type":"event","name":"SessionKeyCreated","inputs":[{"name":"key","type":"address","indexed":true,"internalType":"address"},{"name":"expiresAt","type":"uint256","indexed":false,"internalType":"uint256"},{"name":"limit","type":"uint256","indexed":false,"internalType":"uint256"}],"anonymous":false},{"type":"event","name":"SpendingTracked","inputs":[{"name":"amount","type":"uint256","indexed":false,"internalType":"uint256"},{"name":"dailySpent","type":"uint256","indexed":false,"internalType":"uint256"},{"name":"dailyLimit","type":"uint256","indexed":false,"internalType":"uint256"}],"anonymous":false},{"type":"event","name":"TransactionExecuted","inputs":[{"name":"to","type":"address","indexed":true,"internalType":"address"},{"name":"value","type":"uint256","indexed":false,"internalType":"uint256"},{"name":"data","type":"bytes","indexed":false,"internalType":"bytes"}],"anonymous":false},{"type":"event","name":"Upgraded","inputs":[{"name":"implementation","type":"address","indexed":true,"internalType":"address"}],"anonymous":false},{"type":"error","name":"AddressEmptyCode","inputs":[{"name":"target","type":"address","internalType":"address"}]},{"type":"error","name":"ECDSAInvalidSignature","inputs":[]},{"type":"error","name":"ECDSAInvalidSignatureLength","inputs":[{"name":"length","type":"uint256","internalType":"uint256"}]},{"type":"error","name":"ECDSAInvalidSignatureS","inputs":[{"name":"s","type":"bytes32","internalType":"bytes32"}]},{"type":"error","name":"ERC1967InvalidImplementation","inputs":[{"name":"implementation","type":"address","internalType":"address"}]},{"type":"error","name":"ERC1967NonPayable","inputs":[]},{"type":"error","name":"FailedInnerCall","inputs":[]},{"type":"error","name":"InvalidInitialization","inputs":[]},{"type":"error","name":"NotInitializing","inputs":[]},{"type":"error","name":"UUPSUnauthorizedCallContext","inputs":[]},{"type":"error","name":"UUPSUnsupportedProxiableUUID","inputs":[{"name":"slot","type":"bytes32","internalType":"bytes32"}]}],"bytecode":{"object":"0x60a060405230608052348015610013575f80fd5b50608051611f1861003a5f395f818161137f015281816113a801526115120152611f185ff3fe6080604052600436106101bd575f3560e01c80638a060878116100f2578063b61d27f611610092578063df77294111610062578063df77294114610545578063e744092e1461055a578063f6dd562e14610588578063f8b2cb4f146105a7575f80fd5b8063b61d27f61461048e578063b7b8d604146104ad578063bf333f2c14610512578063cf756fdf14610526575f80fd5b8063ad3cb1cc116100cd578063ad3cb1cc146103fa578063b0d691fe14610437578063b187bd2614610456578063b20d30a91461046f575f80fd5b80638a0608781461038e5780638da5cb5b146103bd578063a526d83b146103db575f80fd5b80633f4ba83a1161015d57806354387ad71161013857806354387ad71461033557806367eeba0c1461034a578063804bff751461035f5780638456cb591461037a575f80fd5b80633f4ba83a146102fa5780634f1ef2861461030e57806352d1902d14610321575f80fd5b80631626ba7e116101985780631626ba7e146102435780632d2c55651461027b578063398d6924146102ba5780633a871cdd146102db575f80fd5b80630633b14a146101c85780630bc6b89c1461020b5780631259a5c81461022e575f80fd5b366101c457005b5f80fd5b3480156101d3575f80fd5b506101f66101e23660046119dd565b60086020525f908152604090205460ff1681565b60405190151581526020015b60405180910390f35b348015610216575f80fd5b5061022060045481565b604051908152602001610202565b348015610239575f80fd5b5061022060055481565b34801561024e575f80fd5b5061026261025d366004611a95565b6105c6565b6040516001600160e01b03199091168152602001610202565b348015610286575f80fd5b506102a2734709280aef7a496ea84e72db3cabad5e324d593e81565b6040516001600160a01b039091168152602001610202565b3480156102c5575f80fd5b506102d96102d4366004611ad9565b61063d565b005b3480156102e6575f80fd5b506102206102f5366004611b0b565b610770565b348015610305575f80fd5b506102d96108d8565b6102d961031c366004611b45565b610935565b34801561032c575f80fd5b50610220610954565b348015610340575f80fd5b5061022060095481565b348015610355575f80fd5b5061022060035481565b34801561036a575f80fd5b50610220678ac7230489e8000081565b348015610385575f80fd5b506102d961096f565b348015610399575f80fd5b506103a26109cf565b60408051938452602084019290925290820152606001610202565b3480156103c8575f80fd5b505f546102a2906001600160a01b031681565b3480156103e6575f80fd5b506102d96103f53660046119dd565b610a17565b348015610405575f80fd5b5061042a604051806040016040528060058152602001640352e302e360dc1b81525081565b6040516102029190611bc9565b348015610442575f80fd5b506001546102a2906001600160a01b031681565b348015610461575f80fd5b50600b546101f69060ff1681565b34801561047a575f80fd5b506102d9610489366004611bdb565b610b4f565b348015610499575f80fd5b5061042a6104a8366004611bf2565b610bb3565b3480156104b8575f80fd5b506104f06104c73660046119dd565b600a6020525f908152604090208054600182015460028301546003909301549192909160ff1684565b6040805194855260208501939093529183015215156060820152608001610202565b34801561051d575f80fd5b50610220600581565b348015610531575f80fd5b506102d9610540366004611c74565b611094565b348015610550575f80fd5b5061022060065481565b348015610565575f80fd5b506101f66105743660046119dd565b60076020525f908152604090205460ff1681565b348015610593575f80fd5b506002546102a2906001600160a01b031681565b3480156105b2575f80fd5b506102206105c13660046119dd565b611287565b7f19457468657265756d205369676e6564204d6573736167653a0a3332000000005f908152601c839052603c81205f6105ff8285611303565b5f549091506001600160a01b03908116908216036106295750630b135d3f60e11b91506106379050565b506001600160e01b03199150505b92915050565b5f546001600160a01b0316331461066f5760405162461bcd60e51b815260040161066690611cc2565b60405180910390fd5b6001600160a01b0383166106b35760405162461bcd60e51b815260206004820152600b60248201526a496e76616c6964206b657960a81b6044820152606401610666565b604051806080016040528083426106ca9190611cf9565b815260208082018490525f6040808401829052600160609485018190526001600160a01b038916808452600a855292829020865181559386015190840155840151600283015592909101516003909101805460ff19169115159190911790557fdf92d102638cf06f9b9d2f357166c3711c5aff04687f6f44dd0789436e54c3e56107548442611cf9565b60408051918252602082018590520160405180910390a2505050565b6001545f906001600160a01b031633146107bd5760405162461bcd60e51b815260206004820152600e60248201526d139bdd08115b9d1c9e541bda5b9d60921b6044820152606401610666565b7f19457468657265756d205369676e6564204d6573736167653a0a3332000000005f908152601c849052603c8120908061083a6107fe610140890189611d0c565b8080601f0160208091040260200160405190810160405280939291908181526020018383808284375f92019190915250879392505061132b9050565b5090925090505f81600381111561085357610853611d56565b14158061086d57505f546001600160a01b03838116911614155b1561087e57600193505050506108d1565b84156108ca57604051339086905f81818185875af1925050503d805f81146108c1576040519150601f19603f3d011682016040523d82523d5f602084013e6108c6565b606091505b5050505b5f93505050505b9392505050565b5f546001600160a01b031633146109015760405162461bcd60e51b815260040161066690611cc2565b600b805460ff191690556040517f2c75cf29dcf40bb9dd3879b928f28f2de4c707471e5ba72ecf551aca93dcb195905f90a1565b61093d611374565b6109468261141a565b6109508282611446565b5050565b5f61095d611507565b505f80516020611ec383398151915290565b5f546001600160a01b031633146109985760405162461bcd60e51b815260040161066690611cc2565b600b805460ff191660011790556040517fd2d543f69c8d83abdbcb3977fdb7cf622cb1ca972b1d1dea122a0436f63e453e905f90a1565b5f8080806109e06201518042611d6a565b90506005548111156109fb5750506003545f93909250829150565b600454600354610a0b8282611d89565b93509350935050909192565b5f546001600160a01b03163314610a405760405162461bcd60e51b815260040161066690611cc2565b6001600160a01b038116610a895760405162461bcd60e51b815260206004820152601060248201526f24b73b30b634b21033bab0b93234b0b760811b6044820152606401610666565b6001600160a01b0381165f9081526008602052604090205460ff1615610ae45760405162461bcd60e51b815260206004820152601060248201526f20b63932b0b23c9033bab0b93234b0b760811b6044820152606401610666565b6001600160a01b0381165f908152600860205260408120805460ff191660011790556009805491610b1483611d9c565b90915550506040516001600160a01b038216907f038596bb31e2e7d3d9f184d4c98b310103f6d7f5830e5eec32bffe6f1728f969905f90a250565b5f546001600160a01b03163314610b785760405162461bcd60e51b815260040161066690611cc2565b60038190556040518181527fea70a31e4e5eb24c9509aa5d26266f5837aaa56d74f4f815ca7f23aaaf296d6a9060200160405180910390a150565b600b5460609060ff1615610bfa5760405162461bcd60e51b815260206004820152600e60248201526d1058d8dbdd5b9d081c185d5cd95960921b6044820152606401610666565b5f546001600160a01b0316331480610c1c57506001546001600160a01b031633145b610c595760405162461bcd60e51b815260206004820152600e60248201526d139bdd08185d5d1a1bdc9a5e995960921b6044820152606401610666565b6002545f906001600160a01b038781169116148015610c79575060448310155b15610f90575f610c8c6004828688611db4565b610c9591611ddb565b90506356fa634560e01b6001600160e01b0319821601610f8a575f80610cbf60446004888a611db4565b810190610ccc9190611e0b565b91509150809350610cdc84611550565b678ac7230489e800008110610f87575f612710610cfa600584611e35565b610d049190611d6a565b90505f610d118284611d89565b60025460408051734709280aef7a496ea84e72db3cabad5e324d593e6024820152604480820187905282518083039091018152606490910182526020810180516001600160e01b031663a9059cbb60e01b17905290519293505f926001600160a01b0390921691610d829190611e4c565b5f604051808303815f865af19150503d805f8114610dbb576040519150601f19603f3d011682016040523d82523d5f602084013e610dc0565b606091505b5050905080610e075760405162461bcd60e51b8152602060048201526013602482015272119959481d1c985b9cd9995c8819985a5b1959606a1b6044820152606401610666565b604051838152734709280aef7a496ea84e72db3cabad5e324d593e9030907ff228de527fc1b9843baac03b9a04565473a263375950e63435d4138464386f469060200160405180910390a3600254604080516001600160a01b038881166024830152604480830187905283518084039091018152606490920183526020820180516001600160e01b031663a9059cbb60e01b17905291515f9384931691610ead91611e4c565b5f604051808303815f865af19150503d805f8114610ee6576040519150601f19603f3d011682016040523d82523d5f602084013e610eeb565b606091505b509150915081610f325760405162461bcd60e51b8152602060048201526012602482015271151c985b9cd858dd1a5bdb8819985a5b195960721b6044820152606401610666565b8d6001600160a01b03167f47d99ad340f52da66535aff7e10da1ceb85a32bcbd9fa1c42314d194545e14d28e8e8e604051610f6f93929190611e67565b60405180910390a2985061108c975050505050505050565b50505b50610f9f565b8415610f9f57610f9f85611550565b5f80876001600160a01b0316878787604051610fbc929190611e9c565b5f6040518083038185875af1925050503d805f8114610ff6576040519150601f19603f3d011682016040523d82523d5f602084013e610ffb565b606091505b5091509150816110425760405162461bcd60e51b8152602060048201526012602482015271151c985b9cd858dd1a5bdb8819985a5b195960721b6044820152606401610666565b876001600160a01b03167f47d99ad340f52da66535aff7e10da1ceb85a32bcbd9fa1c42314d194545e14d288888860405161107f93929190611e67565b60405180910390a2925050505b949350505050565b7ff0c57e16840df040f15088dc2f81fe391c3923bec73e23a9662efc9c229c6a008054600160401b810460ff16159067ffffffffffffffff165f811580156110d95750825b90505f8267ffffffffffffffff1660011480156110f55750303b155b905081158015611103575080155b156111215760405163f92ee8a960e01b815260040160405180910390fd5b845467ffffffffffffffff19166001178555831561114b57845460ff60401b1916600160401b1785555b6001600160a01b0389166111915760405162461bcd60e51b815260206004820152600d60248201526c24b73b30b634b21037bbb732b960991b6044820152606401610666565b5f80546001600160a01b03808c166001600160a01b031992831617909255600180548b841690831617905560028054928a169290911691909117905560038690556111df6201518042611d6a565b6005556001600160a01b038088165f90815260076020526040808220805460ff191660011790556006899055518a8316928c16917f526ffefac8167421b9048ae3377810715d834479565b0182ea4155f0efa4c38091a3831561127c57845460ff60401b19168555604051600181527fc7f505b2f371ae2175ee4913f4499e1f2633a7b5936321eed1cdaeb6115181d29060200160405180910390a15b505050505050505050565b5f6001600160a01b03821661129d575047919050565b6040516370a0823160e01b81523060048201526001600160a01b038316906370a0823190602401602060405180830381865afa1580156112df573d5f803e3d5ffd5b505050506040513d601f19601f820116820180604052508101906106379190611eab565b5f805f80611311868661132b565b925092509250611321828261167b565b5090949350505050565b5f805f8351604103611362576020840151604085015160608601515f1a61135488828585611733565b95509550955050505061136d565b505081515f91506002905b9250925092565b306001600160a01b037f00000000000000000000000000000000000000000000000000000000000000001614806113fa57507f00000000000000000000000000000000000000000000000000000000000000006001600160a01b03166113ee5f80516020611ec3833981519152546001600160a01b031690565b6001600160a01b031614155b156114185760405163703e46dd60e11b815260040160405180910390fd5b565b5f546001600160a01b031633146114435760405162461bcd60e51b815260040161066690611cc2565b50565b816001600160a01b03166352d1902d6040518163ffffffff1660e01b8152600401602060405180830381865afa9250505080156114a0575060408051601f3d908101601f1916820190925261149d91810190611eab565b60015b6114c857604051634c9c8ce360e01b81526001600160a01b0383166004820152602401610666565b5f80516020611ec383398151915281146114f857604051632a87526960e21b815260048101829052602401610666565b61150283836117fb565b505050565b306001600160a01b037f000000000000000000000000000000000000000000000000000000000000000016146114185760405163703e46dd60e11b815260040160405180910390fd5b805f0361155a5750565b6006548111156115a35760405162461bcd60e51b8152602060048201526014602482015273115e18d959591cc81c195c8b5d1e081b1a5b5a5d60621b6044820152606401610666565b5f6115b16201518042611d6a565b90506005548111156115c7575f60045560058190555b600354826004546115d89190611cf9565b111561161c5760405162461bcd60e51b8152602060048201526013602482015272115e18d959591cc819185a5b1e481b1a5b5a5d606a1b6044820152606401610666565b8160045f82825461162d9190611cf9565b90915550506004546003546040805185815260208101939093528201527f3138e9c11af90ce78ca24c4c3303561778c9d56c6ee43a31a9d043037d8d9eb59060600160405180910390a15050565b5f82600381111561168e5761168e611d56565b03611697575050565b60018260038111156116ab576116ab611d56565b036116c95760405163f645eedf60e01b815260040160405180910390fd5b60028260038111156116dd576116dd611d56565b036116fe5760405163fce698f760e01b815260048101829052602401610666565b600382600381111561171257611712611d56565b03610950576040516335e2f38360e21b815260048101829052602401610666565b5f80807f7fffffffffffffffffffffffffffffff5d576e7357a4501ddfe92f46681b20a084111561176c57505f915060039050826117f1565b604080515f808252602082018084528a905260ff891692820192909252606081018790526080810186905260019060a0016020604051602081039080840390855afa1580156117bd573d5f803e3d5ffd5b5050604051601f1901519150506001600160a01b0381166117e857505f9250600191508290506117f1565b92505f91508190505b9450945094915050565b61180482611850565b6040516001600160a01b038316907fbc7cd75a20ee27fd9adebab32041f755214dbc6bffa90cc0225b39da2e5c2d3b905f90a28051156118485761150282826118b3565b610950611925565b806001600160a01b03163b5f0361188557604051634c9c8ce360e01b81526001600160a01b0382166004820152602401610666565b5f80516020611ec383398151915280546001600160a01b0319166001600160a01b0392909216919091179055565b60605f80846001600160a01b0316846040516118cf9190611e4c565b5f60405180830381855af49150503d805f8114611907576040519150601f19603f3d011682016040523d82523d5f602084013e61190c565b606091505b509150915061191c858383611944565b95945050505050565b34156114185760405163b398979f60e01b815260040160405180910390fd5b60608261195957611954826119a0565b6108d1565b815115801561197057506001600160a01b0384163b155b1561199957604051639996b31560e01b81526001600160a01b0385166004820152602401610666565b50806108d1565b8051156119b05780518082602001fd5b604051630a12f52160e11b815260040160405180910390fd5b6001600160a01b0381168114611443575f80fd5b5f602082840312156119ed575f80fd5b81356108d1816119c9565b634e487b7160e01b5f52604160045260245ffd5b5f82601f830112611a1b575f80fd5b813567ffffffffffffffff80821115611a3657611a366119f8565b604051601f8301601f19908116603f01168101908282118183101715611a5e57611a5e6119f8565b81604052838152866020858801011115611a76575f80fd5b836020870160208301375f602085830101528094505050505092915050565b5f8060408385031215611aa6575f80fd5b82359150602083013567ffffffffffffffff811115611ac3575f80fd5b611acf85828601611a0c565b9150509250929050565b5f805f60608486031215611aeb575f80fd5b8335611af6816119c9565b95602085013595506040909401359392505050565b5f805f60608486031215611b1d575f80fd5b833567ffffffffffffffff811115611b33575f80fd5b84016101608187031215611af6575f80fd5b5f8060408385031215611b56575f80fd5b8235611b61816119c9565b9150602083013567ffffffffffffffff811115611ac3575f80fd5b5f5b83811015611b96578181015183820152602001611b7e565b50505f910152565b5f8151808452611bb5816020860160208601611b7c565b601f01601f19169290920160200192915050565b602081525f6108d16020830184611b9e565b5f60208284031215611beb575f80fd5b5035919050565b5f805f8060608587031215611c05575f80fd5b8435611c10816119c9565b935060208501359250604085013567ffffffffffffffff80821115611c33575f80fd5b818701915087601f830112611c46575f80fd5b813581811115611c54575f80fd5b886020828501011115611c65575f80fd5b95989497505060200194505050565b5f805f8060808587031215611c87575f80fd5b8435611c92816119c9565b93506020850135611ca2816119c9565b92506040850135611cb2816119c9565b9396929550929360600135925050565b6020808252600990820152682737ba1037bbb732b960b91b604082015260600190565b634e487b7160e01b5f52601160045260245ffd5b8082018082111561063757610637611ce5565b5f808335601e19843603018112611d21575f80fd5b83018035915067ffffffffffffffff821115611d3b575f80fd5b602001915036819003821315611d4f575f80fd5b9250929050565b634e487b7160e01b5f52602160045260245ffd5b5f82611d8457634e487b7160e01b5f52601260045260245ffd5b500490565b8181038181111561063757610637611ce5565b5f60018201611dad57611dad611ce5565b5060010190565b5f8085851115611dc2575f80fd5b83861115611dce575f80fd5b5050820193919092039150565b6001600160e01b03198135818116916004851015611e035780818660040360031b1b83161692505b505092915050565b5f8060408385031215611e1c575f80fd5b8235611e27816119c9565b946020939093013593505050565b808202811582820484141761063757610637611ce5565b5f8251611e5d818460208701611b7c565b9190910192915050565b83815260406020820152816040820152818360608301375f818301606090810191909152601f909201601f1916010192915050565b818382375f9101908152919050565b5f60208284031215611ebb575f80fd5b505191905056fe360894a13ba1a3210667c828492db98dca3e2076cc3735a920a3ca505d382bbca26469706673582212203cd8c9811cb7faef2904cf5717f8ee9f44fc9a4ece90657defe69cc596fc68ea64736f6c63430008180033","linkReferences":{}},"methodIdentifiers":{"FEE_BPS()":"bf333f2c","FEE_THRESHOLD()":"804bff75","TREASURY()":"2d2c5565","UPGRADE_INTERFACE_VERSION()":"ad3cb1cc","addGuardian(address)":"a526d83b","allowedTokens(address)":"e744092e","createSessionKey(address,uint256,uint256)":"398d6924","dailyLimit()":"67eeba0c","dailySpent()":"0bc6b89c","entryPoint()":"b0d691fe","execute(address,uint256,bytes)":"b61d27f6","getBalance(address)":"f8b2cb4f","getDailySpending()":"8a060878","guardianCount()":"54387ad7","guardians(address)":"0633b14a","initialize(address,address,address,uint256)":"cf756fdf","isPaused()":"b187bd26","isValidSignature(bytes32,bytes)":"1626ba7e","lastResetDay()":"1259a5c8","novisToken()":"f6dd562e","owner()":"8da5cb5b","pause()":"8456cb59","perTxLimit()":"df772941","proxiableUUID()":"52d1902d","sessionKeys(address)":"b7b8d604","setDailyLimit(uint256)":"b20d30a9","unpause()":"3f4ba83a","upgradeToAndCall(address,bytes)":"4f1ef286","validateUserOp((address,uint256,bytes,bytes,uint256,uint256,uint256,uint256,uint256,bytes,bytes),bytes32,uint256)":"3a871cdd"},"id":80}