{"abi":[{"type":"constructor","inputs":[],"stateMutability":"nonpayable"},{"type":"receive","stateMutability":"payable"},{"type":"function","name":"BPS_DENOMINATOR","inputs":[],"outputs":[{"name":"","type":"uint16","internalType":"uint16"}],"stateMutability":"view"},{"type":"function","name":"UPGRADE_INTERFACE_VERSION","inputs":[],"outputs":[{"name":"","type":"string","internalType":"string"}],"stateMutability":"view"},{"type":"function","name":"allocate","inputs":[{"name":"usdcAmount","type":"uint256","internalType":"uint256"}],"outputs":[],"stateMutability":"nonpayable"},{"type":"function","name":"autoBurnEnabled","inputs":[],"outputs":[{"name":"","type":"bool","internalType":"bool"}],"stateMutability":"view"},{"type":"function","name":"autoSlippageBps","inputs":[],"outputs":[{"name":"","type":"uint16","internalType":"uint16"}],"stateMutability":"view"},{"type":"function","name":"backingBps","inputs":[],"outputs":[{"name":"","type":"uint256","internalType":"uint256"}],"stateMutability":"view"},{"type":"function","name":"bufferBps","inputs":[],"outputs":[{"name":"","type":"uint256","internalType":"uint256"}],"stateMutability":"view"},{"type":"function","name":"bufferUSDC","inputs":[],"outputs":[{"name":"buffer","type":"uint256","internalType":"uint256"},{"name":"theoreticalUSDC","type":"uint256","internalType":"uint256"}],"stateMutability":"view"},{"type":"function","name":"buyAndBurn","inputs":[{"name":"usdcAmount","type":"uint256","internalType":"uint256"},{"name":"minNovisOut","type":"uint256","internalType":"uint256"}],"outputs":[],"stateMutability":"nonpayable"},{"type":"function","name":"buyAndBurnEnabled","inputs":[],"outputs":[{"name":"","type":"bool","internalType":"bool"}],"stateMutability":"view"},{"type":"function","name":"calculateDepositFee","inputs":[{"name":"usdcAmount","type":"uint256","internalType":"uint256"}],"outputs":[{"name":"fee","type":"uint256","internalType":"uint256"},{"name":"netAmount","type":"uint256","internalType":"uint256"}],"stateMutability":"view"},{"type":"function","name":"canBuyAndBurn","inputs":[],"outputs":[{"name":"","type":"bool","internalType":"bool"}],"stateMutability":"view"},{"type":"function","name":"cooldown","inputs":[],"outputs":[{"name":"","type":"uint32","internalType":"uint32"}],"stateMutability":"view"},{"type":"function","name":"deallocate","inputs":[{"name":"shares","type":"uint256","internalType":"uint256"}],"outputs":[],"stateMutability":"nonpayable"},{"type":"function","name":"deposit","inputs":[{"name":"usdcAmount","type":"uint256","internalType":"uint256"}],"outputs":[],"stateMutability":"nonpayable"},{"type":"function","name":"depositFeeBps","inputs":[],"outputs":[{"name":"","type":"uint16","internalType":"uint16"}],"stateMutability":"view"},{"type":"function","name":"executeBuyAndBurn","inputs":[{"name":"usdcAmount","type":"uint256","internalType":"uint256"},{"name":"minNovisOut","type":"uint256","internalType":"uint256"}],"outputs":[],"stateMutability":"nonpayable"},{"type":"function","name":"factory","inputs":[],"outputs":[{"name":"","type":"address","internalType":"address"}],"stateMutability":"view"},{"type":"function","name":"feeThreshold","inputs":[],"outputs":[{"name":"","type":"uint256","internalType":"uint256"}],"stateMutability":"view"},{"type":"function","name":"feesEnabled","inputs":[],"outputs":[{"name":"","type":"bool","internalType":"bool"}],"stateMutability":"view"},{"type":"function","name":"initialize","inputs":[{"name":"_owner","type":"address","internalType":"address"},{"name":"_usdc","type":"address","internalType":"address"},{"name":"_novis","type":"address","internalType":"address"},{"name":"_router","type":"address","internalType":"address"},{"name":"_factory","type":"address","internalType":"address"},{"name":"_treasury","type":"address","internalType":"address"}],"outputs":[],"stateMutability":"nonpayable"},{"type":"function","name":"initializeV3","inputs":[],"outputs":[],"stateMutability":"nonpayable"},{"type":"function","name":"lastBuyAndBurn","inputs":[],"outputs":[{"name":"","type":"uint256","internalType":"uint256"}],"stateMutability":"view"},{"type":"function","name":"maxBuyAndBurnUSDC","inputs":[],"outputs":[{"name":"","type":"uint256","internalType":"uint256"}],"stateMutability":"view"},{"type":"function","name":"maxBuyBps","inputs":[],"outputs":[{"name":"","type":"uint16","internalType":"uint16"}],"stateMutability":"view"},{"type":"function","name":"novis","inputs":[],"outputs":[{"name":"","type":"address","internalType":"contract INOVISv2"}],"stateMutability":"view"},{"type":"function","name":"owner","inputs":[],"outputs":[{"name":"","type":"address","internalType":"address"}],"stateMutability":"view"},{"type":"function","name":"pause","inputs":[],"outputs":[],"stateMutability":"nonpayable"},{"type":"function","name":"paused","inputs":[],"outputs":[{"name":"","type":"bool","internalType":"bool"}],"stateMutability":"view"},{"type":"function","name":"poolStable","inputs":[],"outputs":[{"name":"","type":"bool","internalType":"bool"}],"stateMutability":"view"},{"type":"function","name":"proxiableUUID","inputs":[],"outputs":[{"name":"","type":"bytes32","internalType":"bytes32"}],"stateMutability":"view"},{"type":"function","name":"redeem","inputs":[{"name":"novisAmount","type":"uint256","internalType":"uint256"}],"outputs":[],"stateMutability":"nonpayable"},{"type":"function","name":"renounceOwnership","inputs":[],"outputs":[],"stateMutability":"nonpayable"},{"type":"function","name":"rescueETH","inputs":[{"name":"amount","type":"uint256","internalType":"uint256"}],"outputs":[],"stateMutability":"nonpayable"},{"type":"function","name":"rescueToken","inputs":[{"name":"token","type":"address","internalType":"address"},{"name":"amount","type":"uint256","internalType":"uint256"}],"outputs":[],"stateMutability":"nonpayable"},{"type":"function","name":"router","inputs":[],"outputs":[{"name":"","type":"address","internalType":"contract IAerodromeRouter"}],"stateMutability":"view"},{"type":"function","name":"setAutoSlippageBps","inputs":[{"name":"_slippageBps","type":"uint16","internalType":"uint16"}],"outputs":[],"stateMutability":"nonpayable"},{"type":"function","name":"setBuyAndBurnParams","inputs":[{"name":"_triggerBufferBps","type":"uint16","internalType":"uint16"},{"name":"_maxBuyBps","type":"uint16","internalType":"uint16"},{"name":"_treasuryFeeBps","type":"uint16","internalType":"uint16"},{"name":"_cooldown","type":"uint32","internalType":"uint32"}],"outputs":[],"stateMutability":"nonpayable"},{"type":"function","name":"setFactory","inputs":[{"name":"_factory","type":"address","internalType":"address"}],"outputs":[],"stateMutability":"nonpayable"},{"type":"function","name":"setFeeParams","inputs":[{"name":"_threshold","type":"uint256","internalType":"uint256"},{"name":"_feeBps","type":"uint16","internalType":"uint16"},{"name":"_enabled","type":"bool","internalType":"bool"}],"outputs":[],"stateMutability":"nonpayable"},{"type":"function","name":"setPoolStable","inputs":[{"name":"_stable","type":"bool","internalType":"bool"}],"outputs":[],"stateMutability":"nonpayable"},{"type":"function","name":"setRouter","inputs":[{"name":"_router","type":"address","internalType":"address"}],"outputs":[],"stateMutability":"nonpayable"},{"type":"function","name":"setStrategy","inputs":[{"name":"_strategy","type":"address","internalType":"address"}],"outputs":[],"stateMutability":"nonpayable"},{"type":"function","name":"setTreasury","inputs":[{"name":"_treasury","type":"address","internalType":"address"}],"outputs":[],"stateMutability":"nonpayable"},{"type":"function","name":"strategy","inputs":[],"outputs":[{"name":"","type":"address","internalType":"contract IStrategy"}],"stateMutability":"view"},{"type":"function","name":"toggleAutoBurn","inputs":[{"name":"_enabled","type":"bool","internalType":"bool"}],"outputs":[],"stateMutability":"nonpayable"},{"type":"function","name":"toggleBuyAndBurn","inputs":[{"name":"_enabled","type":"bool","internalType":"bool"}],"outputs":[],"stateMutability":"nonpayable"},{"type":"function","name":"totalBackingUSDC","inputs":[],"outputs":[{"name":"","type":"uint256","internalType":"uint256"}],"stateMutability":"view"},{"type":"function","name":"transferOwnership","inputs":[{"name":"newOwner","type":"address","internalType":"address"}],"outputs":[],"stateMutability":"nonpayable"},{"type":"function","name":"transferTokenOwnership","inputs":[{"name":"newOwner","type":"address","internalType":"address"}],"outputs":[],"stateMutability":"nonpayable"},{"type":"function","name":"treasury","inputs":[],"outputs":[{"name":"","type":"address","internalType":"address"}],"stateMutability":"view"},{"type":"function","name":"treasuryFeeBps","inputs":[],"outputs":[{"name":"","type":"uint16","internalType":"uint16"}],"stateMutability":"view"},{"type":"function","name":"triggerBufferBps","inputs":[],"outputs":[{"name":"","type":"uint16","internalType":"uint16"}],"stateMutability":"view"},{"type":"function","name":"unpause","inputs":[],"outputs":[],"stateMutability":"nonpayable"},{"type":"function","name":"upgradeToAndCall","inputs":[{"name":"newImplementation","type":"address","internalType":"address"},{"name":"data","type":"bytes","internalType":"bytes"}],"outputs":[],"stateMutability":"payable"},{"type":"function","name":"usdc","inputs":[],"outputs":[{"name":"","type":"address","internalType":"contract IERC20"}],"stateMutability":"view"},{"type":"function","name":"vaultUSDC","inputs":[],"outputs":[{"name":"","type":"uint256","internalType":"uint256"}],"stateMutability":"view"},{"type":"function","name":"version","inputs":[],"outputs":[{"name":"","type":"string","internalType":"string"}],"stateMutability":"pure"},{"type":"event","name":"Allocated","inputs":[{"name":"usdcAmount","type":"uint256","indexed":false,"internalType":"uint256"},{"name":"sharesReceived","type":"uint256","indexed":false,"internalType":"uint256"}],"anonymous":false},{"type":"event","name":"AutoBurnToggled","inputs":[{"name":"enabled","type":"bool","indexed":false,"internalType":"bool"}],"anonymous":false},{"type":"event","name":"AutoBuyAndBurnFailed","inputs":[{"name":"reason","type":"string","indexed":false,"internalType":"string"}],"anonymous":false},{"type":"event","name":"BuyAndBurn","inputs":[{"name":"caller","type":"address","indexed":true,"internalType":"address"},{"name":"usdcSpent","type":"uint256","indexed":false,"internalType":"uint256"},{"name":"novisBurned","type":"uint256","indexed":false,"internalType":"uint256"},{"name":"treasuryFee","type":"uint256","indexed":false,"internalType":"uint256"},{"name":"newBackingBps","type":"uint256","indexed":false,"internalType":"uint256"}],"anonymous":false},{"type":"event","name":"BuyAndBurnParamsSet","inputs":[{"name":"triggerBps","type":"uint16","indexed":false,"internalType":"uint16"},{"name":"maxBuyBps","type":"uint16","indexed":false,"internalType":"uint16"},{"name":"treasuryFeeBps","type":"uint16","indexed":false,"internalType":"uint16"},{"name":"cooldown","type":"uint32","indexed":false,"internalType":"uint32"}],"anonymous":false},{"type":"event","name":"BuyAndBurnToggled","inputs":[{"name":"enabled","type":"bool","indexed":false,"internalType":"bool"}],"anonymous":false},{"type":"event","name":"Deallocated","inputs":[{"name":"sharesBurned","type":"uint256","indexed":false,"internalType":"uint256"},{"name":"usdcReceived","type":"uint256","indexed":false,"internalType":"uint256"}],"anonymous":false},{"type":"event","name":"Deposit","inputs":[{"name":"user","type":"address","indexed":true,"internalType":"address"},{"name":"usdcAmount","type":"uint256","indexed":false,"internalType":"uint256"},{"name":"novisMinted","type":"uint256","indexed":false,"internalType":"uint256"},{"name":"fee","type":"uint256","indexed":false,"internalType":"uint256"}],"anonymous":false},{"type":"event","name":"ETHRescued","inputs":[{"name":"amount","type":"uint256","indexed":false,"internalType":"uint256"}],"anonymous":false},{"type":"event","name":"FeeParamsSet","inputs":[{"name":"threshold","type":"uint256","indexed":false,"internalType":"uint256"},{"name":"feeBps","type":"uint16","indexed":false,"internalType":"uint16"},{"name":"enabled","type":"bool","indexed":false,"internalType":"bool"}],"anonymous":false},{"type":"event","name":"Initialized","inputs":[{"name":"version","type":"uint64","indexed":false,"internalType":"uint64"}],"anonymous":false},{"type":"event","name":"OwnershipTransferred","inputs":[{"name":"previousOwner","type":"address","indexed":true,"internalType":"address"},{"name":"newOwner","type":"address","indexed":true,"internalType":"address"}],"anonymous":false},{"type":"event","name":"Paused","inputs":[{"name":"account","type":"address","indexed":false,"internalType":"address"}],"anonymous":false},{"type":"event","name":"Redeem","inputs":[{"name":"user","type":"address","indexed":true,"internalType":"address"},{"name":"novisBurned","type":"uint256","indexed":false,"internalType":"uint256"},{"name":"usdcReturned","type":"uint256","indexed":false,"internalType":"uint256"}],"anonymous":false},{"type":"event","name":"RouterSet","inputs":[{"name":"router","type":"address","indexed":true,"internalType":"address"}],"anonymous":false},{"type":"event","name":"StrategySet","inputs":[{"name":"strategy","type":"address","indexed":true,"internalType":"address"}],"anonymous":false},{"type":"event","name":"TokenOwnershipTransferred","inputs":[{"name":"newOwner","type":"address","indexed":true,"internalType":"address"}],"anonymous":false},{"type":"event","name":"TokensRescued","inputs":[{"name":"token","type":"address","indexed":true,"internalType":"address"},{"name":"amount","type":"uint256","indexed":false,"internalType":"uint256"}],"anonymous":false},{"type":"event","name":"TreasurySet","inputs":[{"name":"treasury","type":"address","indexed":true,"internalType":"address"}],"anonymous":false},{"type":"event","name":"Unpaused","inputs":[{"name":"account","type":"address","indexed":false,"internalType":"address"}],"anonymous":false},{"type":"event","name":"Upgraded","inputs":[{"name":"implementation","type":"address","indexed":true,"internalType":"address"}],"anonymous":false},{"type":"error","name":"AddressEmptyCode","inputs":[{"name":"target","type":"address","internalType":"address"}]},{"type":"error","name":"AddressInsufficientBalance","inputs":[{"name":"account","type":"address","internalType":"address"}]},{"type":"error","name":"ERC1967InvalidImplementation","inputs":[{"name":"implementation","type":"address","internalType":"address"}]},{"type":"error","name":"ERC1967NonPayable","inputs":[]},{"type":"error","name":"EnforcedPause","inputs":[]},{"type":"error","name":"ExpectedPause","inputs":[]},{"type":"error","name":"FailedInnerCall","inputs":[]},{"type":"error","name":"InvalidInitialization","inputs":[]},{"type":"error","name":"NotInitializing","inputs":[]},{"type":"error","name":"OwnableInvalidOwner","inputs":[{"name":"owner","type":"address","internalType":"address"}]},{"type":"error","name":"OwnableUnauthorizedAccount","inputs":[{"name":"account","type":"address","internalType":"address"}]},{"type":"error","name":"ReentrancyGuardReentrantCall","inputs":[]},{"type":"error","name":"SafeERC20FailedOperation","inputs":[{"name":"token","type":"address","internalType":"address"}]},{"type":"error","name":"UUPSUnauthorizedCallContext","inputs":[]},{"type":"error","name":"UUPSUnsupportedProxiableUUID","inputs":[{"name":"slot","type":"bytes32","internalType":"bytes32"}]}],"bytecode":{"object":"0x60a06040523060805234801562000014575f80fd5b5060015f556200002362000029565b620000dd565b7ff0c57e16840df040f15088dc2f81fe391c3923bec73e23a9662efc9c229c6a00805468010000000000000000900460ff16156200007a5760405163f92ee8a960e01b815260040160405180910390fd5b80546001600160401b0390811614620000da5780546001600160401b0319166001600160401b0390811782556040519081527fc7f505b2f371ae2175ee4913f4499e1f2633a7b5936321eed1cdaeb6115181d29060200160405180910390a15b50565b6080516136fc620001045f395f818161226d0152818161229601526123d501526136fc5ff3fe608060405260043610610374575f3560e01c806390ca796b116101c8578063cac71bb6116100fd578063e1a452181161009d578063f0f442601161006d578063f0f44260146109f2578063f2fde38b14610a11578063f887ea4014610a30578063ffc149da14610a4f575f80fd5b8063e1a4521814610987578063e80cfa5e1461099c578063edc8b8e5146109bd578063ef2046a7146109de575f80fd5b8063cc2a9a5b116100d8578063cc2a9a5b14610907578063db006a7514610926578063df80a52314610945578063dfb3f51a14610966575f80fd5b8063cac71bb6146108be578063cb4e162b146108d3578063cb50d0ba146108e8575f80fd5b8063ab87982711610168578063c0d7865511610143578063c0d786551461084d578063c37b63371461086c578063c45a015514610880578063c5175a1e1461089f575f80fd5b8063ab879827146107d1578063ad3cb1cc146107fe578063b6b55f251461082e575f80fd5b8063a64e4f8a116101a3578063a64e4f8a14610766578063a6b857d014610785578063a8c62e761461079e578063ab5ab48c146107bd575f80fd5b806390ca796b1461070a5780639dd255da146107295780639e252f0014610747575f80fd5b806354fd4d50116102a9578063759d58441161024957806389842e921161021957806389842e92146106af57806389b968dc146106ce5780638a8f773f146106e25780638da5cb5b146106f6575f80fd5b8063759d584414610630578063787a08a61461064f578063820dfa0a146106875780638456cb591461069b575f80fd5b806361d027b31161028457806361d027b3146105bf578063670cdc4f146105de5780636f6c441f146105fd578063715018a61461061c575f80fd5b806354fd4d501461053b5780635bb47808146105715780635c975abb14610590575f80fd5b806336109455116103145780633e413bee116102ef5780633e413bee146104e15780633f4ba83a146105005780634f1ef2861461051457806352d1902d14610527575f80fd5b8063361094551461047457806337eb4f8f1461049657806338e454b1146104cd575f80fd5b806321e6b53d1161034f57806321e6b53d146103de578063247d284b146103fd57806333a100ca1461043657806333f3d62814610455575f80fd5b806309ad7cad1461037f57806319a56b01146103a05780631bdddff9146103bf575f80fd5b3661037b57005b5f80fd5b34801561038a575f80fd5b5061039e610399366004613028565b610a6e565b005b3480156103ab575f80fd5b5061039e6103ba366004613059565b610abe565b3480156103ca575f80fd5b5061039e6103d9366004613072565b610b30565b3480156103e9575f80fd5b5061039e6103f83660046130c3565b610bea565b348015610408575f80fd5b5061041c6104173660046130de565b610ca8565b604080519283526020830191909152015b60405180910390f35b348015610441575f80fd5b5061039e6104503660046130c3565b610d03565b348015610460575f80fd5b5061039e61046f3660046130f5565b610e50565b34801561047f575f80fd5b50610488610fbb565b60405190815260200161042d565b3480156104a1575f80fd5b506002546104b5906001600160a01b031681565b6040516001600160a01b03909116815260200161042d565b3480156104d8575f80fd5b5061039e611092565b3480156104ec575f80fd5b506001546104b5906001600160a01b031681565b34801561050b575f80fd5b5061039e6110be565b61039e610522366004613160565b6110ce565b348015610532575f80fd5b506104886110ed565b348015610546575f80fd5b506040805180820190915260058152640312e322e360dc1b60208201525b60405161042d9190613228565b34801561057c575f80fd5b5061039e61058b3660046130c3565b611109565b34801561059b575f80fd5b505f805160206136a78339815191525460ff165b604051901515815260200161042d565b3480156105ca575f80fd5b506006546104b5906001600160a01b031681565b3480156105e9575f80fd5b5061039e6105f836600461325a565b611159565b348015610608575f80fd5b5061039e6106173660046130de565b6112cc565b348015610627575f80fd5b5061039e6113c8565b34801561063b575f80fd5b5061039e61064a366004613028565b6113d9565b34801561065a575f80fd5b5060065461067290600160e01b900463ffffffff1681565b60405163ffffffff909116815260200161042d565b348015610692575f80fd5b506105af6113fd565b3480156106a6575f80fd5b5061039e611452565b3480156106ba575f80fd5b5061039e6106c936600461327a565b611462565b3480156106d9575f80fd5b5061041c611560565b3480156106ed575f80fd5b50610488611614565b348015610701575f80fd5b506104b561167e565b348015610715575f80fd5b5061039e6107243660046130de565b6116ac565b348015610734575f80fd5b506008546105af90610100900460ff1681565b348015610752575f80fd5b5061039e6107613660046130de565b611813565b348015610771575f80fd5b50600a546105af9062010000900460ff1681565b348015610790575f80fd5b506008546105af9060ff1681565b3480156107a9575f80fd5b506005546104b5906001600160a01b031681565b3480156107c8575f80fd5b506104886118e1565b3480156107dc575f80fd5b50600a546107eb9061ffff1681565b60405161ffff909116815260200161042d565b348015610809575f80fd5b50610564604051806040016040528060058152602001640352e302e360dc1b81525081565b348015610839575f80fd5b5061039e6108483660046130de565b61191b565b348015610858575f80fd5b5061039e6108673660046130c3565b611ad2565b348015610877575f80fd5b50610488611b49565b34801561088b575f80fd5b506004546104b5906001600160a01b031681565b3480156108aa575f80fd5b5061039e6108b936600461325a565b611b77565b3480156108c9575f80fd5b5061048860075481565b3480156108de575f80fd5b5061048860095481565b3480156108f3575f80fd5b506008546105af9062010000900460ff1681565b348015610912575f80fd5b5061039e6109213660046132d5565b611bbc565b348015610931575f80fd5b5061039e6109403660046130de565b611dfb565b348015610950575f80fd5b506006546107eb90600160d01b900461ffff1681565b348015610971575f80fd5b506006546107eb90600160b01b900461ffff1681565b348015610992575f80fd5b506107eb61271081565b3480156109a7575f80fd5b506006546107eb90600160c01b900461ffff1681565b3480156109c8575f80fd5b506006546107eb90600160a01b900461ffff1681565b3480156109e9575f80fd5b50610488611ff9565b3480156109fd575f80fd5b5061039e610a0c3660046130c3565b612097565b348015610a1c575f80fd5b5061039e610a2b3660046130c3565b6120e8565b348015610a3b575f80fd5b506003546104b5906001600160a01b031681565b348015610a5a575f80fd5b5061039e610a69366004613028565b612122565b610a76612173565b6008805460ff19168215159081179091556040519081527fa2f7bdae623c9dd6f7d6e7aed0b764cf282f9b80768c00582bfad352f04fd7e6906020015b60405180910390a150565b610ac6612173565b6107d08161ffff161115610b0e5760405162461bcd60e51b8152600401610b05906020808252600490820152633e32302560e01b604082015260600190565b60405180910390fd5b6006805461ffff909216600160d01b0261ffff60d01b19909216919091179055565b610b38612173565b6103e88261ffff161115610b7a5760405162461bcd60e51b8152602060048201526009602482015268666565203e2031302560b81b6044820152606401610b05565b6009839055600a805461ffff841662ffffff19909116811762010000841515908102919091179092556040805186815260208101929092528101919091527f302bded70b3f397d06b328135c2139e3cb27cfad011ac9c03adeb02dbf53c6c49060600160405180910390a1505050565b610bf2612173565b6001600160a01b038116610c185760405162461bcd60e51b8152600401610b0590613353565b60025460405163f2fde38b60e01b81526001600160a01b0383811660048301529091169063f2fde38b906024015f604051808303815f87803b158015610c5c575f80fd5b505af1158015610c6e573d5f803e3d5ffd5b50506040516001600160a01b03841692507f286c0f711d43c1602559a3b4946805984ec0c75f1e4818f159665a73740c346091505f90a250565b600a545f90819062010000900460ff161580610cc5575060095483105b15610cd157505f929050565b600a5461271090610ce69061ffff1685613385565b610cf0919061339c565b9150610cfc82846133bb565b9050915091565b610d0b612173565b6001600160a01b038116610d5657600580546001600160a01b03191690556040515f907fe70d79dad95c835bdd87e9cf4665651c9e5abb3b756e4fd2bf45f29c95c3aa40908290a250565b600154604080516338d52e0f60e01b815290516001600160a01b03928316928416916338d52e0f9160048083019260209291908290030181865afa158015610da0573d5f803e3d5ffd5b505050506040513d601f19601f82011682018060405250810190610dc491906133ce565b6001600160a01b031614610e065760405162461bcd60e51b815260206004820152600960248201526818985908185cdcd95d60ba1b6044820152606401610b05565b600580546001600160a01b0319166001600160a01b0383169081179091556040517fe70d79dad95c835bdd87e9cf4665651c9e5abb3b756e4fd2bf45f29c95c3aa40905f90a25b50565b610e58612173565b6001546001600160a01b0390811690831603610f58575f64e8d4a5100060025f9054906101000a90046001600160a01b03166001600160a01b03166318160ddd6040518163ffffffff1660e01b8152600401602060405180830381865afa158015610ec5573d5f803e3d5ffd5b505050506040513d601f19601f82011682018060405250810190610ee991906133e9565b610ef3919061339c565b90505f610efe611ff9565b90508181118015610f185750610f1482826133bb565b8311155b610f555760405162461bcd60e51b815260206004820152600e60248201526d657863656564732065786365737360901b6044820152606401610b05565b50505b610f74610f6361167e565b6001600160a01b03841690836121a5565b816001600160a01b03167f68f67de89e96b13a3ea058af5fd44cc125efceb528482d539c7b43db2faa066e82604051610faf91815260200190565b60405180910390a25050565b5f80610fc5611ff9565b90505f60025f9054906101000a90046001600160a01b03166001600160a01b03166318160ddd6040518163ffffffff1660e01b8152600401602060405180830381865afa158015611018573d5f803e3d5ffd5b505050506040513d601f19601f8201168201806040525081019061103c91906133e9565b9050805f0361104f575061271092915050565b5f61105f64e8d4a510008361339c565b9050805f0361107357506127109392505050565b8061108061271085613385565b61108a919061339c565b935050505090565b61109a612173565b6009545f036110bc5762989680600955600a805462ffffff1916620100321790555b565b6110c6612173565b6110bc612209565b6110d6612262565b6110df82612306565b6110e9828261230e565b5050565b5f6110f66123ca565b505f805160206136878339815191525b90565b611111612173565b6001600160a01b0381166111375760405162461bcd60e51b8152600401610b0590613353565b600480546001600160a01b0319166001600160a01b0392909216919091179055565b611161612413565b60085460ff1661119e5760405162461bcd60e51b8152602060048201526008602482015267191a5cd8589b195960c21b6044820152606401610b05565b600654600160a01b900461ffff166111b4611b49565b10156111f35760405162461bcd60e51b815260206004820152600e60248201526d62756666657220746f6f206c6f7760901b6044820152606401610b05565b60065460075461121091600160e01b900463ffffffff1690613400565b42101561124a5760405162461bcd60e51b815260206004820152600860248201526731b7b7b63237bbb760c11b6044820152606401610b05565b5f8211801561125857505f81115b6112745760405162461bcd60e51b8152600401610b0590613353565b61127c6118e1565b8211156112b95760405162461bcd60e51b815260206004820152600b60248201526a0caf0c6cacac8e640dac2f60ab1b6044820152606401610b05565b6112c3828261243b565b6110e960015f55565b6112d4612173565b6112dc612413565b6005546001600160a01b0316158015906112f557505f81115b6113115760405162461bcd60e51b8152600401610b0590613413565b600554604051627b8a6760e11b8152600481018390523060248201525f916001600160a01b03169062f714ce906044016020604051808303815f875af115801561135d573d5f803e3d5ffd5b505050506040513d601f19601f8201168201806040525081019061138191906133e9565b60408051848152602081018390529192507f45c7b09725b519c56f6c8002e81499c39ba974a242e07699ea72bc0417607dff91015b60405180910390a150610e4d60015f55565b6113d0612173565b6110bc5f6127f6565b6113e1612173565b60088054911515620100000262ff000019909216919091179055565b6008545f9060ff1680156114255750600654600160a01b900461ffff16611422611b49565b10155b801561144d575060065460075461144991600160e01b900463ffffffff1690613400565b4210155b905090565b61145a612173565b6110bc612866565b61146a612173565b61271061ffff841611801590611486575061271061ffff831611155b6114a25760405162461bcd60e51b8152600401610b0590613413565b6006805463ffffffff60a01b1916600160a01b61ffff87811691820261ffff60b01b191692909217600160b01b87841690810291909117600163ffff000160c01b0316600160c01b9387169384026001600160e01b031617600160e01b63ffffffff87169081029190911790945560408051928352602083019190915281019190915260608101919091527f669b30f129410a8fc63031ffd482207dd1747799f3ab6d418bdf617e4c7e55d29060800160405180910390a150505050565b5f805f61156b611ff9565b90505f60025f9054906101000a90046001600160a01b03166001600160a01b03166318160ddd6040518163ffffffff1660e01b8152600401602060405180830381865afa1580156115be573d5f803e3d5ffd5b505050506040513d601f19601f820116820180604052508101906115e291906133e9565b90506115f364e8d4a510008261339c565b9250828211611602575f61160c565b61160c83836133bb565b935050509091565b6001546040516370a0823160e01b81523060048201525f916001600160a01b0316906370a0823190602401602060405180830381865afa15801561165a573d5f803e3d5ffd5b505050506040513d601f19601f8201168201806040525081019061144d91906133e9565b7f9016d09d72d40fdae2fd8ceac6b6234c7706214fd39c1cd1e609a0528c199300546001600160a01b031690565b6116b4612173565b6116bc612413565b6005546001600160a01b0316158015906116d557505f81115b6116f15760405162461bcd60e51b8152600401610b0590613413565b60015460055460405163095ea7b360e01b81526001600160a01b0391821660048201526024810184905291169063095ea7b3906044016020604051808303815f875af1158015611743573d5f803e3d5ffd5b505050506040513d601f19601f820116820180604052508101906117679190613434565b50600554604051636e553f6560e01b8152600481018390523060248201525f916001600160a01b031690636e553f65906044016020604051808303815f875af11580156117b6573d5f803e3d5ffd5b505050506040513d601f19601f820116820180604052508101906117da91906133e9565b60408051848152602081018390529192507f06686aaa593b19d01617ac400575a79693899102504b038ef5e3371ff51e4d9f91016113b6565b61181b612173565b5f61182461167e565b6001600160a01b0316826040515f6040518083038185875af1925050503d805f811461186b576040519150601f19603f3d011682016040523d82523d5f602084013e611870565b606091505b50509050806118aa5760405162461bcd60e51b815260206004820152600660248201526519985a5b195960d21b6044820152606401610b05565b6040518281527f2935defdd9ec65bb02dc9049597c404aae26083909722b8e4ecd474eea640a909060200160405180910390a15050565b5f806118eb611560565b506006549091506127109061190b90600160b01b900461ffff1683613385565b611915919061339c565b91505090565b6119236128ae565b61192b612413565b5f81116119685760405162461bcd60e51b815260206004820152600b60248201526a616d6f756e74207a65726f60a81b6044820152606401610b05565b600154611980906001600160a01b03163330846128de565b600a545f90829062010000900460ff16801561199e57506009548310155b15611a0b57600a54612710906119b89061ffff1685613385565b6119c2919061339c565b91506119ce82846133bb565b90505f821180156119e957506006546001600160a01b031615155b15611a0b57600654600154611a0b916001600160a01b039182169116846121a5565b5f611a1b64e8d4a5100083613385565b6002546040516340c10f1960e01b8152336004820152602481018390529192506001600160a01b0316906340c10f19906044015f604051808303815f87803b158015611a65575f80fd5b505af1158015611a77573d5f803e3d5ffd5b505060408051878152602081018590529081018690523392507f36af321ec8d3c75236829c5317affd40ddb308863a1236d2d277a4025cccee1e915060600160405180910390a2611ac661291d565b505050610e4d60015f55565b611ada612173565b6001600160a01b038116611b005760405162461bcd60e51b8152600401610b0590613353565b600380546001600160a01b0319166001600160a01b0383169081179091556040517fc6b438e6a8a59579ce6a4406cbd203b740e0d47b458aae6596339bcd40c40d15905f90a250565b5f80611b53610fbb565b9050612710811115611b7057611b6b612710826133bb565b611915565b5f91505090565b333014611bb25760405162461bcd60e51b815260206004820152600960248201526837b7363c9039b2b63360b91b6044820152606401610b05565b6110e9828261243b565b7ff0c57e16840df040f15088dc2f81fe391c3923bec73e23a9662efc9c229c6a008054600160401b810460ff16159067ffffffffffffffff165f81158015611c015750825b90505f8267ffffffffffffffff166001148015611c1d5750303b155b905081158015611c2b575080155b15611c495760405163f92ee8a960e01b815260040160405180910390fd5b845467ffffffffffffffff191660011785558315611c7357845460ff60401b1916600160401b1785555b611c7c8b612b45565b611c84612b56565b6001600160a01b038a1615801590611ca457506001600160a01b03891615155b8015611cb857506001600160a01b03881615155b8015611ccc57506001600160a01b03871615155b611d045760405162461bcd60e51b81526020600482015260096024820152683d32b9379030b2323960b91b6044820152606401610b05565b600180546001600160a01b03199081166001600160a01b038d8116919091179092556002805482168c84161790556003805482168b841617905560048054909116898316179055600680549188166001600160b01b031990921691909117607d60a31b176001600160b01b0316672a30003e807d027160b31b1790556008805461010162ffffff199182161790915562989680600955600a8054909116620100321790558315611dee57845460ff60401b19168555604051600181527fc7f505b2f371ae2175ee4913f4499e1f2633a7b5936321eed1cdaeb6115181d29060200160405180910390a15b5050505050505050505050565b611e036128ae565b611e0b612413565b5f8111611e485760405162461bcd60e51b815260206004820152600b60248201526a616d6f756e74207a65726f60a81b6044820152606401610b05565b5f611e5864e8d4a510008361339c565b90505f8111611e9c5760405162461bcd60e51b815260206004820152601060248201526f185b5bdd5b9d081d1bdbc81cdb585b1b60821b6044820152606401610b05565b6001546040516370a0823160e01b81523060048201525f916001600160a01b0316906370a0823190602401602060405180830381865afa158015611ee2573d5f803e3d5ffd5b505050506040513d601f19601f82011682018060405250810190611f0691906133e9565b905081811015611f2257611f22611f1d82846133bb565b612b5e565b600254611f3a906001600160a01b03163330866128de565b600254604051630852cd8d60e31b8152600481018590526001600160a01b03909116906342966c68906024015f604051808303815f87803b158015611f7d575f80fd5b505af1158015611f8f573d5f803e3d5ffd5b5050600154611fab92506001600160a01b0316905033846121a5565b604080518481526020810184905233917fe5b754fb1abb7f01b499791d0b820ae3b6af3424ac1c59768edb53f4ec31a929910160405180910390a2611fee61291d565b5050610e4d60015f55565b6005545f906001600160a01b0316612011575f612085565b60055f9054906101000a90046001600160a01b03166001600160a01b03166301e1d1146040518163ffffffff1660e01b8152600401602060405180830381865afa158015612061573d5f803e3d5ffd5b505050506040513d601f19601f8201168201806040525081019061208591906133e9565b61208d611614565b61144d9190613400565b61209f612173565b600680546001600160a01b0319166001600160a01b0383169081179091556040517f3c864541ef71378c6229510ed90f376565ee42d9c5e0904a984a9e863e6db44f905f90a250565b6120f0612173565b6001600160a01b03811661211957604051631e4fbdf760e01b81525f6004820152602401610b05565b610e4d816127f6565b61212a612173565b600880548215156101000261ff00199091161790556040517f78fc20422fbd33cc7aef5e4e1c182fdc815f20c1c15af2ff53e83c223017dbf890610ab390831515815260200190565b3361217c61167e565b6001600160a01b0316146110bc5760405163118cdaa760e01b8152336004820152602401610b05565b6040516001600160a01b0383811660248301526044820183905261220491859182169063a9059cbb906064015b604051602081830303815290604052915060e01b6020820180516001600160e01b038381831617835250505050612cbb565b505050565b612211612d1c565b5f805160206136a7833981519152805460ff191681557f5db9ee0a495bf2e6ff9c91a7834c1ba4fdd244a5e8aa4e537bd38aeae4b073aa335b6040516001600160a01b039091168152602001610ab3565b306001600160a01b037f00000000000000000000000000000000000000000000000000000000000000001614806122e857507f00000000000000000000000000000000000000000000000000000000000000006001600160a01b03166122dc5f80516020613687833981519152546001600160a01b031690565b6001600160a01b031614155b156110bc5760405163703e46dd60e11b815260040160405180910390fd5b610e4d612173565b816001600160a01b03166352d1902d6040518163ffffffff1660e01b8152600401602060405180830381865afa925050508015612368575060408051601f3d908101601f19168201909252612365918101906133e9565b60015b61239057604051634c9c8ce360e01b81526001600160a01b0383166004820152602401610b05565b5f8051602061368783398151915281146123c057604051632a87526960e21b815260048101829052602401610b05565b6122048383612d4b565b306001600160a01b037f000000000000000000000000000000000000000000000000000000000000000016146110bc5760405163703e46dd60e11b815260040160405180910390fd5b60025f540361243557604051633ee5aeb560e01b815260040160405180910390fd5b60025f55565b6001546040516370a0823160e01b81523060048201525f916001600160a01b0316906370a0823190602401602060405180830381865afa158015612481573d5f803e3d5ffd5b505050506040513d601f19601f820116820180604052508101906124a591906133e9565b9050828110156124bc576124bc611f1d82856133bb565b6006545f90612710906124da90600160c01b900461ffff1686613385565b6124e4919061339c565b90505f6124f182866133bb565b90505f8211801561250c57506006546001600160a01b031615155b1561252e5760065460015461252e916001600160a01b039182169116846121a5565b60015460035460405163095ea7b360e01b81526001600160a01b0391821660048201526024810184905291169063095ea7b3906044016020604051808303815f875af1158015612580573d5f803e3d5ffd5b505050506040513d601f19601f820116820180604052508101906125a49190613434565b506040805160018082528183019092525f91816020015b604080516080810182525f8082526020808301829052928201819052606082015282525f199092019101816125bb57905050604080516080810182526001546001600160a01b0390811682526002548116602083015260085462010000900460ff16151592820192909252600454909116606082015281519192509082905f906126475761264761344f565b60209081029190910101526003545f906001600160a01b031663cac88ea98488853061267542610258613400565b6040518663ffffffff1660e01b8152600401612695959493929190613463565b5f604051808303815f875af11580156126b0573d5f803e3d5ffd5b505050506040513d5f823e601f3d908101601f191682016040526126d79190810190613506565b90505f81600183516126e991906133bb565b815181106126f9576126f961344f565b602002602001015190508681101561273e5760405162461bcd60e51b8152602060048201526008602482015267736c69707061676560c01b6044820152606401610b05565b600254604051630852cd8d60e31b8152600481018390526001600160a01b03909116906342966c68906024015f604051808303815f87803b158015612781575f80fd5b505af1158015612793573d5f803e3d5ffd5b505042600755503090507f43d5ca07d16cb34153ec6a6da0a7d227c02bd8d588f899c1195cf377bf2db0aa8983886127c9610fbb565b60408051948552602085019390935291830152606082015260800160405180910390a25050505050505050565b7f9016d09d72d40fdae2fd8ceac6b6234c7706214fd39c1cd1e609a0528c19930080546001600160a01b031981166001600160a01b03848116918217845560405192169182907f8be0079c531659141344cd1fd0a4f28419497f9722a3daafe3b4186f6b6457e0905f90a3505050565b61286e6128ae565b5f805160206136a7833981519152805460ff191660011781557f62e78cea01bee320cd4e420270b5ea74000d11b0c9f74754ebdbfc544b05a2583361224a565b5f805160206136a78339815191525460ff16156110bc5760405163d93c066560e01b815260040160405180910390fd5b6040516001600160a01b0384811660248301528381166044830152606482018390526129179186918216906323b872dd906084016121d2565b50505050565b600854610100900460ff161580612937575060085460ff16155b1561293e57565b600654600160a01b900461ffff16612954611b49565b108061297b575060065460075461297891600160e01b900463ffffffff1690613400565b42105b1561298257565b5f61298b6118e1565b9050805f036129975750565b5f6129a360028361339c565b9050620f42408110156129b4575050565b6006545f90612710906129d290600160c01b900461ffff1684613385565b6129dc919061339c565b90505f6129e982846133bb565b6006549091505f9061271090612a0a90600160d01b900461ffff16826135a8565b61ffff16612a1d64e8d4a5100085613385565b612a279190613385565b612a31919061339c565b60405163628bad0f60e11b81526004810186905260248101829052909150309063c5175a1e906044015f604051808303815f87803b158015612a71575f80fd5b505af1925050508015612a82575060015b612b3e57612a8e6135ca565b806308c379a003612aea5750612aa26135e2565b80612aad5750612aec565b7fd314414cc11b710b92b9ef782f355a959b4d2023600c36fd87115ca5b4683a8b81604051612adc9190613228565b60405180910390a150612b3e565b505b7fd314414cc11b710b92b9ef782f355a959b4d2023600c36fd87115ca5b4683a8b604051612b35906020808252600790820152663ab735b737bbb760c91b604082015260600190565b60405180910390a15b5050505050565b612b4d612da0565b610e4d81612de9565b6110bc612da0565b6005546001600160a01b0316612ba45760405162461bcd60e51b815260206004820152600b60248201526a6e6f20737472617465677960a81b6044820152606401610b05565b600554604080516278744560e21b8152905183926001600160a01b0316916301e1d1149160048083019260209291908290030181865afa158015612bea573d5f803e3d5ffd5b505050506040513d601f19601f82011682018060405250810190612c0e91906133e9565b1015612c4b5760405162461bcd60e51b815260206004820152600c60248201526b1a5b9cdd59999a58da595b9d60a21b6044820152606401610b05565b600554604051627b8a6760e11b8152600481018390523060248201526001600160a01b039091169062f714ce906044016020604051808303815f875af1158015612c97573d5f803e3d5ffd5b505050506040513d601f19601f820116820180604052508101906110e991906133e9565b5f612ccf6001600160a01b03841683612df1565b905080515f14158015612cf3575080806020019051810190612cf19190613434565b155b1561220457604051635274afe760e01b81526001600160a01b0384166004820152602401610b05565b5f805160206136a78339815191525460ff166110bc57604051638dfc202b60e01b815260040160405180910390fd5b612d5482612e07565b6040516001600160a01b038316907fbc7cd75a20ee27fd9adebab32041f755214dbc6bffa90cc0225b39da2e5c2d3b905f90a2805115612d98576122048282612e6a565b6110e9612edc565b7ff0c57e16840df040f15088dc2f81fe391c3923bec73e23a9662efc9c229c6a0054600160401b900460ff166110bc57604051631afcd79f60e31b815260040160405180910390fd5b6120f0612da0565b6060612dfe83835f612efb565b90505b92915050565b806001600160a01b03163b5f03612e3c57604051634c9c8ce360e01b81526001600160a01b0382166004820152602401610b05565b5f8051602061368783398151915280546001600160a01b0319166001600160a01b0392909216919091179055565b60605f80846001600160a01b031684604051612e86919061366b565b5f60405180830381855af49150503d805f8114612ebe576040519150601f19603f3d011682016040523d82523d5f602084013e612ec3565b606091505b5091509150612ed3858383612f96565b95945050505050565b34156110bc5760405163b398979f60e01b815260040160405180910390fd5b606081471015612f205760405163cd78605960e01b8152306004820152602401610b05565b5f80856001600160a01b03168486604051612f3b919061366b565b5f6040518083038185875af1925050503d805f8114612f75576040519150601f19603f3d011682016040523d82523d5f602084013e612f7a565b606091505b5091509150612f8a868383612f96565b925050505b9392505050565b606082612fab57612fa682612ff2565b612f8f565b8151158015612fc257506001600160a01b0384163b155b15612feb57604051639996b31560e01b81526001600160a01b0385166004820152602401610b05565b5080612f8f565b8051156130025780518082602001fd5b604051630a12f52160e11b815260040160405180910390fd5b8015158114610e4d575f80fd5b5f60208284031215613038575f80fd5b8135612f8f8161301b565b803561ffff81168114613054575f80fd5b919050565b5f60208284031215613069575f80fd5b612dfe82613043565b5f805f60608486031215613084575f80fd5b8335925061309460208501613043565b915060408401356130a48161301b565b809150509250925092565b6001600160a01b0381168114610e4d575f80fd5b5f602082840312156130d3575f80fd5b8135612f8f816130af565b5f602082840312156130ee575f80fd5b5035919050565b5f8060408385031215613106575f80fd5b8235613111816130af565b946020939093013593505050565b634e487b7160e01b5f52604160045260245ffd5b601f8201601f1916810167ffffffffffffffff811182821017156131595761315961311f565b6040525050565b5f8060408385031215613171575f80fd5b823561317c816130af565b915060208381013567ffffffffffffffff80821115613199575f80fd5b818601915086601f8301126131ac575f80fd5b8135818111156131be576131be61311f565b60405191506131d6601f8201601f1916850183613133565b80825287848285010111156131e9575f80fd5b80848401858401375f848284010152508093505050509250929050565b5f5b83811015613220578181015183820152602001613208565b50505f910152565b602081525f8251806020840152613246816040850160208701613206565b601f01601f19169190910160400192915050565b5f806040838503121561326b575f80fd5b50508035926020909101359150565b5f805f806080858703121561328d575f80fd5b61329685613043565b93506132a460208601613043565b92506132b260408601613043565b9150606085013563ffffffff811681146132ca575f80fd5b939692955090935050565b5f805f805f8060c087890312156132ea575f80fd5b86356132f5816130af565b95506020870135613305816130af565b94506040870135613315816130af565b93506060870135613325816130af565b92506080870135613335816130af565b915060a0870135613345816130af565b809150509295509295509295565b6020808252600490820152637a65726f60e01b604082015260600190565b634e487b7160e01b5f52601160045260245ffd5b8082028115828204841417612e0157612e01613371565b5f826133b657634e487b7160e01b5f52601260045260245ffd5b500490565b81810381811115612e0157612e01613371565b5f602082840312156133de575f80fd5b8151612f8f816130af565b5f602082840312156133f9575f80fd5b5051919050565b80820180821115612e0157612e01613371565b6020808252600790820152661a5b9d985b1a5960ca1b604082015260600190565b5f60208284031215613444575f80fd5b8151612f8f8161301b565b634e487b7160e01b5f52603260045260245ffd5b5f60a082018783526020876020850152604060a0604086015282885180855260c08701915060208a0194505f5b818110156134da57855180516001600160a01b0390811685528682015181168786015285820151151586860152606091820151169084015294840194608090920191600101613490565b50506001600160a01b038816606087015293506134f692505050565b8260808301529695505050505050565b5f6020808385031215613517575f80fd5b825167ffffffffffffffff8082111561352e575f80fd5b818501915085601f830112613541575f80fd5b8151818111156135535761355361311f565b8060051b915060405161356885840182613133565b81815291830184019184810188841115613580575f80fd5b938501935b8385101561359c5784518152938501938501613585565b50979650505050505050565b61ffff8281168282160390808211156135c3576135c3613371565b5092915050565b5f60033d11156111065760045f803e505f5160e01c90565b5f60443d10156135ef5790565b6040516003193d81016004833e81513d67ffffffffffffffff816024840111818411171561361f57505050505090565b82850191508151818111156136375750505050505090565b843d87010160208285010111156136515750505050505090565b61366060208286010187613133565b509095945050505050565b5f825161367c818460208701613206565b919091019291505056fe360894a13ba1a3210667c828492db98dca3e2076cc3735a920a3ca505d382bbccd5ed15c6e187e77e9aee88184c21f4f2182ab5827cb3b7e07fbedcd63f03300a2646970667358221220079d1dc080cf7a99fcef5e83d120a89bb4fe131b770eb5497db9034d3f325fb764736f6c63430008180033","linkReferences":{}},"methodIdentifiers":{"BPS_DENOMINATOR()":"e1a45218","UPGRADE_INTERFACE_VERSION()":"ad3cb1cc","allocate(uint256)":"90ca796b","autoBurnEnabled()":"9dd255da","autoSlippageBps()":"df80a523","backingBps()":"36109455","bufferBps()":"c37b6337","bufferUSDC()":"89b968dc","buyAndBurn(uint256,uint256)":"670cdc4f","buyAndBurnEnabled()":"a6b857d0","calculateDepositFee(uint256)":"247d284b","canBuyAndBurn()":"820dfa0a","cooldown()":"787a08a6","deallocate(uint256)":"6f6c441f","deposit(uint256)":"b6b55f25","depositFeeBps()":"ab879827","executeBuyAndBurn(uint256,uint256)":"c5175a1e","factory()":"c45a0155","feeThreshold()":"cb4e162b","feesEnabled()":"a64e4f8a","initialize(address,address,address,address,address,address)":"cc2a9a5b","initializeV3()":"38e454b1","lastBuyAndBurn()":"cac71bb6","maxBuyAndBurnUSDC()":"ab5ab48c","maxBuyBps()":"dfb3f51a","novis()":"37eb4f8f","owner()":"8da5cb5b","pause()":"8456cb59","paused()":"5c975abb","poolStable()":"cb50d0ba","proxiableUUID()":"52d1902d","redeem(uint256)":"db006a75","renounceOwnership()":"715018a6","rescueETH(uint256)":"9e252f00","rescueToken(address,uint256)":"33f3d628","router()":"f887ea40","setAutoSlippageBps(uint16)":"19a56b01","setBuyAndBurnParams(uint16,uint16,uint16,uint32)":"89842e92","setFactory(address)":"5bb47808","setFeeParams(uint256,uint16,bool)":"1bdddff9","setPoolStable(bool)":"759d5844","setRouter(address)":"c0d78655","setStrategy(address)":"33a100ca","setTreasury(address)":"f0f44260","strategy()":"a8c62e76","toggleAutoBurn(bool)":"ffc149da","toggleBuyAndBurn(bool)":"09ad7cad","totalBackingUSDC()":"ef2046a7","transferOwnership(address)":"f2fde38b","transferTokenOwnership(address)":"21e6b53d","treasury()":"61d027b3","treasuryFeeBps()":"e80cfa5e","triggerBufferBps()":"edc8b8e5","unpause()":"3f4ba83a","upgradeToAndCall(address,bytes)":"4f1ef286","usdc()":"3e413bee","vaultUSDC()":"8a8f773f","version()":"54fd4d50"},"id":15}