{"abi":[{"type":"constructor","inputs":[{"name":"_usdc","type":"address","internalType":"address"},{"name":"_eusd","type":"address","internalType":"address"},{"name":"_owner","type":"address","internalType":"address"}],"stateMutability":"nonpayable"},{"type":"function","name":"deposit","inputs":[{"name":"usdcAmount","type":"uint256","internalType":"uint256"}],"outputs":[],"stateMutability":"nonpayable"},{"type":"function","name":"emergencyWithdrawUSDC","inputs":[{"name":"to","type":"address","internalType":"address"},{"name":"amount","type":"uint256","internalType":"uint256"}],"outputs":[],"stateMutability":"nonpayable"},{"type":"function","name":"eusd","inputs":[],"outputs":[{"name":"","type":"address","internalType":"contract IEUSD"}],"stateMutability":"view"},{"type":"function","name":"owner","inputs":[],"outputs":[{"name":"","type":"address","internalType":"address"}],"stateMutability":"view"},{"type":"function","name":"pause","inputs":[],"outputs":[],"stateMutability":"nonpayable"},{"type":"function","name":"paused","inputs":[],"outputs":[{"name":"","type":"bool","internalType":"bool"}],"stateMutability":"view"},{"type":"function","name":"redeem","inputs":[{"name":"eusdAmount","type":"uint256","internalType":"uint256"}],"outputs":[],"stateMutability":"nonpayable"},{"type":"function","name":"renounceOwnership","inputs":[],"outputs":[],"stateMutability":"nonpayable"},{"type":"function","name":"transferOwnership","inputs":[{"name":"newOwner","type":"address","internalType":"address"}],"outputs":[],"stateMutability":"nonpayable"},{"type":"function","name":"unpause","inputs":[],"outputs":[],"stateMutability":"nonpayable"},{"type":"function","name":"usdc","inputs":[],"outputs":[{"name":"","type":"address","internalType":"contract IERC20"}],"stateMutability":"view"},{"type":"event","name":"EmergencyUSDCWithdraw","inputs":[{"name":"to","type":"address","indexed":true,"internalType":"address"},{"name":"amount","type":"uint256","indexed":false,"internalType":"uint256"}],"anonymous":false},{"type":"event","name":"Minted","inputs":[{"name":"user","type":"address","indexed":true,"internalType":"address"},{"name":"usdcIn","type":"uint256","indexed":false,"internalType":"uint256"},{"name":"eusdOut","type":"uint256","indexed":false,"internalType":"uint256"}],"anonymous":false},{"type":"event","name":"OwnershipTransferred","inputs":[{"name":"previousOwner","type":"address","indexed":true,"internalType":"address"},{"name":"newOwner","type":"address","indexed":true,"internalType":"address"}],"anonymous":false},{"type":"event","name":"Paused","inputs":[{"name":"account","type":"address","indexed":false,"internalType":"address"}],"anonymous":false},{"type":"event","name":"Redeemed","inputs":[{"name":"user","type":"address","indexed":true,"internalType":"address"},{"name":"eusdIn","type":"uint256","indexed":false,"internalType":"uint256"},{"name":"usdcOut","type":"uint256","indexed":false,"internalType":"uint256"}],"anonymous":false},{"type":"event","name":"Unpaused","inputs":[{"name":"account","type":"address","indexed":false,"internalType":"address"}],"anonymous":false},{"type":"error","name":"EnforcedPause","inputs":[]},{"type":"error","name":"ExpectedPause","inputs":[]},{"type":"error","name":"OwnableInvalidOwner","inputs":[{"name":"owner","type":"address","internalType":"address"}]},{"type":"error","name":"OwnableUnauthorizedAccount","inputs":[{"name":"account","type":"address","internalType":"address"}]},{"type":"error","name":"ReentrancyGuardReentrantCall","inputs":[]},{"type":"error","name":"SafeERC20FailedOperation","inputs":[{"name":"token","type":"address","internalType":"address"}]}],"bytecode":{"object":"0x60c060405234801561000f575f80fd5b50604051610ade380380610ade83398101604081905261002e91610159565b806001600160a01b03811661005d57604051631e4fbdf760e01b81525f60048201526024015b60405180910390fd5b610066816100ef565b50600180556001600160a01b0383161580159061008b57506001600160a01b03821615155b801561009f57506001600160a01b03811615155b6100d75760405162461bcd60e51b81526020600482015260096024820152683d32b9379030b2323960b91b6044820152606401610054565b506001600160a01b039182166080521660a052610199565b5f80546001600160a01b038381166001600160a01b0319831681178455604051919092169283917f8be0079c531659141344cd1fd0a4f28419497f9722a3daafe3b4186f6b6457e09190a35050565b80516001600160a01b0381168114610154575f80fd5b919050565b5f805f6060848603121561016b575f80fd5b6101748461013e565b92506101826020850161013e565b91506101906040850161013e565b90509250925092565b60805160a0516108fb6101e35f395f818161012c015281816103100152818161040f015261044d01525f818160af015281816101ce015281816102b901526104cd01526108fb5ff3fe608060405234801561000f575f80fd5b50600436106100a6575f3560e01c8063715018a61161006e578063715018a61461014e5780638456cb59146101565780638da5cb5b1461015e578063b6b55f251461016e578063db006a7514610181578063f2fde38b14610194575f80fd5b80633e413bee146100aa5780633f4ba83a146100ee5780633fac8105146100f85780635c975abb1461010b5780636019f28a14610127575b5f80fd5b6100d17f000000000000000000000000000000000000000000000000000000000000000081565b6040516001600160a01b0390911681526020015b60405180910390f35b6100f66101a7565b005b6100f661010636600461081e565b6101b9565b5f54600160a01b900460ff1660405190151581526020016100e5565b6100d17f000000000000000000000000000000000000000000000000000000000000000081565b6100f661023c565b6100f661024d565b5f546001600160a01b03166100d1565b6100f661017c366004610846565b61025d565b6100f661018f366004610846565b6103b8565b6100f66101a236600461085d565b61052c565b6101af610566565b6101b7610592565b565b6101c1610566565b6101f56001600160a01b037f00000000000000000000000000000000000000000000000000000000000000001683836105e6565b816001600160a01b03167fb1718d6bc67f8ff7d846d94b58097f4cfd836cc29cbfcf81ddbdd57df5d2404d8260405161023091815260200190565b60405180910390a25050565b610244610566565b6101b75f61064a565b610255610566565b6101b7610699565b6102656106db565b61026d610705565b5f81116102ac5760405162461bcd60e51b81526020600482015260086024820152670616d6f756e743d360c41b60448201526064015b60405180910390fd5b6102e16001600160a01b037f00000000000000000000000000000000000000000000000000000000000000001633308461072f565b5f6102f164e8d4a510008361087d565b6040516340c10f1960e01b8152336004820152602481018290529091507f00000000000000000000000000000000000000000000000000000000000000006001600160a01b0316906340c10f19906044015f604051808303815f87803b158015610359575f80fd5b505af115801561036b573d5f803e3d5ffd5b505060408051858152602081018590523393507f25b428dfde728ccfaddad7e29e4ac23c24ed7fd1a6e3e3f91894a9a073f5dfff9250015b60405180910390a2506103b560018055565b50565b6103c06106db565b6103c8610705565b5f81116104025760405162461bcd60e51b81526020600482015260086024820152670616d6f756e743d360c41b60448201526064016102a3565b6104376001600160a01b037f00000000000000000000000000000000000000000000000000000000000000001633308461072f565b604051630852cd8d60e31b8152600481018290527f00000000000000000000000000000000000000000000000000000000000000006001600160a01b0316906342966c68906024015f604051808303815f87803b158015610496575f80fd5b505af11580156104a8573d5f803e3d5ffd5b505050505f64e8d4a51000826104be91906108a6565b90506104f46001600160a01b037f00000000000000000000000000000000000000000000000000000000000000001633836105e6565b604080518381526020810183905233917ff3a670cd3af7d64b488926880889d08a8585a138ff455227af6737339a1ec26291016103a3565b610534610566565b6001600160a01b03811661055d57604051631e4fbdf760e01b81525f60048201526024016102a3565b6103b58161064a565b5f546001600160a01b031633146101b75760405163118cdaa760e01b81523360048201526024016102a3565b61059a61076e565b5f805460ff60a01b191690557f5db9ee0a495bf2e6ff9c91a7834c1ba4fdd244a5e8aa4e537bd38aeae4b073aa335b6040516001600160a01b03909116815260200160405180910390a1565b6040516001600160a01b0383811660248301526044820183905261064591859182169063a9059cbb906064015b604051602081830303815290604052915060e01b6020820180516001600160e01b038381831617835250505050610797565b505050565b5f80546001600160a01b038381166001600160a01b0319831681178455604051919092169283917f8be0079c531659141344cd1fd0a4f28419497f9722a3daafe3b4186f6b6457e09190a35050565b6106a1610705565b5f805460ff60a01b1916600160a01b1790557f62e78cea01bee320cd4e420270b5ea74000d11b0c9f74754ebdbfc544b05a2586105c93390565b6002600154036106fe57604051633ee5aeb560e01b815260040160405180910390fd5b6002600155565b5f54600160a01b900460ff16156101b75760405163d93c066560e01b815260040160405180910390fd5b6040516001600160a01b0384811660248301528381166044830152606482018390526107689186918216906323b872dd90608401610613565b50505050565b5f54600160a01b900460ff166101b757604051638dfc202b60e01b815260040160405180910390fd5b5f8060205f8451602086015f885af1806107b6576040513d5f823e3d81fd5b50505f513d915081156107cd5780600114156107da565b6001600160a01b0384163b155b1561076857604051635274afe760e01b81526001600160a01b03851660048201526024016102a3565b80356001600160a01b0381168114610819575f80fd5b919050565b5f806040838503121561082f575f80fd5b61083883610803565b946020939093013593505050565b5f60208284031215610856575f80fd5b5035919050565b5f6020828403121561086d575f80fd5b61087682610803565b9392505050565b80820281158282048414176108a057634e487b7160e01b5f52601160045260245ffd5b92915050565b5f826108c057634e487b7160e01b5f52601260045260245ffd5b50049056fea26469706673582212200c928184367419d851eaf56eace4c7bcf24b907f07c88d851b8ce10a203d14b664736f6c63430008180033","linkReferences":{}},"methodIdentifiers":{"deposit(uint256)":"b6b55f25","emergencyWithdrawUSDC(address,uint256)":"3fac8105","eusd()":"6019f28a","owner()":"8da5cb5b","pause()":"8456cb59","paused()":"5c975abb","redeem(uint256)":"db006a75","renounceOwnership()":"715018a6","transferOwnership(address)":"f2fde38b","unpause()":"3f4ba83a","usdc()":"3e413bee"},"id":3}