{"abi":[{"type":"constructor","inputs":[{"name":"_usdc","type":"address","internalType":"address"},{"name":"_eusd","type":"address","internalType":"address"},{"name":"initialOwner","type":"address","internalType":"address"}],"stateMutability":"nonpayable"},{"type":"function","name":"allocate","inputs":[{"name":"amountUSDC","type":"uint256","internalType":"uint256"}],"outputs":[],"stateMutability":"nonpayable"},{"type":"function","name":"deallocate","inputs":[{"name":"shares","type":"uint256","internalType":"uint256"}],"outputs":[],"stateMutability":"nonpayable"},{"type":"function","name":"deposit","inputs":[{"name":"amountUSDC","type":"uint256","internalType":"uint256"}],"outputs":[],"stateMutability":"nonpayable"},{"type":"function","name":"eusd","inputs":[],"outputs":[{"name":"","type":"address","internalType":"contract IEUSD"}],"stateMutability":"view"},{"type":"function","name":"owner","inputs":[],"outputs":[{"name":"","type":"address","internalType":"address"}],"stateMutability":"view"},{"type":"function","name":"pause","inputs":[],"outputs":[],"stateMutability":"nonpayable"},{"type":"function","name":"paused","inputs":[],"outputs":[{"name":"","type":"bool","internalType":"bool"}],"stateMutability":"view"},{"type":"function","name":"redeem","inputs":[{"name":"amountEUSD","type":"uint256","internalType":"uint256"}],"outputs":[],"stateMutability":"nonpayable"},{"type":"function","name":"renounceOwnership","inputs":[],"outputs":[],"stateMutability":"nonpayable"},{"type":"function","name":"setStrategy","inputs":[{"name":"s","type":"address","internalType":"address"}],"outputs":[],"stateMutability":"nonpayable"},{"type":"function","name":"strategy","inputs":[],"outputs":[{"name":"","type":"address","internalType":"contract IStrategy"}],"stateMutability":"view"},{"type":"function","name":"strategyShares","inputs":[],"outputs":[{"name":"","type":"uint256","internalType":"uint256"}],"stateMutability":"view"},{"type":"function","name":"totalBackingUSDC","inputs":[],"outputs":[{"name":"","type":"uint256","internalType":"uint256"}],"stateMutability":"view"},{"type":"function","name":"transferOwnership","inputs":[{"name":"newOwner","type":"address","internalType":"address"}],"outputs":[],"stateMutability":"nonpayable"},{"type":"function","name":"unpause","inputs":[],"outputs":[],"stateMutability":"nonpayable"},{"type":"function","name":"usdc","inputs":[],"outputs":[{"name":"","type":"address","internalType":"contract IERC20"}],"stateMutability":"view"},{"type":"function","name":"vaultUSDC","inputs":[],"outputs":[{"name":"","type":"uint256","internalType":"uint256"}],"stateMutability":"view"},{"type":"event","name":"Allocated","inputs":[{"name":"amountUSDC","type":"uint256","indexed":false,"internalType":"uint256"},{"name":"sharesReceived","type":"uint256","indexed":false,"internalType":"uint256"}],"anonymous":false},{"type":"event","name":"Deallocated","inputs":[{"name":"sharesBurned","type":"uint256","indexed":false,"internalType":"uint256"},{"name":"assetsReceived","type":"uint256","indexed":false,"internalType":"uint256"}],"anonymous":false},{"type":"event","name":"OwnershipTransferred","inputs":[{"name":"previousOwner","type":"address","indexed":true,"internalType":"address"},{"name":"newOwner","type":"address","indexed":true,"internalType":"address"}],"anonymous":false},{"type":"event","name":"Paused","inputs":[{"name":"account","type":"address","indexed":false,"internalType":"address"}],"anonymous":false},{"type":"event","name":"StrategySet","inputs":[{"name":"strategy","type":"address","indexed":true,"internalType":"address"}],"anonymous":false},{"type":"event","name":"Unpaused","inputs":[{"name":"account","type":"address","indexed":false,"internalType":"address"}],"anonymous":false},{"type":"error","name":"AddressEmptyCode","inputs":[{"name":"target","type":"address","internalType":"address"}]},{"type":"error","name":"AddressInsufficientBalance","inputs":[{"name":"account","type":"address","internalType":"address"}]},{"type":"error","name":"EnforcedPause","inputs":[]},{"type":"error","name":"ExpectedPause","inputs":[]},{"type":"error","name":"FailedInnerCall","inputs":[]},{"type":"error","name":"OwnableInvalidOwner","inputs":[{"name":"owner","type":"address","internalType":"address"}]},{"type":"error","name":"OwnableUnauthorizedAccount","inputs":[{"name":"account","type":"address","internalType":"address"}]},{"type":"error","name":"ReentrancyGuardReentrantCall","inputs":[]},{"type":"error","name":"SafeERC20FailedOperation","inputs":[{"name":"token","type":"address","internalType":"address"}]}],"bytecode":{"object":"0x60c060405234801562000010575f80fd5b506040516200123438038062001234833981016040819052620000339162000168565b806001600160a01b0381166200006357604051631e4fbdf760e01b81525f60048201526024015b60405180910390fd5b6200006e81620000fd565b505f805460ff60a01b19169055600180556200008a81620000fd565b6001600160a01b03831615801590620000ab57506001600160a01b03821615155b620000e45760405162461bcd60e51b81526020600482015260086024820152673130b21030b2323960c11b60448201526064016200005a565b506001600160a01b039182166080521660a052620001af565b5f80546001600160a01b038381166001600160a01b0319831681178455604051919092169283917f8be0079c531659141344cd1fd0a4f28419497f9722a3daafe3b4186f6b6457e09190a35050565b80516001600160a01b038116811462000163575f80fd5b919050565b5f805f606084860312156200017b575f80fd5b62000186846200014c565b925062000196602085016200014c565b9150620001a6604085016200014c565b90509250925092565b60805160a05161102b620002095f395f818161018c015281816108470152818161091a015261095801525f8181610124015281816102bb015281816105ec015281816106c10152818161081501526109d8015261102b5ff3fe608060405234801561000f575f80fd5b5060043610610106575f3560e01c80638456cb591161009e578063a8c62e761161006e578063a8c62e7614610212578063b6b55f2514610225578063db006a7514610238578063ef2046a71461024b578063f2fde38b14610253575f80fd5b80638456cb59146101df5780638a8f773f146101e75780638da5cb5b146101ef57806390ca796b146101ff575f80fd5b80636019f28a116100d95780636019f28a146101875780636f6c441f146101ae578063715018a6146101c15780637fc938b9146101c9575f80fd5b806333a100ca1461010a5780633e413bee1461011f5780633f4ba83a146101635780635c975abb1461016b575b5f80fd5b61011d610118366004610ec7565b610266565b005b6101467f000000000000000000000000000000000000000000000000000000000000000081565b6040516001600160a01b0390911681526020015b60405180910390f35b61011d6103d4565b5f54600160a01b900460ff16604051901515815260200161015a565b6101467f000000000000000000000000000000000000000000000000000000000000000081565b61011d6101bc366004610ee2565b6103e6565b61011d61052d565b6101d161053e565b60405190815260200161015a565b61011d6105c5565b6101d16105d5565b5f546001600160a01b0316610146565b61011d61020d366004610ee2565b610623565b600254610146906001600160a01b031681565b61011d610233366004610ee2565b6107d9565b61011d610246366004610ee2565b6108de565b6101d1610a09565b61011d610261366004610ec7565b610ab1565b61026e610aeb565b6001600160a01b0381166102b957600280546001600160a01b03191690556040515f907fe70d79dad95c835bdd87e9cf4665651c9e5abb3b756e4fd2bf45f29c95c3aa40908290a250565b7f00000000000000000000000000000000000000000000000000000000000000006001600160a01b0316816001600160a01b03166338d52e0f6040518163ffffffff1660e01b8152600401602060405180830381865afa15801561031f573d5f803e3d5ffd5b505050506040513d601f19601f820116820180604052508101906103439190610ef9565b6001600160a01b03161461038a5760405162461bcd60e51b815260206004820152600960248201526818985908185cdcd95d60ba1b60448201526064015b60405180910390fd5b600280546001600160a01b0319166001600160a01b0383169081179091556040517fe70d79dad95c835bdd87e9cf4665651c9e5abb3b756e4fd2bf45f29c95c3aa40905f90a25b50565b6103dc610aeb565b6103e4610b17565b565b6103ee610aeb565b6103f6610b6b565b6002546001600160a01b031661043c5760405162461bcd60e51b815260206004820152600b60248201526a6e6f20737472617465677960a81b6044820152606401610381565b5f81116104765760405162461bcd60e51b815260206004820152600860248201526707368617265733d360c41b6044820152606401610381565b600254604051627b8a6760e11b8152600481018390523060248201525f916001600160a01b03169062f714ce906044016020604051808303815f875af11580156104c2573d5f803e3d5ffd5b505050506040513d601f19601f820116820180604052508101906104e69190610f14565b60408051848152602081018390529192507f45c7b09725b519c56f6c8002e81499c39ba974a242e07699ea72bc0417607dff91015b60405180910390a1506103d160018055565b610535610aeb565b6103e45f610b95565b6002545f906001600160a01b031661055557505f90565b6002546040516370a0823160e01b81523060048201526001600160a01b03909116906370a08231906024015b602060405180830381865afa15801561059c573d5f803e3d5ffd5b505050506040513d601f19601f820116820180604052508101906105c09190610f14565b905090565b6105cd610aeb565b6103e4610be4565b6040516370a0823160e01b81523060048201525f907f00000000000000000000000000000000000000000000000000000000000000006001600160a01b0316906370a0823190602401610581565b61062b610aeb565b610633610b6b565b6002546001600160a01b03166106795760405162461bcd60e51b815260206004820152600b60248201526a6e6f20737472617465677960a81b6044820152606401610381565b5f81116106985760405162461bcd60e51b815260040161038190610f2b565b60025460405163095ea7b360e01b81526001600160a01b039182166004820152602481018390527f00000000000000000000000000000000000000000000000000000000000000009091169063095ea7b3906044016020604051808303815f875af1158015610709573d5f803e3d5ffd5b505050506040513d601f19601f8201168201806040525081019061072d9190610f4d565b50600254604051636e553f6560e01b8152600481018390523060248201525f916001600160a01b031690636e553f65906044016020604051808303815f875af115801561077c573d5f803e3d5ffd5b505050506040513d601f19601f820116820180604052508101906107a09190610f14565b60408051848152602081018390529192507f06686aaa593b19d01617ac400575a79693899102504b038ef5e3371ff51e4d9f910161051b565b6107e1610c26565b6107e9610b6b565b5f81116108085760405162461bcd60e51b815260040161038190610f2b565b61083d6001600160a01b037f000000000000000000000000000000000000000000000000000000000000000016333084610c50565b6001600160a01b037f0000000000000000000000000000000000000000000000000000000000000000166340c10f193361087c64e8d4a5100085610f80565b6040516001600160e01b031960e085901b1681526001600160a01b03909216600483015260248201526044015f604051808303815f87803b1580156108bf575f80fd5b505af11580156108d1573d5f803e3d5ffd5b505050506103d160018055565b6108e6610c26565b6108ee610b6b565b5f811161090d5760405162461bcd60e51b815260040161038190610f2b565b6109426001600160a01b037f000000000000000000000000000000000000000000000000000000000000000016333084610c50565b604051630852cd8d60e31b8152600481018290527f00000000000000000000000000000000000000000000000000000000000000006001600160a01b0316906342966c68906024015f604051808303815f87803b1580156109a1575f80fd5b505af11580156109b3573d5f803e3d5ffd5b505050505f64e8d4a51000826109c99190610f97565b90506109ff6001600160a01b037f0000000000000000000000000000000000000000000000000000000000000000163383610cbd565b506103d160018055565b5f80610a136105d5565b6002549091505f906001600160a01b031615610aa05760025f9054906101000a90046001600160a01b03166001600160a01b03166301e1d1146040518163ffffffff1660e01b8152600401602060405180830381865afa158015610a79573d5f803e3d5ffd5b505050506040513d601f19601f82011682018060405250810190610a9d9190610f14565b90505b610aaa8183610fb6565b9250505090565b610ab9610aeb565b6001600160a01b038116610ae257604051631e4fbdf760e01b81525f6004820152602401610381565b6103d181610b95565b5f546001600160a01b031633146103e45760405163118cdaa760e01b8152336004820152602401610381565b610b1f610cf3565b5f805460ff60a01b191690557f5db9ee0a495bf2e6ff9c91a7834c1ba4fdd244a5e8aa4e537bd38aeae4b073aa335b6040516001600160a01b03909116815260200160405180910390a1565b600260015403610b8e57604051633ee5aeb560e01b815260040160405180910390fd5b6002600155565b5f80546001600160a01b038381166001600160a01b0319831681178455604051919092169283917f8be0079c531659141344cd1fd0a4f28419497f9722a3daafe3b4186f6b6457e09190a35050565b610bec610c26565b5f805460ff60a01b1916600160a01b1790557f62e78cea01bee320cd4e420270b5ea74000d11b0c9f74754ebdbfc544b05a258610b4e3390565b5f54600160a01b900460ff16156103e45760405163d93c066560e01b815260040160405180910390fd5b6040516001600160a01b038481166024830152838116604483015260648201839052610cb79186918216906323b872dd906084015b604051602081830303815290604052915060e01b6020820180516001600160e01b038381831617835250505050610d1c565b50505050565b6040516001600160a01b03838116602483015260448201839052610cee91859182169063a9059cbb90606401610c85565b505050565b5f54600160a01b900460ff166103e457604051638dfc202b60e01b815260040160405180910390fd5b5f610d306001600160a01b03841683610d7d565b905080515f14158015610d54575080806020019051810190610d529190610f4d565b155b15610cee57604051635274afe760e01b81526001600160a01b0384166004820152602401610381565b6060610d8a83835f610d93565b90505b92915050565b606081471015610db85760405163cd78605960e01b8152306004820152602401610381565b5f80856001600160a01b03168486604051610dd39190610fc9565b5f6040518083038185875af1925050503d805f8114610e0d576040519150601f19603f3d011682016040523d82523d5f602084013e610e12565b606091505b5091509150610e22868383610e2e565b925050505b9392505050565b606082610e4357610e3e82610e8a565b610e27565b8151158015610e5a57506001600160a01b0384163b155b15610e8357604051639996b31560e01b81526001600160a01b0385166004820152602401610381565b5080610e27565b805115610e9a5780518082602001fd5b604051630a12f52160e11b815260040160405180910390fd5b6001600160a01b03811681146103d1575f80fd5b5f60208284031215610ed7575f80fd5b8135610e2781610eb3565b5f60208284031215610ef2575f80fd5b5035919050565b5f60208284031215610f09575f80fd5b8151610e2781610eb3565b5f60208284031215610f24575f80fd5b5051919050565b6020808252600890820152670616d6f756e743d360c41b604082015260600190565b5f60208284031215610f5d575f80fd5b81518015158114610e27575f80fd5b634e487b7160e01b5f52601160045260245ffd5b8082028115828204841417610d8d57610d8d610f6c565b5f82610fb157634e487b7160e01b5f52601260045260245ffd5b500490565b80820180821115610d8d57610d8d610f6c565b5f82515f5b81811015610fe85760208186018101518583015201610fce565b505f92019182525091905056fea264697066735822122017526c744728c27855628f4b761a79daf4a946bba1119e4b9b205a472b0b97f864736f6c63430008180033","linkReferences":{}},"methodIdentifiers":{"allocate(uint256)":"90ca796b","deallocate(uint256)":"6f6c441f","deposit(uint256)":"b6b55f25","eusd()":"6019f28a","owner()":"8da5cb5b","pause()":"8456cb59","paused()":"5c975abb","redeem(uint256)":"db006a75","renounceOwnership()":"715018a6","setStrategy(address)":"33a100ca","strategy()":"a8c62e76","strategyShares()":"7fc938b9","totalBackingUSDC()":"ef2046a7","transferOwnership(address)":"f2fde38b","unpause()":"3f4ba83a","usdc()":"3e413bee","vaultUSDC()":"8a8f773f"},"id":7}