{"abi":[{"type":"constructor","inputs":[{"name":"_owner","type":"address","internalType":"address"}],"stateMutability":"nonpayable"},{"type":"function","name":"balanceOf","inputs":[{"name":"","type":"address","internalType":"address"}],"outputs":[{"name":"","type":"uint256","internalType":"uint256"}],"stateMutability":"view"},{"type":"function","name":"burn","inputs":[{"name":"amt","type":"uint256","internalType":"uint256"}],"outputs":[],"stateMutability":"nonpayable"},{"type":"function","name":"decimals","inputs":[],"outputs":[{"name":"","type":"uint8","internalType":"uint8"}],"stateMutability":"view"},{"type":"function","name":"mint","inputs":[{"name":"to","type":"address","internalType":"address"},{"name":"amt","type":"uint256","internalType":"uint256"}],"outputs":[],"stateMutability":"nonpayable"},{"type":"function","name":"name","inputs":[],"outputs":[{"name":"","type":"string","internalType":"string"}],"stateMutability":"view"},{"type":"function","name":"owner","inputs":[],"outputs":[{"name":"","type":"address","internalType":"address"}],"stateMutability":"view"},{"type":"function","name":"setOwner","inputs":[{"name":"o","type":"address","internalType":"address"}],"outputs":[],"stateMutability":"nonpayable"},{"type":"function","name":"symbol","inputs":[],"outputs":[{"name":"","type":"string","internalType":"string"}],"stateMutability":"view"},{"type":"function","name":"totalSupply","inputs":[],"outputs":[{"name":"","type":"uint256","internalType":"uint256"}],"stateMutability":"view"},{"type":"function","name":"transfer","inputs":[{"name":"to","type":"address","internalType":"address"},{"name":"amt","type":"uint256","internalType":"uint256"}],"outputs":[{"name":"","type":"bool","internalType":"bool"}],"stateMutability":"nonpayable"},{"type":"event","name":"OwnerSet","inputs":[{"name":"owner","type":"address","indexed":true,"internalType":"address"}],"anonymous":false},{"type":"event","name":"Transfer","inputs":[{"name":"from","type":"address","indexed":true,"internalType":"address"},{"name":"to","type":"address","indexed":true,"internalType":"address"},{"name":"value","type":"uint256","indexed":false,"internalType":"uint256"}],"anonymous":false}],"bytecode":{"object":"0x608060405234801561000f575f80fd5b5060405161069f38038061069f83398101604081905261002e91610078565b5f80546001600160a01b0319166001600160a01b038316908117825560405190917f50146d0e3c60aa1d17a70635b05494f864e86144a2201275021014fbf08bafe291a2506100a5565b5f60208284031215610088575f80fd5b81516001600160a01b038116811461009e575f80fd5b9392505050565b6105ed806100b25f395ff3fe608060405234801561000f575f80fd5b506004361061009b575f3560e01c806342966c681161006357806342966c681461013a57806370a082311461014d5780638da5cb5b1461016c57806395d89b4114610196578063a9059cbb146101b9575f80fd5b806306fdde031461009f57806313af4035146100e157806318160ddd146100f6578063313ce5671461010d57806340c10f1914610127575b5f80fd5b6100cb6040518060400160405280600d81526020016c22ab27902237b63630b9103b1960991b81525081565b6040516100d891906104b7565b60405180910390f35b6100f46100ef36600461051e565b6101dc565b005b6100ff60015481565b6040519081526020016100d8565b610115601281565b60405160ff90911681526020016100d8565b6100f461013536600461053e565b61026d565b6100f4610148366004610566565b610339565b6100ff61015b36600461051e565b60026020525f908152604090205481565b5f5461017e906001600160a01b031681565b6040516001600160a01b0390911681526020016100d8565b6100cb60405180604001604052806004815260200163115554d160e21b81525081565b6101cc6101c736600461053e565b6103e5565b60405190151581526020016100d8565b5f546001600160a01b031633146102265760405162461bcd60e51b81526020600482015260096024820152683737ba1037bbb732b960b91b60448201526064015b60405180910390fd5b5f80546001600160a01b0319166001600160a01b038316908117825560405190917f50146d0e3c60aa1d17a70635b05494f864e86144a2201275021014fbf08bafe291a250565b5f546001600160a01b031633146102b25760405162461bcd60e51b81526020600482015260096024820152683737ba1037bbb732b960b91b604482015260640161021d565b8060015f8282546102c39190610591565b90915550506001600160a01b0382165f90815260026020526040812080548392906102ef908490610591565b90915550506040518181526001600160a01b038316905f907fddf252ad1be2c89b69c2b068fc378daa952ba7f163c4a11628f55a4df523b3ef906020015b60405180910390a35050565b335f908152600260205260409020548181101561037e5760405162461bcd60e51b815260206004820152600360248201526218985b60ea1b604482015260640161021d565b61038882826105a4565b335f90815260026020526040812091909155600180548492906103ac9084906105a4565b90915550506040518281525f9033907fddf252ad1be2c89b69c2b068fc378daa952ba7f163c4a11628f55a4df523b3ef9060200161032d565b335f908152600260205260408120548281101561042a5760405162461bcd60e51b815260206004820152600360248201526218985b60ea1b604482015260640161021d565b61043483826105a4565b335f90815260026020526040808220929092556001600160a01b03861681529081208054859290610466908490610591565b90915550506040518381526001600160a01b0385169033907fddf252ad1be2c89b69c2b068fc378daa952ba7f163c4a11628f55a4df523b3ef9060200160405180910390a360019150505b92915050565b5f602080835283518060208501525f5b818110156104e3578581018301518582016040015282016104c7565b505f604082860101526040601f19601f8301168501019250505092915050565b80356001600160a01b0381168114610519575f80fd5b919050565b5f6020828403121561052e575f80fd5b61053782610503565b9392505050565b5f806040838503121561054f575f80fd5b61055883610503565b946020939093013593505050565b5f60208284031215610576575f80fd5b5035919050565b634e487b7160e01b5f52601160045260245ffd5b808201808211156104b1576104b161057d565b818103818111156104b1576104b161057d56fea2646970667358221220818042ca3dc9eb68662a551b4cd9ae00c025d8853aa7276a6e6bdf5a682fc9fc64736f6c63430008180033","linkReferences":{}},"methodIdentifiers":{"balanceOf(address)":"70a08231","burn(uint256)":"42966c68","decimals()":"313ce567","mint(address,uint256)":"40c10f19","name()":"06fdde03","owner()":"8da5cb5b","setOwner(address)":"13af4035","symbol()":"95d89b41","totalSupply()":"18160ddd","transfer(address,uint256)":"a9059cbb"},"id":86}