{"abi":[{"type":"constructor","inputs":[{"name":"_vault","type":"address","internalType":"address"},{"name":"_policy","type":"address","internalType":"address"},{"name":"_usdc","type":"address","internalType":"address"},{"name":"_fortUSD","type":"address","internalType":"address"}],"stateMutability":"nonpayable"},{"type":"function","name":"BPS_DENOMINATOR","inputs":[],"outputs":[{"name":"","type":"uint256","internalType":"uint256"}],"stateMutability":"view"},{"type":"function","name":"BUFFER_10PCT_BPS","inputs":[],"outputs":[{"name":"","type":"uint16","internalType":"uint16"}],"stateMutability":"view"},{"type":"function","name":"BUFFER_15PCT_BPS","inputs":[],"outputs":[{"name":"","type":"uint16","internalType":"uint16"}],"stateMutability":"view"},{"type":"function","name":"BUFFER_20PCT_BPS","inputs":[],"outputs":[{"name":"","type":"uint16","internalType":"uint16"}],"stateMutability":"view"},{"type":"function","name":"BUFFER_5PCT_BPS","inputs":[],"outputs":[{"name":"","type":"uint16","internalType":"uint16"}],"stateMutability":"view"},{"type":"function","name":"backingBps","inputs":[],"outputs":[{"name":"","type":"uint256","internalType":"uint256"}],"stateMutability":"view"},{"type":"function","name":"bufferBps","inputs":[],"outputs":[{"name":"","type":"uint256","internalType":"uint256"}],"stateMutability":"view"},{"type":"function","name":"fortUSD","inputs":[],"outputs":[{"name":"","type":"address","internalType":"contract IERC20"}],"stateMutability":"view"},{"type":"function","name":"maxRedeemBufferPctBps","inputs":[],"outputs":[{"name":"","type":"uint16","internalType":"uint16"}],"stateMutability":"view"},{"type":"function","name":"owner","inputs":[],"outputs":[{"name":"","type":"address","internalType":"address"}],"stateMutability":"view"},{"type":"function","name":"premium10PctBps","inputs":[],"outputs":[{"name":"","type":"uint16","internalType":"uint16"}],"stateMutability":"view"},{"type":"function","name":"premium15PctBps","inputs":[],"outputs":[{"name":"","type":"uint16","internalType":"uint16"}],"stateMutability":"view"},{"type":"function","name":"premium20PctBps","inputs":[],"outputs":[{"name":"","type":"uint16","internalType":"uint16"}],"stateMutability":"view"},{"type":"function","name":"premium5PctBps","inputs":[],"outputs":[{"name":"","type":"uint16","internalType":"uint16"}],"stateMutability":"view"},{"type":"function","name":"previewPremiumRedemption","inputs":[{"name":"amountFortUSD","type":"uint256","internalType":"uint256"}],"outputs":[{"name":"usdcOut","type":"uint256","internalType":"uint256"},{"name":"premiumBps","type":"uint16","internalType":"uint16"}],"stateMutability":"view"},{"type":"function","name":"redeemPremium","inputs":[{"name":"amountFortUSD","type":"uint256","internalType":"uint256"}],"outputs":[],"stateMutability":"nonpayable"},{"type":"function","name":"renounceOwnership","inputs":[],"outputs":[],"stateMutability":"nonpayable"},{"type":"function","name":"setMaxRedeemBufferPctBps","inputs":[{"name":"pctBps","type":"uint16","internalType":"uint16"}],"outputs":[],"stateMutability":"nonpayable"},{"type":"function","name":"setPremiumTiersBps","inputs":[{"name":"_5","type":"uint16","internalType":"uint16"},{"name":"_10","type":"uint16","internalType":"uint16"},{"name":"_15","type":"uint16","internalType":"uint16"},{"name":"_20","type":"uint16","internalType":"uint16"}],"outputs":[],"stateMutability":"nonpayable"},{"type":"function","name":"transferOwnership","inputs":[{"name":"newOwner","type":"address","internalType":"address"}],"outputs":[],"stateMutability":"nonpayable"},{"type":"function","name":"usdc","inputs":[],"outputs":[{"name":"","type":"address","internalType":"contract IERC20"}],"stateMutability":"view"},{"type":"function","name":"vault","inputs":[],"outputs":[{"name":"","type":"address","internalType":"contract IVaultLike"}],"stateMutability":"view"},{"type":"event","name":"OwnershipTransferred","inputs":[{"name":"previousOwner","type":"address","indexed":true,"internalType":"address"},{"name":"newOwner","type":"address","indexed":true,"internalType":"address"}],"anonymous":false},{"type":"event","name":"PremiumRedeemed","inputs":[{"name":"user","type":"address","indexed":true,"internalType":"address"},{"name":"fortUSDAmount","type":"uint256","indexed":false,"internalType":"uint256"},{"name":"usdcOut","type":"uint256","indexed":false,"internalType":"uint256"},{"name":"premiumBps","type":"uint16","indexed":false,"internalType":"uint16"}],"anonymous":false},{"type":"error","name":"AddressEmptyCode","inputs":[{"name":"target","type":"address","internalType":"address"}]},{"type":"error","name":"AddressInsufficientBalance","inputs":[{"name":"account","type":"address","internalType":"address"}]},{"type":"error","name":"FailedInnerCall","inputs":[]},{"type":"error","name":"OwnableInvalidOwner","inputs":[{"name":"owner","type":"address","internalType":"address"}]},{"type":"error","name":"OwnableUnauthorizedAccount","inputs":[{"name":"account","type":"address","internalType":"address"}]},{"type":"error","name":"ReentrancyGuardReentrantCall","inputs":[]},{"type":"error","name":"SafeERC20FailedOperation","inputs":[{"name":"token","type":"address","internalType":"address"}]}],"bytecode":{"object":"0x60e060405260018054600160a01b600160f01b0319166819007d004b0032001960a21b17905534801562000031575f80fd5b50604051620011c2380380620011c2833981016040819052620000549162000121565b60015f55826001600160a01b0381166200008757604051631e4fbdf760e01b81525f600482015260240160405180910390fd5b6200009281620000b4565b506001600160a01b0393841660c05290831660805290911660a052506200017b565b600180546001600160a01b038381166001600160a01b0319831681179093556040519116919082907f8be0079c531659141344cd1fd0a4f28419497f9722a3daafe3b4186f6b6457e0905f90a35050565b80516001600160a01b03811681146200011c575f80fd5b919050565b5f805f806080858703121562000135575f80fd5b620001408562000105565b9350620001506020860162000105565b9250620001606040860162000105565b9150620001706060860162000105565b905092959194509250565b60805160a05160c051610feb620001d75f395f818161030a01528181610454015261079201525f818161020e015281816104dd015281816106d8015261081501525f81816101a701528181610613015261070d0152610feb5ff3fe608060405234801561000f575f80fd5b506004361061013d575f3560e01c806372ad0c4f116100b4578063c37b633711610079578063c37b6337146102b7578063d5b508da146102bf578063e1a45218146102d4578063f2fde38b146102dd578063f740ae47146102f0578063fbfa77cf14610305575f80fd5b806372ad0c4f146102785780637e1887ef146102815780638da5cb5b14610294578063a7aec5bd146102a5578063c281f731146102ae575f80fd5b806345ffbb9f1161010557806345ffbb9f146101e15780634605e3ba146101f45780634b4cb88414610209578063519c98c914610230578063582573b41461025b578063715018a614610270575f80fd5b806303944bb614610141578063114885aa146101565780632a7c204614610183578063361094551461018c5780633e413bee146101a2575b5f80fd5b61015461014f366004610e26565b61032c565b005b60015461016b90600160a01b900461ffff1681565b60405161ffff90911681526020015b60405180910390f35b61016b6107d081565b61019461078e565b60405190815260200161017a565b6101c97f000000000000000000000000000000000000000000000000000000000000000081565b6040516001600160a01b03909116815260200161017a565b6101546101ef366004610e53565b6108e5565b60015461016b90600160b01b900461ffff1681565b6101c97f000000000000000000000000000000000000000000000000000000000000000081565b61024361023e366004610e26565b610954565b6040805192835261ffff90911660208301520161017a565b60015461016b90600160e01b900461ffff1681565b6101546109e5565b61016b6101f481565b61015461028f366004610ea4565b6109f8565b6001546001600160a01b03166101c9565b61016b6103e881565b61016b6105dc81565b610194610a76565b60015461016b90600160c01b900461ffff1681565b61019461271081565b6101546102eb366004610ebd565b610aa4565b60015461016b90600160d01b900461ffff1681565b6101c97f000000000000000000000000000000000000000000000000000000000000000081565b610334610ade565b5f81116103785760405162461bcd60e51b815260206004820152600d60248201526c04547503a20616d6f756e743d3609c1b60448201526064015b60405180910390fd5b5f610381610a76565b90506101f48110156103cb5760405162461bcd60e51b81526020600482015260136024820152724547503a2062756666657220746f6f206c6f7760681b604482015260640161036f565b5f6103d582610b06565b90505f6103e764e8d4a5100085610ef7565b90505f81116104295760405162461bcd60e51b815260206004820152600e60248201526d1151d40e881d1bdbc81cdb585b1b60921b604482015260640161036f565b5f61271061043b61ffff851682610f16565b6104459084610f29565b61044f9190610ef7565b90505f7f00000000000000000000000000000000000000000000000000000000000000006001600160a01b031663ef2046a76040518163ffffffff1660e01b8152600401602060405180830381865afa1580156104ae573d5f803e3d5ffd5b505050506040513d601f19601f820116820180604052508101906104d29190610f40565b90505f64e8d4a510007f00000000000000000000000000000000000000000000000000000000000000006001600160a01b03166318160ddd6040518163ffffffff1660e01b8152600401602060405180830381865afa158015610537573d5f803e3d5ffd5b505050506040513d601f19601f8201168201806040525081019061055b9190610f40565b6105659190610ef7565b90505f818311610575575f61057f565b61057f8284610f57565b6001549091505f90612710906105a090600160e01b900461ffff1684610f29565b6105aa9190610ef7565b9050808511156105fc5760405162461bcd60e51b815260206004820152601a60248201527f4547503a2065786365656473207065722d747820627566666572000000000000604482015260640161036f565b6040516370a0823160e01b815230600482015285907f00000000000000000000000000000000000000000000000000000000000000006001600160a01b0316906370a0823190602401602060405180830381865afa158015610660573d5f803e3d5ffd5b505050506040513d601f19601f820116820180604052508101906106849190610f40565b10156106cb5760405162461bcd60e51b81526020600482015260166024820152754547503a20696e73756666696369656e74205553444360501b604482015260640161036f565b6107006001600160a01b037f00000000000000000000000000000000000000000000000000000000000000001633308c610b6e565b6107346001600160a01b037f0000000000000000000000000000000000000000000000000000000000000000163387610bdb565b604080518a81526020810187905261ffff891681830152905133917fa1b0e3c01f704165c9f3d504c5dbb81340ef621c1f318629a870917360640da0919081900360600190a2505050505050505061078b60015f55565b50565b5f807f00000000000000000000000000000000000000000000000000000000000000006001600160a01b031663ef2046a76040518163ffffffff1660e01b8152600401602060405180830381865afa1580156107ec573d5f803e3d5ffd5b505050506040513d601f19601f820116820180604052508101906108109190610f40565b90505f7f00000000000000000000000000000000000000000000000000000000000000006001600160a01b03166318160ddd6040518163ffffffff1660e01b8152600401602060405180830381865afa15801561086f573d5f803e3d5ffd5b505050506040513d601f19601f820116820180604052508101906108939190610f40565b9050805f036108a4575f9250505090565b5f6108b464e8d4a5100083610ef7565b9050805f036108c6575f935050505090565b806108d361271085610f29565b6108dd9190610ef7565b935050505090565b6108ed610c11565b6001805463ffffffff60a01b1916600160a01b61ffff9687160261ffff60b01b191617600160b01b948616949094029390931763ffffffff60c01b1916600160c01b9285169290920261ffff60d01b191691909117600160d01b9190931602919091179055565b5f80825f0361096757505f928392509050565b5f610970610a76565b90506101f481101561098757505f93849350915050565b61099081610b06565b91505f6109a264e8d4a5100086610ef7565b9050805f036109b757505f9485945092505050565b6127106109c861ffff851682610f16565b6109d29083610f29565b6109dc9190610ef7565b93505050915091565b6109ed610c11565b6109f65f610c3e565b565b610a00610c11565b5f8161ffff16118015610a1957506127108161ffff1611155b610a545760405162461bcd60e51b815260206004820152600c60248201526b1151d40e88189859081c18dd60a21b604482015260640161036f565b6001805461ffff909216600160e01b0261ffff60e01b19909216919091179055565b5f80610a8061078e565b90506127108111610a92575f91505090565b610a9e61271082610f57565b91505090565b610aac610c11565b6001600160a01b038116610ad557604051631e4fbdf760e01b81525f600482015260240161036f565b61078b81610c3e565b60025f5403610b0057604051633ee5aeb560e01b815260040160405180910390fd5b60025f55565b5f6107d08210610b23575050600154600160d01b900461ffff1690565b6105dc8210610b3f575050600154600160c01b900461ffff1690565b6103e88210610b5b575050600154600160b01b900461ffff1690565b5050600154600160a01b900461ffff1690565b6040516001600160a01b038481166024830152838116604483015260648201839052610bd59186918216906323b872dd906084015b604051602081830303815290604052915060e01b6020820180516001600160e01b038381831617835250505050610c8f565b50505050565b6040516001600160a01b03838116602483015260448201839052610c0c91859182169063a9059cbb90606401610ba3565b505050565b6001546001600160a01b031633146109f65760405163118cdaa760e01b815233600482015260240161036f565b600180546001600160a01b038381166001600160a01b0319831681179093556040519116919082907f8be0079c531659141344cd1fd0a4f28419497f9722a3daafe3b4186f6b6457e0905f90a35050565b5f610ca36001600160a01b03841683610cf0565b905080515f14158015610cc7575080806020019051810190610cc59190610f6a565b155b15610c0c57604051635274afe760e01b81526001600160a01b038416600482015260240161036f565b6060610cfd83835f610d06565b90505b92915050565b606081471015610d2b5760405163cd78605960e01b815230600482015260240161036f565b5f80856001600160a01b03168486604051610d469190610f89565b5f6040518083038185875af1925050503d805f8114610d80576040519150601f19603f3d011682016040523d82523d5f602084013e610d85565b606091505b5091509150610d95868383610da1565b925050505b9392505050565b606082610db657610db182610dfd565b610d9a565b8151158015610dcd57506001600160a01b0384163b155b15610df657604051639996b31560e01b81526001600160a01b038516600482015260240161036f565b5080610d9a565b805115610e0d5780518082602001fd5b604051630a12f52160e11b815260040160405180910390fd5b5f60208284031215610e36575f80fd5b5035919050565b803561ffff81168114610e4e575f80fd5b919050565b5f805f8060808587031215610e66575f80fd5b610e6f85610e3d565b9350610e7d60208601610e3d565b9250610e8b60408601610e3d565b9150610e9960608601610e3d565b905092959194509250565b5f60208284031215610eb4575f80fd5b610cfd82610e3d565b5f60208284031215610ecd575f80fd5b81356001600160a01b0381168114610d9a575f80fd5b634e487b7160e01b5f52601160045260245ffd5b5f82610f1157634e487b7160e01b5f52601260045260245ffd5b500490565b80820180821115610d0057610d00610ee3565b8082028115828204841417610d0057610d00610ee3565b5f60208284031215610f50575f80fd5b5051919050565b81810381811115610d0057610d00610ee3565b5f60208284031215610f7a575f80fd5b81518015158114610d9a575f80fd5b5f82515f5b81811015610fa85760208186018101518583015201610f8e565b505f92019182525091905056fea264697066735822122067fcf19161d654e05c9f5698399076c10496ad0af5da62d262ce56c35754113764736f6c63430008180033","linkReferences":{}},"methodIdentifiers":{"BPS_DENOMINATOR()":"e1a45218","BUFFER_10PCT_BPS()":"a7aec5bd","BUFFER_15PCT_BPS()":"c281f731","BUFFER_20PCT_BPS()":"2a7c2046","BUFFER_5PCT_BPS()":"72ad0c4f","backingBps()":"36109455","bufferBps()":"c37b6337","fortUSD()":"4b4cb884","maxRedeemBufferPctBps()":"582573b4","owner()":"8da5cb5b","premium10PctBps()":"4605e3ba","premium15PctBps()":"d5b508da","premium20PctBps()":"f740ae47","premium5PctBps()":"114885aa","previewPremiumRedemption(uint256)":"519c98c9","redeemPremium(uint256)":"03944bb6","renounceOwnership()":"715018a6","setMaxRedeemBufferPctBps(uint16)":"7e1887ef","setPremiumTiersBps(uint16,uint16,uint16,uint16)":"45ffbb9f","transferOwnership(address)":"f2fde38b","usdc()":"3e413bee","vault()":"fbfa77cf"},"id":69}