{"abi":[{"type":"constructor","inputs":[],"stateMutability":"nonpayable"},{"type":"function","name":"UPGRADE_INTERFACE_VERSION","inputs":[],"outputs":[{"name":"","type":"string","internalType":"string"}],"stateMutability":"view"},{"type":"function","name":"allowance","inputs":[{"name":"owner","type":"address","internalType":"address"},{"name":"spender","type":"address","internalType":"address"}],"outputs":[{"name":"","type":"uint256","internalType":"uint256"}],"stateMutability":"view"},{"type":"function","name":"approve","inputs":[{"name":"spender","type":"address","internalType":"address"},{"name":"value","type":"uint256","internalType":"uint256"}],"outputs":[{"name":"","type":"bool","internalType":"bool"}],"stateMutability":"nonpayable"},{"type":"function","name":"balanceOf","inputs":[{"name":"account","type":"address","internalType":"address"}],"outputs":[{"name":"","type":"uint256","internalType":"uint256"}],"stateMutability":"view"},{"type":"function","name":"burn","inputs":[{"name":"value","type":"uint256","internalType":"uint256"}],"outputs":[],"stateMutability":"nonpayable"},{"type":"function","name":"burnFrom","inputs":[{"name":"account","type":"address","internalType":"address"},{"name":"value","type":"uint256","internalType":"uint256"}],"outputs":[],"stateMutability":"nonpayable"},{"type":"function","name":"decimals","inputs":[],"outputs":[{"name":"","type":"uint8","internalType":"uint8"}],"stateMutability":"view"},{"type":"function","name":"initialize","inputs":[{"name":"initialOwner","type":"address","internalType":"address"}],"outputs":[],"stateMutability":"nonpayable"},{"type":"function","name":"mint","inputs":[{"name":"to","type":"address","internalType":"address"},{"name":"amount","type":"uint256","internalType":"uint256"}],"outputs":[],"stateMutability":"nonpayable"},{"type":"function","name":"name","inputs":[],"outputs":[{"name":"","type":"string","internalType":"string"}],"stateMutability":"view"},{"type":"function","name":"owner","inputs":[],"outputs":[{"name":"","type":"address","internalType":"address"}],"stateMutability":"view"},{"type":"function","name":"proxiableUUID","inputs":[],"outputs":[{"name":"","type":"bytes32","internalType":"bytes32"}],"stateMutability":"view"},{"type":"function","name":"renounceOwnership","inputs":[],"outputs":[],"stateMutability":"nonpayable"},{"type":"function","name":"symbol","inputs":[],"outputs":[{"name":"","type":"string","internalType":"string"}],"stateMutability":"view"},{"type":"function","name":"totalSupply","inputs":[],"outputs":[{"name":"","type":"uint256","internalType":"uint256"}],"stateMutability":"view"},{"type":"function","name":"transfer","inputs":[{"name":"to","type":"address","internalType":"address"},{"name":"value","type":"uint256","internalType":"uint256"}],"outputs":[{"name":"","type":"bool","internalType":"bool"}],"stateMutability":"nonpayable"},{"type":"function","name":"transferFrom","inputs":[{"name":"from","type":"address","internalType":"address"},{"name":"to","type":"address","internalType":"address"},{"name":"value","type":"uint256","internalType":"uint256"}],"outputs":[{"name":"","type":"bool","internalType":"bool"}],"stateMutability":"nonpayable"},{"type":"function","name":"transferOwnership","inputs":[{"name":"newOwner","type":"address","internalType":"address"}],"outputs":[],"stateMutability":"nonpayable"},{"type":"function","name":"upgradeToAndCall","inputs":[{"name":"newImplementation","type":"address","internalType":"address"},{"name":"data","type":"bytes","internalType":"bytes"}],"outputs":[],"stateMutability":"payable"},{"type":"function","name":"version","inputs":[],"outputs":[{"name":"","type":"string","internalType":"string"}],"stateMutability":"pure"},{"type":"event","name":"Approval","inputs":[{"name":"owner","type":"address","indexed":true,"internalType":"address"},{"name":"spender","type":"address","indexed":true,"internalType":"address"},{"name":"value","type":"uint256","indexed":false,"internalType":"uint256"}],"anonymous":false},{"type":"event","name":"Initialized","inputs":[{"name":"version","type":"uint64","indexed":false,"internalType":"uint64"}],"anonymous":false},{"type":"event","name":"OwnershipTransferred","inputs":[{"name":"previousOwner","type":"address","indexed":true,"internalType":"address"},{"name":"newOwner","type":"address","indexed":true,"internalType":"address"}],"anonymous":false},{"type":"event","name":"Transfer","inputs":[{"name":"from","type":"address","indexed":true,"internalType":"address"},{"name":"to","type":"address","indexed":true,"internalType":"address"},{"name":"value","type":"uint256","indexed":false,"internalType":"uint256"}],"anonymous":false},{"type":"event","name":"Upgraded","inputs":[{"name":"implementation","type":"address","indexed":true,"internalType":"address"}],"anonymous":false},{"type":"error","name":"AddressEmptyCode","inputs":[{"name":"target","type":"address","internalType":"address"}]},{"type":"error","name":"ERC1967InvalidImplementation","inputs":[{"name":"implementation","type":"address","internalType":"address"}]},{"type":"error","name":"ERC1967NonPayable","inputs":[]},{"type":"error","name":"ERC20InsufficientAllowance","inputs":[{"name":"spender","type":"address","internalType":"address"},{"name":"allowance","type":"uint256","internalType":"uint256"},{"name":"needed","type":"uint256","internalType":"uint256"}]},{"type":"error","name":"ERC20InsufficientBalance","inputs":[{"name":"sender","type":"address","internalType":"address"},{"name":"balance","type":"uint256","internalType":"uint256"},{"name":"needed","type":"uint256","internalType":"uint256"}]},{"type":"error","name":"ERC20InvalidApprover","inputs":[{"name":"approver","type":"address","internalType":"address"}]},{"type":"error","name":"ERC20InvalidReceiver","inputs":[{"name":"receiver","type":"address","internalType":"address"}]},{"type":"error","name":"ERC20InvalidSender","inputs":[{"name":"sender","type":"address","internalType":"address"}]},{"type":"error","name":"ERC20InvalidSpender","inputs":[{"name":"spender","type":"address","internalType":"address"}]},{"type":"error","name":"FailedInnerCall","inputs":[]},{"type":"error","name":"InvalidInitialization","inputs":[]},{"type":"error","name":"NotInitializing","inputs":[]},{"type":"error","name":"OwnableInvalidOwner","inputs":[{"name":"owner","type":"address","internalType":"address"}]},{"type":"error","name":"OwnableUnauthorizedAccount","inputs":[{"name":"account","type":"address","internalType":"address"}]},{"type":"error","name":"UUPSUnauthorizedCallContext","inputs":[]},{"type":"error","name":"UUPSUnsupportedProxiableUUID","inputs":[{"name":"slot","type":"bytes32","internalType":"bytes32"}]}],"bytecode":{"object":"0x60a060405230608052348015610013575f80fd5b5061001c610021565b6100d3565b7ff0c57e16840df040f15088dc2f81fe391c3923bec73e23a9662efc9c229c6a00805468010000000000000000900460ff16156100715760405163f92ee8a960e01b815260040160405180910390fd5b80546001600160401b03908116146100d05780546001600160401b0319166001600160401b0390811782556040519081527fc7f505b2f371ae2175ee4913f4499e1f2633a7b5936321eed1cdaeb6115181d29060200160405180910390a15b50565b6080516114146100f95f395f8181610947015281816109700152610aaf01526114145ff3fe60806040526004361061011b575f3560e01c806370a082311161009d578063a9059cbb11610062578063a9059cbb14610350578063ad3cb1cc1461036f578063c4d66de81461039f578063dd62ed3e146103be578063f2fde38b146103dd575f80fd5b806370a0823114610283578063715018a6146102c357806379cc6790146102d75780638da5cb5b146102f657806395d89b411461033c575f80fd5b806340c10f19116100e357806340c10f19146101ef57806342966c68146102105780634f1ef2861461022f57806352d1902d1461024257806354fd4d5014610256575f80fd5b806306fdde031461011f578063095ea7b31461014957806318160ddd1461017857806323b872dd146101b5578063313ce567146101d4575b5f80fd5b34801561012a575f80fd5b506101336103fc565b6040516101409190611036565b60405180910390f35b348015610154575f80fd5b50610168610163366004611083565b6104bc565b6040519015158152602001610140565b348015610183575f80fd5b507f52c63247e1f47db19d5ce0460030c497f067ca4cebf71ba98eeadabe20bace02545b604051908152602001610140565b3480156101c0575f80fd5b506101686101cf3660046110ab565b6104d5565b3480156101df575f80fd5b5060405160128152602001610140565b3480156101fa575f80fd5b5061020e610209366004611083565b6104fa565b005b34801561021b575f80fd5b5061020e61022a3660046110e4565b610510565b61020e61023d36600461110f565b61051d565b34801561024d575f80fd5b506101a7610538565b348015610261575f80fd5b506040805180820190915260058152640312e302e360dc1b6020820152610133565b34801561028e575f80fd5b506101a761029d3660046111cb565b6001600160a01b03165f9081525f8051602061139f833981519152602052604090205490565b3480156102ce575f80fd5b5061020e610553565b3480156102e2575f80fd5b5061020e6102f1366004611083565b610566565b348015610301575f80fd5b507f9016d09d72d40fdae2fd8ceac6b6234c7706214fd39c1cd1e609a0528c199300546040516001600160a01b039091168152602001610140565b348015610347575f80fd5b5061013361057b565b34801561035b575f80fd5b5061016861036a366004611083565b6105b9565b34801561037a575f80fd5b50610133604051806040016040528060058152602001640352e302e360dc1b81525081565b3480156103aa575f80fd5b5061020e6103b93660046111cb565b6105c6565b3480156103c9575f80fd5b506101a76103d83660046111e4565b61071e565b3480156103e8575f80fd5b5061020e6103f73660046111cb565b610767565b7f52c63247e1f47db19d5ce0460030c497f067ca4cebf71ba98eeadabe20bace0380546060915f8051602061139f8339815191529161043a90611215565b80601f016020809104026020016040519081016040528092919081815260200182805461046690611215565b80156104b15780601f10610488576101008083540402835291602001916104b1565b820191905f5260205f20905b81548152906001019060200180831161049457829003601f168201915b505050505091505090565b5f336104c98185856107a6565b60019150505b92915050565b5f336104e28582856107b8565b6104ed85858561081c565b60019150505b9392505050565b610502610879565b61050c82826108d4565b5050565b61051a3382610908565b50565b61052561093c565b61052e826109e0565b61050c82826109e8565b5f610541610aa4565b505f805160206113bf83398151915290565b61055b610879565b6105645f610aed565b565b6105718233836107b8565b61050c8282610908565b7f52c63247e1f47db19d5ce0460030c497f067ca4cebf71ba98eeadabe20bace0480546060915f8051602061139f8339815191529161043a90611215565b5f336104c981858561081c565b7ff0c57e16840df040f15088dc2f81fe391c3923bec73e23a9662efc9c229c6a008054600160401b810460ff16159067ffffffffffffffff165f8115801561060b5750825b90505f8267ffffffffffffffff1660011480156106275750303b155b905081158015610635575080155b156106535760405163f92ee8a960e01b815260040160405180910390fd5b845467ffffffffffffffff19166001178555831561067d57845460ff60401b1916600160401b1785555b6106bf604051806040016040528060058152602001644e4f56495360d81b815250604051806040016040528060038152602001624e565360e81b815250610b5d565b6106c7610b6f565b6106d086610b77565b831561071657845460ff60401b19168555604051600181527fc7f505b2f371ae2175ee4913f4499e1f2633a7b5936321eed1cdaeb6115181d29060200160405180910390a15b505050505050565b6001600160a01b039182165f9081527f52c63247e1f47db19d5ce0460030c497f067ca4cebf71ba98eeadabe20bace016020908152604080832093909416825291909152205490565b61076f610879565b6001600160a01b03811661079d57604051631e4fbdf760e01b81525f60048201526024015b60405180910390fd5b61051a81610aed565b6107b38383836001610b88565b505050565b5f6107c3848461071e565b90505f19811015610816578181101561080857604051637dc7a0d960e11b81526001600160a01b03841660048201526024810182905260448101839052606401610794565b61081684848484035f610b88565b50505050565b6001600160a01b03831661084557604051634b637e8f60e11b81525f6004820152602401610794565b6001600160a01b03821661086e5760405163ec442f0560e01b81525f6004820152602401610794565b6107b3838383610c6c565b336108ab7f9016d09d72d40fdae2fd8ceac6b6234c7706214fd39c1cd1e609a0528c199300546001600160a01b031690565b6001600160a01b0316146105645760405163118cdaa760e01b8152336004820152602401610794565b6001600160a01b0382166108fd5760405163ec442f0560e01b81525f6004820152602401610794565b61050c5f8383610c6c565b6001600160a01b03821661093157604051634b637e8f60e11b81525f6004820152602401610794565b61050c825f83610c6c565b306001600160a01b037f00000000000000000000000000000000000000000000000000000000000000001614806109c257507f00000000000000000000000000000000000000000000000000000000000000006001600160a01b03166109b65f805160206113bf833981519152546001600160a01b031690565b6001600160a01b031614155b156105645760405163703e46dd60e11b815260040160405180910390fd5b61051a610879565b816001600160a01b03166352d1902d6040518163ffffffff1660e01b8152600401602060405180830381865afa925050508015610a42575060408051601f3d908101601f19168201909252610a3f9181019061124d565b60015b610a6a57604051634c9c8ce360e01b81526001600160a01b0383166004820152602401610794565b5f805160206113bf8339815191528114610a9a57604051632a87526960e21b815260048101829052602401610794565b6107b38383610da5565b306001600160a01b037f000000000000000000000000000000000000000000000000000000000000000016146105645760405163703e46dd60e11b815260040160405180910390fd5b7f9016d09d72d40fdae2fd8ceac6b6234c7706214fd39c1cd1e609a0528c19930080546001600160a01b031981166001600160a01b03848116918217845560405192169182907f8be0079c531659141344cd1fd0a4f28419497f9722a3daafe3b4186f6b6457e0905f90a3505050565b610b65610dfa565b61050c8282610e43565b610564610dfa565b610b7f610dfa565b61051a81610e93565b5f8051602061139f8339815191526001600160a01b038516610bbf5760405163e602df0560e01b81525f6004820152602401610794565b6001600160a01b038416610be857604051634a1406b160e11b81525f6004820152602401610794565b6001600160a01b038086165f90815260018301602090815260408083209388168352929052208390558115610c6557836001600160a01b0316856001600160a01b03167f8c5be1e5ebec7d5bd14f71427d1e84f3dd0314c0f7b2291e5b200ac8c7c3b92585604051610c5c91815260200190565b60405180910390a35b5050505050565b5f8051602061139f8339815191526001600160a01b038416610ca65781816002015f828254610c9b9190611264565b90915550610d169050565b6001600160a01b0384165f9081526020829052604090205482811015610cf85760405163391434e360e21b81526001600160a01b03861660048201526024810182905260448101849052606401610794565b6001600160a01b0385165f9081526020839052604090209083900390555b6001600160a01b038316610d34576002810180548390039055610d52565b6001600160a01b0383165f9081526020829052604090208054830190555b826001600160a01b0316846001600160a01b03167fddf252ad1be2c89b69c2b068fc378daa952ba7f163c4a11628f55a4df523b3ef84604051610d9791815260200190565b60405180910390a350505050565b610dae82610e9b565b6040516001600160a01b038316907fbc7cd75a20ee27fd9adebab32041f755214dbc6bffa90cc0225b39da2e5c2d3b905f90a2805115610df2576107b38282610efe565b61050c610f70565b7ff0c57e16840df040f15088dc2f81fe391c3923bec73e23a9662efc9c229c6a0054600160401b900460ff1661056457604051631afcd79f60e31b815260040160405180910390fd5b610e4b610dfa565b5f8051602061139f8339815191527f52c63247e1f47db19d5ce0460030c497f067ca4cebf71ba98eeadabe20bace03610e8484826112c7565b506004810161081683826112c7565b61076f610dfa565b806001600160a01b03163b5f03610ed057604051634c9c8ce360e01b81526001600160a01b0382166004820152602401610794565b5f805160206113bf83398151915280546001600160a01b0319166001600160a01b0392909216919091179055565b60605f80846001600160a01b031684604051610f1a9190611383565b5f60405180830381855af49150503d805f8114610f52576040519150601f19603f3d011682016040523d82523d5f602084013e610f57565b606091505b5091509150610f67858383610f8f565b95945050505050565b34156105645760405163b398979f60e01b815260040160405180910390fd5b606082610fa457610f9f82610feb565b6104f3565b8151158015610fbb57506001600160a01b0384163b155b15610fe457604051639996b31560e01b81526001600160a01b0385166004820152602401610794565b50806104f3565b805115610ffb5780518082602001fd5b604051630a12f52160e11b815260040160405180910390fd5b5f5b8381101561102e578181015183820152602001611016565b50505f910152565b602081525f8251806020840152611054816040850160208701611014565b601f01601f19169190910160400192915050565b80356001600160a01b038116811461107e575f80fd5b919050565b5f8060408385031215611094575f80fd5b61109d83611068565b946020939093013593505050565b5f805f606084860312156110bd575f80fd5b6110c684611068565b92506110d460208501611068565b9150604084013590509250925092565b5f602082840312156110f4575f80fd5b5035919050565b634e487b7160e01b5f52604160045260245ffd5b5f8060408385031215611120575f80fd5b61112983611068565b9150602083013567ffffffffffffffff80821115611145575f80fd5b818501915085601f830112611158575f80fd5b81358181111561116a5761116a6110fb565b604051601f8201601f19908116603f01168101908382118183101715611192576111926110fb565b816040528281528860208487010111156111aa575f80fd5b826020860160208301375f6020848301015280955050505050509250929050565b5f602082840312156111db575f80fd5b6104f382611068565b5f80604083850312156111f5575f80fd5b6111fe83611068565b915061120c60208401611068565b90509250929050565b600181811c9082168061122957607f821691505b60208210810361124757634e487b7160e01b5f52602260045260245ffd5b50919050565b5f6020828403121561125d575f80fd5b5051919050565b808201808211156104cf57634e487b7160e01b5f52601160045260245ffd5b601f8211156107b357805f5260205f20601f840160051c810160208510156112a85750805b601f840160051c820191505b81811015610c65575f81556001016112b4565b815167ffffffffffffffff8111156112e1576112e16110fb565b6112f5816112ef8454611215565b84611283565b602080601f831160018114611328575f84156113115750858301515b5f19600386901b1c1916600185901b178555610716565b5f85815260208120601f198616915b8281101561135657888601518255948401946001909101908401611337565b508582101561137357878501515f19600388901b60f8161c191681555b5050505050600190811b01905550565b5f8251611394818460208701611014565b919091019291505056fe52c63247e1f47db19d5ce0460030c497f067ca4cebf71ba98eeadabe20bace00360894a13ba1a3210667c828492db98dca3e2076cc3735a920a3ca505d382bbca26469706673582212203919661606445e7e88d68b44702b4df269157355c5f620a43755058e33f5231464736f6c63430008180033","linkReferences":{}},"methodIdentifiers":{"UPGRADE_INTERFACE_VERSION()":"ad3cb1cc","allowance(address,address)":"dd62ed3e","approve(address,uint256)":"095ea7b3","balanceOf(address)":"70a08231","burn(uint256)":"42966c68","burnFrom(address,uint256)":"79cc6790","decimals()":"313ce567","initialize(address)":"c4d66de8","mint(address,uint256)":"40c10f19","name()":"06fdde03","owner()":"8da5cb5b","proxiableUUID()":"52d1902d","renounceOwnership()":"715018a6","symbol()":"95d89b41","totalSupply()":"18160ddd","transfer(address,uint256)":"a9059cbb","transferFrom(address,address,uint256)":"23b872dd","transferOwnership(address)":"f2fde38b","upgradeToAndCall(address,bytes)":"4f1ef286","version()":"54fd4d50"},"id":37}