{"abi":[{"type":"constructor","inputs":[{"name":"usdc","type":"address","internalType":"address"},{"name":"comet","type":"address","internalType":"address"},{"name":"vault","type":"address","internalType":"address"}],"stateMutability":"nonpayable"},{"type":"function","name":"COMET","inputs":[],"outputs":[{"name":"","type":"address","internalType":"contract IComet"}],"stateMutability":"view"},{"type":"function","name":"USDC","inputs":[],"outputs":[{"name":"","type":"address","internalType":"contract IERC20"}],"stateMutability":"view"},{"type":"function","name":"VAULT","inputs":[],"outputs":[{"name":"","type":"address","internalType":"address"}],"stateMutability":"view"},{"type":"function","name":"allowance","inputs":[{"name":"owner","type":"address","internalType":"address"},{"name":"spender","type":"address","internalType":"address"}],"outputs":[{"name":"","type":"uint256","internalType":"uint256"}],"stateMutability":"view"},{"type":"function","name":"approve","inputs":[{"name":"spender","type":"address","internalType":"address"},{"name":"value","type":"uint256","internalType":"uint256"}],"outputs":[{"name":"","type":"bool","internalType":"bool"}],"stateMutability":"nonpayable"},{"type":"function","name":"assetsPerShare","inputs":[],"outputs":[{"name":"","type":"uint256","internalType":"uint256"}],"stateMutability":"view"},{"type":"function","name":"balanceOf","inputs":[{"name":"account","type":"address","internalType":"address"}],"outputs":[{"name":"","type":"uint256","internalType":"uint256"}],"stateMutability":"view"},{"type":"function","name":"decimals","inputs":[],"outputs":[{"name":"","type":"uint8","internalType":"uint8"}],"stateMutability":"view"},{"type":"function","name":"deposit","inputs":[{"name":"assets","type":"uint256","internalType":"uint256"},{"name":"onBehalfOf","type":"address","internalType":"address"}],"outputs":[],"stateMutability":"nonpayable"},{"type":"function","name":"name","inputs":[],"outputs":[{"name":"","type":"string","internalType":"string"}],"stateMutability":"view"},{"type":"function","name":"symbol","inputs":[],"outputs":[{"name":"","type":"string","internalType":"string"}],"stateMutability":"view"},{"type":"function","name":"totalAssets","inputs":[],"outputs":[{"name":"","type":"uint256","internalType":"uint256"}],"stateMutability":"view"},{"type":"function","name":"totalSupply","inputs":[],"outputs":[{"name":"","type":"uint256","internalType":"uint256"}],"stateMutability":"view"},{"type":"function","name":"transfer","inputs":[{"name":"to","type":"address","internalType":"address"},{"name":"value","type":"uint256","internalType":"uint256"}],"outputs":[{"name":"","type":"bool","internalType":"bool"}],"stateMutability":"nonpayable"},{"type":"function","name":"transferFrom","inputs":[{"name":"from","type":"address","internalType":"address"},{"name":"to","type":"address","internalType":"address"},{"name":"value","type":"uint256","internalType":"uint256"}],"outputs":[{"name":"","type":"bool","internalType":"bool"}],"stateMutability":"nonpayable"},{"type":"function","name":"withdraw","inputs":[{"name":"shares","type":"uint256","internalType":"uint256"},{"name":"to","type":"address","internalType":"address"}],"outputs":[],"stateMutability":"nonpayable"},{"type":"event","name":"Approval","inputs":[{"name":"owner","type":"address","indexed":true,"internalType":"address"},{"name":"spender","type":"address","indexed":true,"internalType":"address"},{"name":"value","type":"uint256","indexed":false,"internalType":"uint256"}],"anonymous":false},{"type":"event","name":"Transfer","inputs":[{"name":"from","type":"address","indexed":true,"internalType":"address"},{"name":"to","type":"address","indexed":true,"internalType":"address"},{"name":"value","type":"uint256","indexed":false,"internalType":"uint256"}],"anonymous":false},{"type":"error","name":"AddressEmptyCode","inputs":[{"name":"target","type":"address","internalType":"address"}]},{"type":"error","name":"AddressInsufficientBalance","inputs":[{"name":"account","type":"address","internalType":"address"}]},{"type":"error","name":"ERC20InsufficientAllowance","inputs":[{"name":"spender","type":"address","internalType":"address"},{"name":"allowance","type":"uint256","internalType":"uint256"},{"name":"needed","type":"uint256","internalType":"uint256"}]},{"type":"error","name":"ERC20InsufficientBalance","inputs":[{"name":"sender","type":"address","internalType":"address"},{"name":"balance","type":"uint256","internalType":"uint256"},{"name":"needed","type":"uint256","internalType":"uint256"}]},{"type":"error","name":"ERC20InvalidApprover","inputs":[{"name":"approver","type":"address","internalType":"address"}]},{"type":"error","name":"ERC20InvalidReceiver","inputs":[{"name":"receiver","type":"address","internalType":"address"}]},{"type":"error","name":"ERC20InvalidSender","inputs":[{"name":"sender","type":"address","internalType":"address"}]},{"type":"error","name":"ERC20InvalidSpender","inputs":[{"name":"spender","type":"address","internalType":"address"}]},{"type":"error","name":"FailedInnerCall","inputs":[]},{"type":"error","name":"NotVault","inputs":[]},{"type":"error","name":"ReentrancyGuardReentrantCall","inputs":[]},{"type":"error","name":"SafeERC20FailedOperation","inputs":[{"name":"token","type":"address","internalType":"address"}]}],"bytecode":{"object":"0x60e060405234801562000010575f80fd5b50604051620012b8380380620012b883398101604081905262000033916200015f565b6040518060400160405280601981526020017f45564f20436f6d657420537472617465677920536861726573000000000000008152506040518060400160405280600881526020016765434f4d45542d5360c01b81525081600390816200009b919062000244565b506004620000aa828262000244565b50506001600555506001600160a01b03838116608081905283821660a081905291831660c05260405163095ea7b360e01b815260048101929092525f1960248301529063095ea7b3906044016020604051808303815f875af115801562000113573d5f803e3d5ffd5b505050506040513d601f19601f8201168201806040525081019062000139919062000310565b5050505062000338565b80516001600160a01b03811681146200015a575f80fd5b919050565b5f805f6060848603121562000172575f80fd5b6200017d8462000143565b92506200018d6020850162000143565b91506200019d6040850162000143565b90509250925092565b634e487b7160e01b5f52604160045260245ffd5b600181811c90821680620001cf57607f821691505b602082108103620001ee57634e487b7160e01b5f52602260045260245ffd5b50919050565b601f8211156200023f57805f5260205f20601f840160051c810160208510156200021b5750805b601f840160051c820191505b818110156200023c575f815560010162000227565b50505b505050565b81516001600160401b03811115620002605762000260620001a6565b6200027881620002718454620001ba565b84620001f4565b602080601f831160018114620002ae575f8415620002965750858301515b5f19600386901b1c1916600185901b17855562000308565b5f85815260208120601f198616915b82811015620002de57888601518255948401946001909101908401620002bd565b5085821015620002fc57878501515f19600388901b60f8161c191681555b505060018460011b0185555b505050505050565b5f6020828403121562000321575f80fd5b8151801515811462000331575f80fd5b9392505050565b60805160a05160c051610f16620003a25f395f81816101dc015281816102c601526105d201525f81816101860152818161037d01528181610432015261068b01525f818161023e0152818161034b015281816103e30152818161061d015261065c0152610f165ff3fe608060405234801561000f575f80fd5b50600436106100fa575f3560e01c806335d16e171161009357806389a302711161006357806389a302711461023957806395d89b4114610260578063a9059cbb14610268578063dd62ed3e1461027b575f80fd5b806335d16e17146101cf578063411557d1146101d75780636e553f65146101fe57806370a0823114610211575f80fd5b806318160ddd116100ce57806318160ddd1461016657806323b872dd1461016e5780632517b92b14610181578063313ce567146101c0575f80fd5b8062f714ce146100fe57806301e1d1141461011357806306fdde031461012e578063095ea7b314610143575b5f80fd5b61011161010c366004610cda565b6102b3565b005b61011b61041b565b6040519081526020015b60405180910390f35b6101366104a8565b6040516101259190610d26565b610156610151366004610d58565b610538565b6040519015158152602001610125565b60025461011b565b61015661017c366004610d80565b610551565b6101a87f000000000000000000000000000000000000000000000000000000000000000081565b6040516001600160a01b039091168152602001610125565b60405160128152602001610125565b61011b610576565b6101a87f000000000000000000000000000000000000000000000000000000000000000081565b61011161020c366004610cda565b6105bf565b61011b61021f366004610db9565b6001600160a01b03165f9081526020819052604090205490565b6101a87f000000000000000000000000000000000000000000000000000000000000000081565b610136610733565b610156610276366004610d58565b610742565b61011b610289366004610dd2565b6001600160a01b039182165f90815260016020908152604080832093909416825291909152205490565b6102bb61074f565b336001600160a01b037f00000000000000000000000000000000000000000000000000000000000000001614610304576040516362df054560e01b815260040160405180910390fd5b61030e3383610779565b5f670de0b6b3a7640000610320610576565b61032a9085610e0e565b6103349190610e25565b60405163f3fef3a360e01b81526001600160a01b037f000000000000000000000000000000000000000000000000000000000000000081166004830152602482018390529192507f00000000000000000000000000000000000000000000000000000000000000009091169063f3fef3a3906044015f604051808303815f87803b1580156103c0575f80fd5b505af11580156103d2573d5f803e3d5ffd5b5061040c9250506001600160a01b037f000000000000000000000000000000000000000000000000000000000000000016905083836107b2565b506104176001600555565b5050565b6040516370a0823160e01b81523060048201525f907f00000000000000000000000000000000000000000000000000000000000000006001600160a01b0316906370a0823190602401602060405180830381865afa15801561047f573d5f803e3d5ffd5b505050506040513d601f19601f820116820180604052508101906104a39190610e44565b905090565b6060600380546104b790610e5b565b80601f01602080910402602001604051908101604052809291908181526020018280546104e390610e5b565b801561052e5780601f106105055761010080835404028352916020019161052e565b820191905f5260205f20905b81548152906001019060200180831161051157829003601f168201915b5050505050905090565b5f33610545818585610816565b60019150505b92915050565b5f3361055e858285610823565b61056985858561089e565b60019150505b9392505050565b5f8061058160025490565b9050805f0361059457620f424091505090565b8061059d61041b565b6105af90670de0b6b3a7640000610e0e565b6105b99190610e25565b91505090565b6105c761074f565b336001600160a01b037f00000000000000000000000000000000000000000000000000000000000000001614610610576040516362df054560e01b815260040160405180910390fd5b6106456001600160a01b037f0000000000000000000000000000000000000000000000000000000000000000163330856108fb565b604051631e573fb760e31b81526001600160a01b037f000000000000000000000000000000000000000000000000000000000000000081166004830152602482018490527f0000000000000000000000000000000000000000000000000000000000000000169063f2b9fdb8906044015f604051808303815f87803b1580156106cc575f80fd5b505af11580156106de573d5f803e3d5ffd5b505050505f6106eb610576565b90505f81156106fa57816106ff565b620f42405b61071185670de0b6b3a7640000610e0e565b61071b9190610e25565b90506107278382610934565b50506104176001600555565b6060600480546104b790610e5b565b5f3361054581858561089e565b60026005540361077257604051633ee5aeb560e01b815260040160405180910390fd5b6002600555565b6001600160a01b0382166107a757604051634b637e8f60e11b81525f60048201526024015b60405180910390fd5b610417825f83610964565b6040516001600160a01b0383811660248301526044820183905261081191859182169063a9059cbb906064015b604051602081830303815290604052915060e01b6020820180516001600160e01b038381831617835250505050610a8a565b505050565b6108118383836001610aeb565b6001600160a01b038381165f908152600160209081526040808320938616835292905220545f198114610898578181101561088a57604051637dc7a0d960e11b81526001600160a01b0384166004820152602481018290526044810183905260640161079e565b61089884848484035f610aeb565b50505050565b6001600160a01b0383166108c757604051634b637e8f60e11b81525f600482015260240161079e565b6001600160a01b0382166108f05760405163ec442f0560e01b81525f600482015260240161079e565b610811838383610964565b6040516001600160a01b0384811660248301528381166044830152606482018390526108989186918216906323b872dd906084016107df565b6001600160a01b03821661095d5760405163ec442f0560e01b81525f600482015260240161079e565b6104175f83835b6001600160a01b03831661098e578060025f8282546109839190610e93565b909155506109fe9050565b6001600160a01b0383165f90815260208190526040902054818110156109e05760405163391434e360e21b81526001600160a01b0385166004820152602481018290526044810183905260640161079e565b6001600160a01b0384165f9081526020819052604090209082900390555b6001600160a01b038216610a1a57600280548290039055610a38565b6001600160a01b0382165f9081526020819052604090208054820190555b816001600160a01b0316836001600160a01b03167fddf252ad1be2c89b69c2b068fc378daa952ba7f163c4a11628f55a4df523b3ef83604051610a7d91815260200190565b60405180910390a3505050565b5f610a9e6001600160a01b03841683610bbd565b905080515f14158015610ac2575080806020019051810190610ac09190610ea6565b155b1561081157604051635274afe760e01b81526001600160a01b038416600482015260240161079e565b6001600160a01b038416610b145760405163e602df0560e01b81525f600482015260240161079e565b6001600160a01b038316610b3d57604051634a1406b160e11b81525f600482015260240161079e565b6001600160a01b038085165f908152600160209081526040808320938716835292905220829055801561089857826001600160a01b0316846001600160a01b03167f8c5be1e5ebec7d5bd14f71427d1e84f3dd0314c0f7b2291e5b200ac8c7c3b92584604051610baf91815260200190565b60405180910390a350505050565b606061056f83835f845f80856001600160a01b03168486604051610be19190610ec5565b5f6040518083038185875af1925050503d805f8114610c1b576040519150601f19603f3d011682016040523d82523d5f602084013e610c20565b606091505b5091509150610c30868383610c3a565b9695505050505050565b606082610c4f57610c4a82610c96565b61056f565b8151158015610c6657506001600160a01b0384163b155b15610c8f57604051639996b31560e01b81526001600160a01b038516600482015260240161079e565b508061056f565b805115610ca65780518082602001fd5b604051630a12f52160e11b815260040160405180910390fd5b80356001600160a01b0381168114610cd5575f80fd5b919050565b5f8060408385031215610ceb575f80fd5b82359150610cfb60208401610cbf565b90509250929050565b5f5b83811015610d1e578181015183820152602001610d06565b50505f910152565b602081525f8251806020840152610d44816040850160208701610d04565b601f01601f19169190910160400192915050565b5f8060408385031215610d69575f80fd5b610d7283610cbf565b946020939093013593505050565b5f805f60608486031215610d92575f80fd5b610d9b84610cbf565b9250610da960208501610cbf565b9150604084013590509250925092565b5f60208284031215610dc9575f80fd5b61056f82610cbf565b5f8060408385031215610de3575f80fd5b610dec83610cbf565b9150610cfb60208401610cbf565b634e487b7160e01b5f52601160045260245ffd5b808202811582820484141761054b5761054b610dfa565b5f82610e3f57634e487b7160e01b5f52601260045260245ffd5b500490565b5f60208284031215610e54575f80fd5b5051919050565b600181811c90821680610e6f57607f821691505b602082108103610e8d57634e487b7160e01b5f52602260045260245ffd5b50919050565b8082018082111561054b5761054b610dfa565b5f60208284031215610eb6575f80fd5b8151801515811461056f575f80fd5b5f8251610ed6818460208701610d04565b919091019291505056fea264697066735822122044aa7750bd0ca4c413d780f7068590d407a101adb3fa849e487fd87b17bf9ccb64736f6c63430008180033","linkReferences":{}},"methodIdentifiers":{"COMET()":"2517b92b","USDC()":"89a30271","VAULT()":"411557d1","allowance(address,address)":"dd62ed3e","approve(address,uint256)":"095ea7b3","assetsPerShare()":"35d16e17","balanceOf(address)":"70a08231","decimals()":"313ce567","deposit(uint256,address)":"6e553f65","name()":"06fdde03","symbol()":"95d89b41","totalAssets()":"01e1d114","totalSupply()":"18160ddd","transfer(address,uint256)":"a9059cbb","transferFrom(address,address,uint256)":"23b872dd","withdraw(uint256,address)":"00f714ce"},"id":4}