{"abi":[{"type":"constructor","inputs":[],"stateMutability":"nonpayable"},{"type":"function","name":"DOMAIN_SEPARATOR","inputs":[],"outputs":[{"name":"","type":"bytes32","internalType":"bytes32"}],"stateMutability":"view"},{"type":"function","name":"META_TRANSFER_TYPEHASH","inputs":[],"outputs":[{"name":"","type":"bytes32","internalType":"bytes32"}],"stateMutability":"view"},{"type":"function","name":"UPGRADE_INTERFACE_VERSION","inputs":[],"outputs":[{"name":"","type":"string","internalType":"string"}],"stateMutability":"view"},{"type":"function","name":"allowance","inputs":[{"name":"owner","type":"address","internalType":"address"},{"name":"spender","type":"address","internalType":"address"}],"outputs":[{"name":"","type":"uint256","internalType":"uint256"}],"stateMutability":"view"},{"type":"function","name":"anyoneCanRelay","inputs":[],"outputs":[{"name":"","type":"bool","internalType":"bool"}],"stateMutability":"view"},{"type":"function","name":"approve","inputs":[{"name":"spender","type":"address","internalType":"address"},{"name":"value","type":"uint256","internalType":"uint256"}],"outputs":[{"name":"","type":"bool","internalType":"bool"}],"stateMutability":"nonpayable"},{"type":"function","name":"balanceOf","inputs":[{"name":"account","type":"address","internalType":"address"}],"outputs":[{"name":"","type":"uint256","internalType":"uint256"}],"stateMutability":"view"},{"type":"function","name":"burn","inputs":[{"name":"value","type":"uint256","internalType":"uint256"}],"outputs":[],"stateMutability":"nonpayable"},{"type":"function","name":"burnFrom","inputs":[{"name":"account","type":"address","internalType":"address"},{"name":"value","type":"uint256","internalType":"uint256"}],"outputs":[],"stateMutability":"nonpayable"},{"type":"function","name":"calculateTransferFee","inputs":[{"name":"from","type":"address","internalType":"address"},{"name":"to","type":"address","internalType":"address"},{"name":"amount","type":"uint256","internalType":"uint256"}],"outputs":[{"name":"fee","type":"uint256","internalType":"uint256"},{"name":"netAmount","type":"uint256","internalType":"uint256"}],"stateMutability":"view"},{"type":"function","name":"decimals","inputs":[],"outputs":[{"name":"","type":"uint8","internalType":"uint8"}],"stateMutability":"view"},{"type":"function","name":"eip712Domain","inputs":[],"outputs":[{"name":"fields","type":"bytes1","internalType":"bytes1"},{"name":"name","type":"string","internalType":"string"},{"name":"version","type":"string","internalType":"string"},{"name":"chainId","type":"uint256","internalType":"uint256"},{"name":"verifyingContract","type":"address","internalType":"address"},{"name":"salt","type":"bytes32","internalType":"bytes32"},{"name":"extensions","type":"uint256[]","internalType":"uint256[]"}],"stateMutability":"view"},{"type":"function","name":"feeExempt","inputs":[{"name":"","type":"address","internalType":"address"}],"outputs":[{"name":"","type":"bool","internalType":"bool"}],"stateMutability":"view"},{"type":"function","name":"feePercentageBps","inputs":[],"outputs":[{"name":"","type":"uint16","internalType":"uint16"}],"stateMutability":"view"},{"type":"function","name":"feeThreshold","inputs":[],"outputs":[{"name":"","type":"uint256","internalType":"uint256"}],"stateMutability":"view"},{"type":"function","name":"feesEnabled","inputs":[],"outputs":[{"name":"","type":"bool","internalType":"bool"}],"stateMutability":"view"},{"type":"function","name":"getMetaTransferDigest","inputs":[{"name":"from","type":"address","internalType":"address"},{"name":"to","type":"address","internalType":"address"},{"name":"amount","type":"uint256","internalType":"uint256"},{"name":"nonce","type":"uint256","internalType":"uint256"},{"name":"deadline","type":"uint256","internalType":"uint256"}],"outputs":[{"name":"","type":"bytes32","internalType":"bytes32"}],"stateMutability":"view"},{"type":"function","name":"getMetaTxNonce","inputs":[{"name":"account","type":"address","internalType":"address"}],"outputs":[{"name":"","type":"uint256","internalType":"uint256"}],"stateMutability":"view"},{"type":"function","name":"initialize","inputs":[{"name":"initialOwner","type":"address","internalType":"address"}],"outputs":[],"stateMutability":"nonpayable"},{"type":"function","name":"initializeV2","inputs":[{"name":"_treasury","type":"address","internalType":"address"}],"outputs":[],"stateMutability":"nonpayable"},{"type":"function","name":"metaTransfer","inputs":[{"name":"from","type":"address","internalType":"address"},{"name":"to","type":"address","internalType":"address"},{"name":"amount","type":"uint256","internalType":"uint256"},{"name":"deadline","type":"uint256","internalType":"uint256"},{"name":"signature","type":"bytes","internalType":"bytes"}],"outputs":[{"name":"","type":"bool","internalType":"bool"}],"stateMutability":"nonpayable"},{"type":"function","name":"metaTxNonces","inputs":[{"name":"","type":"address","internalType":"address"}],"outputs":[{"name":"","type":"uint256","internalType":"uint256"}],"stateMutability":"view"},{"type":"function","name":"mint","inputs":[{"name":"to","type":"address","internalType":"address"},{"name":"amount","type":"uint256","internalType":"uint256"}],"outputs":[],"stateMutability":"nonpayable"},{"type":"function","name":"name","inputs":[],"outputs":[{"name":"","type":"string","internalType":"string"}],"stateMutability":"view"},{"type":"function","name":"nonces","inputs":[{"name":"owner","type":"address","internalType":"address"}],"outputs":[{"name":"","type":"uint256","internalType":"uint256"}],"stateMutability":"view"},{"type":"function","name":"owner","inputs":[],"outputs":[{"name":"","type":"address","internalType":"address"}],"stateMutability":"view"},{"type":"function","name":"permit","inputs":[{"name":"owner","type":"address","internalType":"address"},{"name":"spender","type":"address","internalType":"address"},{"name":"value","type":"uint256","internalType":"uint256"},{"name":"deadline","type":"uint256","internalType":"uint256"},{"name":"v","type":"uint8","internalType":"uint8"},{"name":"r","type":"bytes32","internalType":"bytes32"},{"name":"s","type":"bytes32","internalType":"bytes32"}],"outputs":[],"stateMutability":"nonpayable"},{"type":"function","name":"proxiableUUID","inputs":[],"outputs":[{"name":"","type":"bytes32","internalType":"bytes32"}],"stateMutability":"view"},{"type":"function","name":"renounceOwnership","inputs":[],"outputs":[],"stateMutability":"nonpayable"},{"type":"function","name":"setAnyoneCanRelay","inputs":[{"name":"allowed","type":"bool","internalType":"bool"}],"outputs":[],"stateMutability":"nonpayable"},{"type":"function","name":"setFeeExempt","inputs":[{"name":"account","type":"address","internalType":"address"},{"name":"exempt","type":"bool","internalType":"bool"}],"outputs":[],"stateMutability":"nonpayable"},{"type":"function","name":"setFeeExemptBatch","inputs":[{"name":"accounts","type":"address[]","internalType":"address[]"},{"name":"exempt","type":"bool","internalType":"bool"}],"outputs":[],"stateMutability":"nonpayable"},{"type":"function","name":"setFeeParams","inputs":[{"name":"_threshold","type":"uint256","internalType":"uint256"},{"name":"_feeBps","type":"uint16","internalType":"uint16"},{"name":"_enabled","type":"bool","internalType":"bool"}],"outputs":[],"stateMutability":"nonpayable"},{"type":"function","name":"setTreasury","inputs":[{"name":"_treasury","type":"address","internalType":"address"}],"outputs":[],"stateMutability":"nonpayable"},{"type":"function","name":"symbol","inputs":[],"outputs":[{"name":"","type":"string","internalType":"string"}],"stateMutability":"view"},{"type":"function","name":"totalFeesCollected","inputs":[],"outputs":[{"name":"","type":"uint256","internalType":"uint256"}],"stateMutability":"view"},{"type":"function","name":"totalMetaTxRelayed","inputs":[],"outputs":[{"name":"","type":"uint256","internalType":"uint256"}],"stateMutability":"view"},{"type":"function","name":"totalSupply","inputs":[],"outputs":[{"name":"","type":"uint256","internalType":"uint256"}],"stateMutability":"view"},{"type":"function","name":"transfer","inputs":[{"name":"to","type":"address","internalType":"address"},{"name":"value","type":"uint256","internalType":"uint256"}],"outputs":[{"name":"","type":"bool","internalType":"bool"}],"stateMutability":"nonpayable"},{"type":"function","name":"transferFrom","inputs":[{"name":"from","type":"address","internalType":"address"},{"name":"to","type":"address","internalType":"address"},{"name":"value","type":"uint256","internalType":"uint256"}],"outputs":[{"name":"","type":"bool","internalType":"bool"}],"stateMutability":"nonpayable"},{"type":"function","name":"transferOwnership","inputs":[{"name":"newOwner","type":"address","internalType":"address"}],"outputs":[],"stateMutability":"nonpayable"},{"type":"function","name":"treasury","inputs":[],"outputs":[{"name":"","type":"address","internalType":"address"}],"stateMutability":"view"},{"type":"function","name":"upgradeToAndCall","inputs":[{"name":"newImplementation","type":"address","internalType":"address"},{"name":"data","type":"bytes","internalType":"bytes"}],"outputs":[],"stateMutability":"payable"},{"type":"function","name":"version","inputs":[],"outputs":[{"name":"","type":"string","internalType":"string"}],"stateMutability":"pure"},{"type":"event","name":"Approval","inputs":[{"name":"owner","type":"address","indexed":true,"internalType":"address"},{"name":"spender","type":"address","indexed":true,"internalType":"address"},{"name":"value","type":"uint256","indexed":false,"internalType":"uint256"}],"anonymous":false},{"type":"event","name":"EIP712DomainChanged","inputs":[],"anonymous":false},{"type":"event","name":"FeeCollected","inputs":[{"name":"from","type":"address","indexed":true,"internalType":"address"},{"name":"to","type":"address","indexed":true,"internalType":"address"},{"name":"amount","type":"uint256","indexed":false,"internalType":"uint256"},{"name":"fee","type":"uint256","indexed":false,"internalType":"uint256"}],"anonymous":false},{"type":"event","name":"FeeExemptUpdated","inputs":[{"name":"account","type":"address","indexed":true,"internalType":"address"},{"name":"exempt","type":"bool","indexed":false,"internalType":"bool"}],"anonymous":false},{"type":"event","name":"FeeParamsUpdated","inputs":[{"name":"threshold","type":"uint256","indexed":false,"internalType":"uint256"},{"name":"feeBps","type":"uint16","indexed":false,"internalType":"uint16"},{"name":"enabled","type":"bool","indexed":false,"internalType":"bool"}],"anonymous":false},{"type":"event","name":"Initialized","inputs":[{"name":"version","type":"uint64","indexed":false,"internalType":"uint64"}],"anonymous":false},{"type":"event","name":"MetaTransferExecuted","inputs":[{"name":"from","type":"address","indexed":true,"internalType":"address"},{"name":"to","type":"address","indexed":true,"internalType":"address"},{"name":"amount","type":"uint256","indexed":false,"internalType":"uint256"},{"name":"relayer","type":"address","indexed":true,"internalType":"address"}],"anonymous":false},{"type":"event","name":"OwnershipTransferred","inputs":[{"name":"previousOwner","type":"address","indexed":true,"internalType":"address"},{"name":"newOwner","type":"address","indexed":true,"internalType":"address"}],"anonymous":false},{"type":"event","name":"Transfer","inputs":[{"name":"from","type":"address","indexed":true,"internalType":"address"},{"name":"to","type":"address","indexed":true,"internalType":"address"},{"name":"value","type":"uint256","indexed":false,"internalType":"uint256"}],"anonymous":false},{"type":"event","name":"TreasuryUpdated","inputs":[{"name":"treasury","type":"address","indexed":true,"internalType":"address"}],"anonymous":false},{"type":"event","name":"Upgraded","inputs":[{"name":"implementation","type":"address","indexed":true,"internalType":"address"}],"anonymous":false},{"type":"error","name":"AddressEmptyCode","inputs":[{"name":"target","type":"address","internalType":"address"}]},{"type":"error","name":"ECDSAInvalidSignature","inputs":[]},{"type":"error","name":"ECDSAInvalidSignatureLength","inputs":[{"name":"length","type":"uint256","internalType":"uint256"}]},{"type":"error","name":"ECDSAInvalidSignatureS","inputs":[{"name":"s","type":"bytes32","internalType":"bytes32"}]},{"type":"error","name":"ERC1967InvalidImplementation","inputs":[{"name":"implementation","type":"address","internalType":"address"}]},{"type":"error","name":"ERC1967NonPayable","inputs":[]},{"type":"error","name":"ERC20InsufficientAllowance","inputs":[{"name":"spender","type":"address","internalType":"address"},{"name":"allowance","type":"uint256","internalType":"uint256"},{"name":"needed","type":"uint256","internalType":"uint256"}]},{"type":"error","name":"ERC20InsufficientBalance","inputs":[{"name":"sender","type":"address","internalType":"address"},{"name":"balance","type":"uint256","internalType":"uint256"},{"name":"needed","type":"uint256","internalType":"uint256"}]},{"type":"error","name":"ERC20InvalidApprover","inputs":[{"name":"approver","type":"address","internalType":"address"}]},{"type":"error","name":"ERC20InvalidReceiver","inputs":[{"name":"receiver","type":"address","internalType":"address"}]},{"type":"error","name":"ERC20InvalidSender","inputs":[{"name":"sender","type":"address","internalType":"address"}]},{"type":"error","name":"ERC20InvalidSpender","inputs":[{"name":"spender","type":"address","internalType":"address"}]},{"type":"error","name":"ERC2612ExpiredSignature","inputs":[{"name":"deadline","type":"uint256","internalType":"uint256"}]},{"type":"error","name":"ERC2612InvalidSigner","inputs":[{"name":"signer","type":"address","internalType":"address"},{"name":"owner","type":"address","internalType":"address"}]},{"type":"error","name":"FailedInnerCall","inputs":[]},{"type":"error","name":"InvalidAccountNonce","inputs":[{"name":"account","type":"address","internalType":"address"},{"name":"currentNonce","type":"uint256","internalType":"uint256"}]},{"type":"error","name":"InvalidInitialization","inputs":[]},{"type":"error","name":"NotInitializing","inputs":[]},{"type":"error","name":"OwnableInvalidOwner","inputs":[{"name":"owner","type":"address","internalType":"address"}]},{"type":"error","name":"OwnableUnauthorizedAccount","inputs":[{"name":"account","type":"address","internalType":"address"}]},{"type":"error","name":"UUPSUnauthorizedCallContext","inputs":[]},{"type":"error","name":"UUPSUnsupportedProxiableUUID","inputs":[{"name":"slot","type":"bytes32","internalType":"bytes32"}]}],"bytecode":{"object":"0x60a06040523060805234801562000014575f80fd5b506200001f62000025565b620000d9565b7ff0c57e16840df040f15088dc2f81fe391c3923bec73e23a9662efc9c229c6a00805468010000000000000000900460ff1615620000765760405163f92ee8a960e01b815260040160405180910390fd5b80546001600160401b0390811614620000d65780546001600160401b0319166001600160401b0390811782556040519081527fc7f505b2f371ae2175ee4913f4499e1f2633a7b5936321eed1cdaeb6115181d29060200160405180910390a15b50565b608051612ae9620001005f395f81816116d6015281816116ff015261183e0152612ae95ff3fe60806040526004361061025f575f3560e01c80636a446ab81161013f578063a64e4f8a116100b3578063c4dc9fa411610078578063c4dc9fa4146107ac578063cb4e162b146107cb578063d505accf146107df578063dd62ed3e146107fe578063f0f442601461081d578063f2fde38b1461083c575f80fd5b8063a64e4f8a146106ec578063a9059cbb1461070b578063ac302bc91461072a578063ad3cb1cc1461075d578063c4d66de81461078d575f80fd5b806384b0196e1161010457806384b0196e146105fe5780638da5cb5b146106255780638ebfc796146106615780639044943c1461068057806395d89b41146106ad578063a49d7ca5146106c1575f80fd5b80636a446ab81461056e57806370a082311461058d578063715018a6146105ac57806379cc6790146105c05780637ecebe00146105df575f80fd5b8063398daa85116101d65780634f1ef2861161019b5780634f1ef286146104b257806351ef3a78146104c557806352d1902d146104da57806354fd4d50146104ee57806360c6d8ae1461051b57806361d027b314610530575f80fd5b8063398daa85146103f95780633c0327121461042757806340c10f191461044057806342966c681461045f5780634d3d14f21461047e575f80fd5b806323b872dd1161022757806323b872dd146103395780632452fb401461035857806329b6eca9146103775780632c1688cb14610396578063313ce567146103ca5780633644e515146103e5575f80fd5b806302079e2a1461026357806306fdde0314610284578063095ea7b3146102ae57806318160ddd146102dd5780631bdddff91461031a575b5f80fd5b34801561026e575f80fd5b5061028261027d36600461231d565b61085b565b005b34801561028f575f80fd5b50610298610938565b6040516102a591906123e7565b60405180910390f35b3480156102b9575f80fd5b506102cd6102c836600461240f565b6109dd565b60405190151581526020016102a5565b3480156102e8575f80fd5b507f52c63247e1f47db19d5ce0460030c497f067ca4cebf71ba98eeadabe20bace02545b6040519081526020016102a5565b348015610325575f80fd5b50610282610334366004612437565b6109f6565b348015610344575f80fd5b506102cd61035336600461246f565b610ab3565b348015610363575f80fd5b506102826103723660046124a8565b610ad8565b348015610382575f80fd5b506102826103913660046124c1565b610af3565b3480156103a1575f80fd5b5061030c6103b03660046124c1565b6001600160a01b03165f9081526002602052604090205490565b3480156103d5575f80fd5b50604051601281526020016102a5565b3480156103f0575f80fd5b5061030c610bcc565b348015610404575f80fd5b506102cd6104133660046124c1565b60046020525f908152604090205460ff1681565b348015610432575f80fd5b506003546102cd9060ff1681565b34801561044b575f80fd5b5061028261045a36600461240f565b610bda565b34801561046a575f80fd5b506102826104793660046124da565b610bf0565b348015610489575f80fd5b5061049d61049836600461246f565b610bfd565b604080519283526020830191909152016102a5565b6102826104c0366004612505565b610c4f565b3480156104d0575f80fd5b5061030c60065481565b3480156104e5575f80fd5b5061030c610c6a565b3480156104f9575f80fd5b506040805180820190915260058152640322e302e360dc1b6020820152610298565b348015610526575f80fd5b5061030c60055481565b34801561053b575f80fd5b5060015461055690630100000090046001600160a01b031681565b6040516001600160a01b0390911681526020016102a5565b348015610579575f80fd5b506102cd6105883660046125c1565b610c85565b348015610598575f80fd5b5061030c6105a73660046124c1565b610eb9565b3480156105b7575f80fd5b50610282610ee9565b3480156105cb575f80fd5b506102826105da36600461240f565b610efc565b3480156105ea575f80fd5b5061030c6105f93660046124c1565b610f11565b348015610609575f80fd5b50610612610f1b565b6040516102a5979695949392919061265f565b348015610630575f80fd5b507f9016d09d72d40fdae2fd8ceac6b6234c7706214fd39c1cd1e609a0528c199300546001600160a01b0316610556565b34801561066c575f80fd5b5061028261067b3660046126f6565b610fc4565b34801561068b575f80fd5b5060015461069a9061ffff1681565b60405161ffff90911681526020016102a5565b3480156106b8575f80fd5b5061029861102a565b3480156106cc575f80fd5b5061030c6106db3660046124c1565b60026020525f908152604090205481565b3480156106f7575f80fd5b506001546102cd9062010000900460ff1681565b348015610716575f80fd5b506102cd61072536600461240f565b611068565b348015610735575f80fd5b5061030c7fe3a0d28ed2df6277c3892ca0007ac0c97745d6886fdcd4ec27c8bf39de0797f881565b348015610768575f80fd5b50610298604051806040016040528060058152602001640352e302e360dc1b81525081565b348015610798575f80fd5b506102826107a73660046124c1565b611075565b3480156107b7575f80fd5b5061030c6107c6366004612727565b6111f3565b3480156107d6575f80fd5b5061030c5f5481565b3480156107ea575f80fd5b506102826107f9366004612770565b611257565b348015610809575f80fd5b5061030c6108183660046127dd565b61138a565b348015610828575f80fd5b506102826108373660046124c1565b6113d3565b348015610847575f80fd5b506102826108563660046124c1565b61146f565b6108636114a9565b5f5b82811015610932578160045f86868581811061088357610883612805565b905060200201602081019061089891906124c1565b6001600160a01b0316815260208101919091526040015f20805460ff19169115159190911790558383828181106108d1576108d1612805565b90506020020160208101906108e691906124c1565b6001600160a01b03167f4d5771454588f51370a8a2e7e151354b6de0dc3159b14821b4ad76bc04c28bc783604051610922911515815260200190565b60405180910390a2600101610865565b50505050565b60605f5f80516020612a548339815191525b905080600301805461095b90612819565b80601f016020809104026020016040519081016040528092919081815260200182805461098790612819565b80156109d25780601f106109a9576101008083540402835291602001916109d2565b820191905f5260205f20905b8154815290600101906020018083116109b557829003601f168201915b505050505091505090565b5f336109ea818585611504565b60019150505b92915050565b6109fe6114a9565b6101f48261ffff161115610a445760405162461bcd60e51b8152602060048201526008602482015267466565203e20352560c01b60448201526064015b60405180910390fd5b5f8390556001805461ffff841662ffffff19909116811762010000841515908102919091179092556040805186815260208101929092528101919091527f632c12364748cff5090343ba01d67899929f200433b563f3503b38ea97f6b34a9060600160405180910390a1505050565b5f33610ac0858285611516565b610acb858585611574565b60019150505b9392505050565b610ae06114a9565b6003805460ff1916911515919091179055565b610afb6114a9565b5f5415610b405760405162461bcd60e51b8152602060048201526013602482015272105b1c9958591e481a5b9a5d1a585b1a5e9959606a1b6044820152606401610a3b565b6001600160a01b038116610b865760405162461bcd60e51b815260206004820152600d60248201526c5a65726f20747265617375727960981b6044820152606401610a3b565b678ac7230489e800005f55600180546001600160a01b039092166301000000026001600160b81b0319909216919091176201000a1781556003805460ff19169091179055565b5f610bd56115d1565b905090565b610be26114a9565b610bec82826115da565b5050565b610bfa338261160e565b50565b5f80610c0a858585611642565b15610c1957505f905081610c47565b60015461271090610c2e9061ffff1685612865565b610c38919061287c565b9150610c44828461289b565b90505b935093915050565b610c576116cb565b610c608261176f565b610bec8282611777565b5f610c73611833565b505f80516020612a9483398151915290565b5f83421115610cc05760405162461bcd60e51b8152602060048201526007602482015266115e1c1a5c995960ca1b6044820152606401610a3b565b60035460ff1680610cdf5750335f9081526004602052604090205460ff165b610d195760405162461bcd60e51b815260206004820152600b60248201526a2737ba103932b630bcb2b960a91b6044820152606401610a3b565b6001600160a01b0387165f90815260026020526040812080549082610d3d836128ae565b9190505590505f7fe3a0d28ed2df6277c3892ca0007ac0c97745d6886fdcd4ec27c8bf39de0797f8898989858a604051602001610d7f969594939291906128c6565b6040516020818303038152906040528051906020012090505f610de286868080601f0160208091040260200160405190810160405280939291908181526020018383808284375f92019190915250610ddc925086915061187c9050565b906118a8565b9050896001600160a01b0316816001600160a01b031614610e335760405162461bcd60e51b815260206004820152600b60248201526a496e76616c69642073696760a81b6044820152606401610a3b565b610e3e8a8a8a611574565b60068054905f610e4d836128ae565b9190505550336001600160a01b0316896001600160a01b03168b6001600160a01b03167f6ef485048842da662b8ed285ecc578a61182de0be0cf7369e535fd1646f933b58b604051610ea191815260200190565b60405180910390a45060019998505050505050505050565b5f805f80516020612a548339815191525b6001600160a01b039093165f9081526020939093525050604090205490565b610ef16114a9565b610efa5f6118d0565b565b610f07823383611516565b610bec828261160e565b5f6109f082611940565b5f60608082808083815f80516020612a748339815191528054909150158015610f4657506001810154155b610f8a5760405162461bcd60e51b81526020600482015260156024820152741152540dcc4c8e88155b9a5b9a5d1a585b1a5e9959605a1b6044820152606401610a3b565b610f92611968565b610f9a6119a6565b604080515f80825260208201909252600f60f81b9c939b5091995046985030975095509350915050565b610fcc6114a9565b6001600160a01b0382165f81815260046020908152604091829020805460ff191685151590811790915591519182527f4d5771454588f51370a8a2e7e151354b6de0dc3159b14821b4ad76bc04c28bc7910160405180910390a25050565b7f52c63247e1f47db19d5ce0460030c497f067ca4cebf71ba98eeadabe20bace0480546060915f80516020612a548339815191529161095b90612819565b5f336109ea818585611574565b7ff0c57e16840df040f15088dc2f81fe391c3923bec73e23a9662efc9c229c6a008054600160401b810460ff16159067ffffffffffffffff165f811580156110ba5750825b90505f8267ffffffffffffffff1660011480156110d65750303b155b9050811580156110e4575080155b156111025760405163f92ee8a960e01b815260040160405180910390fd5b845467ffffffffffffffff19166001178555831561112c57845460ff60401b1916600160401b1785555b61116e604051806040016040528060058152602001644e4f56495360d81b815250604051806040016040528060038152602001624e565360e81b8152506119bc565b6111766119ce565b61119c604051806040016040528060058152602001644e4f56495360d81b8152506119d6565b6111a586611a01565b83156111eb57845460ff60401b19168555604051600181527fc7f505b2f371ae2175ee4913f4499e1f2633a7b5936321eed1cdaeb6115181d29060200160405180910390a15b505050505050565b5f61124d7fe3a0d28ed2df6277c3892ca0007ac0c97745d6886fdcd4ec27c8bf39de0797f88787878787604051602001611232969594939291906128c6565b6040516020818303038152906040528051906020012061187c565b9695505050505050565b8342111561127b5760405163313c898160e11b815260048101859052602401610a3b565b5f7f6e71edae12b1b97f4d1f60370fef10105fa2faae0126114a169c64845d6126c98888886112e58c6001600160a01b03165f9081527f5ab42ced628888259c08ac98db1eb0cf702fc1501344311d8b100cd1bfe4bb006020526040902080546001810190915590565b896040516020016112fb969594939291906128c6565b6040516020818303038152906040528051906020012090505f61131d8261187c565b90505f61132c82878787611a12565b9050896001600160a01b0316816001600160a01b031614611373576040516325c0072360e11b81526001600160a01b0380831660048301528b166024820152604401610a3b565b61137e8a8a8a611504565b50505050505050505050565b6001600160a01b039182165f9081527f52c63247e1f47db19d5ce0460030c497f067ca4cebf71ba98eeadabe20bace016020908152604080832093909416825291909152205490565b6113db6114a9565b6001600160a01b03811661141a5760405162461bcd60e51b8152600401610a3b906020808252600490820152635a65726f60e01b604082015260600190565b600180546301000000600160b81b03191663010000006001600160a01b038416908102919091179091556040517f7dae230f18360d76a040c81f050aa14eb9d6dc7901b20fc5d855e2a20fe814d1905f90a250565b6114776114a9565b6001600160a01b0381166114a057604051631e4fbdf760e01b81525f6004820152602401610a3b565b610bfa816118d0565b336114db7f9016d09d72d40fdae2fd8ceac6b6234c7706214fd39c1cd1e609a0528c199300546001600160a01b031690565b6001600160a01b031614610efa5760405163118cdaa760e01b8152336004820152602401610a3b565b6115118383836001611a3e565b505050565b5f611521848461138a565b90505f19811015610932578181101561156657604051637dc7a0d960e11b81526001600160a01b03841660048201526024810182905260448101839052606401610a3b565b61093284848484035f611a3e565b6001600160a01b03831661159d57604051634b637e8f60e11b81525f6004820152602401610a3b565b6001600160a01b0382166115c65760405163ec442f0560e01b81525f6004820152602401610a3b565b611511838383611b22565b5f610bd5611c1c565b6001600160a01b0382166116035760405163ec442f0560e01b81525f6004820152602401610a3b565b610bec5f8383611b22565b6001600160a01b03821661163757604051634b637e8f60e11b81525f6004820152602401610a3b565b610bec825f83611b22565b5f6001600160a01b038416158061166057506001600160a01b038316155b80611674575060015462010000900460ff16155b8061169657506001600160a01b0384165f9081526004602052604090205460ff165b806116b857506001600160a01b0383165f9081526004602052604090205460ff165b806116c357505f5482105b949350505050565b306001600160a01b037f000000000000000000000000000000000000000000000000000000000000000016148061175157507f00000000000000000000000000000000000000000000000000000000000000006001600160a01b03166117455f80516020612a94833981519152546001600160a01b031690565b6001600160a01b031614155b15610efa5760405163703e46dd60e11b815260040160405180910390fd5b610bfa6114a9565b816001600160a01b03166352d1902d6040518163ffffffff1660e01b8152600401602060405180830381865afa9250505080156117d1575060408051601f3d908101601f191682019092526117ce918101906128fa565b60015b6117f957604051634c9c8ce360e01b81526001600160a01b0383166004820152602401610a3b565b5f80516020612a94833981519152811461182957604051632a87526960e21b815260048101829052602401610a3b565b6115118383611c8f565b306001600160a01b037f00000000000000000000000000000000000000000000000000000000000000001614610efa5760405163703e46dd60e11b815260040160405180910390fd5b5f6109f06118886115d1565b8360405161190160f01b8152600281019290925260228201526042902090565b5f805f806118b68686611ce4565b9250925092506118c68282611d2d565b5090949350505050565b7f9016d09d72d40fdae2fd8ceac6b6234c7706214fd39c1cd1e609a0528c19930080546001600160a01b031981166001600160a01b03848116918217845560405192169182907f8be0079c531659141344cd1fd0a4f28419497f9722a3daafe3b4186f6b6457e0905f90a3505050565b5f807f5ab42ced628888259c08ac98db1eb0cf702fc1501344311d8b100cd1bfe4bb00610eca565b7fa16a46d94261c7517cc8ff89f61c0ce93598e3c849801011dee649a6a557d10280546060915f80516020612a748339815191529161095b90612819565b60605f5f80516020612a7483398151915261094a565b6119c4611de5565b610bec8282611e2e565b610efa611de5565b6119de611de5565b610bfa81604051806040016040528060018152602001603160f81b815250611e7e565b611a09611de5565b610bfa81611edd565b5f805f80611a2288888888611ee5565b925092509250611a328282611d2d565b50909695505050505050565b5f80516020612a548339815191526001600160a01b038516611a755760405163e602df0560e01b81525f6004820152602401610a3b565b6001600160a01b038416611a9e57604051634a1406b160e11b81525f6004820152602401610a3b565b6001600160a01b038086165f90815260018301602090815260408083209388168352929052208390558115611b1b57836001600160a01b0316856001600160a01b03167f8c5be1e5ebec7d5bd14f71427d1e84f3dd0314c0f7b2291e5b200ac8c7c3b92585604051611b1291815260200190565b60405180910390a35b5050505050565b611b2d838383611642565b15611b3d57611511838383611fad565b6001545f9061271090611b549061ffff1684612865565b611b5e919061287c565b90505f611b6b828461289b565b90505f82118015611b8d5750600154630100000090046001600160a01b031615155b15611c1157600154611bb1908690630100000090046001600160a01b031684611fad565b8160055f828254611bc29190612911565b909155505060408051848152602081018490526001600160a01b0380871692908816917f205442d60b70af1203d43cab62352c3b69b94f091be32fe683198057282b5c92910160405180910390a35b611b1b858583611fad565b5f7f8b73c3c69bb8fe3d512ecc4cf759cc79239f7b179b0ffacaa9a75d522b39400f611c466120e6565b611c4e61214e565b60408051602081019490945283019190915260608201524660808201523060a082015260c00160405160208183030381529060405280519060200120905090565b611c9882612190565b6040516001600160a01b038316907fbc7cd75a20ee27fd9adebab32041f755214dbc6bffa90cc0225b39da2e5c2d3b905f90a2805115611cdc5761151182826121f3565b610bec612265565b5f805f8351604103611d1b576020840151604085015160608601515f1a611d0d88828585611ee5565b955095509550505050611d26565b505081515f91506002905b9250925092565b5f826003811115611d4057611d40612924565b03611d49575050565b6001826003811115611d5d57611d5d612924565b03611d7b5760405163f645eedf60e01b815260040160405180910390fd5b6002826003811115611d8f57611d8f612924565b03611db05760405163fce698f760e01b815260048101829052602401610a3b565b6003826003811115611dc457611dc4612924565b03610bec576040516335e2f38360e21b815260048101829052602401610a3b565b7ff0c57e16840df040f15088dc2f81fe391c3923bec73e23a9662efc9c229c6a0054600160401b900460ff16610efa57604051631afcd79f60e31b815260040160405180910390fd5b611e36611de5565b5f80516020612a548339815191527f52c63247e1f47db19d5ce0460030c497f067ca4cebf71ba98eeadabe20bace03611e6f848261297c565b5060048101610932838261297c565b611e86611de5565b5f80516020612a748339815191527fa16a46d94261c7517cc8ff89f61c0ce93598e3c849801011dee649a6a557d102611ebf848261297c565b5060038101611ece838261297c565b505f8082556001909101555050565b611477611de5565b5f80807f7fffffffffffffffffffffffffffffff5d576e7357a4501ddfe92f46681b20a0841115611f1e57505f91506003905082611fa3565b604080515f808252602082018084528a905260ff891692820192909252606081018790526080810186905260019060a0016020604051602081039080840390855afa158015611f6f573d5f803e3d5ffd5b5050604051601f1901519150506001600160a01b038116611f9a57505f925060019150829050611fa3565b92505f91508190505b9450945094915050565b5f80516020612a548339815191526001600160a01b038416611fe75781816002015f828254611fdc9190612911565b909155506120579050565b6001600160a01b0384165f90815260208290526040902054828110156120395760405163391434e360e21b81526001600160a01b03861660048201526024810182905260448101849052606401610a3b565b6001600160a01b0385165f9081526020839052604090209083900390555b6001600160a01b038316612075576002810180548390039055612093565b6001600160a01b0383165f9081526020829052604090208054830190555b826001600160a01b0316846001600160a01b03167fddf252ad1be2c89b69c2b068fc378daa952ba7f163c4a11628f55a4df523b3ef846040516120d891815260200190565b60405180910390a350505050565b5f5f80516020612a74833981519152816120fe611968565b80519091501561211657805160209091012092915050565b81548015612125579392505050565b7fc5d2460186f7233c927e7db2dcc703c0e500b653ca82273b7bfad8045d85a470935050505090565b5f5f80516020612a74833981519152816121666119a6565b80519091501561217e57805160209091012092915050565b60018201548015612125579392505050565b806001600160a01b03163b5f036121c557604051634c9c8ce360e01b81526001600160a01b0382166004820152602401610a3b565b5f80516020612a9483398151915280546001600160a01b0319166001600160a01b0392909216919091179055565b60605f80846001600160a01b03168460405161220f9190612a38565b5f60405180830381855af49150503d805f8114612247576040519150601f19603f3d011682016040523d82523d5f602084013e61224c565b606091505b509150915061225c858383612284565b95945050505050565b3415610efa5760405163b398979f60e01b815260040160405180910390fd5b60608261229957612294826122e0565b610ad1565b81511580156122b057506001600160a01b0384163b155b156122d957604051639996b31560e01b81526001600160a01b0385166004820152602401610a3b565b5080610ad1565b8051156122f05780518082602001fd5b604051630a12f52160e11b815260040160405180910390fd5b80358015158114612318575f80fd5b919050565b5f805f6040848603121561232f575f80fd5b833567ffffffffffffffff80821115612346575f80fd5b818601915086601f830112612359575f80fd5b813581811115612367575f80fd5b8760208260051b850101111561237b575f80fd5b6020928301955093506123919186019050612309565b90509250925092565b5f5b838110156123b457818101518382015260200161239c565b50505f910152565b5f81518084526123d381602086016020860161239a565b601f01601f19169290920160200192915050565b602081525f610ad160208301846123bc565b80356001600160a01b0381168114612318575f80fd5b5f8060408385031215612420575f80fd5b612429836123f9565b946020939093013593505050565b5f805f60608486031215612449575f80fd5b83359250602084013561ffff81168114612461575f80fd5b915061239160408501612309565b5f805f60608486031215612481575f80fd5b61248a846123f9565b9250612498602085016123f9565b9150604084013590509250925092565b5f602082840312156124b8575f80fd5b610ad182612309565b5f602082840312156124d1575f80fd5b610ad1826123f9565b5f602082840312156124ea575f80fd5b5035919050565b634e487b7160e01b5f52604160045260245ffd5b5f8060408385031215612516575f80fd5b61251f836123f9565b9150602083013567ffffffffffffffff8082111561253b575f80fd5b818501915085601f83011261254e575f80fd5b813581811115612560576125606124f1565b604051601f8201601f19908116603f01168101908382118183101715612588576125886124f1565b816040528281528860208487010111156125a0575f80fd5b826020860160208301375f6020848301015280955050505050509250929050565b5f805f805f8060a087890312156125d6575f80fd5b6125df876123f9565b95506125ed602088016123f9565b94506040870135935060608701359250608087013567ffffffffffffffff80821115612617575f80fd5b818901915089601f83011261262a575f80fd5b813581811115612638575f80fd5b8a6020828501011115612649575f80fd5b6020830194508093505050509295509295509295565b60ff60f81b881681525f602060e0602084015261267f60e084018a6123bc565b8381036040850152612691818a6123bc565b606085018990526001600160a01b038816608086015260a0850187905284810360c0860152855180825260208088019350909101905f5b818110156126e4578351835292840192918401916001016126c8565b50909c9b505050505050505050505050565b5f8060408385031215612707575f80fd5b612710836123f9565b915061271e60208401612309565b90509250929050565b5f805f805f60a0868803121561273b575f80fd5b612744866123f9565b9450612752602087016123f9565b94979496505050506040830135926060810135926080909101359150565b5f805f805f805f60e0888a031215612786575f80fd5b61278f886123f9565b965061279d602089016123f9565b95506040880135945060608801359350608088013560ff811681146127c0575f80fd5b9699959850939692959460a0840135945060c09093013592915050565b5f80604083850312156127ee575f80fd5b6127f7836123f9565b915061271e602084016123f9565b634e487b7160e01b5f52603260045260245ffd5b600181811c9082168061282d57607f821691505b60208210810361284b57634e487b7160e01b5f52602260045260245ffd5b50919050565b634e487b7160e01b5f52601160045260245ffd5b80820281158282048414176109f0576109f0612851565b5f8261289657634e487b7160e01b5f52601260045260245ffd5b500490565b818103818111156109f0576109f0612851565b5f600182016128bf576128bf612851565b5060010190565b9586526001600160a01b0394851660208701529290931660408501526060840152608083019190915260a082015260c00190565b5f6020828403121561290a575f80fd5b5051919050565b808201808211156109f0576109f0612851565b634e487b7160e01b5f52602160045260245ffd5b601f82111561151157805f5260205f20601f840160051c8101602085101561295d5750805b601f840160051c820191505b81811015611b1b575f8155600101612969565b815167ffffffffffffffff811115612996576129966124f1565b6129aa816129a48454612819565b84612938565b602080601f8311600181146129dd575f84156129c65750858301515b5f19600386901b1c1916600185901b1785556111eb565b5f85815260208120601f198616915b82811015612a0b578886015182559484019460019091019084016129ec565b5085821015612a2857878501515f19600388901b60f8161c191681555b5050505050600190811b01905550565b5f8251612a4981846020870161239a565b919091019291505056fe52c63247e1f47db19d5ce0460030c497f067ca4cebf71ba98eeadabe20bace00a16a46d94261c7517cc8ff89f61c0ce93598e3c849801011dee649a6a557d100360894a13ba1a3210667c828492db98dca3e2076cc3735a920a3ca505d382bbca26469706673582212205b216aeb5567d223bcef29c7556e0645489171a111cbfa1030ce6f1075f0360664736f6c63430008180033","linkReferences":{}},"methodIdentifiers":{"DOMAIN_SEPARATOR()":"3644e515","META_TRANSFER_TYPEHASH()":"ac302bc9","UPGRADE_INTERFACE_VERSION()":"ad3cb1cc","allowance(address,address)":"dd62ed3e","anyoneCanRelay()":"3c032712","approve(address,uint256)":"095ea7b3","balanceOf(address)":"70a08231","burn(uint256)":"42966c68","burnFrom(address,uint256)":"79cc6790","calculateTransferFee(address,address,uint256)":"4d3d14f2","decimals()":"313ce567","eip712Domain()":"84b0196e","feeExempt(address)":"398daa85","feePercentageBps()":"9044943c","feeThreshold()":"cb4e162b","feesEnabled()":"a64e4f8a","getMetaTransferDigest(address,address,uint256,uint256,uint256)":"c4dc9fa4","getMetaTxNonce(address)":"2c1688cb","initialize(address)":"c4d66de8","initializeV2(address)":"29b6eca9","metaTransfer(address,address,uint256,uint256,bytes)":"6a446ab8","metaTxNonces(address)":"a49d7ca5","mint(address,uint256)":"40c10f19","name()":"06fdde03","nonces(address)":"7ecebe00","owner()":"8da5cb5b","permit(address,address,uint256,uint256,uint8,bytes32,bytes32)":"d505accf","proxiableUUID()":"52d1902d","renounceOwnership()":"715018a6","setAnyoneCanRelay(bool)":"2452fb40","setFeeExempt(address,bool)":"8ebfc796","setFeeExemptBatch(address[],bool)":"02079e2a","setFeeParams(uint256,uint16,bool)":"1bdddff9","setTreasury(address)":"f0f44260","symbol()":"95d89b41","totalFeesCollected()":"60c6d8ae","totalMetaTxRelayed()":"51ef3a78","totalSupply()":"18160ddd","transfer(address,uint256)":"a9059cbb","transferFrom(address,address,uint256)":"23b872dd","transferOwnership(address)":"f2fde38b","treasury()":"61d027b3","upgradeToAndCall(address,bytes)":"4f1ef286","version()":"54fd4d50"},"id":25}