{"abi":[{"type":"constructor","inputs":[{"name":"_usdc","type":"address","internalType":"address"}],"stateMutability":"nonpayable"},{"type":"function","name":"asset","inputs":[],"outputs":[{"name":"","type":"address","internalType":"address"}],"stateMutability":"view"},{"type":"function","name":"assetsPerShare","inputs":[],"outputs":[{"name":"","type":"uint256","internalType":"uint256"}],"stateMutability":"view"},{"type":"function","name":"balanceOf","inputs":[{"name":"","type":"address","internalType":"address"}],"outputs":[{"name":"","type":"uint256","internalType":"uint256"}],"stateMutability":"view"},{"type":"function","name":"decimals","inputs":[],"outputs":[{"name":"","type":"uint8","internalType":"uint8"}],"stateMutability":"view"},{"type":"function","name":"deposit","inputs":[{"name":"assets","type":"uint256","internalType":"uint256"},{"name":"to","type":"address","internalType":"address"}],"outputs":[{"name":"shares","type":"uint256","internalType":"uint256"}],"stateMutability":"nonpayable"},{"type":"function","name":"donate","inputs":[{"name":"assets","type":"uint256","internalType":"uint256"}],"outputs":[],"stateMutability":"nonpayable"},{"type":"function","name":"name","inputs":[],"outputs":[{"name":"","type":"string","internalType":"string"}],"stateMutability":"view"},{"type":"function","name":"symbol","inputs":[],"outputs":[{"name":"","type":"string","internalType":"string"}],"stateMutability":"view"},{"type":"function","name":"totalAssets","inputs":[],"outputs":[{"name":"","type":"uint256","internalType":"uint256"}],"stateMutability":"view"},{"type":"function","name":"totalSupply","inputs":[],"outputs":[{"name":"","type":"uint256","internalType":"uint256"}],"stateMutability":"view"},{"type":"function","name":"usdc","inputs":[],"outputs":[{"name":"","type":"address","internalType":"contract IERC20"}],"stateMutability":"view"},{"type":"function","name":"withdraw","inputs":[{"name":"shares","type":"uint256","internalType":"uint256"},{"name":"to","type":"address","internalType":"address"}],"outputs":[{"name":"assets","type":"uint256","internalType":"uint256"}],"stateMutability":"nonpayable"}],"bytecode":{"object":"0x60a060405234801561000f575f80fd5b5060405161085438038061085483398101604081905261002e9161003f565b6001600160a01b031660805261006c565b5f6020828403121561004f575f80fd5b81516001600160a01b0381168114610065575f80fd5b9392505050565b6080516107b46100a05f395f818161014b01528181610188015281816102fe015281816103ff015261055c01526107b45ff3fe608060405234801561000f575f80fd5b50600436106100b0575f3560e01c806338d52e0f1161006e57806338d52e0f146101495780633e413bee146101835780636e553f65146101aa57806370a08231146101bd57806395d89b41146101dc578063f14faf6f14610201575f80fd5b8062f714ce146100b457806301e1d114146100da57806306fdde03146100e257806318160ddd1461011f578063313ce5671461012757806335d16e1714610141575b5f80fd5b6100c76100c2366004610642565b610216565b6040519081526020015b60405180910390f35b6002546100c7565b61011260405180604001604052806011815260200170135bd8dac8150b509a5b1b0815985d5b1d607a1b81525081565b6040516100d1919061066c565b6100c75f5481565b61012f601281565b60405160ff90911681526020016100d1565b6100c76103aa565b7f00000000000000000000000000000000000000000000000000000000000000005b6040516001600160a01b0390911681526020016100d1565b61016b7f000000000000000000000000000000000000000000000000000000000000000081565b6100c76101b8366004610642565b6103db565b6100c76101cb3660046106b8565b60016020525f908152604090205481565b610112604051806040016040528060068152602001651b551092531360d21b81525081565b61021461020f3660046106d8565b61053a565b005b335f908152600160205260408120548311156102685760405162461bcd60e51b815260206004820152600c60248201526b1a5b9cdd59999a58da595b9d60a21b60448201526064015b60405180910390fd5b5f546002546102779085610703565b610281919061071a565b335f908152600160205260408120805492935085929091906102a4908490610739565b92505081905550825f808282546102bb9190610739565b925050819055508060025f8282546102d39190610739565b909155505060405163a9059cbb60e01b81526001600160a01b038381166004830152602482018390527f0000000000000000000000000000000000000000000000000000000000000000169063a9059cbb906044016020604051808303815f875af1158015610344573d5f803e3d5ffd5b505050506040513d601f19601f82011682018060405250810190610368919061074c565b6103a45760405162461bcd60e51b815260206004820152600d60248201526c1d1c985b9cd9995c8819985a5b609a1b604482015260640161025f565b92915050565b5f8054156103d3575f546002546103c490620f4240610703565b6103ce919061071a565b905090565b50620f424090565b6040516323b872dd60e01b8152336004820152306024820152604481018390525f907f00000000000000000000000000000000000000000000000000000000000000006001600160a01b0316906323b872dd906064016020604051808303815f875af115801561044d573d5f803e3d5ffd5b505050506040513d601f19601f82011682018060405250810190610471919061074c565b6104b15760405162461bcd60e51b81526020600482015260116024820152701d1c985b9cd9995c919c9bdb4819985a5b607a1b604482015260640161025f565b5f54156104d6576002545f546104c79085610703565b6104d1919061071a565b6104d8565b825b90508260025f8282546104eb919061076b565b92505081905550805f80828254610502919061076b565b90915550506001600160a01b0382165f908152600160205260408120805483929061052e90849061076b565b90915550909392505050565b6040516323b872dd60e01b8152336004820152306024820152604481018290527f00000000000000000000000000000000000000000000000000000000000000006001600160a01b0316906323b872dd906064016020604051808303815f875af11580156105aa573d5f803e3d5ffd5b505050506040513d601f19601f820116820180604052508101906105ce919061074c565b61060e5760405162461bcd60e51b81526020600482015260116024820152701d1c985b9cd9995c919c9bdb4819985a5b607a1b604482015260640161025f565b8060025f82825461061f919061076b565b909155505050565b80356001600160a01b038116811461063d575f80fd5b919050565b5f8060408385031215610653575f80fd5b8235915061066360208401610627565b90509250929050565b5f602080835283518060208501525f5b818110156106985785810183015185820160400152820161067c565b505f604082860101526040601f19601f8301168501019250505092915050565b5f602082840312156106c8575f80fd5b6106d182610627565b9392505050565b5f602082840312156106e8575f80fd5b5035919050565b634e487b7160e01b5f52601160045260245ffd5b80820281158282048414176103a4576103a46106ef565b5f8261073457634e487b7160e01b5f52601260045260245ffd5b500490565b818103818111156103a4576103a46106ef565b5f6020828403121561075c575f80fd5b815180151581146106d1575f80fd5b808201808211156103a4576103a46106ef56fea26469706673582212209cfd3a9361c8269b0c370273bc3b606382103a9c1c6e1165441e06bd5b6c11a764736f6c63430008180033","linkReferences":{}},"methodIdentifiers":{"asset()":"38d52e0f","assetsPerShare()":"35d16e17","balanceOf(address)":"70a08231","decimals()":"313ce567","deposit(uint256,address)":"6e553f65","donate(uint256)":"f14faf6f","name()":"06fdde03","symbol()":"95d89b41","totalAssets()":"01e1d114","totalSupply()":"18160ddd","usdc()":"3e413bee","withdraw(uint256,address)":"00f714ce"},"id":81}