{"abi":[{"type":"constructor","inputs":[{"name":"_owner","type":"address","internalType":"address"},{"name":"_vault","type":"address","internalType":"address"},{"name":"_usdc","type":"address","internalType":"address"},{"name":"_comet","type":"address","internalType":"address"}],"stateMutability":"nonpayable"},{"type":"receive","stateMutability":"payable"},{"type":"function","name":"allowance","inputs":[{"name":"owner","type":"address","internalType":"address"},{"name":"spender","type":"address","internalType":"address"}],"outputs":[{"name":"","type":"uint256","internalType":"uint256"}],"stateMutability":"view"},{"type":"function","name":"approve","inputs":[{"name":"spender","type":"address","internalType":"address"},{"name":"value","type":"uint256","internalType":"uint256"}],"outputs":[{"name":"","type":"bool","internalType":"bool"}],"stateMutability":"nonpayable"},{"type":"function","name":"asset","inputs":[],"outputs":[{"name":"","type":"address","internalType":"address"}],"stateMutability":"view"},{"type":"function","name":"balanceOf","inputs":[{"name":"account","type":"address","internalType":"address"}],"outputs":[{"name":"","type":"uint256","internalType":"uint256"}],"stateMutability":"view"},{"type":"function","name":"comet","inputs":[],"outputs":[{"name":"","type":"address","internalType":"contract IComet"}],"stateMutability":"view"},{"type":"function","name":"decimals","inputs":[],"outputs":[{"name":"","type":"uint8","internalType":"uint8"}],"stateMutability":"view"},{"type":"function","name":"deposit","inputs":[{"name":"amount","type":"uint256","internalType":"uint256"},{"name":"onBehalfOf","type":"address","internalType":"address"}],"outputs":[{"name":"shares","type":"uint256","internalType":"uint256"}],"stateMutability":"nonpayable"},{"type":"function","name":"emergencyWithdraw","inputs":[],"outputs":[],"stateMutability":"nonpayable"},{"type":"function","name":"name","inputs":[],"outputs":[{"name":"","type":"string","internalType":"string"}],"stateMutability":"view"},{"type":"function","name":"owner","inputs":[],"outputs":[{"name":"","type":"address","internalType":"address"}],"stateMutability":"view"},{"type":"function","name":"renounceOwnership","inputs":[],"outputs":[],"stateMutability":"nonpayable"},{"type":"function","name":"rescueETH","inputs":[{"name":"amount","type":"uint256","internalType":"uint256"}],"outputs":[],"stateMutability":"nonpayable"},{"type":"function","name":"rescueToken","inputs":[{"name":"token","type":"address","internalType":"address"},{"name":"amount","type":"uint256","internalType":"uint256"}],"outputs":[],"stateMutability":"nonpayable"},{"type":"function","name":"symbol","inputs":[],"outputs":[{"name":"","type":"string","internalType":"string"}],"stateMutability":"view"},{"type":"function","name":"totalAssets","inputs":[],"outputs":[{"name":"","type":"uint256","internalType":"uint256"}],"stateMutability":"view"},{"type":"function","name":"totalSupply","inputs":[],"outputs":[{"name":"","type":"uint256","internalType":"uint256"}],"stateMutability":"view"},{"type":"function","name":"transfer","inputs":[{"name":"to","type":"address","internalType":"address"},{"name":"value","type":"uint256","internalType":"uint256"}],"outputs":[{"name":"","type":"bool","internalType":"bool"}],"stateMutability":"nonpayable"},{"type":"function","name":"transferFrom","inputs":[{"name":"from","type":"address","internalType":"address"},{"name":"to","type":"address","internalType":"address"},{"name":"value","type":"uint256","internalType":"uint256"}],"outputs":[{"name":"","type":"bool","internalType":"bool"}],"stateMutability":"nonpayable"},{"type":"function","name":"transferOwnership","inputs":[{"name":"newOwner","type":"address","internalType":"address"}],"outputs":[],"stateMutability":"nonpayable"},{"type":"function","name":"usdc","inputs":[],"outputs":[{"name":"","type":"address","internalType":"contract IERC20"}],"stateMutability":"view"},{"type":"function","name":"vault","inputs":[],"outputs":[{"name":"","type":"address","internalType":"address"}],"stateMutability":"view"},{"type":"function","name":"withdraw","inputs":[{"name":"shares","type":"uint256","internalType":"uint256"},{"name":"to","type":"address","internalType":"address"}],"outputs":[{"name":"assets","type":"uint256","internalType":"uint256"}],"stateMutability":"nonpayable"},{"type":"event","name":"Approval","inputs":[{"name":"owner","type":"address","indexed":true,"internalType":"address"},{"name":"spender","type":"address","indexed":true,"internalType":"address"},{"name":"value","type":"uint256","indexed":false,"internalType":"uint256"}],"anonymous":false},{"type":"event","name":"Deposited","inputs":[{"name":"from","type":"address","indexed":true,"internalType":"address"},{"name":"assets","type":"uint256","indexed":false,"internalType":"uint256"},{"name":"shares","type":"uint256","indexed":false,"internalType":"uint256"}],"anonymous":false},{"type":"event","name":"ETHRescued","inputs":[{"name":"amount","type":"uint256","indexed":false,"internalType":"uint256"}],"anonymous":false},{"type":"event","name":"EmergencyWithdraw","inputs":[{"name":"amount","type":"uint256","indexed":false,"internalType":"uint256"}],"anonymous":false},{"type":"event","name":"OwnershipTransferred","inputs":[{"name":"previousOwner","type":"address","indexed":true,"internalType":"address"},{"name":"newOwner","type":"address","indexed":true,"internalType":"address"}],"anonymous":false},{"type":"event","name":"TokensRescued","inputs":[{"name":"token","type":"address","indexed":true,"internalType":"address"},{"name":"amount","type":"uint256","indexed":false,"internalType":"uint256"}],"anonymous":false},{"type":"event","name":"Transfer","inputs":[{"name":"from","type":"address","indexed":true,"internalType":"address"},{"name":"to","type":"address","indexed":true,"internalType":"address"},{"name":"value","type":"uint256","indexed":false,"internalType":"uint256"}],"anonymous":false},{"type":"event","name":"Withdrawn","inputs":[{"name":"to","type":"address","indexed":true,"internalType":"address"},{"name":"shares","type":"uint256","indexed":false,"internalType":"uint256"},{"name":"assets","type":"uint256","indexed":false,"internalType":"uint256"}],"anonymous":false},{"type":"error","name":"AddressEmptyCode","inputs":[{"name":"target","type":"address","internalType":"address"}]},{"type":"error","name":"AddressInsufficientBalance","inputs":[{"name":"account","type":"address","internalType":"address"}]},{"type":"error","name":"ERC20InsufficientAllowance","inputs":[{"name":"spender","type":"address","internalType":"address"},{"name":"allowance","type":"uint256","internalType":"uint256"},{"name":"needed","type":"uint256","internalType":"uint256"}]},{"type":"error","name":"ERC20InsufficientBalance","inputs":[{"name":"sender","type":"address","internalType":"address"},{"name":"balance","type":"uint256","internalType":"uint256"},{"name":"needed","type":"uint256","internalType":"uint256"}]},{"type":"error","name":"ERC20InvalidApprover","inputs":[{"name":"approver","type":"address","internalType":"address"}]},{"type":"error","name":"ERC20InvalidReceiver","inputs":[{"name":"receiver","type":"address","internalType":"address"}]},{"type":"error","name":"ERC20InvalidSender","inputs":[{"name":"sender","type":"address","internalType":"address"}]},{"type":"error","name":"ERC20InvalidSpender","inputs":[{"name":"spender","type":"address","internalType":"address"}]},{"type":"error","name":"FailedInnerCall","inputs":[]},{"type":"error","name":"OwnableInvalidOwner","inputs":[{"name":"owner","type":"address","internalType":"address"}]},{"type":"error","name":"OwnableUnauthorizedAccount","inputs":[{"name":"account","type":"address","internalType":"address"}]},{"type":"error","name":"ReentrancyGuardReentrantCall","inputs":[]},{"type":"error","name":"SafeERC20FailedOperation","inputs":[{"name":"token","type":"address","internalType":"address"}]}],"bytecode":{"object":"0x60e060405234801562000010575f80fd5b5060405162001be638038062001be6833981016040819052620000339162000245565b836040518060400160405280601481526020017f4e4f56495320537472617465677920436f6d6574000000000000000000000000815250604051806040016040528060058152602001646e734e565360d81b81525081600390816200009991906200033d565b506004620000a882826200033d565b5050506001600160a01b038116620000da57604051631e4fbdf760e01b81525f60048201526024015b60405180910390fd5b620000e581620001d8565b5060016006556001600160a01b038316620001305760405162461bcd60e51b815260206004820152600a6024820152697661756c74207a65726f60b01b6044820152606401620000d1565b6001600160a01b038216620001745760405162461bcd60e51b815260206004820152600960248201526875736463207a65726f60b81b6044820152606401620000d1565b6001600160a01b038116620001b95760405162461bcd60e51b815260206004820152600a602482015269636f6d6574207a65726f60b01b6044820152606401620000d1565b6001600160a01b0392831660c0529082166080521660a0525062000409565b600580546001600160a01b038381166001600160a01b0319831681179093556040519116919082907f8be0079c531659141344cd1fd0a4f28419497f9722a3daafe3b4186f6b6457e0905f90a35050565b80516001600160a01b038116811462000240575f80fd5b919050565b5f805f806080858703121562000259575f80fd5b620002648562000229565b9350620002746020860162000229565b9250620002846040860162000229565b9150620002946060860162000229565b905092959194509250565b634e487b7160e01b5f52604160045260245ffd5b600181811c90821680620002c857607f821691505b602082108103620002e757634e487b7160e01b5f52602260045260245ffd5b50919050565b601f8211156200033857805f5260205f20601f840160051c81016020851015620003145750805b601f840160051c820191505b8181101562000335575f815560010162000320565b50505b505050565b81516001600160401b038111156200035957620003596200029f565b62000371816200036a8454620002b3565b84620002ed565b602080601f831160018114620003a7575f84156200038f5750858301515b5f19600386901b1c1916600185901b17855562000401565b5f85815260208120601f198616915b82811015620003d757888601518255948401946001909101908401620003b6565b5085821015620003f557878501515f19600388901b60f8161c191681555b505060018460011b0185555b505050505050565b60805160a05160c051611734620004b25f395f818161044d0152818161047b015261090501525f81816103a3015281816105c6015281816106c1015281816109f001528181610ad001528181610cb00152610d6f01525f81816102510152818161029a015281816105950152818161062c0152818161080d015281816109b101528181610a1f01528181610aa101528181610d4001528181610ddc0152610e6f01526117345ff3fe608060405260043610610133575f3560e01c806370a08231116100a8578063a9059cbb1161006d578063a9059cbb14610373578063ba3e9c1214610392578063db2e21bc146103c5578063dd62ed3e146103d9578063f2fde38b1461041d578063fbfa77cf1461043c575f80fd5b806370a08231146102db578063715018a61461030f5780638da5cb5b1461032357806395d89b41146103405780639e252f0014610354575f80fd5b806323b872dd116100f957806323b872dd146101e8578063313ce5671461020757806333f3d6281461022257806338d52e0f146102435780633e413bee146102895780636e553f65146102bc575f80fd5b8062f714ce1461013e57806301e1d1141461017057806306fdde0314610184578063095ea7b3146101a557806318160ddd146101d4575f80fd5b3661013a57005b5f80fd5b348015610149575f80fd5b5061015d61015836600461151f565b61046f565b6040519081526020015b60405180910390f35b34801561017b575f80fd5b5061015d6106aa565b34801561018f575f80fd5b50610198610737565b604051610167919061156b565b3480156101b0575f80fd5b506101c46101bf36600461159d565b6107c7565b6040519015158152602001610167565b3480156101df575f80fd5b5060025461015d565b3480156101f3575f80fd5b506101c46102023660046115c5565b6107de565b348015610212575f80fd5b5060405160128152602001610167565b34801561022d575f80fd5b5061024161023c36600461159d565b610803565b005b34801561024e575f80fd5b507f00000000000000000000000000000000000000000000000000000000000000005b6040516001600160a01b039091168152602001610167565b348015610294575f80fd5b506102717f000000000000000000000000000000000000000000000000000000000000000081565b3480156102c7575f80fd5b5061015d6102d636600461151f565b6108f9565b3480156102e6575f80fd5b5061015d6102f53660046115fe565b6001600160a01b03165f9081526020819052604090205490565b34801561031a575f80fd5b50610241610b75565b34801561032e575f80fd5b506005546001600160a01b0316610271565b34801561034b575f80fd5b50610198610b88565b34801561035f575f80fd5b5061024161036e366004611617565b610b97565b34801561037e575f80fd5b506101c461038d36600461159d565b610c7c565b34801561039d575f80fd5b506102717f000000000000000000000000000000000000000000000000000000000000000081565b3480156103d0575f80fd5b50610241610c89565b3480156103e4575f80fd5b5061015d6103f336600461162e565b6001600160a01b039182165f90815260016020908152604080832093909416825291909152205490565b348015610428575f80fd5b506102416104373660046115fe565b610ed6565b348015610447575f80fd5b506102717f000000000000000000000000000000000000000000000000000000000000000081565b5f336001600160a01b037f000000000000000000000000000000000000000000000000000000000000000016146104da5760405162461bcd60e51b815260206004820152600a6024820152691bdb9b1e481d985d5b1d60b21b60448201526064015b60405180910390fd5b6104e2610f13565b5f831161051f5760405162461bcd60e51b815260206004820152600b60248201526a736861726573207a65726f60a81b60448201526064016104d1565b335f908152602081905260409020548311156105735760405162461bcd60e51b8152602060048201526013602482015272696e73756666696369656e742073686172657360681b60448201526064016104d1565b61057d3384610f3d565b5060405163f3fef3a360e01b81526001600160a01b037f0000000000000000000000000000000000000000000000000000000000000000811660048301526024820184905283917f00000000000000000000000000000000000000000000000000000000000000009091169063f3fef3a3906044015f604051808303815f87803b158015610609575f80fd5b505af115801561061b573d5f803e3d5ffd5b506106559250506001600160a01b037f00000000000000000000000000000000000000000000000000000000000000001690508383610f75565b60408051848152602081018390526001600160a01b038416917f92ccf450a286a957af52509bc1c9939d1a6a481783e142e41e2499f0bb66ebc691015b60405180910390a26106a46001600655565b92915050565b6040516370a0823160e01b81523060048201525f907f00000000000000000000000000000000000000000000000000000000000000006001600160a01b0316906370a0823190602401602060405180830381865afa15801561070e573d5f803e3d5ffd5b505050506040513d601f19601f820116820180604052508101906107329190611656565b905090565b6060600380546107469061166d565b80601f01602080910402602001604051908101604052809291908181526020018280546107729061166d565b80156107bd5780601f10610794576101008083540402835291602001916107bd565b820191905f5260205f20905b8154815290600101906020018083116107a057829003601f168201915b5050505050905090565b5f336107d4818585610fd9565b5060019392505050565b5f336107eb858285610fe6565b6107f6858585611061565b60019150505b9392505050565b61080b6110be565b7f00000000000000000000000000000000000000000000000000000000000000006001600160a01b0316826001600160a01b03160361088c5760405162461bcd60e51b815260206004820152601e60248201527f75736520656d657267656e6379576974686472617720666f722055534443000060448201526064016104d1565b6108b26108a16005546001600160a01b031690565b6001600160a01b0384169083610f75565b816001600160a01b03167f68f67de89e96b13a3ea058af5fd44cc125efceb528482d539c7b43db2faa066e826040516108ed91815260200190565b60405180910390a25050565b5f336001600160a01b037f0000000000000000000000000000000000000000000000000000000000000000161461095f5760405162461bcd60e51b815260206004820152600a6024820152691bdb9b1e481d985d5b1d60b21b60448201526064016104d1565b610967610f13565b5f83116109a45760405162461bcd60e51b815260206004820152600b60248201526a616d6f756e74207a65726f60a81b60448201526064016104d1565b6109d96001600160a01b037f0000000000000000000000000000000000000000000000000000000000000000163330866110eb565b60405163095ea7b360e01b81526001600160a01b037f000000000000000000000000000000000000000000000000000000000000000081166004830152602482018590527f0000000000000000000000000000000000000000000000000000000000000000169063095ea7b3906044016020604051808303815f875af1158015610a65573d5f803e3d5ffd5b505050506040513d601f19601f82011682018060405250810190610a8991906116a5565b50604051631e573fb760e31b81526001600160a01b037f000000000000000000000000000000000000000000000000000000000000000081166004830152602482018590527f0000000000000000000000000000000000000000000000000000000000000000169063f2b9fdb8906044015f604051808303815f87803b158015610b11575f80fd5b505af1158015610b23573d5f803e3d5ffd5b50505050829050610b348282611124565b60408051848152602081018390526001600160a01b038416917f73a19dd210f1a7f902193214c0ee91dd35ee5b4d920cba8d519eca65a7b488ca9101610692565b610b7d6110be565b610b865f611158565b565b6060600480546107469061166d565b610b9f6110be565b5f610bb26005546001600160a01b031690565b6001600160a01b0316826040515f6040518083038185875af1925050503d805f8114610bf9576040519150601f19603f3d011682016040523d82523d5f602084013e610bfe565b606091505b5050905080610c455760405162461bcd60e51b8152602060048201526013602482015272115512081d1c985b9cd9995c8819985a5b1959606a1b60448201526064016104d1565b6040518281527f2935defdd9ec65bb02dc9049597c404aae26083909722b8e4ecd474eea640a909060200160405180910390a15050565b5f336107d4818585611061565b610c916110be565b610c99610f13565b6040516370a0823160e01b81523060048201525f907f00000000000000000000000000000000000000000000000000000000000000006001600160a01b0316906370a0823190602401602060405180830381865afa158015610cfd573d5f803e3d5ffd5b505050506040513d601f19601f82011682018060405250810190610d219190611656565b90508015610ecb5760405163f3fef3a360e01b81526001600160a01b037f000000000000000000000000000000000000000000000000000000000000000081166004830152602482018390527f0000000000000000000000000000000000000000000000000000000000000000169063f3fef3a3906044015f604051808303815f87803b158015610db0575f80fd5b505af1158015610dc2573d5f803e3d5ffd5b50506040516370a0823160e01b81523060048201525f92507f00000000000000000000000000000000000000000000000000000000000000006001600160a01b031691506370a0823190602401602060405180830381865afa158015610e2a573d5f803e3d5ffd5b505050506040513d601f19601f82011682018060405250810190610e4e9190611656565b9050610e96610e656005546001600160a01b031690565b6001600160a01b037f0000000000000000000000000000000000000000000000000000000000000000169083610f75565b6040518181527f99d7f8b71cfb9126984f7a5eed3a40e64a8959e9b0e442221546fb04ec6a489c9060200160405180910390a1505b50610b866001600655565b610ede6110be565b6001600160a01b038116610f0757604051631e4fbdf760e01b81525f60048201526024016104d1565b610f1081611158565b50565b600260065403610f3657604051633ee5aeb560e01b815260040160405180910390fd5b6002600655565b6001600160a01b038216610f6657604051634b637e8f60e11b81525f60048201526024016104d1565b610f71825f836111a9565b5050565b6040516001600160a01b03838116602483015260448201839052610fd491859182169063a9059cbb906064015b604051602081830303815290604052915060e01b6020820180516001600160e01b0383818316178352505050506112cf565b505050565b610fd48383836001611330565b6001600160a01b038381165f908152600160209081526040808320938616835292905220545f19811461105b578181101561104d57604051637dc7a0d960e11b81526001600160a01b038416600482015260248101829052604481018390526064016104d1565b61105b84848484035f611330565b50505050565b6001600160a01b03831661108a57604051634b637e8f60e11b81525f60048201526024016104d1565b6001600160a01b0382166110b35760405163ec442f0560e01b81525f60048201526024016104d1565b610fd48383836111a9565b6005546001600160a01b03163314610b865760405163118cdaa760e01b81523360048201526024016104d1565b6040516001600160a01b03848116602483015283811660448301526064820183905261105b9186918216906323b872dd90608401610fa2565b6001600160a01b03821661114d5760405163ec442f0560e01b81525f60048201526024016104d1565b610f715f83836111a9565b600580546001600160a01b038381166001600160a01b0319831681179093556040519116919082907f8be0079c531659141344cd1fd0a4f28419497f9722a3daafe3b4186f6b6457e0905f90a35050565b6001600160a01b0383166111d3578060025f8282546111c891906116c4565b909155506112439050565b6001600160a01b0383165f90815260208190526040902054818110156112255760405163391434e360e21b81526001600160a01b038516600482015260248101829052604481018390526064016104d1565b6001600160a01b0384165f9081526020819052604090209082900390555b6001600160a01b03821661125f5760028054829003905561127d565b6001600160a01b0382165f9081526020819052604090208054820190555b816001600160a01b0316836001600160a01b03167fddf252ad1be2c89b69c2b068fc378daa952ba7f163c4a11628f55a4df523b3ef836040516112c291815260200190565b60405180910390a3505050565b5f6112e36001600160a01b03841683611402565b905080515f1415801561130757508080602001905181019061130591906116a5565b155b15610fd457604051635274afe760e01b81526001600160a01b03841660048201526024016104d1565b6001600160a01b0384166113595760405163e602df0560e01b81525f60048201526024016104d1565b6001600160a01b03831661138257604051634a1406b160e11b81525f60048201526024016104d1565b6001600160a01b038085165f908152600160209081526040808320938716835292905220829055801561105b57826001600160a01b0316846001600160a01b03167f8c5be1e5ebec7d5bd14f71427d1e84f3dd0314c0f7b2291e5b200ac8c7c3b925846040516113f491815260200190565b60405180910390a350505050565b60606107fc83835f845f80856001600160a01b0316848660405161142691906116e3565b5f6040518083038185875af1925050503d805f8114611460576040519150601f19603f3d011682016040523d82523d5f602084013e611465565b606091505b509150915061147586838361147f565b9695505050505050565b6060826114945761148f826114db565b6107fc565b81511580156114ab57506001600160a01b0384163b155b156114d457604051639996b31560e01b81526001600160a01b03851660048201526024016104d1565b50806107fc565b8051156114eb5780518082602001fd5b604051630a12f52160e11b815260040160405180910390fd5b80356001600160a01b038116811461151a575f80fd5b919050565b5f8060408385031215611530575f80fd5b8235915061154060208401611504565b90509250929050565b5f5b8381101561156357818101518382015260200161154b565b50505f910152565b602081525f8251806020840152611589816040850160208701611549565b601f01601f19169190910160400192915050565b5f80604083850312156115ae575f80fd5b6115b783611504565b946020939093013593505050565b5f805f606084860312156115d7575f80fd5b6115e084611504565b92506115ee60208501611504565b9150604084013590509250925092565b5f6020828403121561160e575f80fd5b6107fc82611504565b5f60208284031215611627575f80fd5b5035919050565b5f806040838503121561163f575f80fd5b61164883611504565b915061154060208401611504565b5f60208284031215611666575f80fd5b5051919050565b600181811c9082168061168157607f821691505b60208210810361169f57634e487b7160e01b5f52602260045260245ffd5b50919050565b5f602082840312156116b5575f80fd5b815180151581146107fc575f80fd5b808201808211156106a457634e487b7160e01b5f52601160045260245ffd5b5f82516116f4818460208701611549565b919091019291505056fea264697066735822122011a5ff9ee33c069d9486e1773e9e0650d5ee9b53d76e8b5e323f72d1ea9b63fa64736f6c63430008180033","linkReferences":{}},"methodIdentifiers":{"allowance(address,address)":"dd62ed3e","approve(address,uint256)":"095ea7b3","asset()":"38d52e0f","balanceOf(address)":"70a08231","comet()":"ba3e9c12","decimals()":"313ce567","deposit(uint256,address)":"6e553f65","emergencyWithdraw()":"db2e21bc","name()":"06fdde03","owner()":"8da5cb5b","renounceOwnership()":"715018a6","rescueETH(uint256)":"9e252f00","rescueToken(address,uint256)":"33f3d628","symbol()":"95d89b41","totalAssets()":"01e1d114","totalSupply()":"18160ddd","transfer(address,uint256)":"a9059cbb","transferFrom(address,address,uint256)":"23b872dd","transferOwnership(address)":"f2fde38b","usdc()":"3e413bee","vault()":"fbfa77cf","withdraw(uint256,address)":"00f714ce"},"id":73}