{"abi":[{"type":"constructor","inputs":[{"name":"_owner","type":"address","internalType":"address"},{"name":"_premintTo","type":"address","internalType":"address"},{"name":"_premintAmount","type":"uint256","internalType":"uint256"}],"stateMutability":"nonpayable"},{"type":"function","name":"allowance","inputs":[{"name":"","type":"address","internalType":"address"},{"name":"","type":"address","internalType":"address"}],"outputs":[{"name":"","type":"uint256","internalType":"uint256"}],"stateMutability":"view"},{"type":"function","name":"approve","inputs":[{"name":"spender","type":"address","internalType":"address"},{"name":"value","type":"uint256","internalType":"uint256"}],"outputs":[{"name":"","type":"bool","internalType":"bool"}],"stateMutability":"nonpayable"},{"type":"function","name":"balanceOf","inputs":[{"name":"","type":"address","internalType":"address"}],"outputs":[{"name":"","type":"uint256","internalType":"uint256"}],"stateMutability":"view"},{"type":"function","name":"burn","inputs":[{"name":"amount","type":"uint256","internalType":"uint256"}],"outputs":[],"stateMutability":"nonpayable"},{"type":"function","name":"decimals","inputs":[],"outputs":[{"name":"","type":"uint8","internalType":"uint8"}],"stateMutability":"view"},{"type":"function","name":"mint","inputs":[{"name":"to","type":"address","internalType":"address"},{"name":"amount","type":"uint256","internalType":"uint256"}],"outputs":[],"stateMutability":"nonpayable"},{"type":"function","name":"name","inputs":[],"outputs":[{"name":"","type":"string","internalType":"string"}],"stateMutability":"view"},{"type":"function","name":"owner","inputs":[],"outputs":[{"name":"","type":"address","internalType":"address"}],"stateMutability":"view"},{"type":"function","name":"symbol","inputs":[],"outputs":[{"name":"","type":"string","internalType":"string"}],"stateMutability":"view"},{"type":"function","name":"totalSupply","inputs":[],"outputs":[{"name":"","type":"uint256","internalType":"uint256"}],"stateMutability":"view"},{"type":"function","name":"transfer","inputs":[{"name":"to","type":"address","internalType":"address"},{"name":"value","type":"uint256","internalType":"uint256"}],"outputs":[{"name":"","type":"bool","internalType":"bool"}],"stateMutability":"nonpayable"},{"type":"function","name":"transferFrom","inputs":[{"name":"from","type":"address","internalType":"address"},{"name":"to","type":"address","internalType":"address"},{"name":"value","type":"uint256","internalType":"uint256"}],"outputs":[{"name":"","type":"bool","internalType":"bool"}],"stateMutability":"nonpayable"},{"type":"function","name":"transferOwnership","inputs":[{"name":"newOwner","type":"address","internalType":"address"}],"outputs":[],"stateMutability":"nonpayable"},{"type":"event","name":"Approval","inputs":[{"name":"owner","type":"address","indexed":true,"internalType":"address"},{"name":"spender","type":"address","indexed":true,"internalType":"address"},{"name":"value","type":"uint256","indexed":false,"internalType":"uint256"}],"anonymous":false},{"type":"event","name":"OwnerSet","inputs":[{"name":"newOwner","type":"address","indexed":true,"internalType":"address"}],"anonymous":false},{"type":"event","name":"Transfer","inputs":[{"name":"from","type":"address","indexed":true,"internalType":"address"},{"name":"to","type":"address","indexed":true,"internalType":"address"},{"name":"value","type":"uint256","indexed":false,"internalType":"uint256"}],"anonymous":false}],"bytecode":{"object":"0x60c060405260056080908152644e4f56495360d81b60a0525f906200002590826200025b565b506040805180820190915260038152624e565360e81b60208201526001906200004f90826200025b565b506002805460ff1916601217905534801562000069575f80fd5b5060405162000d0538038062000d058339810160408190526200008c9162000343565b600480546001600160a01b0319166001600160a01b0385169081179091556040517f50146d0e3c60aa1d17a70635b05494f864e86144a2201275021014fbf08bafe2905f90a28015620000e557620000e58282620000ee565b505050620003a7565b6001600160a01b038216620001335760405162461bcd60e51b8152602060048201526007602482015266746f207a65726f60c81b604482015260640160405180910390fd5b8060035f82825462000146919062000381565b90915550506001600160a01b0382165f90815260056020526040812080548392906200017490849062000381565b90915550506040518181526001600160a01b038316905f907fddf252ad1be2c89b69c2b068fc378daa952ba7f163c4a11628f55a4df523b3ef9060200160405180910390a35050565b634e487b7160e01b5f52604160045260245ffd5b600181811c90821680620001e657607f821691505b6020821081036200020557634e487b7160e01b5f52602260045260245ffd5b50919050565b601f8211156200025657805f5260205f20601f840160051c81016020851015620002325750805b601f840160051c820191505b8181101562000253575f81556001016200023e565b50505b505050565b81516001600160401b03811115620002775762000277620001bd565b6200028f81620002888454620001d1565b846200020b565b602080601f831160018114620002c5575f8415620002ad5750858301515b5f19600386901b1c1916600185901b1785556200031f565b5f85815260208120601f198616915b82811015620002f557888601518255948401946001909101908401620002d4565b50858210156200031357878501515f19600388901b60f8161c191681555b505060018460011b0185555b505050505050565b80516001600160a01b03811681146200033e575f80fd5b919050565b5f805f6060848603121562000356575f80fd5b620003618462000327565b9250620003716020850162000327565b9150604084015190509250925092565b80820180821115620003a157634e487b7160e01b5f52601160045260245ffd5b92915050565b61095080620003b55f395ff3fe608060405234801561000f575f80fd5b50600436106100cb575f3560e01c806342966c681161008857806395d89b411161006357806395d89b41146101cb578063a9059cbb146101d3578063dd62ed3e146101e6578063f2fde38b14610210575f80fd5b806342966c681461016e57806370a08231146101815780638da5cb5b146101a0575f80fd5b806306fdde03146100cf578063095ea7b3146100ed57806318160ddd1461011057806323b872dd14610127578063313ce5671461013a57806340c10f1914610159575b5f80fd5b6100d7610223565b6040516100e49190610778565b60405180910390f35b6101006100fb3660046107df565b6102ae565b60405190151581526020016100e4565b61011960035481565b6040519081526020016100e4565b610100610135366004610807565b61031a565b6002546101479060ff1681565b60405160ff90911681526020016100e4565b61016c6101673660046107df565b610400565b005b61016c61017c366004610840565b610454565b61011961018f366004610857565b60056020525f908152604090205481565b6004546101b3906001600160a01b031681565b6040516001600160a01b0390911681526020016100e4565b6100d7610502565b6101006101e13660046107df565b61050f565b6101196101f4366004610877565b600660209081525f928352604080842090915290825290205481565b61016c61021e366004610857565b610524565b5f805461022f906108a8565b80601f016020809104026020016040519081016040528092919081815260200182805461025b906108a8565b80156102a65780601f1061027d576101008083540402835291602001916102a6565b820191905f5260205f20905b81548152906001019060200180831161028957829003601f168201915b505050505081565b335f8181526006602090815260408083206001600160a01b038716808552925280832085905551919290917f8c5be1e5ebec7d5bd14f71427d1e84f3dd0314c0f7b2291e5b200ac8c7c3b925906103089086815260200190565b60405180910390a35060015b92915050565b6001600160a01b0383165f9081526006602090815260408083203384529091528120548281101561037e5760405162461bcd60e51b8152602060048201526009602482015268616c6c6f77616e636560b81b60448201526064015b60405180910390fd5b5f1981146103ea5761039083826108f4565b6001600160a01b0386165f81815260066020908152604080832033808552908352928190208590555193845290927f8c5be1e5ebec7d5bd14f71427d1e84f3dd0314c0f7b2291e5b200ac8c7c3b925910160405180910390a35b6103f58585856105b3565b506001949350505050565b6004546001600160a01b031633146104465760405162461bcd60e51b81526020600482015260096024820152683737ba1037bbb732b960b91b6044820152606401610375565b61045082826106b2565b5050565b335f9081526005602052604090205481111561049c5760405162461bcd60e51b815260206004820152600760248201526662616c616e636560c81b6044820152606401610375565b335f90815260056020526040812080548390039055600380548392906104c39084906108f4565b90915550506040518181525f9033907fddf252ad1be2c89b69c2b068fc378daa952ba7f163c4a11628f55a4df523b3ef9060200160405180910390a350565b6001805461022f906108a8565b5f61051b3384846105b3565b50600192915050565b6004546001600160a01b0316331461056a5760405162461bcd60e51b81526020600482015260096024820152683737ba1037bbb732b960b91b6044820152606401610375565b600480546001600160a01b0319166001600160a01b0383169081179091556040517f50146d0e3c60aa1d17a70635b05494f864e86144a2201275021014fbf08bafe2905f90a250565b6001600160a01b0382166105f35760405162461bcd60e51b8152602060048201526007602482015266746f207a65726f60c81b6044820152606401610375565b6001600160a01b0383165f908152600560205260409020548111156106445760405162461bcd60e51b815260206004820152600760248201526662616c616e636560c81b6044820152606401610375565b6001600160a01b038084165f81815260056020526040808220805486900390559285168082529083902080548501905591517fddf252ad1be2c89b69c2b068fc378daa952ba7f163c4a11628f55a4df523b3ef906106a59085815260200190565b60405180910390a3505050565b6001600160a01b0382166106f25760405162461bcd60e51b8152602060048201526007602482015266746f207a65726f60c81b6044820152606401610375565b8060035f8282546107039190610907565b90915550506001600160a01b0382165f908152600560205260408120805483929061072f908490610907565b90915550506040518181526001600160a01b038316905f907fddf252ad1be2c89b69c2b068fc378daa952ba7f163c4a11628f55a4df523b3ef9060200160405180910390a35050565b5f602080835283518060208501525f5b818110156107a457858101830151858201604001528201610788565b505f604082860101526040601f19601f8301168501019250505092915050565b80356001600160a01b03811681146107da575f80fd5b919050565b5f80604083850312156107f0575f80fd5b6107f9836107c4565b946020939093013593505050565b5f805f60608486031215610819575f80fd5b610822846107c4565b9250610830602085016107c4565b9150604084013590509250925092565b5f60208284031215610850575f80fd5b5035919050565b5f60208284031215610867575f80fd5b610870826107c4565b9392505050565b5f8060408385031215610888575f80fd5b610891836107c4565b915061089f602084016107c4565b90509250929050565b600181811c908216806108bc57607f821691505b6020821081036108da57634e487b7160e01b5f52602260045260245ffd5b50919050565b634e487b7160e01b5f52601160045260245ffd5b81810381811115610314576103146108e0565b80820180821115610314576103146108e056fea2646970667358221220b9c4b92cbff233011fc12608a5a03983cd4243c22f506e5be69f7289446452cf64736f6c63430008180033","linkReferences":{}},"methodIdentifiers":{"allowance(address,address)":"dd62ed3e","approve(address,uint256)":"095ea7b3","balanceOf(address)":"70a08231","burn(uint256)":"42966c68","decimals()":"313ce567","mint(address,uint256)":"40c10f19","name()":"06fdde03","owner()":"8da5cb5b","symbol()":"95d89b41","totalSupply()":"18160ddd","transfer(address,uint256)":"a9059cbb","transferFrom(address,address,uint256)":"23b872dd","transferOwnership(address)":"f2fde38b"},"id":87}