{"abi":[{"type":"constructor","inputs":[{"name":"_usdc","type":"address","internalType":"address"}],"stateMutability":"nonpayable"},{"type":"function","name":"allowance","inputs":[{"name":"owner","type":"address","internalType":"address"},{"name":"spender","type":"address","internalType":"address"}],"outputs":[{"name":"","type":"uint256","internalType":"uint256"}],"stateMutability":"view"},{"type":"function","name":"approve","inputs":[{"name":"spender","type":"address","internalType":"address"},{"name":"value","type":"uint256","internalType":"uint256"}],"outputs":[{"name":"","type":"bool","internalType":"bool"}],"stateMutability":"nonpayable"},{"type":"function","name":"asset","inputs":[],"outputs":[{"name":"","type":"address","internalType":"address"}],"stateMutability":"view"},{"type":"function","name":"assetsPerShare","inputs":[],"outputs":[{"name":"","type":"uint256","internalType":"uint256"}],"stateMutability":"view"},{"type":"function","name":"balanceOf","inputs":[{"name":"account","type":"address","internalType":"address"}],"outputs":[{"name":"","type":"uint256","internalType":"uint256"}],"stateMutability":"view"},{"type":"function","name":"decimals","inputs":[],"outputs":[{"name":"","type":"uint8","internalType":"uint8"}],"stateMutability":"view"},{"type":"function","name":"deposit","inputs":[{"name":"assets","type":"uint256","internalType":"uint256"},{"name":"onBehalfOf","type":"address","internalType":"address"}],"outputs":[{"name":"shares","type":"uint256","internalType":"uint256"}],"stateMutability":"nonpayable"},{"type":"function","name":"donate","inputs":[{"name":"amount","type":"uint256","internalType":"uint256"}],"outputs":[],"stateMutability":"nonpayable"},{"type":"function","name":"name","inputs":[],"outputs":[{"name":"","type":"string","internalType":"string"}],"stateMutability":"view"},{"type":"function","name":"symbol","inputs":[],"outputs":[{"name":"","type":"string","internalType":"string"}],"stateMutability":"view"},{"type":"function","name":"totalAssets","inputs":[],"outputs":[{"name":"","type":"uint256","internalType":"uint256"}],"stateMutability":"view"},{"type":"function","name":"totalSupply","inputs":[],"outputs":[{"name":"","type":"uint256","internalType":"uint256"}],"stateMutability":"view"},{"type":"function","name":"transfer","inputs":[{"name":"to","type":"address","internalType":"address"},{"name":"value","type":"uint256","internalType":"uint256"}],"outputs":[{"name":"","type":"bool","internalType":"bool"}],"stateMutability":"nonpayable"},{"type":"function","name":"transferFrom","inputs":[{"name":"from","type":"address","internalType":"address"},{"name":"to","type":"address","internalType":"address"},{"name":"value","type":"uint256","internalType":"uint256"}],"outputs":[{"name":"","type":"bool","internalType":"bool"}],"stateMutability":"nonpayable"},{"type":"function","name":"usdc","inputs":[],"outputs":[{"name":"","type":"address","internalType":"contract IERC20"}],"stateMutability":"view"},{"type":"function","name":"withdraw","inputs":[{"name":"shares","type":"uint256","internalType":"uint256"},{"name":"to","type":"address","internalType":"address"}],"outputs":[{"name":"assetsOut","type":"uint256","internalType":"uint256"}],"stateMutability":"nonpayable"},{"type":"event","name":"Approval","inputs":[{"name":"owner","type":"address","indexed":true,"internalType":"address"},{"name":"spender","type":"address","indexed":true,"internalType":"address"},{"name":"value","type":"uint256","indexed":false,"internalType":"uint256"}],"anonymous":false},{"type":"event","name":"Transfer","inputs":[{"name":"from","type":"address","indexed":true,"internalType":"address"},{"name":"to","type":"address","indexed":true,"internalType":"address"},{"name":"value","type":"uint256","indexed":false,"internalType":"uint256"}],"anonymous":false},{"type":"error","name":"AddressEmptyCode","inputs":[{"name":"target","type":"address","internalType":"address"}]},{"type":"error","name":"AddressInsufficientBalance","inputs":[{"name":"account","type":"address","internalType":"address"}]},{"type":"error","name":"ERC20InsufficientAllowance","inputs":[{"name":"spender","type":"address","internalType":"address"},{"name":"allowance","type":"uint256","internalType":"uint256"},{"name":"needed","type":"uint256","internalType":"uint256"}]},{"type":"error","name":"ERC20InsufficientBalance","inputs":[{"name":"sender","type":"address","internalType":"address"},{"name":"balance","type":"uint256","internalType":"uint256"},{"name":"needed","type":"uint256","internalType":"uint256"}]},{"type":"error","name":"ERC20InvalidApprover","inputs":[{"name":"approver","type":"address","internalType":"address"}]},{"type":"error","name":"ERC20InvalidReceiver","inputs":[{"name":"receiver","type":"address","internalType":"address"}]},{"type":"error","name":"ERC20InvalidSender","inputs":[{"name":"sender","type":"address","internalType":"address"}]},{"type":"error","name":"ERC20InvalidSpender","inputs":[{"name":"spender","type":"address","internalType":"address"}]},{"type":"error","name":"FailedInnerCall","inputs":[]},{"type":"error","name":"SafeERC20FailedOperation","inputs":[{"name":"token","type":"address","internalType":"address"}]}],"bytecode":{"object":"0x60a060405234801562000010575f80fd5b506040516200111438038062001114833981016040819052620000339162000101565b6040518060400160405280601381526020017f4d6f636b20537472617465677920536861726500000000000000000000000000815250604051806040016040528060068152602001651b54d514905560d21b8152508160039081620000999190620001ce565b506004620000a88282620001ce565b5050506001600160a01b038116620000ef5760405162461bcd60e51b81526020600482015260066024820152650757364633d360d41b604482015260640160405180910390fd5b6001600160a01b03166080526200029a565b5f6020828403121562000112575f80fd5b81516001600160a01b038116811462000129575f80fd5b9392505050565b634e487b7160e01b5f52604160045260245ffd5b600181811c908216806200015957607f821691505b6020821081036200017857634e487b7160e01b5f52602260045260245ffd5b50919050565b601f821115620001c957805f5260205f20601f840160051c81016020851015620001a55750805b601f840160051c820191505b81811015620001c6575f8155600101620001b1565b50505b505050565b81516001600160401b03811115620001ea57620001ea62000130565b6200020281620001fb845462000144565b846200017e565b602080601f83116001811462000238575f8415620002205750858301515b5f19600386901b1c1916600185901b17855562000292565b5f85815260208120601f198616915b82811015620002685788860151825594840194600190910190840162000247565b50858210156200028657878501515f19600388901b60f8161c191681555b505060018460011b0185555b505050505050565b608051610e3e620002d65f395f8181610198015281816101d5015281816103570152818161039c015281816105c301526106600152610e3e5ff3fe608060405234801561000f575f80fd5b50600436106100fa575f3560e01c806338d52e0f1161009357806395d89b411161006357806395d89b4114610232578063a9059cbb1461023a578063dd62ed3e1461024d578063f14faf6f14610285575f80fd5b806338d52e0f146101965780633e413bee146101d05780636e553f65146101f757806370a082311461020a575f80fd5b806318160ddd116100ce57806318160ddd1461016457806323b872dd1461016c578063313ce5671461017f57806335d16e171461018e575f80fd5b8062f714ce146100fe57806301e1d1141461012457806306fdde031461012c578063095ea7b314610141575b5f80fd5b61011161010c366004610beb565b61029a565b6040519081526020015b60405180910390f35b610111610385565b610134610412565b60405161011b9190610c37565b61015461014f366004610c69565b6104a2565b604051901515815260200161011b565b600254610111565b61015461017a366004610c91565b6104bb565b6040516012815260200161011b565b6101116104e0565b7f00000000000000000000000000000000000000000000000000000000000000005b6040516001600160a01b03909116815260200161011b565b6101b87f000000000000000000000000000000000000000000000000000000000000000081565b610111610205366004610beb565b610526565b610111610218366004610cca565b6001600160a01b03165f9081526020819052604090205490565b6101346105fd565b610154610248366004610c69565b61060c565b61011161025b366004610ce3565b6001600160a01b039182165f90815260016020908152604080832093909416825291909152205490565b610298610293366004610d0b565b610619565b005b5f8083116102da5760405162461bcd60e51b815260206004820152600860248201526707368617265733d360c41b60448201526064015b60405180910390fd5b5f6102e460025490565b90505f81116103215760405162461bcd60e51b81526020600482015260096024820152686e6f2d737570706c7960b81b60448201526064016102d1565b8061032a610385565b6103349086610d36565b61033e9190610d4d565b915061034a338561068b565b61037e6001600160a01b037f00000000000000000000000000000000000000000000000000000000000000001684846106c3565b5092915050565b6040516370a0823160e01b81523060048201525f907f00000000000000000000000000000000000000000000000000000000000000006001600160a01b0316906370a0823190602401602060405180830381865afa1580156103e9573d5f803e3d5ffd5b505050506040513d601f19601f8201168201806040525081019061040d9190610d6c565b905090565b60606003805461042190610d83565b80601f016020809104026020016040519081016040528092919081815260200182805461044d90610d83565b80156104985780601f1061046f57610100808354040283529160200191610498565b820191905f5260205f20905b81548152906001019060200180831161047b57829003601f168201915b5050505050905090565b5f336104af818585610727565b60019150505b92915050565b5f336104c8858285610734565b6104d38585856107af565b60019150505b9392505050565b5f806104eb60025490565b9050805f036104fb575f91505090565b80610504610385565b61051690670de0b6b3a7640000610d36565b6105209190610d4d565b91505090565b5f8083116105615760405162461bcd60e51b81526020600482015260086024820152670616d6f756e743d360c41b60448201526064016102d1565b5f61056b60025490565b90505f610576610385565b9050811580610583575080155b1561059e576105978564e8d4a51000610d36565b92506105b6565b806105a98387610d36565b6105b39190610d4d565b92505b6105eb6001600160a01b037f00000000000000000000000000000000000000000000000000000000000000001633308861080c565b6105f58484610845565b505092915050565b60606004805461042190610d83565b5f336104af8185856107af565b5f81116106535760405162461bcd60e51b81526020600482015260086024820152670616d6f756e743d360c41b60448201526064016102d1565b6106886001600160a01b037f00000000000000000000000000000000000000000000000000000000000000001633308461080c565b50565b6001600160a01b0382166106b457604051634b637e8f60e11b81525f60048201526024016102d1565b6106bf825f83610875565b5050565b6040516001600160a01b0383811660248301526044820183905261072291859182169063a9059cbb906064015b604051602081830303815290604052915060e01b6020820180516001600160e01b03838183161783525050505061099b565b505050565b61072283838360016109fc565b6001600160a01b038381165f908152600160209081526040808320938616835292905220545f1981146107a9578181101561079b57604051637dc7a0d960e11b81526001600160a01b038416600482015260248101829052604481018390526064016102d1565b6107a984848484035f6109fc565b50505050565b6001600160a01b0383166107d857604051634b637e8f60e11b81525f60048201526024016102d1565b6001600160a01b0382166108015760405163ec442f0560e01b81525f60048201526024016102d1565b610722838383610875565b6040516001600160a01b0384811660248301528381166044830152606482018390526107a99186918216906323b872dd906084016106f0565b6001600160a01b03821661086e5760405163ec442f0560e01b81525f60048201526024016102d1565b6106bf5f83835b6001600160a01b03831661089f578060025f8282546108949190610dbb565b9091555061090f9050565b6001600160a01b0383165f90815260208190526040902054818110156108f15760405163391434e360e21b81526001600160a01b038516600482015260248101829052604481018390526064016102d1565b6001600160a01b0384165f9081526020819052604090209082900390555b6001600160a01b03821661092b57600280548290039055610949565b6001600160a01b0382165f9081526020819052604090208054820190555b816001600160a01b0316836001600160a01b03167fddf252ad1be2c89b69c2b068fc378daa952ba7f163c4a11628f55a4df523b3ef8360405161098e91815260200190565b60405180910390a3505050565b5f6109af6001600160a01b03841683610ace565b905080515f141580156109d35750808060200190518101906109d19190610dce565b155b1561072257604051635274afe760e01b81526001600160a01b03841660048201526024016102d1565b6001600160a01b038416610a255760405163e602df0560e01b81525f60048201526024016102d1565b6001600160a01b038316610a4e57604051634a1406b160e11b81525f60048201526024016102d1565b6001600160a01b038085165f90815260016020908152604080832093871683529290522082905580156107a957826001600160a01b0316846001600160a01b03167f8c5be1e5ebec7d5bd14f71427d1e84f3dd0314c0f7b2291e5b200ac8c7c3b92584604051610ac091815260200190565b60405180910390a350505050565b60606104d983835f845f80856001600160a01b03168486604051610af29190610ded565b5f6040518083038185875af1925050503d805f8114610b2c576040519150601f19603f3d011682016040523d82523d5f602084013e610b31565b606091505b5091509150610b41868383610b4b565b9695505050505050565b606082610b6057610b5b82610ba7565b6104d9565b8151158015610b7757506001600160a01b0384163b155b15610ba057604051639996b31560e01b81526001600160a01b03851660048201526024016102d1565b50806104d9565b805115610bb75780518082602001fd5b604051630a12f52160e11b815260040160405180910390fd5b80356001600160a01b0381168114610be6575f80fd5b919050565b5f8060408385031215610bfc575f80fd5b82359150610c0c60208401610bd0565b90509250929050565b5f5b83811015610c2f578181015183820152602001610c17565b50505f910152565b602081525f8251806020840152610c55816040850160208701610c15565b601f01601f19169190910160400192915050565b5f8060408385031215610c7a575f80fd5b610c8383610bd0565b946020939093013593505050565b5f805f60608486031215610ca3575f80fd5b610cac84610bd0565b9250610cba60208501610bd0565b9150604084013590509250925092565b5f60208284031215610cda575f80fd5b6104d982610bd0565b5f8060408385031215610cf4575f80fd5b610cfd83610bd0565b9150610c0c60208401610bd0565b5f60208284031215610d1b575f80fd5b5035919050565b634e487b7160e01b5f52601160045260245ffd5b80820281158282048414176104b5576104b5610d22565b5f82610d6757634e487b7160e01b5f52601260045260245ffd5b500490565b5f60208284031215610d7c575f80fd5b5051919050565b600181811c90821680610d9757607f821691505b602082108103610db557634e487b7160e01b5f52602260045260245ffd5b50919050565b808201808211156104b5576104b5610d22565b5f60208284031215610dde575f80fd5b815180151581146104d9575f80fd5b5f8251610dfe818460208701610c15565b919091019291505056fea26469706673582212201556556aa0497227fd94aac4ebb66490ddc00275337b2b35d1f30ec8b21ff8c464736f6c63430008180033","linkReferences":{}},"methodIdentifiers":{"allowance(address,address)":"dd62ed3e","approve(address,uint256)":"095ea7b3","asset()":"38d52e0f","assetsPerShare()":"35d16e17","balanceOf(address)":"70a08231","decimals()":"313ce567","deposit(uint256,address)":"6e553f65","donate(uint256)":"f14faf6f","name()":"06fdde03","symbol()":"95d89b41","totalAssets()":"01e1d114","totalSupply()":"18160ddd","transfer(address,uint256)":"a9059cbb","transferFrom(address,address,uint256)":"23b872dd","usdc()":"3e413bee","withdraw(uint256,address)":"00f714ce"},"id":2}