{"abi":[{"type":"constructor","inputs":[{"name":"_entryPoint","type":"address","internalType":"address"},{"name":"_novisToken","type":"address","internalType":"address"},{"name":"_initialOwner","type":"address","internalType":"address"}],"stateMutability":"nonpayable"},{"type":"receive","stateMutability":"payable"},{"type":"function","name":"calculateFee","inputs":[{"name":"amount","type":"uint256","internalType":"uint256"}],"outputs":[{"name":"fee","type":"uint256","internalType":"uint256"},{"name":"isFree","type":"bool","internalType":"bool"}],"stateMutability":"view"},{"type":"function","name":"depositETH","inputs":[],"outputs":[],"stateMutability":"payable"},{"type":"function","name":"entryPoint","inputs":[],"outputs":[{"name":"","type":"address","internalType":"address"}],"stateMutability":"view"},{"type":"function","name":"ethBalance","inputs":[],"outputs":[{"name":"","type":"uint256","internalType":"uint256"}],"stateMutability":"view"},{"type":"function","name":"feePercentageBps","inputs":[],"outputs":[{"name":"","type":"uint256","internalType":"uint256"}],"stateMutability":"view"},{"type":"function","name":"freeThreshold","inputs":[],"outputs":[{"name":"","type":"uint256","internalType":"uint256"}],"stateMutability":"view"},{"type":"function","name":"getStats","inputs":[],"outputs":[{"name":"_ethBalance","type":"uint256","internalType":"uint256"},{"name":"_totalGasSponsored","type":"uint256","internalType":"uint256"},{"name":"_totalFeesCollected","type":"uint256","internalType":"uint256"},{"name":"_freeThreshold","type":"uint256","internalType":"uint256"},{"name":"_feePercentageBps","type":"uint256","internalType":"uint256"}],"stateMutability":"view"},{"type":"function","name":"novisToken","inputs":[],"outputs":[{"name":"","type":"address","internalType":"contract IERC20"}],"stateMutability":"view"},{"type":"function","name":"owner","inputs":[],"outputs":[{"name":"","type":"address","internalType":"address"}],"stateMutability":"view"},{"type":"function","name":"renounceOwnership","inputs":[],"outputs":[],"stateMutability":"nonpayable"},{"type":"function","name":"setFeePercentage","inputs":[{"name":"newFeeBps","type":"uint256","internalType":"uint256"}],"outputs":[],"stateMutability":"nonpayable"},{"type":"function","name":"setFreeThreshold","inputs":[{"name":"newThreshold","type":"uint256","internalType":"uint256"}],"outputs":[],"stateMutability":"nonpayable"},{"type":"function","name":"totalFeesCollected","inputs":[],"outputs":[{"name":"","type":"uint256","internalType":"uint256"}],"stateMutability":"view"},{"type":"function","name":"totalGasSponsored","inputs":[],"outputs":[{"name":"","type":"uint256","internalType":"uint256"}],"stateMutability":"view"},{"type":"function","name":"transferOwnership","inputs":[{"name":"newOwner","type":"address","internalType":"address"}],"outputs":[],"stateMutability":"nonpayable"},{"type":"function","name":"withdrawETH","inputs":[{"name":"amount","type":"uint256","internalType":"uint256"}],"outputs":[],"stateMutability":"nonpayable"},{"type":"function","name":"withdrawNOVIS","inputs":[{"name":"to","type":"address","internalType":"address"},{"name":"amount","type":"uint256","internalType":"uint256"}],"outputs":[],"stateMutability":"nonpayable"},{"type":"event","name":"ETHDeposited","inputs":[{"name":"amount","type":"uint256","indexed":false,"internalType":"uint256"}],"anonymous":false},{"type":"event","name":"FeeCollected","inputs":[{"name":"account","type":"address","indexed":true,"internalType":"address"},{"name":"novisAmount","type":"uint256","indexed":false,"internalType":"uint256"},{"name":"feeAmount","type":"uint256","indexed":false,"internalType":"uint256"}],"anonymous":false},{"type":"event","name":"GasSponsored","inputs":[{"name":"account","type":"address","indexed":true,"internalType":"address"},{"name":"amount","type":"uint256","indexed":false,"internalType":"uint256"},{"name":"gasUsed","type":"uint256","indexed":false,"internalType":"uint256"},{"name":"wasFree","type":"bool","indexed":false,"internalType":"bool"}],"anonymous":false},{"type":"event","name":"OwnershipTransferred","inputs":[{"name":"previousOwner","type":"address","indexed":true,"internalType":"address"},{"name":"newOwner","type":"address","indexed":true,"internalType":"address"}],"anonymous":false},{"type":"event","name":"ThresholdUpdated","inputs":[{"name":"newThreshold","type":"uint256","indexed":false,"internalType":"uint256"}],"anonymous":false},{"type":"error","name":"AddressEmptyCode","inputs":[{"name":"target","type":"address","internalType":"address"}]},{"type":"error","name":"AddressInsufficientBalance","inputs":[{"name":"account","type":"address","internalType":"address"}]},{"type":"error","name":"FailedInnerCall","inputs":[]},{"type":"error","name":"OwnableInvalidOwner","inputs":[{"name":"owner","type":"address","internalType":"address"}]},{"type":"error","name":"OwnableUnauthorizedAccount","inputs":[{"name":"account","type":"address","internalType":"address"}]},{"type":"error","name":"SafeERC20FailedOperation","inputs":[{"name":"token","type":"address","internalType":"address"}]}],"bytecode":{"object":"0x60c0604052678ac7230489e800006001556032600255348015610020575f80fd5b50604051610bc4380380610bc483398101604081905261003f9161018b565b806001600160a01b03811661006e57604051631e4fbdf760e01b81525f60048201526024015b60405180910390fd5b61007781610121565b506001600160a01b0383166100c35760405162461bcd60e51b8152602060048201526012602482015271125b9d985b1a5908195b9d1c9e541bda5b9d60721b6044820152606401610065565b6001600160a01b0382166101095760405162461bcd60e51b815260206004820152600d60248201526c496e76616c6964204e4f56495360981b6044820152606401610065565b506001600160a01b039182166080521660a0526101cb565b5f80546001600160a01b038381166001600160a01b0319831681178455604051919092169283917f8be0079c531659141344cd1fd0a4f28419497f9722a3daafe3b4186f6b6457e09190a35050565b80516001600160a01b0381168114610186575f80fd5b919050565b5f805f6060848603121561019d575f80fd5b6101a684610170565b92506101b460208501610170565b91506101c260408501610170565b90509250925092565b60805160a0516109d16101f35f395f818161033f015261037601525f61026e01526109d15ff3fe6080604052600436106100fd575f3560e01c806399a5d74711610092578063e0f6dfca11610062578063e0f6dfca146102d3578063f14210a6146102e8578063f2fde38b14610307578063f6326fb314610326578063f6dd562e1461032e575f80fd5b806399a5d7471461020a578063ae06c1b71461023e578063b0d691fe1461025d578063c59d484714610290575f80fd5b8063715018a6116100cd578063715018a61461019257806375bbab3a146101a65780638da5cb5b146101c55780639044943c146101f5575f80fd5b8063046b68771461011f57806325f051bd146101405780634e6630b01461016857806360c6d8ae1461017d575f80fd5b3661011b573460055f8282546101139190610881565b925050819055005b5f80fd5b34801561012a575f80fd5b5061013e6101393660046108af565b610361565b005b34801561014b575f80fd5b5061015560015481565b6040519081526020015b60405180910390f35b348015610173575f80fd5b5061015560055481565b348015610188575f80fd5b5061015560045481565b34801561019d575f80fd5b5061013e6103a1565b3480156101b1575f80fd5b5061013e6101c03660046108d7565b6103b4565b3480156101d0575f80fd5b505f546001600160a01b03165b6040516001600160a01b03909116815260200161015f565b348015610200575f80fd5b5061015560025481565b348015610215575f80fd5b506102296102243660046108d7565b6103f7565b6040805192835290151560208301520161015f565b348015610249575f80fd5b5061013e6102583660046108d7565b610432565b348015610268575f80fd5b506101dd7f000000000000000000000000000000000000000000000000000000000000000081565b34801561029b575f80fd5b50600554600354600454600154600254604080519586526020860194909452928401919091526060830152608082015260a00161015f565b3480156102de575f80fd5b5061015560035481565b3480156102f3575f80fd5b5061013e6103023660046108d7565b610484565b348015610312575f80fd5b5061013e6103213660046108ee565b610574565b61013e6105b1565b348015610339575f80fd5b506101dd7f000000000000000000000000000000000000000000000000000000000000000081565b610369610604565b61039d6001600160a01b037f0000000000000000000000000000000000000000000000000000000000000000168383610630565b5050565b6103a9610604565b6103b25f610687565b565b6103bc610604565b60018190556040518181527fadfa8ecb21b6962ebcd0adbd9ab985b7b4c5b5eb3b0dead683171565c7bfe1719060200160405180910390a150565b5f8060015483101561040e57505f92600192509050565b6127106002548461041f9190610907565b610429919061091e565b935f9350915050565b61043a610604565b606481111561047f5760405162461bcd60e51b815260206004820152600c60248201526b08ccaca40e8dede40d0d2ced60a31b60448201526064015b60405180910390fd5b600255565b61048c610604565b6005548111156104d55760405162461bcd60e51b8152602060048201526014602482015273496e73756666696369656e742062616c616e636560601b6044820152606401610476565b8060055f8282546104e6919061093d565b90915550506040515f90339083908381818185875af1925050503d805f811461052a576040519150601f19603f3d011682016040523d82523d5f602084013e61052f565b606091505b505090508061039d5760405162461bcd60e51b815260206004820152601160248201527015da5d1a191c985dd85b0819985a5b1959607a1b6044820152606401610476565b61057c610604565b6001600160a01b0381166105a557604051631e4fbdf760e01b81525f6004820152602401610476565b6105ae81610687565b50565b6105b9610604565b3460055f8282546105ca9190610881565b90915550506040513481527fadb6a3fe015de6cf14b532348b91a6202eb862af051124a853b5935e034cfd7b9060200160405180910390a1565b5f546001600160a01b031633146103b25760405163118cdaa760e01b8152336004820152602401610476565b604080516001600160a01b038416602482015260448082018490528251808303909101815260649091019091526020810180516001600160e01b031663a9059cbb60e01b1790526106829084906106d6565b505050565b5f80546001600160a01b038381166001600160a01b0319831681178455604051919092169283917f8be0079c531659141344cd1fd0a4f28419497f9722a3daafe3b4186f6b6457e09190a35050565b5f6106ea6001600160a01b03841683610737565b905080515f1415801561070e57508080602001905181019061070c9190610950565b155b1561068257604051635274afe760e01b81526001600160a01b0384166004820152602401610476565b606061074483835f61074d565b90505b92915050565b6060814710156107725760405163cd78605960e01b8152306004820152602401610476565b5f80856001600160a01b0316848660405161078d919061096f565b5f6040518083038185875af1925050503d805f81146107c7576040519150601f19603f3d011682016040523d82523d5f602084013e6107cc565b606091505b50915091506107dc8683836107e8565b925050505b9392505050565b6060826107fd576107f882610844565b6107e1565b815115801561081457506001600160a01b0384163b155b1561083d57604051639996b31560e01b81526001600160a01b0385166004820152602401610476565b50806107e1565b8051156108545780518082602001fd5b604051630a12f52160e11b815260040160405180910390fd5b634e487b7160e01b5f52601160045260245ffd5b808201808211156107475761074761086d565b80356001600160a01b03811681146108aa575f80fd5b919050565b5f80604083850312156108c0575f80fd5b6108c983610894565b946020939093013593505050565b5f602082840312156108e7575f80fd5b5035919050565b5f602082840312156108fe575f80fd5b61074482610894565b80820281158282048414176107475761074761086d565b5f8261093857634e487b7160e01b5f52601260045260245ffd5b500490565b818103818111156107475761074761086d565b5f60208284031215610960575f80fd5b815180151581146107e1575f80fd5b5f82515f5b8181101561098e5760208186018101518583015201610974565b505f92019182525091905056fea26469706673582212208a22322f1a7e11da6bc988040887c7f3fadadc00dbac129a78d5f9c443fdd77964736f6c63430008180033","linkReferences":{}},"methodIdentifiers":{"calculateFee(uint256)":"99a5d747","depositETH()":"f6326fb3","entryPoint()":"b0d691fe","ethBalance()":"4e6630b0","feePercentageBps()":"9044943c","freeThreshold()":"25f051bd","getStats()":"c59d4847","novisToken()":"f6dd562e","owner()":"8da5cb5b","renounceOwnership()":"715018a6","setFeePercentage(uint256)":"ae06c1b7","setFreeThreshold(uint256)":"75bbab3a","totalFeesCollected()":"60c6d8ae","totalGasSponsored()":"e0f6dfca","transferOwnership(address)":"f2fde38b","withdrawETH(uint256)":"f14210a6","withdrawNOVIS(address,uint256)":"046b6877"},"id":78}