{"abi":[{"type":"constructor","inputs":[{"name":"_baseAsset","type":"address","internalType":"address"}],"stateMutability":"nonpayable"},{"type":"function","name":"balanceOf","inputs":[{"name":"account","type":"address","internalType":"address"}],"outputs":[{"name":"","type":"uint256","internalType":"uint256"}],"stateMutability":"view"},{"type":"function","name":"baseAsset","inputs":[],"outputs":[{"name":"","type":"address","internalType":"contract IERC20"}],"stateMutability":"view"},{"type":"function","name":"donate","inputs":[{"name":"amount","type":"uint256","internalType":"uint256"}],"outputs":[],"stateMutability":"nonpayable"},{"type":"function","name":"supply","inputs":[{"name":"asset","type":"address","internalType":"address"},{"name":"amount","type":"uint256","internalType":"uint256"}],"outputs":[],"stateMutability":"nonpayable"},{"type":"function","name":"withdraw","inputs":[{"name":"asset","type":"address","internalType":"address"},{"name":"amount","type":"uint256","internalType":"uint256"}],"outputs":[],"stateMutability":"nonpayable"},{"type":"error","name":"AddressEmptyCode","inputs":[{"name":"target","type":"address","internalType":"address"}]},{"type":"error","name":"AddressInsufficientBalance","inputs":[{"name":"account","type":"address","internalType":"address"}]},{"type":"error","name":"FailedInnerCall","inputs":[]},{"type":"error","name":"SafeERC20FailedOperation","inputs":[{"name":"token","type":"address","internalType":"address"}]}],"bytecode":{"object":"0x60a060405234801561000f575f80fd5b50604051610a2d380380610a2d83398101604081905261002e91610082565b6001600160a01b0381166100715760405162461bcd60e51b81526020600482015260066024820152650626173653d360d41b604482015260640160405180910390fd5b6001600160a01b03166080526100af565b5f60208284031215610092575f80fd5b81516001600160a01b03811681146100a8575f80fd5b9392505050565b6080516109366100f75f395f818160840152818161014b015281816102110152818161023e015281816102d70152818161034001528181610436015261053801526109365ff3fe608060405234801561000f575f80fd5b5060043610610055575f3560e01c806370a0823114610059578063cdf456e11461007f578063f14faf6f146100be578063f2b9fdb8146100d3578063f3fef3a3146100e6575b5f80fd5b61006c6100673660046107b4565b6100f9565b6040519081526020015b60405180910390f35b6100a67f000000000000000000000000000000000000000000000000000000000000000081565b6040516001600160a01b039091168152602001610076565b6100d16100cc3660046107cd565b6101dc565b005b6100d16100e13660046107e4565b61023c565b6100d16100f43660046107e4565b61033e565b6001600160a01b0381165f9081526020819052604081205480820361012057505f92915050565b6001545f81900361013457505f9392505050565b6040516370a0823160e01b81523060048201525f907f00000000000000000000000000000000000000000000000000000000000000006001600160a01b0316906370a0823190602401602060405180830381865afa158015610198573d5f803e3d5ffd5b505050506040513d601f19601f820116820180604052508101906101bc919061080c565b9050816101c98285610837565b6101d3919061084e565b95945050505050565b5f81116102045760405162461bcd60e51b81526004016101fb9061086d565b60405180910390fd5b6102396001600160a01b037f000000000000000000000000000000000000000000000000000000000000000016333084610564565b50565b7f00000000000000000000000000000000000000000000000000000000000000006001600160a01b0316826001600160a01b0316146102ab5760405162461bcd60e51b815260206004820152600b60248201526a1ddc9bdb99cb585cdcd95d60aa1b60448201526064016101fb565b5f81116102ca5760405162461bcd60e51b81526004016101fb9061086d565b6102ff6001600160a01b037f000000000000000000000000000000000000000000000000000000000000000016333084610564565b335f908152602081905260408120805483929061031d90849061088f565b925050819055508060015f828254610335919061088f565b90915550505050565b7f00000000000000000000000000000000000000000000000000000000000000006001600160a01b0316826001600160a01b0316146103ad5760405162461bcd60e51b815260206004820152600b60248201526a1ddc9bdb99cb585cdcd95d60aa1b60448201526064016101fb565b5f81116103cc5760405162461bcd60e51b81526004016101fb9061086d565b5f6103d6336100f9565b9050818110156104175760405162461bcd60e51b815260206004820152600c60248201526b1a5b9cdd59999a58da595b9d60a21b60448201526064016101fb565b6001541561052b576040516370a0823160e01b81523060048201525f907f00000000000000000000000000000000000000000000000000000000000000006001600160a01b0316906370a0823190602401602060405180830381865afa158015610483573d5f803e3d5ffd5b505050506040513d601f19601f820116820180604052508101906104a7919061080c565b90505f81600154856104b99190610837565b6104c3919061084e565b335f908152602081905260409020549091508111156104ed5750335f908152602081905260409020545b335f908152602081905260408120805483929061050b9084906108a2565b925050819055508060015f82825461052391906108a2565b909155505050505b61055f6001600160a01b037f00000000000000000000000000000000000000000000000000000000000000001633846105d1565b505050565b6040516001600160a01b0384811660248301528381166044830152606482018390526105cb9186918216906323b872dd906084015b604051602081830303815290604052915060e01b6020820180516001600160e01b038381831617835250505050610602565b50505050565b6040516001600160a01b0383811660248301526044820183905261055f91859182169063a9059cbb90606401610599565b5f6106166001600160a01b03841683610663565b905080515f1415801561063a57508080602001905181019061063891906108b5565b155b1561055f57604051635274afe760e01b81526001600160a01b03841660048201526024016101fb565b606061067083835f610679565b90505b92915050565b60608147101561069e5760405163cd78605960e01b81523060048201526024016101fb565b5f80856001600160a01b031684866040516106b991906108d4565b5f6040518083038185875af1925050503d805f81146106f3576040519150601f19603f3d011682016040523d82523d5f602084013e6106f8565b606091505b5091509150610708868383610714565b925050505b9392505050565b6060826107295761072482610770565b61070d565b815115801561074057506001600160a01b0384163b155b1561076957604051639996b31560e01b81526001600160a01b03851660048201526024016101fb565b508061070d565b8051156107805780518082602001fd5b604051630a12f52160e11b815260040160405180910390fd5b80356001600160a01b03811681146107af575f80fd5b919050565b5f602082840312156107c4575f80fd5b61067082610799565b5f602082840312156107dd575f80fd5b5035919050565b5f80604083850312156107f5575f80fd5b6107fe83610799565b946020939093013593505050565b5f6020828403121561081c575f80fd5b5051919050565b634e487b7160e01b5f52601160045260245ffd5b808202811582820484141761067357610673610823565b5f8261086857634e487b7160e01b5f52601260045260245ffd5b500490565b6020808252600890820152670616d6f756e743d360c41b604082015260600190565b8082018082111561067357610673610823565b8181038181111561067357610673610823565b5f602082840312156108c5575f80fd5b8151801515811461070d575f80fd5b5f82515f5b818110156108f357602081860181015185830152016108d9565b505f92019182525091905056fea26469706673582212201061e094b4fe402904561e223c64921af8c2997cd63f577a01578dcbaab7224364736f6c63430008180033","linkReferences":{}},"methodIdentifiers":{"balanceOf(address)":"70a08231","baseAsset()":"cdf456e1","donate(uint256)":"f14faf6f","supply(address,uint256)":"f2b9fdb8","withdraw(address,uint256)":"f3fef3a3"},"id":1}