{"abi":[{"type":"constructor","inputs":[{"name":"_entryPoint","type":"address","internalType":"address"},{"name":"_novisToken","type":"address","internalType":"address"}],"stateMutability":"nonpayable"},{"type":"function","name":"accountCount","inputs":[],"outputs":[{"name":"","type":"uint256","internalType":"uint256"}],"stateMutability":"view"},{"type":"function","name":"accountImplementation","inputs":[],"outputs":[{"name":"","type":"address","internalType":"address"}],"stateMutability":"view"},{"type":"function","name":"accounts","inputs":[{"name":"","type":"uint256","internalType":"uint256"}],"outputs":[{"name":"","type":"address","internalType":"address"}],"stateMutability":"view"},{"type":"function","name":"createAccount","inputs":[{"name":"owner","type":"address","internalType":"address"},{"name":"dailyLimit","type":"uint256","internalType":"uint256"},{"name":"salt","type":"bytes32","internalType":"bytes32"}],"outputs":[{"name":"account","type":"address","internalType":"address"}],"stateMutability":"nonpayable"},{"type":"function","name":"entryPoint","inputs":[],"outputs":[{"name":"","type":"address","internalType":"address"}],"stateMutability":"view"},{"type":"function","name":"getAccountsByOwner","inputs":[{"name":"owner","type":"address","internalType":"address"}],"outputs":[{"name":"","type":"address[]","internalType":"address[]"}],"stateMutability":"view"},{"type":"function","name":"isAccount","inputs":[{"name":"","type":"address","internalType":"address"}],"outputs":[{"name":"","type":"bool","internalType":"bool"}],"stateMutability":"view"},{"type":"function","name":"novisToken","inputs":[],"outputs":[{"name":"","type":"address","internalType":"address"}],"stateMutability":"view"},{"type":"event","name":"AccountCreated","inputs":[{"name":"account","type":"address","indexed":true,"internalType":"address"},{"name":"owner","type":"address","indexed":true,"internalType":"address"},{"name":"dailyLimit","type":"uint256","indexed":false,"internalType":"uint256"}],"anonymous":false}],"bytecode":{"object":"0x60e060405234801561000f575f80fd5b506040516123e93803806123e983398101604081905261002e91610149565b6001600160a01b03821661007e5760405162461bcd60e51b8152602060048201526012602482015271125b9d985b1a5908195b9d1c9e541bda5b9d60721b60448201526064015b60405180910390fd5b6001600160a01b0381166100d45760405162461bcd60e51b815260206004820152601360248201527f496e76616c6964204e4f56495320746f6b656e000000000000000000000000006044820152606401610075565b6001600160a01b0380831660a052811660c0526040516100f390610121565b604051809103905ff08015801561010c573d5f803e3d5ffd5b506001600160a01b03166080525061017a9050565b61164480610da583390190565b80516001600160a01b0381168114610144575f80fd5b919050565b5f806040838503121561015a575f80fd5b6101638361012e565b91506101716020840161012e565b90509250929050565b60805160a05160c051610bed6101b85f395f81816101a3015261024501525f8181610152015261021d01525f8181609a01526102a60152610bed5ff3fe608060405234801562000010575f80fd5b506004361062000090575f3560e01c8063b0d691fe116200005f578063b0d691fe146200014c578063e4af29fc1462000174578063f2a40db81462000186578063f6dd562e146200019d575f80fd5b806311464fbe146200009457806325ca4c9c14620000d957806373697ee6146200010f57806393eb6f191462000126575b5f80fd5b620000bc7f000000000000000000000000000000000000000000000000000000000000000081565b6040516001600160a01b0390911681526020015b60405180910390f35b620000fe620000ea3660046200063e565b5f6020819052908152604090205460ff1681565b6040519015158152602001620000d0565b620000bc6200012036600462000663565b620001c5565b6200013d620001373660046200063e565b620003aa565b604051620000d0919062000698565b620000bc7f000000000000000000000000000000000000000000000000000000000000000081565b600154604051908152602001620000d0565b620000bc62000197366004620006e6565b620005ef565b620000bc7f000000000000000000000000000000000000000000000000000000000000000081565b60408051606085901b6bffffffffffffffffffffffff1916602080830191909152603482018590526054808301859052835180840390910181526074830184528051908201206001600160a01b0380881660988501527f0000000000000000000000000000000000000000000000000000000000000000811660b88501527f00000000000000000000000000000000000000000000000000000000000000001660d884015260f880840187905284518085039091018152610118909301845290820180516001600160e01b031663cf756fdf60e01b17905291515f929182917f00000000000000000000000000000000000000000000000000000000000000009190620002d29062000618565b620002df929190620006fe565b8190604051809103905ff5905080158015620002fd573d5f803e3d5ffd5b506001600160a01b038082165f81815260208190526040808220805460ff191660019081179091558054808201825592527fb10e2d527612073b26eecdfd717e6a320cf44b4afac2b0732d9fcbe2b7fa0cf690910180546001600160a01b0319168317905551929450908716917f33310a89c32d8cc00057ad6ef6274d2f8fe22389a992cf89983e09fc84f6cfff906200039a9088815260200190565b60405180910390a3509392505050565b60605f805b6001548110156200047457836001600160a01b031660018281548110620003da57620003da6200075c565b5f918252602091829020015460408051638da5cb5b60e01b815290516001600160a01b0390921692638da5cb5b926004808401938290030181865afa15801562000426573d5f803e3d5ffd5b505050506040513d601f19601f820116820180604052508101906200044c919062000770565b6001600160a01b0316036200046b578162000467816200078e565b9250505b600101620003af565b505f8167ffffffffffffffff811115620004925762000492620007b3565b604051908082528060200260200182016040528015620004bc578160200160208202803683370190505b5090505f805b600154811015620005e557856001600160a01b031660018281548110620004ed57620004ed6200075c565b5f918252602091829020015460408051638da5cb5b60e01b815290516001600160a01b0390921692638da5cb5b926004808401938290030181865afa15801562000539573d5f803e3d5ffd5b505050506040513d601f19601f820116820180604052508101906200055f919062000770565b6001600160a01b031603620005dc57600181815481106200058457620005846200075c565b905f5260205f20015f9054906101000a90046001600160a01b0316838381518110620005b457620005b46200075c565b6001600160a01b039092166020928302919091019091015281620005d8816200078e565b9250505b600101620004c2565b5090949350505050565b60018181548110620005ff575f80fd5b5f918252602090912001546001600160a01b0316905081565b6103f080620007c883390190565b6001600160a01b03811681146200063b575f80fd5b50565b5f602082840312156200064f575f80fd5b81356200065c8162000626565b9392505050565b5f805f6060848603121562000676575f80fd5b8335620006838162000626565b95602085013595506040909401359392505050565b602080825282518282018190525f9190848201906040850190845b81811015620006da5783516001600160a01b031683529284019291840191600101620006b3565b50909695505050505050565b5f60208284031215620006f7575f80fd5b5035919050565b60018060a01b03831681525f60206040602084015283518060408501525f5b818110156200073b578581018301518582016060015282016200071d565b505f606082860101526060601f19601f830116850101925050509392505050565b634e487b7160e01b5f52603260045260245ffd5b5f6020828403121562000781575f80fd5b81516200065c8162000626565b5f60018201620007ac57634e487b7160e01b5f52601160045260245ffd5b5060010190565b634e487b7160e01b5f52604160045260245ffdfe60806040526040516103f03803806103f08339810160408190526100229161025e565b61002c8282610033565b5050610341565b61003c82610091565b6040516001600160a01b038316907fbc7cd75a20ee27fd9adebab32041f755214dbc6bffa90cc0225b39da2e5c2d3b905f90a280511561008557610080828261010c565b505050565b61008d61017f565b5050565b806001600160a01b03163b5f036100cb57604051634c9c8ce360e01b81526001600160a01b03821660048201526024015b60405180910390fd5b7f360894a13ba1a3210667c828492db98dca3e2076cc3735a920a3ca505d382bbc80546001600160a01b0319166001600160a01b0392909216919091179055565b60605f80846001600160a01b0316846040516101289190610326565b5f60405180830381855af49150503d805f8114610160576040519150601f19603f3d011682016040523d82523d5f602084013e610165565b606091505b5090925090506101768583836101a0565b95945050505050565b341561019e5760405163b398979f60e01b815260040160405180910390fd5b565b6060826101b5576101b0826101ff565b6101f8565b81511580156101cc57506001600160a01b0384163b155b156101f557604051639996b31560e01b81526001600160a01b03851660048201526024016100c2565b50805b9392505050565b80511561020f5780518082602001fd5b604051630a12f52160e11b815260040160405180910390fd5b634e487b7160e01b5f52604160045260245ffd5b5f5b8381101561025657818101518382015260200161023e565b50505f910152565b5f806040838503121561026f575f80fd5b82516001600160a01b0381168114610285575f80fd5b60208401519092506001600160401b03808211156102a1575f80fd5b818501915085601f8301126102b4575f80fd5b8151818111156102c6576102c6610228565b604051601f8201601f19908116603f011681019083821181831017156102ee576102ee610228565b81604052828152886020848701011115610306575f80fd5b61031783602083016020880161023c565b80955050505050509250929050565b5f825161033781846020870161023c565b9190910192915050565b60a38061034d5f395ff3fe6080604052600a600c565b005b60186014601a565b6050565b565b5f604b7f360894a13ba1a3210667c828492db98dca3e2076cc3735a920a3ca505d382bbc546001600160a01b031690565b905090565b365f80375f80365f845af43d5f803e8080156069573d5ff35b3d5ffdfea264697066735822122013532966bdedf68065a7c9625d777c96e4b4d5c2bb7187c81baea883f4a93be064736f6c63430008180033a2646970667358221220798eba92a0404e81d99eb382dbcd4d7e049025fce8b3999c3a482857871f1b9564736f6c6343000818003360a060405230608052348015610013575f80fd5b5060805161160a61003a5f395f8181610d1401528181610d3d0152610ea7015261160a5ff3fe608060405260043610610164575f3560e01c80638da5cb5b116100cd578063b61d27f611610087578063df77294111610062578063df7729411461046e578063e744092e14610483578063f6dd562e146104b1578063f8b2cb4f146104d0575f80fd5b8063b61d27f6146103cb578063b7b8d604146103ea578063cf756fdf1461044f575f80fd5b80638da5cb5b146102e2578063a526d83b14610318578063ad3cb1cc14610337578063b0d691fe14610374578063b187bd2614610393578063b20d30a9146103ac575f80fd5b80634f1ef2861161011e5780634f1ef2861461024e57806352d1902d1461026157806354387ad71461027557806367eeba0c1461028a5780638456cb591461029f5780638a060878146102b3575f80fd5b80630633b14a1461016f5780630bc6b89c146101b25780631259a5c8146101d55780631c8123d6146101ea578063398d6924146101ff5780634df6d6cc14610220575f80fd5b3661016b57005b5f80fd5b34801561017a575f80fd5b5061019d6101893660046111fc565b60096020525f908152604090205460ff1681565b60405190151581526020015b60405180910390f35b3480156101bd575f80fd5b506101c760045481565b6040519081526020016101a9565b3480156101e0575f80fd5b506101c760055481565b3480156101f5575f80fd5b506101c7600b5481565b34801561020a575f80fd5b5061021e610219366004611215565b6104ef565b005b34801561022b575f80fd5b5061019d61023a3660046111fc565b60086020525f908152604090205460ff1681565b61021e61025c366004611259565b610622565b34801561026c575f80fd5b506101c7610641565b348015610280575f80fd5b506101c7600a5481565b348015610295575f80fd5b506101c760035481565b3480156102aa575f80fd5b5061021e61065c565b3480156102be575f80fd5b506102c76106bc565b604080519384526020840192909252908201526060016101a9565b3480156102ed575f80fd5b505f54610300906001600160a01b031681565b6040516001600160a01b0390911681526020016101a9565b348015610323575f80fd5b5061021e6103323660046111fc565b610704565b348015610342575f80fd5b50610367604051806040016040528060058152602001640352e302e360dc1b81525081565b6040516101a99190611362565b34801561037f575f80fd5b50600154610300906001600160a01b031681565b34801561039e575f80fd5b50600d5461019d9060ff1681565b3480156103b7575f80fd5b5061021e6103c6366004611374565b61083c565b3480156103d6575f80fd5b506103676103e536600461138b565b6108a0565b3480156103f5575f80fd5b5061042d6104043660046111fc565b600c6020525f908152604090208054600182015460028301546003909301549192909160ff1684565b60408051948552602085019390935291830152151560608201526080016101a9565b34801561045a575f80fd5b5061021e61046936600461140b565b610a94565b348015610479575f80fd5b506101c760065481565b34801561048e575f80fd5b5061019d61049d3660046111fc565b60076020525f908152604090205460ff1681565b3480156104bc575f80fd5b50600254610300906001600160a01b031681565b3480156104db575f80fd5b506101c76104ea3660046111fc565b610c87565b5f546001600160a01b031633146105215760405162461bcd60e51b815260040161051890611453565b60405180910390fd5b6001600160a01b0383166105655760405162461bcd60e51b815260206004820152600b60248201526a496e76616c6964206b657960a81b6044820152606401610518565b6040518060800160405280834261057c919061148a565b815260208082018490525f6040808401829052600160609485018190526001600160a01b038916808452600c855292829020865181559386015190840155840151600283015592909101516003909101805460ff19169115159190911790557fdf92d102638cf06f9b9d2f357166c3711c5aff04687f6f44dd0789436e54c3e5610606844261148a565b60408051918252602082018590520160405180910390a2505050565b61062a610d09565b61063382610daf565b61063d8282610ddb565b5050565b5f61064a610e9c565b505f805160206115b583398151915290565b5f546001600160a01b031633146106855760405162461bcd60e51b815260040161051890611453565b600d805460ff191660011790556040517fd2d543f69c8d83abdbcb3977fdb7cf622cb1ca972b1d1dea122a0436f63e453e905f90a1565b5f8080806106cd620151804261149d565b90506005548111156106e85750506003545f93909250829150565b6004546003546106f882826114bc565b93509350935050909192565b5f546001600160a01b0316331461072d5760405162461bcd60e51b815260040161051890611453565b6001600160a01b0381166107765760405162461bcd60e51b815260206004820152601060248201526f24b73b30b634b21033bab0b93234b0b760811b6044820152606401610518565b6001600160a01b0381165f9081526009602052604090205460ff16156107d15760405162461bcd60e51b815260206004820152601060248201526f20b63932b0b23c9033bab0b93234b0b760811b6044820152606401610518565b6001600160a01b0381165f908152600960205260408120805460ff19166001179055600a805491610801836114cf565b90915550506040516001600160a01b038216907f038596bb31e2e7d3d9f184d4c98b310103f6d7f5830e5eec32bffe6f1728f969905f90a250565b5f546001600160a01b031633146108655760405162461bcd60e51b815260040161051890611453565b60038190556040518181527fea70a31e4e5eb24c9509aa5d26266f5837aaa56d74f4f815ca7f23aaaf296d6a9060200160405180910390a150565b5f546060906001600160a01b031633146108cc5760405162461bcd60e51b815260040161051890611453565b600d5460ff16156109105760405162461bcd60e51b815260206004820152600e60248201526d1058d8dbdd5b9d081c185d5cd95960921b6044820152606401610518565b6002545f906001600160a01b038781169116148015610930575060448310155b15610992575f61094360048286886114e7565b61094c9161150e565b90506356fa634560e01b6001600160e01b031982160161098c576109746044602486886114e7565b8101906109819190611374565b915061098c82610ee5565b506109a1565b84156109a1576109a185610ee5565b5f80876001600160a01b03168787876040516109be92919061153e565b5f6040518083038185875af1925050503d805f81146109f8576040519150601f19603f3d011682016040523d82523d5f602084013e6109fd565b606091505b509150915081610a445760405162461bcd60e51b8152602060048201526012602482015271151c985b9cd858dd1a5bdb8819985a5b195960721b6044820152606401610518565b876001600160a01b03167f47d99ad340f52da66535aff7e10da1ceb85a32bcbd9fa1c42314d194545e14d2888888604051610a819392919061154d565b60405180910390a2979650505050505050565b7ff0c57e16840df040f15088dc2f81fe391c3923bec73e23a9662efc9c229c6a008054600160401b810460ff16159067ffffffffffffffff165f81158015610ad95750825b90505f8267ffffffffffffffff166001148015610af55750303b155b905081158015610b03575080155b15610b215760405163f92ee8a960e01b815260040160405180910390fd5b845467ffffffffffffffff191660011785558315610b4b57845460ff60401b1916600160401b1785555b6001600160a01b038916610b915760405162461bcd60e51b815260206004820152600d60248201526c24b73b30b634b21037bbb732b960991b6044820152606401610518565b5f80546001600160a01b03808c166001600160a01b031992831617909255600180548b841690831617905560028054928a16929091169190911790556003869055610bdf620151804261149d565b6005556001600160a01b038088165f90815260076020526040808220805460ff191660011790556006899055518a8316928c16917f526ffefac8167421b9048ae3377810715d834479565b0182ea4155f0efa4c38091a38315610c7c57845460ff60401b19168555604051600181527fc7f505b2f371ae2175ee4913f4499e1f2633a7b5936321eed1cdaeb6115181d29060200160405180910390a15b505050505050505050565b5f6001600160a01b038216610c9d575047919050565b6040516370a0823160e01b81523060048201526001600160a01b038316906370a0823190602401602060405180830381865afa158015610cdf573d5f803e3d5ffd5b505050506040513d601f19601f82011682018060405250810190610d039190611582565b92915050565b306001600160a01b037f0000000000000000000000000000000000000000000000000000000000000000161480610d8f57507f00000000000000000000000000000000000000000000000000000000000000006001600160a01b0316610d835f805160206115b5833981519152546001600160a01b031690565b6001600160a01b031614155b15610dad5760405163703e46dd60e11b815260040160405180910390fd5b565b5f546001600160a01b03163314610dd85760405162461bcd60e51b815260040161051890611453565b50565b816001600160a01b03166352d1902d6040518163ffffffff1660e01b8152600401602060405180830381865afa925050508015610e35575060408051601f3d908101601f19168201909252610e3291810190611582565b60015b610e5d57604051634c9c8ce360e01b81526001600160a01b0383166004820152602401610518565b5f805160206115b58339815191528114610e8d57604051632a87526960e21b815260048101829052602401610518565b610e978383611010565b505050565b306001600160a01b037f00000000000000000000000000000000000000000000000000000000000000001614610dad5760405163703e46dd60e11b815260040160405180910390fd5b805f03610eef5750565b600654811115610f385760405162461bcd60e51b8152602060048201526014602482015273115e18d959591cc81c195c8b5d1e081b1a5b5a5d60621b6044820152606401610518565b5f610f46620151804261149d565b9050600554811115610f5c575f60045560058190555b60035482600454610f6d919061148a565b1115610fb15760405162461bcd60e51b8152602060048201526013602482015272115e18d959591cc819185a5b1e481b1a5b5a5d606a1b6044820152606401610518565b8160045f828254610fc2919061148a565b90915550506004546003546040805185815260208101939093528201527f3138e9c11af90ce78ca24c4c3303561778c9d56c6ee43a31a9d043037d8d9eb59060600160405180910390a15050565b61101982611065565b6040516001600160a01b038316907fbc7cd75a20ee27fd9adebab32041f755214dbc6bffa90cc0225b39da2e5c2d3b905f90a280511561105d57610e9782826110c8565b61063d61113a565b806001600160a01b03163b5f0361109a57604051634c9c8ce360e01b81526001600160a01b0382166004820152602401610518565b5f805160206115b583398151915280546001600160a01b0319166001600160a01b0392909216919091179055565b60605f80846001600160a01b0316846040516110e49190611599565b5f60405180830381855af49150503d805f811461111c576040519150601f19603f3d011682016040523d82523d5f602084013e611121565b606091505b5091509150611131858383611159565b95945050505050565b3415610dad5760405163b398979f60e01b815260040160405180910390fd5b60608261116e57611169826111b8565b6111b1565b815115801561118557506001600160a01b0384163b155b156111ae57604051639996b31560e01b81526001600160a01b0385166004820152602401610518565b50805b9392505050565b8051156111c85780518082602001fd5b604051630a12f52160e11b815260040160405180910390fd5b80356001600160a01b03811681146111f7575f80fd5b919050565b5f6020828403121561120c575f80fd5b6111b1826111e1565b5f805f60608486031215611227575f80fd5b611230846111e1565b95602085013595506040909401359392505050565b634e487b7160e01b5f52604160045260245ffd5b5f806040838503121561126a575f80fd5b611273836111e1565b9150602083013567ffffffffffffffff8082111561128f575f80fd5b818501915085601f8301126112a2575f80fd5b8135818111156112b4576112b4611245565b604051601f8201601f19908116603f011681019083821181831017156112dc576112dc611245565b816040528281528860208487010111156112f4575f80fd5b826020860160208301375f6020848301015280955050505050509250929050565b5f5b8381101561132f578181015183820152602001611317565b50505f910152565b5f815180845261134e816020860160208601611315565b601f01601f19169290920160200192915050565b602081525f6111b16020830184611337565b5f60208284031215611384575f80fd5b5035919050565b5f805f806060858703121561139e575f80fd5b6113a7856111e1565b935060208501359250604085013567ffffffffffffffff808211156113ca575f80fd5b818701915087601f8301126113dd575f80fd5b8135818111156113eb575f80fd5b8860208285010111156113fc575f80fd5b95989497505060200194505050565b5f805f806080858703121561141e575f80fd5b611427856111e1565b9350611435602086016111e1565b9250611443604086016111e1565b9396929550929360600135925050565b6020808252600990820152682737ba1037bbb732b960b91b604082015260600190565b634e487b7160e01b5f52601160045260245ffd5b80820180821115610d0357610d03611476565b5f826114b757634e487b7160e01b5f52601260045260245ffd5b500490565b81810381811115610d0357610d03611476565b5f600182016114e0576114e0611476565b5060010190565b5f80858511156114f5575f80fd5b83861115611501575f80fd5b5050820193919092039150565b6001600160e01b031981358181169160048510156115365780818660040360031b1b83161692505b505092915050565b818382375f9101908152919050565b83815260406020820152816040820152818360608301375f818301606090810191909152601f909201601f1916010192915050565b5f60208284031215611592575f80fd5b5051919050565b5f82516115aa818460208701611315565b919091019291505056fe360894a13ba1a3210667c828492db98dca3e2076cc3735a920a3ca505d382bbca26469706673582212203b9eaeb1110a1e5a54b15c88f40fd7e1f8502536e376d7ddbb3f67bed37d1c3264736f6c63430008180033","linkReferences":{}},"methodIdentifiers":{"accountCount()":"e4af29fc","accountImplementation()":"11464fbe","accounts(uint256)":"f2a40db8","createAccount(address,uint256,bytes32)":"73697ee6","entryPoint()":"b0d691fe","getAccountsByOwner(address)":"93eb6f19","isAccount(address)":"25ca4c9c","novisToken()":"f6dd562e"},"id":76}