{"abi":[{"type":"constructor","inputs":[],"stateMutability":"nonpayable"},{"type":"receive","stateMutability":"payable"},{"type":"function","name":"UPGRADE_INTERFACE_VERSION","inputs":[],"outputs":[{"name":"","type":"string","internalType":"string"}],"stateMutability":"view"},{"type":"function","name":"allowance","inputs":[{"name":"owner","type":"address","internalType":"address"},{"name":"spender","type":"address","internalType":"address"}],"outputs":[{"name":"","type":"uint256","internalType":"uint256"}],"stateMutability":"view"},{"type":"function","name":"approve","inputs":[{"name":"spender","type":"address","internalType":"address"},{"name":"value","type":"uint256","internalType":"uint256"}],"outputs":[{"name":"","type":"bool","internalType":"bool"}],"stateMutability":"nonpayable"},{"type":"function","name":"asset","inputs":[],"outputs":[{"name":"","type":"address","internalType":"address"}],"stateMutability":"view"},{"type":"function","name":"balanceOf","inputs":[{"name":"account","type":"address","internalType":"address"}],"outputs":[{"name":"","type":"uint256","internalType":"uint256"}],"stateMutability":"view"},{"type":"function","name":"comet","inputs":[],"outputs":[{"name":"","type":"address","internalType":"contract IComet"}],"stateMutability":"view"},{"type":"function","name":"decimals","inputs":[],"outputs":[{"name":"","type":"uint8","internalType":"uint8"}],"stateMutability":"view"},{"type":"function","name":"deposit","inputs":[{"name":"amount","type":"uint256","internalType":"uint256"},{"name":"onBehalfOf","type":"address","internalType":"address"}],"outputs":[{"name":"shares","type":"uint256","internalType":"uint256"}],"stateMutability":"nonpayable"},{"type":"function","name":"emergencyWithdraw","inputs":[],"outputs":[],"stateMutability":"nonpayable"},{"type":"function","name":"initialize","inputs":[{"name":"_owner","type":"address","internalType":"address"},{"name":"_vault","type":"address","internalType":"address"},{"name":"_usdc","type":"address","internalType":"address"},{"name":"_comet","type":"address","internalType":"address"}],"outputs":[],"stateMutability":"nonpayable"},{"type":"function","name":"name","inputs":[],"outputs":[{"name":"","type":"string","internalType":"string"}],"stateMutability":"view"},{"type":"function","name":"owner","inputs":[],"outputs":[{"name":"","type":"address","internalType":"address"}],"stateMutability":"view"},{"type":"function","name":"proxiableUUID","inputs":[],"outputs":[{"name":"","type":"bytes32","internalType":"bytes32"}],"stateMutability":"view"},{"type":"function","name":"renounceOwnership","inputs":[],"outputs":[],"stateMutability":"nonpayable"},{"type":"function","name":"rescueETH","inputs":[{"name":"amount","type":"uint256","internalType":"uint256"}],"outputs":[],"stateMutability":"nonpayable"},{"type":"function","name":"rescueToken","inputs":[{"name":"token","type":"address","internalType":"address"},{"name":"amount","type":"uint256","internalType":"uint256"}],"outputs":[],"stateMutability":"nonpayable"},{"type":"function","name":"setComet","inputs":[{"name":"_comet","type":"address","internalType":"address"}],"outputs":[],"stateMutability":"nonpayable"},{"type":"function","name":"setVault","inputs":[{"name":"_vault","type":"address","internalType":"address"}],"outputs":[],"stateMutability":"nonpayable"},{"type":"function","name":"symbol","inputs":[],"outputs":[{"name":"","type":"string","internalType":"string"}],"stateMutability":"view"},{"type":"function","name":"totalAssets","inputs":[],"outputs":[{"name":"","type":"uint256","internalType":"uint256"}],"stateMutability":"view"},{"type":"function","name":"totalSupply","inputs":[],"outputs":[{"name":"","type":"uint256","internalType":"uint256"}],"stateMutability":"view"},{"type":"function","name":"transfer","inputs":[{"name":"to","type":"address","internalType":"address"},{"name":"value","type":"uint256","internalType":"uint256"}],"outputs":[{"name":"","type":"bool","internalType":"bool"}],"stateMutability":"nonpayable"},{"type":"function","name":"transferFrom","inputs":[{"name":"from","type":"address","internalType":"address"},{"name":"to","type":"address","internalType":"address"},{"name":"value","type":"uint256","internalType":"uint256"}],"outputs":[{"name":"","type":"bool","internalType":"bool"}],"stateMutability":"nonpayable"},{"type":"function","name":"transferOwnership","inputs":[{"name":"newOwner","type":"address","internalType":"address"}],"outputs":[],"stateMutability":"nonpayable"},{"type":"function","name":"upgradeToAndCall","inputs":[{"name":"newImplementation","type":"address","internalType":"address"},{"name":"data","type":"bytes","internalType":"bytes"}],"outputs":[],"stateMutability":"payable"},{"type":"function","name":"usdc","inputs":[],"outputs":[{"name":"","type":"address","internalType":"contract IERC20"}],"stateMutability":"view"},{"type":"function","name":"vault","inputs":[],"outputs":[{"name":"","type":"address","internalType":"address"}],"stateMutability":"view"},{"type":"function","name":"version","inputs":[],"outputs":[{"name":"","type":"string","internalType":"string"}],"stateMutability":"pure"},{"type":"function","name":"withdraw","inputs":[{"name":"shares","type":"uint256","internalType":"uint256"},{"name":"to","type":"address","internalType":"address"}],"outputs":[{"name":"assets","type":"uint256","internalType":"uint256"}],"stateMutability":"nonpayable"},{"type":"event","name":"Approval","inputs":[{"name":"owner","type":"address","indexed":true,"internalType":"address"},{"name":"spender","type":"address","indexed":true,"internalType":"address"},{"name":"value","type":"uint256","indexed":false,"internalType":"uint256"}],"anonymous":false},{"type":"event","name":"CometSet","inputs":[{"name":"comet","type":"address","indexed":true,"internalType":"address"}],"anonymous":false},{"type":"event","name":"Deposited","inputs":[{"name":"from","type":"address","indexed":true,"internalType":"address"},{"name":"assets","type":"uint256","indexed":false,"internalType":"uint256"},{"name":"shares","type":"uint256","indexed":false,"internalType":"uint256"}],"anonymous":false},{"type":"event","name":"ETHRescued","inputs":[{"name":"amount","type":"uint256","indexed":false,"internalType":"uint256"}],"anonymous":false},{"type":"event","name":"EmergencyWithdraw","inputs":[{"name":"amount","type":"uint256","indexed":false,"internalType":"uint256"}],"anonymous":false},{"type":"event","name":"Initialized","inputs":[{"name":"version","type":"uint64","indexed":false,"internalType":"uint64"}],"anonymous":false},{"type":"event","name":"OwnershipTransferred","inputs":[{"name":"previousOwner","type":"address","indexed":true,"internalType":"address"},{"name":"newOwner","type":"address","indexed":true,"internalType":"address"}],"anonymous":false},{"type":"event","name":"TokensRescued","inputs":[{"name":"token","type":"address","indexed":true,"internalType":"address"},{"name":"amount","type":"uint256","indexed":false,"internalType":"uint256"}],"anonymous":false},{"type":"event","name":"Transfer","inputs":[{"name":"from","type":"address","indexed":true,"internalType":"address"},{"name":"to","type":"address","indexed":true,"internalType":"address"},{"name":"value","type":"uint256","indexed":false,"internalType":"uint256"}],"anonymous":false},{"type":"event","name":"Upgraded","inputs":[{"name":"implementation","type":"address","indexed":true,"internalType":"address"}],"anonymous":false},{"type":"event","name":"VaultSet","inputs":[{"name":"vault","type":"address","indexed":true,"internalType":"address"}],"anonymous":false},{"type":"event","name":"Withdrawn","inputs":[{"name":"to","type":"address","indexed":true,"internalType":"address"},{"name":"shares","type":"uint256","indexed":false,"internalType":"uint256"},{"name":"assets","type":"uint256","indexed":false,"internalType":"uint256"}],"anonymous":false},{"type":"error","name":"AddressEmptyCode","inputs":[{"name":"target","type":"address","internalType":"address"}]},{"type":"error","name":"AddressInsufficientBalance","inputs":[{"name":"account","type":"address","internalType":"address"}]},{"type":"error","name":"ERC1967InvalidImplementation","inputs":[{"name":"implementation","type":"address","internalType":"address"}]},{"type":"error","name":"ERC1967NonPayable","inputs":[]},{"type":"error","name":"ERC20InsufficientAllowance","inputs":[{"name":"spender","type":"address","internalType":"address"},{"name":"allowance","type":"uint256","internalType":"uint256"},{"name":"needed","type":"uint256","internalType":"uint256"}]},{"type":"error","name":"ERC20InsufficientBalance","inputs":[{"name":"sender","type":"address","internalType":"address"},{"name":"balance","type":"uint256","internalType":"uint256"},{"name":"needed","type":"uint256","internalType":"uint256"}]},{"type":"error","name":"ERC20InvalidApprover","inputs":[{"name":"approver","type":"address","internalType":"address"}]},{"type":"error","name":"ERC20InvalidReceiver","inputs":[{"name":"receiver","type":"address","internalType":"address"}]},{"type":"error","name":"ERC20InvalidSender","inputs":[{"name":"sender","type":"address","internalType":"address"}]},{"type":"error","name":"ERC20InvalidSpender","inputs":[{"name":"spender","type":"address","internalType":"address"}]},{"type":"error","name":"FailedInnerCall","inputs":[]},{"type":"error","name":"InvalidInitialization","inputs":[]},{"type":"error","name":"NotInitializing","inputs":[]},{"type":"error","name":"OwnableInvalidOwner","inputs":[{"name":"owner","type":"address","internalType":"address"}]},{"type":"error","name":"OwnableUnauthorizedAccount","inputs":[{"name":"account","type":"address","internalType":"address"}]},{"type":"error","name":"ReentrancyGuardReentrantCall","inputs":[]},{"type":"error","name":"SafeERC20FailedOperation","inputs":[{"name":"token","type":"address","internalType":"address"}]},{"type":"error","name":"UUPSUnauthorizedCallContext","inputs":[]},{"type":"error","name":"UUPSUnsupportedProxiableUUID","inputs":[{"name":"slot","type":"bytes32","internalType":"bytes32"}]}],"bytecode":{"object":"0x60a060405230608052348015610013575f80fd5b5060015f55610020610025565b6100d7565b7ff0c57e16840df040f15088dc2f81fe391c3923bec73e23a9662efc9c229c6a00805468010000000000000000900460ff16156100755760405163f92ee8a960e01b815260040160405180910390fd5b80546001600160401b03908116146100d45780546001600160401b0319166001600160401b0390811782556040519081527fc7f505b2f371ae2175ee4913f4499e1f2633a7b5936321eed1cdaeb6115181d29060200160405180910390a15b50565b6080516120426100fd5f395f81816113560152818161137f01526114be01526120425ff3fe6080604052600436106101bc575f3560e01c80636e553f65116100f2578063ad3cb1cc11610092578063dd62ed3e11610062578063dd62ed3e146104e8578063f2fde38b14610507578063f8c8765e14610526578063fbfa77cf14610545575f80fd5b8063ad3cb1cc14610466578063ba3e9c1214610496578063d9b3bba8146104b5578063db2e21bc146104d4575f80fd5b80638da5cb5b116100cd5780638da5cb5b1461040057806395d89b41146104145780639e252f0014610428578063a9059cbb14610447575f80fd5b80636e553f65146103ae57806370a08231146103cd578063715018a6146103ec575f80fd5b806333f3d6281161015d5780634f1ef286116101385780634f1ef2861461033b57806352d1902d1461034e57806354fd4d50146103625780636817031b1461038f575f80fd5b806333f3d628146102ca57806338d52e0f146102eb5780633e413bee1461031c575f80fd5b8063095ea7b311610198578063095ea7b31461022e57806318160ddd1461025d57806323b872dd14610290578063313ce567146102af575f80fd5b8062f714ce146101c757806301e1d114146101f957806306fdde031461020d575f80fd5b366101c357005b5f80fd5b3480156101d2575f80fd5b506101e66101e1366004611baa565b610564565b6040519081526020015b60405180910390f35b348015610204575f80fd5b506101e66106e5565b348015610218575f80fd5b50610221610754565b6040516101f09190611bf6565b348015610239575f80fd5b5061024d610248366004611c28565b610814565b60405190151581526020016101f0565b348015610268575f80fd5b507f52c63247e1f47db19d5ce0460030c497f067ca4cebf71ba98eeadabe20bace02546101e6565b34801561029b575f80fd5b5061024d6102aa366004611c50565b61082b565b3480156102ba575f80fd5b50604051601281526020016101f0565b3480156102d5575f80fd5b506102e96102e4366004611c28565b610850565b005b3480156102f6575f80fd5b506001546001600160a01b03165b6040516001600160a01b0390911681526020016101f0565b348015610327575f80fd5b50600154610304906001600160a01b031681565b6102e9610349366004611c9d565b610911565b348015610359575f80fd5b506101e6610930565b34801561036d575f80fd5b506040805180820190915260058152640312e302e360dc1b6020820152610221565b34801561039a575f80fd5b506102e96103a9366004611d59565b61094b565b3480156103b9575f80fd5b506101e66103c8366004611baa565b6109c2565b3480156103d8575f80fd5b506101e66103e7366004611d59565b610b72565b3480156103f7575f80fd5b506102e9610b98565b34801561040b575f80fd5b50610304610bab565b34801561041f575f80fd5b50610221610bd9565b348015610433575f80fd5b506102e9610442366004611d72565b610c17565b348015610452575f80fd5b5061024d610461366004611c28565b610ce5565b348015610471575f80fd5b50610221604051806040016040528060058152602001640352e302e360dc1b81525081565b3480156104a1575f80fd5b50600254610304906001600160a01b031681565b3480156104c0575f80fd5b506102e96104cf366004611d59565b610cf2565b3480156104df575f80fd5b506102e9610d69565b3480156104f3575f80fd5b506101e6610502366004611d89565b610f14565b348015610512575f80fd5b506102e9610521366004611d59565b610f5d565b348015610531575f80fd5b506102e9610540366004611db1565b610f9a565b348015610550575f80fd5b50600354610304906001600160a01b031681565b6003545f906001600160a01b031633146105b25760405162461bcd60e51b815260206004820152600a6024820152691bdb9b1e481d985d5b1d60b21b60448201526064015b60405180910390fd5b6105ba61118b565b5f831180156105d15750826105ce33610b72565b10155b6106075760405162461bcd60e51b81526020600482015260076024820152661a5b9d985b1a5960ca1b60448201526064016105a9565b61061133846111b3565b5060025460015460405163f3fef3a360e01b81526001600160a01b039182166004820152602481018590528492919091169063f3fef3a3906044015f604051808303815f87803b158015610663575f80fd5b505af1158015610675573d5f803e3d5ffd5b505060015461069192506001600160a01b0316905083836111e7565b60408051848152602081018390526001600160a01b038416917f92ccf450a286a957af52509bc1c9939d1a6a481783e142e41e2499f0bb66ebc691015b60405180910390a26106df60015f55565b92915050565b6002546040516370a0823160e01b81523060048201525f916001600160a01b0316906370a0823190602401602060405180830381865afa15801561072b573d5f803e3d5ffd5b505050506040513d601f19601f8201168201806040525081019061074f9190611e02565b905090565b7f52c63247e1f47db19d5ce0460030c497f067ca4cebf71ba98eeadabe20bace0380546060915f80516020611fcd8339815191529161079290611e19565b80601f01602080910402602001604051908101604052809291908181526020018280546107be90611e19565b80156108095780601f106107e057610100808354040283529160200191610809565b820191905f5260205f20905b8154815290600101906020018083116107ec57829003601f168201915b505050505091505090565b5f3361082181858561124b565b5060019392505050565b5f33610838858285611258565b6108438585856112bc565b60019150505b9392505050565b610858611319565b6001546001600160a01b03908116908316036108ae5760405162461bcd60e51b815260206004820152601560248201527475736520656d657267656e6379576974686472617760581b60448201526064016105a9565b6108ca6108b9610bab565b6001600160a01b03841690836111e7565b816001600160a01b03167f68f67de89e96b13a3ea058af5fd44cc125efceb528482d539c7b43db2faa066e8260405161090591815260200190565b60405180910390a25050565b61091961134b565b610922826113ef565b61092c82826113f7565b5050565b5f6109396114b3565b505f80516020611fed83398151915290565b610953611319565b6001600160a01b0381166109795760405162461bcd60e51b81526004016105a990611e51565b600380546001600160a01b0319166001600160a01b0383169081179091556040517fe7ae49f883c825b05681b3e00e8be6fdea9ed2a8a45e4c6ecb9390fc44cce615905f90a250565b6003545f906001600160a01b03163314610a0b5760405162461bcd60e51b815260206004820152600a6024820152691bdb9b1e481d985d5b1d60b21b60448201526064016105a9565b610a1361118b565b5f8311610a325760405162461bcd60e51b81526004016105a990611e51565b600154610a4a906001600160a01b03163330866114fc565b60015460025460405163095ea7b360e01b81526001600160a01b0391821660048201526024810186905291169063095ea7b3906044016020604051808303815f875af1158015610a9c573d5f803e3d5ffd5b505050506040513d601f19601f82011682018060405250810190610ac09190611e6f565b50600254600154604051631e573fb760e31b81526001600160a01b0391821660048201526024810186905291169063f2b9fdb8906044015f604051808303815f87803b158015610b0e575f80fd5b505af1158015610b20573d5f803e3d5ffd5b50505050829050610b318282611535565b60408051848152602081018390526001600160a01b038416917f73a19dd210f1a7f902193214c0ee91dd35ee5b4d920cba8d519eca65a7b488ca91016106ce565b6001600160a01b03165f9081525f80516020611fcd833981519152602052604090205490565b610ba0611319565b610ba95f611569565b565b7f9016d09d72d40fdae2fd8ceac6b6234c7706214fd39c1cd1e609a0528c199300546001600160a01b031690565b7f52c63247e1f47db19d5ce0460030c497f067ca4cebf71ba98eeadabe20bace0480546060915f80516020611fcd8339815191529161079290611e19565b610c1f611319565b5f610c28610bab565b6001600160a01b0316826040515f6040518083038185875af1925050503d805f8114610c6f576040519150601f19603f3d011682016040523d82523d5f602084013e610c74565b606091505b5050905080610cae5760405162461bcd60e51b815260206004820152600660248201526519985a5b195960d21b60448201526064016105a9565b6040518281527f2935defdd9ec65bb02dc9049597c404aae26083909722b8e4ecd474eea640a909060200160405180910390a15050565b5f336108218185856112bc565b610cfa611319565b6001600160a01b038116610d205760405162461bcd60e51b81526004016105a990611e51565b600280546001600160a01b0319166001600160a01b0383169081179091556040517f44660d985b2d3de0ee46b7867b5c409ce12d5825cd096fd2879b636dde473bfe905f90a250565b610d71611319565b610d7961118b565b6002546040516370a0823160e01b81523060048201525f916001600160a01b0316906370a0823190602401602060405180830381865afa158015610dbf573d5f803e3d5ffd5b505050506040513d601f19601f82011682018060405250810190610de39190611e02565b90508015610f0a5760025460015460405163f3fef3a360e01b81526001600160a01b0391821660048201526024810184905291169063f3fef3a3906044015f604051808303815f87803b158015610e38575f80fd5b505af1158015610e4a573d5f803e3d5ffd5b50505050610ed6610e59610bab565b6001546040516370a0823160e01b81523060048201526001600160a01b03909116906370a0823190602401602060405180830381865afa158015610e9f573d5f803e3d5ffd5b505050506040513d601f19601f82011682018060405250810190610ec39190611e02565b6001546001600160a01b031691906111e7565b6040518181527f99d7f8b71cfb9126984f7a5eed3a40e64a8959e9b0e442221546fb04ec6a489c9060200160405180910390a15b50610ba960015f55565b6001600160a01b039182165f9081527f52c63247e1f47db19d5ce0460030c497f067ca4cebf71ba98eeadabe20bace016020908152604080832093909416825291909152205490565b610f65611319565b6001600160a01b038116610f8e57604051631e4fbdf760e01b81525f60048201526024016105a9565b610f9781611569565b50565b7ff0c57e16840df040f15088dc2f81fe391c3923bec73e23a9662efc9c229c6a008054600160401b810460ff16159067ffffffffffffffff165f81158015610fdf5750825b90505f8267ffffffffffffffff166001148015610ffb5750303b155b905081158015611009575080155b156110275760405163f92ee8a960e01b815260040160405180910390fd5b845467ffffffffffffffff19166001178555831561105157845460ff60401b1916600160401b1785555b6110a4604051806040016040528060148152602001731393d59254c814dd1c985d1959de4810dbdb595d60621b815250604051806040016040528060058152602001646e734e565360d81b8152506115d9565b6110ad896115eb565b6001600160a01b038816158015906110cd57506001600160a01b03871615155b80156110e157506001600160a01b03861615155b6110fd5760405162461bcd60e51b81526004016105a990611e51565b600380546001600160a01b03808b166001600160a01b031992831617909255600180548a84169083161790556002805492891692909116919091179055831561118057845460ff60401b19168555604051600181527fc7f505b2f371ae2175ee4913f4499e1f2633a7b5936321eed1cdaeb6115181d29060200160405180910390a15b505050505050505050565b60025f54036111ad57604051633ee5aeb560e01b815260040160405180910390fd5b60025f55565b6001600160a01b0382166111dc57604051634b637e8f60e11b81525f60048201526024016105a9565b61092c825f836115fc565b6040516001600160a01b0383811660248301526044820183905261124691859182169063a9059cbb906064015b604051602081830303815290604052915060e01b6020820180516001600160e01b038381831617835250505050611735565b505050565b6112468383836001611796565b5f6112638484610f14565b90505f198110156112b657818110156112a857604051637dc7a0d960e11b81526001600160a01b038416600482015260248101829052604481018390526064016105a9565b6112b684848484035f611796565b50505050565b6001600160a01b0383166112e557604051634b637e8f60e11b81525f60048201526024016105a9565b6001600160a01b03821661130e5760405163ec442f0560e01b81525f60048201526024016105a9565b6112468383836115fc565b33611322610bab565b6001600160a01b031614610ba95760405163118cdaa760e01b81523360048201526024016105a9565b306001600160a01b037f00000000000000000000000000000000000000000000000000000000000000001614806113d157507f00000000000000000000000000000000000000000000000000000000000000006001600160a01b03166113c55f80516020611fed833981519152546001600160a01b031690565b6001600160a01b031614155b15610ba95760405163703e46dd60e11b815260040160405180910390fd5b610f97611319565b816001600160a01b03166352d1902d6040518163ffffffff1660e01b8152600401602060405180830381865afa925050508015611451575060408051601f3d908101601f1916820190925261144e91810190611e02565b60015b61147957604051634c9c8ce360e01b81526001600160a01b03831660048201526024016105a9565b5f80516020611fed83398151915281146114a957604051632a87526960e21b8152600481018290526024016105a9565b611246838361187a565b306001600160a01b037f00000000000000000000000000000000000000000000000000000000000000001614610ba95760405163703e46dd60e11b815260040160405180910390fd5b6040516001600160a01b0384811660248301528381166044830152606482018390526112b69186918216906323b872dd90608401611214565b6001600160a01b03821661155e5760405163ec442f0560e01b81525f60048201526024016105a9565b61092c5f83836115fc565b7f9016d09d72d40fdae2fd8ceac6b6234c7706214fd39c1cd1e609a0528c19930080546001600160a01b031981166001600160a01b03848116918217845560405192169182907f8be0079c531659141344cd1fd0a4f28419497f9722a3daafe3b4186f6b6457e0905f90a3505050565b6115e16118cf565b61092c8282611918565b6115f36118cf565b610f9781611968565b5f80516020611fcd8339815191526001600160a01b0384166116365781816002015f82825461162b9190611e8e565b909155506116a69050565b6001600160a01b0384165f90815260208290526040902054828110156116885760405163391434e360e21b81526001600160a01b038616600482015260248101829052604481018490526064016105a9565b6001600160a01b0385165f9081526020839052604090209083900390555b6001600160a01b0383166116c45760028101805483900390556116e2565b6001600160a01b0383165f9081526020829052604090208054830190555b826001600160a01b0316846001600160a01b03167fddf252ad1be2c89b69c2b068fc378daa952ba7f163c4a11628f55a4df523b3ef8460405161172791815260200190565b60405180910390a350505050565b5f6117496001600160a01b03841683611970565b905080515f1415801561176d57508080602001905181019061176b9190611e6f565b155b1561124657604051635274afe760e01b81526001600160a01b03841660048201526024016105a9565b5f80516020611fcd8339815191526001600160a01b0385166117cd5760405163e602df0560e01b81525f60048201526024016105a9565b6001600160a01b0384166117f657604051634a1406b160e11b81525f60048201526024016105a9565b6001600160a01b038086165f9081526001830160209081526040808320938816835292905220839055811561187357836001600160a01b0316856001600160a01b03167f8c5be1e5ebec7d5bd14f71427d1e84f3dd0314c0f7b2291e5b200ac8c7c3b9258560405161186a91815260200190565b60405180910390a35b5050505050565b6118838261197d565b6040516001600160a01b038316907fbc7cd75a20ee27fd9adebab32041f755214dbc6bffa90cc0225b39da2e5c2d3b905f90a28051156118c75761124682826119e0565b61092c611a52565b7ff0c57e16840df040f15088dc2f81fe391c3923bec73e23a9662efc9c229c6a0054600160401b900460ff16610ba957604051631afcd79f60e31b815260040160405180910390fd5b6119206118cf565b5f80516020611fcd8339815191527f52c63247e1f47db19d5ce0460030c497f067ca4cebf71ba98eeadabe20bace036119598482611ef1565b50600481016112b68382611ef1565b610f656118cf565b606061084983835f611a71565b806001600160a01b03163b5f036119b257604051634c9c8ce360e01b81526001600160a01b03821660048201526024016105a9565b5f80516020611fed83398151915280546001600160a01b0319166001600160a01b0392909216919091179055565b60605f80846001600160a01b0316846040516119fc9190611fb1565b5f60405180830381855af49150503d805f8114611a34576040519150601f19603f3d011682016040523d82523d5f602084013e611a39565b606091505b5091509150611a49858383611b0a565b95945050505050565b3415610ba95760405163b398979f60e01b815260040160405180910390fd5b606081471015611a965760405163cd78605960e01b81523060048201526024016105a9565b5f80856001600160a01b03168486604051611ab19190611fb1565b5f6040518083038185875af1925050503d805f8114611aeb576040519150601f19603f3d011682016040523d82523d5f602084013e611af0565b606091505b5091509150611b00868383611b0a565b9695505050505050565b606082611b1f57611b1a82611b66565b610849565b8151158015611b3657506001600160a01b0384163b155b15611b5f57604051639996b31560e01b81526001600160a01b03851660048201526024016105a9565b5080610849565b805115611b765780518082602001fd5b604051630a12f52160e11b815260040160405180910390fd5b80356001600160a01b0381168114611ba5575f80fd5b919050565b5f8060408385031215611bbb575f80fd5b82359150611bcb60208401611b8f565b90509250929050565b5f5b83811015611bee578181015183820152602001611bd6565b50505f910152565b602081525f8251806020840152611c14816040850160208701611bd4565b601f01601f19169190910160400192915050565b5f8060408385031215611c39575f80fd5b611c4283611b8f565b946020939093013593505050565b5f805f60608486031215611c62575f80fd5b611c6b84611b8f565b9250611c7960208501611b8f565b9150604084013590509250925092565b634e487b7160e01b5f52604160045260245ffd5b5f8060408385031215611cae575f80fd5b611cb783611b8f565b9150602083013567ffffffffffffffff80821115611cd3575f80fd5b818501915085601f830112611ce6575f80fd5b813581811115611cf857611cf8611c89565b604051601f8201601f19908116603f01168101908382118183101715611d2057611d20611c89565b81604052828152886020848701011115611d38575f80fd5b826020860160208301375f6020848301015280955050505050509250929050565b5f60208284031215611d69575f80fd5b61084982611b8f565b5f60208284031215611d82575f80fd5b5035919050565b5f8060408385031215611d9a575f80fd5b611da383611b8f565b9150611bcb60208401611b8f565b5f805f8060808587031215611dc4575f80fd5b611dcd85611b8f565b9350611ddb60208601611b8f565b9250611de960408601611b8f565b9150611df760608601611b8f565b905092959194509250565b5f60208284031215611e12575f80fd5b5051919050565b600181811c90821680611e2d57607f821691505b602082108103611e4b57634e487b7160e01b5f52602260045260245ffd5b50919050565b6020808252600490820152637a65726f60e01b604082015260600190565b5f60208284031215611e7f575f80fd5b81518015158114610849575f80fd5b808201808211156106df57634e487b7160e01b5f52601160045260245ffd5b601f82111561124657805f5260205f20601f840160051c81016020851015611ed25750805b601f840160051c820191505b81811015611873575f8155600101611ede565b815167ffffffffffffffff811115611f0b57611f0b611c89565b611f1f81611f198454611e19565b84611ead565b602080601f831160018114611f52575f8415611f3b5750858301515b5f19600386901b1c1916600185901b178555611fa9565b5f85815260208120601f198616915b82811015611f8057888601518255948401946001909101908401611f61565b5085821015611f9d57878501515f19600388901b60f8161c191681555b505060018460011b0185555b505050505050565b5f8251611fc2818460208701611bd4565b919091019291505056fe52c63247e1f47db19d5ce0460030c497f067ca4cebf71ba98eeadabe20bace00360894a13ba1a3210667c828492db98dca3e2076cc3735a920a3ca505d382bbca26469706673582212206b586216261cbce71e9206358944cdc9efc452aef6f321ca97ed54cc8ab3b0cb64736f6c63430008180033","linkReferences":{}},"methodIdentifiers":{"UPGRADE_INTERFACE_VERSION()":"ad3cb1cc","allowance(address,address)":"dd62ed3e","approve(address,uint256)":"095ea7b3","asset()":"38d52e0f","balanceOf(address)":"70a08231","comet()":"ba3e9c12","decimals()":"313ce567","deposit(uint256,address)":"6e553f65","emergencyWithdraw()":"db2e21bc","initialize(address,address,address,address)":"f8c8765e","name()":"06fdde03","owner()":"8da5cb5b","proxiableUUID()":"52d1902d","renounceOwnership()":"715018a6","rescueETH(uint256)":"9e252f00","rescueToken(address,uint256)":"33f3d628","setComet(address)":"d9b3bba8","setVault(address)":"6817031b","symbol()":"95d89b41","totalAssets()":"01e1d114","totalSupply()":"18160ddd","transfer(address,uint256)":"a9059cbb","transferFrom(address,address,uint256)":"23b872dd","transferOwnership(address)":"f2fde38b","upgradeToAndCall(address,bytes)":"4f1ef286","usdc()":"3e413bee","vault()":"fbfa77cf","version()":"54fd4d50","withdraw(uint256,address)":"00f714ce"},"id":38}