{"abi":[{"type":"constructor","inputs":[],"stateMutability":"nonpayable"},{"type":"receive","stateMutability":"payable"},{"type":"function","name":"BPS_DENOMINATOR","inputs":[],"outputs":[{"name":"","type":"uint16","internalType":"uint16"}],"stateMutability":"view"},{"type":"function","name":"UPGRADE_INTERFACE_VERSION","inputs":[],"outputs":[{"name":"","type":"string","internalType":"string"}],"stateMutability":"view"},{"type":"function","name":"allocate","inputs":[{"name":"usdcAmount","type":"uint256","internalType":"uint256"}],"outputs":[],"stateMutability":"nonpayable"},{"type":"function","name":"autoBurnEnabled","inputs":[],"outputs":[{"name":"","type":"bool","internalType":"bool"}],"stateMutability":"view"},{"type":"function","name":"autoSlippageBps","inputs":[],"outputs":[{"name":"","type":"uint16","internalType":"uint16"}],"stateMutability":"view"},{"type":"function","name":"backingBps","inputs":[],"outputs":[{"name":"","type":"uint256","internalType":"uint256"}],"stateMutability":"view"},{"type":"function","name":"bufferBps","inputs":[],"outputs":[{"name":"","type":"uint256","internalType":"uint256"}],"stateMutability":"view"},{"type":"function","name":"bufferUSDC","inputs":[],"outputs":[{"name":"buffer","type":"uint256","internalType":"uint256"},{"name":"theoreticalUSDC","type":"uint256","internalType":"uint256"}],"stateMutability":"view"},{"type":"function","name":"buyAndBurn","inputs":[{"name":"usdcAmount","type":"uint256","internalType":"uint256"},{"name":"minNovisOut","type":"uint256","internalType":"uint256"}],"outputs":[],"stateMutability":"nonpayable"},{"type":"function","name":"buyAndBurnEnabled","inputs":[],"outputs":[{"name":"","type":"bool","internalType":"bool"}],"stateMutability":"view"},{"type":"function","name":"canBuyAndBurn","inputs":[],"outputs":[{"name":"","type":"bool","internalType":"bool"}],"stateMutability":"view"},{"type":"function","name":"cooldown","inputs":[],"outputs":[{"name":"","type":"uint32","internalType":"uint32"}],"stateMutability":"view"},{"type":"function","name":"deallocate","inputs":[{"name":"shares","type":"uint256","internalType":"uint256"}],"outputs":[],"stateMutability":"nonpayable"},{"type":"function","name":"deposit","inputs":[{"name":"usdcAmount","type":"uint256","internalType":"uint256"}],"outputs":[],"stateMutability":"nonpayable"},{"type":"function","name":"executeBuyAndBurn","inputs":[{"name":"usdcAmount","type":"uint256","internalType":"uint256"},{"name":"minNovisOut","type":"uint256","internalType":"uint256"}],"outputs":[],"stateMutability":"nonpayable"},{"type":"function","name":"factory","inputs":[],"outputs":[{"name":"","type":"address","internalType":"address"}],"stateMutability":"view"},{"type":"function","name":"initialize","inputs":[{"name":"_owner","type":"address","internalType":"address"},{"name":"_usdc","type":"address","internalType":"address"},{"name":"_novis","type":"address","internalType":"address"},{"name":"_router","type":"address","internalType":"address"},{"name":"_factory","type":"address","internalType":"address"},{"name":"_treasury","type":"address","internalType":"address"}],"outputs":[],"stateMutability":"nonpayable"},{"type":"function","name":"lastBuyAndBurn","inputs":[],"outputs":[{"name":"","type":"uint256","internalType":"uint256"}],"stateMutability":"view"},{"type":"function","name":"maxBuyAndBurnUSDC","inputs":[],"outputs":[{"name":"","type":"uint256","internalType":"uint256"}],"stateMutability":"view"},{"type":"function","name":"maxBuyBps","inputs":[],"outputs":[{"name":"","type":"uint16","internalType":"uint16"}],"stateMutability":"view"},{"type":"function","name":"novis","inputs":[],"outputs":[{"name":"","type":"address","internalType":"contract INOVISv2"}],"stateMutability":"view"},{"type":"function","name":"owner","inputs":[],"outputs":[{"name":"","type":"address","internalType":"address"}],"stateMutability":"view"},{"type":"function","name":"pause","inputs":[],"outputs":[],"stateMutability":"nonpayable"},{"type":"function","name":"paused","inputs":[],"outputs":[{"name":"","type":"bool","internalType":"bool"}],"stateMutability":"view"},{"type":"function","name":"poolStable","inputs":[],"outputs":[{"name":"","type":"bool","internalType":"bool"}],"stateMutability":"view"},{"type":"function","name":"proxiableUUID","inputs":[],"outputs":[{"name":"","type":"bytes32","internalType":"bytes32"}],"stateMutability":"view"},{"type":"function","name":"redeem","inputs":[{"name":"novisAmount","type":"uint256","internalType":"uint256"}],"outputs":[],"stateMutability":"nonpayable"},{"type":"function","name":"renounceOwnership","inputs":[],"outputs":[],"stateMutability":"nonpayable"},{"type":"function","name":"rescueETH","inputs":[{"name":"amount","type":"uint256","internalType":"uint256"}],"outputs":[],"stateMutability":"nonpayable"},{"type":"function","name":"rescueToken","inputs":[{"name":"token","type":"address","internalType":"address"},{"name":"amount","type":"uint256","internalType":"uint256"}],"outputs":[],"stateMutability":"nonpayable"},{"type":"function","name":"router","inputs":[],"outputs":[{"name":"","type":"address","internalType":"contract IAerodromeRouter"}],"stateMutability":"view"},{"type":"function","name":"setAutoSlippageBps","inputs":[{"name":"_slippageBps","type":"uint16","internalType":"uint16"}],"outputs":[],"stateMutability":"nonpayable"},{"type":"function","name":"setBuyAndBurnParams","inputs":[{"name":"_triggerBufferBps","type":"uint16","internalType":"uint16"},{"name":"_maxBuyBps","type":"uint16","internalType":"uint16"},{"name":"_treasuryFeeBps","type":"uint16","internalType":"uint16"},{"name":"_cooldown","type":"uint32","internalType":"uint32"}],"outputs":[],"stateMutability":"nonpayable"},{"type":"function","name":"setFactory","inputs":[{"name":"_factory","type":"address","internalType":"address"}],"outputs":[],"stateMutability":"nonpayable"},{"type":"function","name":"setPoolStable","inputs":[{"name":"_stable","type":"bool","internalType":"bool"}],"outputs":[],"stateMutability":"nonpayable"},{"type":"function","name":"setRouter","inputs":[{"name":"_router","type":"address","internalType":"address"}],"outputs":[],"stateMutability":"nonpayable"},{"type":"function","name":"setStrategy","inputs":[{"name":"_strategy","type":"address","internalType":"address"}],"outputs":[],"stateMutability":"nonpayable"},{"type":"function","name":"setTreasury","inputs":[{"name":"_treasury","type":"address","internalType":"address"}],"outputs":[],"stateMutability":"nonpayable"},{"type":"function","name":"strategy","inputs":[],"outputs":[{"name":"","type":"address","internalType":"contract IStrategy"}],"stateMutability":"view"},{"type":"function","name":"toggleAutoBurn","inputs":[{"name":"_enabled","type":"bool","internalType":"bool"}],"outputs":[],"stateMutability":"nonpayable"},{"type":"function","name":"toggleBuyAndBurn","inputs":[{"name":"_enabled","type":"bool","internalType":"bool"}],"outputs":[],"stateMutability":"nonpayable"},{"type":"function","name":"totalBackingUSDC","inputs":[],"outputs":[{"name":"","type":"uint256","internalType":"uint256"}],"stateMutability":"view"},{"type":"function","name":"transferOwnership","inputs":[{"name":"newOwner","type":"address","internalType":"address"}],"outputs":[],"stateMutability":"nonpayable"},{"type":"function","name":"transferTokenOwnership","inputs":[{"name":"newOwner","type":"address","internalType":"address"}],"outputs":[],"stateMutability":"nonpayable"},{"type":"function","name":"treasury","inputs":[],"outputs":[{"name":"","type":"address","internalType":"address"}],"stateMutability":"view"},{"type":"function","name":"treasuryFeeBps","inputs":[],"outputs":[{"name":"","type":"uint16","internalType":"uint16"}],"stateMutability":"view"},{"type":"function","name":"triggerBufferBps","inputs":[],"outputs":[{"name":"","type":"uint16","internalType":"uint16"}],"stateMutability":"view"},{"type":"function","name":"unpause","inputs":[],"outputs":[],"stateMutability":"nonpayable"},{"type":"function","name":"upgradeToAndCall","inputs":[{"name":"newImplementation","type":"address","internalType":"address"},{"name":"data","type":"bytes","internalType":"bytes"}],"outputs":[],"stateMutability":"payable"},{"type":"function","name":"usdc","inputs":[],"outputs":[{"name":"","type":"address","internalType":"contract IERC20"}],"stateMutability":"view"},{"type":"function","name":"vaultUSDC","inputs":[],"outputs":[{"name":"","type":"uint256","internalType":"uint256"}],"stateMutability":"view"},{"type":"function","name":"version","inputs":[],"outputs":[{"name":"","type":"string","internalType":"string"}],"stateMutability":"pure"},{"type":"event","name":"Allocated","inputs":[{"name":"usdcAmount","type":"uint256","indexed":false,"internalType":"uint256"},{"name":"sharesReceived","type":"uint256","indexed":false,"internalType":"uint256"}],"anonymous":false},{"type":"event","name":"AutoBurnToggled","inputs":[{"name":"enabled","type":"bool","indexed":false,"internalType":"bool"}],"anonymous":false},{"type":"event","name":"AutoBuyAndBurnFailed","inputs":[{"name":"reason","type":"string","indexed":false,"internalType":"string"}],"anonymous":false},{"type":"event","name":"BuyAndBurn","inputs":[{"name":"caller","type":"address","indexed":true,"internalType":"address"},{"name":"usdcSpent","type":"uint256","indexed":false,"internalType":"uint256"},{"name":"novisBurned","type":"uint256","indexed":false,"internalType":"uint256"},{"name":"treasuryFee","type":"uint256","indexed":false,"internalType":"uint256"},{"name":"newBackingBps","type":"uint256","indexed":false,"internalType":"uint256"}],"anonymous":false},{"type":"event","name":"BuyAndBurnParamsSet","inputs":[{"name":"triggerBps","type":"uint16","indexed":false,"internalType":"uint16"},{"name":"maxBuyBps","type":"uint16","indexed":false,"internalType":"uint16"},{"name":"treasuryFeeBps","type":"uint16","indexed":false,"internalType":"uint16"},{"name":"cooldown","type":"uint32","indexed":false,"internalType":"uint32"}],"anonymous":false},{"type":"event","name":"BuyAndBurnToggled","inputs":[{"name":"enabled","type":"bool","indexed":false,"internalType":"bool"}],"anonymous":false},{"type":"event","name":"Deallocated","inputs":[{"name":"sharesBurned","type":"uint256","indexed":false,"internalType":"uint256"},{"name":"usdcReceived","type":"uint256","indexed":false,"internalType":"uint256"}],"anonymous":false},{"type":"event","name":"Deposit","inputs":[{"name":"user","type":"address","indexed":true,"internalType":"address"},{"name":"usdcAmount","type":"uint256","indexed":false,"internalType":"uint256"},{"name":"novisMinted","type":"uint256","indexed":false,"internalType":"uint256"}],"anonymous":false},{"type":"event","name":"ETHRescued","inputs":[{"name":"amount","type":"uint256","indexed":false,"internalType":"uint256"}],"anonymous":false},{"type":"event","name":"Initialized","inputs":[{"name":"version","type":"uint64","indexed":false,"internalType":"uint64"}],"anonymous":false},{"type":"event","name":"OwnershipTransferred","inputs":[{"name":"previousOwner","type":"address","indexed":true,"internalType":"address"},{"name":"newOwner","type":"address","indexed":true,"internalType":"address"}],"anonymous":false},{"type":"event","name":"Paused","inputs":[{"name":"account","type":"address","indexed":false,"internalType":"address"}],"anonymous":false},{"type":"event","name":"Redeem","inputs":[{"name":"user","type":"address","indexed":true,"internalType":"address"},{"name":"novisBurned","type":"uint256","indexed":false,"internalType":"uint256"},{"name":"usdcReturned","type":"uint256","indexed":false,"internalType":"uint256"}],"anonymous":false},{"type":"event","name":"RouterSet","inputs":[{"name":"router","type":"address","indexed":true,"internalType":"address"}],"anonymous":false},{"type":"event","name":"StrategySet","inputs":[{"name":"strategy","type":"address","indexed":true,"internalType":"address"}],"anonymous":false},{"type":"event","name":"TokenOwnershipTransferred","inputs":[{"name":"newOwner","type":"address","indexed":true,"internalType":"address"}],"anonymous":false},{"type":"event","name":"TokensRescued","inputs":[{"name":"token","type":"address","indexed":true,"internalType":"address"},{"name":"amount","type":"uint256","indexed":false,"internalType":"uint256"}],"anonymous":false},{"type":"event","name":"TreasurySet","inputs":[{"name":"treasury","type":"address","indexed":true,"internalType":"address"}],"anonymous":false},{"type":"event","name":"Unpaused","inputs":[{"name":"account","type":"address","indexed":false,"internalType":"address"}],"anonymous":false},{"type":"event","name":"Upgraded","inputs":[{"name":"implementation","type":"address","indexed":true,"internalType":"address"}],"anonymous":false},{"type":"error","name":"AddressEmptyCode","inputs":[{"name":"target","type":"address","internalType":"address"}]},{"type":"error","name":"AddressInsufficientBalance","inputs":[{"name":"account","type":"address","internalType":"address"}]},{"type":"error","name":"ERC1967InvalidImplementation","inputs":[{"name":"implementation","type":"address","internalType":"address"}]},{"type":"error","name":"ERC1967NonPayable","inputs":[]},{"type":"error","name":"EnforcedPause","inputs":[]},{"type":"error","name":"ExpectedPause","inputs":[]},{"type":"error","name":"FailedInnerCall","inputs":[]},{"type":"error","name":"InvalidInitialization","inputs":[]},{"type":"error","name":"NotInitializing","inputs":[]},{"type":"error","name":"OwnableInvalidOwner","inputs":[{"name":"owner","type":"address","internalType":"address"}]},{"type":"error","name":"OwnableUnauthorizedAccount","inputs":[{"name":"account","type":"address","internalType":"address"}]},{"type":"error","name":"ReentrancyGuardReentrantCall","inputs":[]},{"type":"error","name":"SafeERC20FailedOperation","inputs":[{"name":"token","type":"address","internalType":"address"}]},{"type":"error","name":"UUPSUnauthorizedCallContext","inputs":[]},{"type":"error","name":"UUPSUnsupportedProxiableUUID","inputs":[{"name":"slot","type":"bytes32","internalType":"bytes32"}]}],"bytecode":{"object":"0x60a06040523060805234801562000014575f80fd5b5060015f556200002362000029565b620000dd565b7ff0c57e16840df040f15088dc2f81fe391c3923bec73e23a9662efc9c229c6a00805468010000000000000000900460ff16156200007a5760405163f92ee8a960e01b815260040160405180910390fd5b80546001600160401b0390811614620000da5780546001600160401b0319166001600160401b0390811782556040519081527fc7f505b2f371ae2175ee4913f4499e1f2633a7b5936321eed1cdaeb6115181d29060200160405180910390a15b50565b6080516133b7620001045f395f8181611f6501528181611f8e01526120cd01526133b75ff3fe6080604052600436106102f6575f3560e01c806390ca796b11610189578063cb50d0ba116100d8578063e80cfa5e11610092578063f0f442601161006d578063f0f44260146108d4578063f2fde38b146108f3578063f887ea4014610912578063ffc149da14610931575f80fd5b8063e80cfa5e1461087e578063edc8b8e51461089f578063ef2046a7146108c0575f80fd5b8063cb50d0ba146107b7578063cc2a9a5b146107d6578063db006a75146107f5578063df80a52314610814578063dfb3f51a14610848578063e1a4521814610869575f80fd5b8063ad3cb1cc11610143578063c37b63371161011e578063c37b633714610750578063c45a015514610764578063c5175a1e14610783578063cac71bb6146107a2575f80fd5b8063ad3cb1cc146106e2578063b6b55f2514610712578063c0d7865514610731575f80fd5b806390ca796b1461063a5780639dd255da146106595780639e252f0014610677578063a6b857d014610696578063a8c62e76146106af578063ab5ab48c146106ce575f80fd5b80635c975abb11610245578063787a08a6116101ff57806389842e92116101da57806389842e92146105ca57806389b968dc146105e95780638a8f773f146106125780638da5cb5b14610626575f80fd5b8063787a08a61461056a578063820dfa0a146105a25780638456cb59146105b6575f80fd5b80635c975abb146104ab57806361d027b3146104da578063670cdc4f146104f95780636f6c441f14610518578063715018a614610537578063759d58441461054b575f80fd5b806337eb4f8f116102b05780634f1ef2861161028b5780634f1ef2861461042f57806352d1902d1461044257806354fd4d50146104565780635bb478081461048c575f80fd5b806337eb4f8f146103c55780633e413bee146103fc5780633f4ba83a1461041b575f80fd5b806309ad7cad1461030157806319a56b011461032257806321e6b53d1461034157806333a100ca1461036057806333f3d6281461037f578063361094551461039e575f80fd5b366102fd57005b5f80fd5b34801561030c575f80fd5b5061032061031b366004612d20565b610950565b005b34801561032d575f80fd5b5061032061033c366004612d51565b6109a0565b34801561034c575f80fd5b5061032061035b366004612d7e565b610a12565b34801561036b575f80fd5b5061032061037a366004612d7e565b610ad0565b34801561038a575f80fd5b50610320610399366004612d99565b610c1d565b3480156103a9575f80fd5b506103b2610d88565b6040519081526020015b60405180910390f35b3480156103d0575f80fd5b506002546103e4906001600160a01b031681565b6040516001600160a01b0390911681526020016103bc565b348015610407575f80fd5b506001546103e4906001600160a01b031681565b348015610426575f80fd5b50610320610e5f565b61032061043d366004612e04565b610e71565b34801561044d575f80fd5b506103b2610e90565b348015610461575f80fd5b506040805180820190915260058152640312e312e360dc1b60208201525b6040516103bc9190612ecc565b348015610497575f80fd5b506103206104a6366004612d7e565b610eac565b3480156104b6575f80fd5b505f805160206133628339815191525460ff165b60405190151581526020016103bc565b3480156104e5575f80fd5b506006546103e4906001600160a01b031681565b348015610504575f80fd5b50610320610513366004612efe565b610efc565b348015610523575f80fd5b50610320610532366004612f1e565b61106f565b348015610542575f80fd5b5061032061116b565b348015610556575f80fd5b50610320610565366004612d20565b61117c565b348015610575575f80fd5b5060065461058d90600160e01b900463ffffffff1681565b60405163ffffffff90911681526020016103bc565b3480156105ad575f80fd5b506104ca6111a0565b3480156105c1575f80fd5b506103206111f5565b3480156105d5575f80fd5b506103206105e4366004612f35565b611205565b3480156105f4575f80fd5b506105fd611303565b604080519283526020830191909152016103bc565b34801561061d575f80fd5b506103b26113b7565b348015610631575f80fd5b506103e4611421565b348015610645575f80fd5b50610320610654366004612f1e565b61144f565b348015610664575f80fd5b506008546104ca90610100900460ff1681565b348015610682575f80fd5b50610320610691366004612f1e565b6115b6565b3480156106a1575f80fd5b506008546104ca9060ff1681565b3480156106ba575f80fd5b506005546103e4906001600160a01b031681565b3480156106d9575f80fd5b506103b2611684565b3480156106ed575f80fd5b5061047f604051806040016040528060058152602001640352e302e360dc1b81525081565b34801561071d575f80fd5b5061032061072c366004612f1e565b6116be565b34801561073c575f80fd5b5061032061074b366004612d7e565b6117e0565b34801561075b575f80fd5b506103b2611857565b34801561076f575f80fd5b506004546103e4906001600160a01b031681565b34801561078e575f80fd5b5061032061079d366004612efe565b611885565b3480156107ad575f80fd5b506103b260075481565b3480156107c2575f80fd5b506008546104ca9062010000900460ff1681565b3480156107e1575f80fd5b506103206107f0366004612f90565b6118ca565b348015610800575f80fd5b5061032061080f366004612f1e565b611af3565b34801561081f575f80fd5b5060065461083590600160d01b900461ffff1681565b60405161ffff90911681526020016103bc565b348015610853575f80fd5b5060065461083590600160b01b900461ffff1681565b348015610874575f80fd5b5061083561271081565b348015610889575f80fd5b5060065461083590600160c01b900461ffff1681565b3480156108aa575f80fd5b5060065461083590600160a01b900461ffff1681565b3480156108cb575f80fd5b506103b2611cf1565b3480156108df575f80fd5b506103206108ee366004612d7e565b611d8f565b3480156108fe575f80fd5b5061032061090d366004612d7e565b611de0565b34801561091d575f80fd5b506003546103e4906001600160a01b031681565b34801561093c575f80fd5b5061032061094b366004612d20565b611e1a565b610958611e6b565b6008805460ff19168215159081179091556040519081527fa2f7bdae623c9dd6f7d6e7aed0b764cf282f9b80768c00582bfad352f04fd7e6906020015b60405180910390a150565b6109a8611e6b565b6107d08161ffff1611156109f05760405162461bcd60e51b81526004016109e7906020808252600490820152633e32302560e01b604082015260600190565b60405180910390fd5b6006805461ffff909216600160d01b0261ffff60d01b19909216919091179055565b610a1a611e6b565b6001600160a01b038116610a405760405162461bcd60e51b81526004016109e79061300e565b60025460405163f2fde38b60e01b81526001600160a01b0383811660048301529091169063f2fde38b906024015f604051808303815f87803b158015610a84575f80fd5b505af1158015610a96573d5f803e3d5ffd5b50506040516001600160a01b03841692507f286c0f711d43c1602559a3b4946805984ec0c75f1e4818f159665a73740c346091505f90a250565b610ad8611e6b565b6001600160a01b038116610b2357600580546001600160a01b03191690556040515f907fe70d79dad95c835bdd87e9cf4665651c9e5abb3b756e4fd2bf45f29c95c3aa40908290a250565b600154604080516338d52e0f60e01b815290516001600160a01b03928316928416916338d52e0f9160048083019260209291908290030181865afa158015610b6d573d5f803e3d5ffd5b505050506040513d601f19601f82011682018060405250810190610b91919061302c565b6001600160a01b031614610bd35760405162461bcd60e51b815260206004820152600960248201526818985908185cdcd95d60ba1b60448201526064016109e7565b600580546001600160a01b0319166001600160a01b0383169081179091556040517fe70d79dad95c835bdd87e9cf4665651c9e5abb3b756e4fd2bf45f29c95c3aa40905f90a25b50565b610c25611e6b565b6001546001600160a01b0390811690831603610d25575f64e8d4a5100060025f9054906101000a90046001600160a01b03166001600160a01b03166318160ddd6040518163ffffffff1660e01b8152600401602060405180830381865afa158015610c92573d5f803e3d5ffd5b505050506040513d601f19601f82011682018060405250810190610cb69190613047565b610cc09190613072565b90505f610ccb611cf1565b90508181118015610ce55750610ce18282613091565b8311155b610d225760405162461bcd60e51b815260206004820152600e60248201526d657863656564732065786365737360901b60448201526064016109e7565b50505b610d41610d30611421565b6001600160a01b0384169083611e9d565b816001600160a01b03167f68f67de89e96b13a3ea058af5fd44cc125efceb528482d539c7b43db2faa066e82604051610d7c91815260200190565b60405180910390a25050565b5f80610d92611cf1565b90505f60025f9054906101000a90046001600160a01b03166001600160a01b03166318160ddd6040518163ffffffff1660e01b8152600401602060405180830381865afa158015610de5573d5f803e3d5ffd5b505050506040513d601f19601f82011682018060405250810190610e099190613047565b9050805f03610e1c575061271092915050565b5f610e2c64e8d4a5100083613072565b9050805f03610e4057506127109392505050565b80610e4d612710856130a4565b610e579190613072565b935050505090565b610e67611e6b565b610e6f611f01565b565b610e79611f5a565b610e8282611ffe565b610e8c8282612006565b5050565b5f610e996120c2565b505f805160206133428339815191525b90565b610eb4611e6b565b6001600160a01b038116610eda5760405162461bcd60e51b81526004016109e79061300e565b600480546001600160a01b0319166001600160a01b0392909216919091179055565b610f0461210b565b60085460ff16610f415760405162461bcd60e51b8152602060048201526008602482015267191a5cd8589b195960c21b60448201526064016109e7565b600654600160a01b900461ffff16610f57611857565b1015610f965760405162461bcd60e51b815260206004820152600e60248201526d62756666657220746f6f206c6f7760901b60448201526064016109e7565b600654600754610fb391600160e01b900463ffffffff16906130bb565b421015610fed5760405162461bcd60e51b815260206004820152600860248201526731b7b7b63237bbb760c11b60448201526064016109e7565b5f82118015610ffb57505f81115b6110175760405162461bcd60e51b81526004016109e79061300e565b61101f611684565b82111561105c5760405162461bcd60e51b815260206004820152600b60248201526a0caf0c6cacac8e640dac2f60ab1b60448201526064016109e7565b6110668282612133565b610e8c60015f55565b611077611e6b565b61107f61210b565b6005546001600160a01b03161580159061109857505f81115b6110b45760405162461bcd60e51b81526004016109e7906130ce565b600554604051627b8a6760e11b8152600481018390523060248201525f916001600160a01b03169062f714ce906044016020604051808303815f875af1158015611100573d5f803e3d5ffd5b505050506040513d601f19601f820116820180604052508101906111249190613047565b60408051848152602081018390529192507f45c7b09725b519c56f6c8002e81499c39ba974a242e07699ea72bc0417607dff91015b60405180910390a150610c1a60015f55565b611173611e6b565b610e6f5f6124ee565b611184611e6b565b60088054911515620100000262ff000019909216919091179055565b6008545f9060ff1680156111c85750600654600160a01b900461ffff166111c5611857565b10155b80156111f057506006546007546111ec91600160e01b900463ffffffff16906130bb565b4210155b905090565b6111fd611e6b565b610e6f61255e565b61120d611e6b565b61271061ffff841611801590611229575061271061ffff831611155b6112455760405162461bcd60e51b81526004016109e7906130ce565b6006805463ffffffff60a01b1916600160a01b61ffff87811691820261ffff60b01b191692909217600160b01b87841690810291909117600163ffff000160c01b0316600160c01b9387169384026001600160e01b031617600160e01b63ffffffff87169081029190911790945560408051928352602083019190915281019190915260608101919091527f669b30f129410a8fc63031ffd482207dd1747799f3ab6d418bdf617e4c7e55d29060800160405180910390a150505050565b5f805f61130e611cf1565b90505f60025f9054906101000a90046001600160a01b03166001600160a01b03166318160ddd6040518163ffffffff1660e01b8152600401602060405180830381865afa158015611361573d5f803e3d5ffd5b505050506040513d601f19601f820116820180604052508101906113859190613047565b905061139664e8d4a5100082613072565b92508282116113a5575f6113af565b6113af8383613091565b935050509091565b6001546040516370a0823160e01b81523060048201525f916001600160a01b0316906370a0823190602401602060405180830381865afa1580156113fd573d5f803e3d5ffd5b505050506040513d601f19601f820116820180604052508101906111f09190613047565b7f9016d09d72d40fdae2fd8ceac6b6234c7706214fd39c1cd1e609a0528c199300546001600160a01b031690565b611457611e6b565b61145f61210b565b6005546001600160a01b03161580159061147857505f81115b6114945760405162461bcd60e51b81526004016109e7906130ce565b60015460055460405163095ea7b360e01b81526001600160a01b0391821660048201526024810184905291169063095ea7b3906044016020604051808303815f875af11580156114e6573d5f803e3d5ffd5b505050506040513d601f19601f8201168201806040525081019061150a91906130ef565b50600554604051636e553f6560e01b8152600481018390523060248201525f916001600160a01b031690636e553f65906044016020604051808303815f875af1158015611559573d5f803e3d5ffd5b505050506040513d601f19601f8201168201806040525081019061157d9190613047565b60408051848152602081018390529192507f06686aaa593b19d01617ac400575a79693899102504b038ef5e3371ff51e4d9f9101611159565b6115be611e6b565b5f6115c7611421565b6001600160a01b0316826040515f6040518083038185875af1925050503d805f811461160e576040519150601f19603f3d011682016040523d82523d5f602084013e611613565b606091505b505090508061164d5760405162461bcd60e51b815260206004820152600660248201526519985a5b195960d21b60448201526064016109e7565b6040518281527f2935defdd9ec65bb02dc9049597c404aae26083909722b8e4ecd474eea640a909060200160405180910390a15050565b5f8061168e611303565b50600654909150612710906116ae90600160b01b900461ffff16836130a4565b6116b89190613072565b91505090565b6116c66125a6565b6116ce61210b565b5f811161170b5760405162461bcd60e51b815260206004820152600b60248201526a616d6f756e74207a65726f60a81b60448201526064016109e7565b600154611723906001600160a01b03163330846125d6565b5f61173364e8d4a51000836130a4565b6002546040516340c10f1960e01b8152336004820152602481018390529192506001600160a01b0316906340c10f19906044015f604051808303815f87803b15801561177d575f80fd5b505af115801561178f573d5f803e3d5ffd5b505060408051858152602081018590523393507f90890809c654f11d6e72a28fa60149770a0d11ec6c92319d6ceb2bb0a4ea1a1592500160405180910390a26117d6612615565b50610c1a60015f55565b6117e8611e6b565b6001600160a01b03811661180e5760405162461bcd60e51b81526004016109e79061300e565b600380546001600160a01b0319166001600160a01b0383169081179091556040517fc6b438e6a8a59579ce6a4406cbd203b740e0d47b458aae6596339bcd40c40d15905f90a250565b5f80611861610d88565b905061271081111561187e5761187961271082613091565b6116b8565b5f91505090565b3330146118c05760405162461bcd60e51b815260206004820152600960248201526837b7363c9039b2b63360b91b60448201526064016109e7565b610e8c8282612133565b7ff0c57e16840df040f15088dc2f81fe391c3923bec73e23a9662efc9c229c6a008054600160401b810460ff16159067ffffffffffffffff165f8115801561190f5750825b90505f8267ffffffffffffffff16600114801561192b5750303b155b905081158015611939575080155b156119575760405163f92ee8a960e01b815260040160405180910390fd5b845467ffffffffffffffff19166001178555831561198157845460ff60401b1916600160401b1785555b61198a8b61283d565b61199261284e565b6001600160a01b038a16158015906119b257506001600160a01b03891615155b80156119c657506001600160a01b03881615155b80156119da57506001600160a01b03871615155b611a125760405162461bcd60e51b81526020600482015260096024820152683d32b9379030b2323960b91b60448201526064016109e7565b600180546001600160a01b03199081166001600160a01b038d8116919091179092556002805482168c84161790556003805482168b841617905560048054909116898316179055600680549188166001600160b01b031990921691909117607d60a31b176001600160b01b0316672a30003e807d027160b31b1790556008805461010162ffffff199091161790558315611ae657845460ff60401b19168555604051600181527fc7f505b2f371ae2175ee4913f4499e1f2633a7b5936321eed1cdaeb6115181d29060200160405180910390a15b5050505050505050505050565b611afb6125a6565b611b0361210b565b5f8111611b405760405162461bcd60e51b815260206004820152600b60248201526a616d6f756e74207a65726f60a81b60448201526064016109e7565b5f611b5064e8d4a5100083613072565b90505f8111611b945760405162461bcd60e51b815260206004820152601060248201526f185b5bdd5b9d081d1bdbc81cdb585b1b60821b60448201526064016109e7565b6001546040516370a0823160e01b81523060048201525f916001600160a01b0316906370a0823190602401602060405180830381865afa158015611bda573d5f803e3d5ffd5b505050506040513d601f19601f82011682018060405250810190611bfe9190613047565b905081811015611c1a57611c1a611c158284613091565b612856565b600254611c32906001600160a01b03163330866125d6565b600254604051630852cd8d60e31b8152600481018590526001600160a01b03909116906342966c68906024015f604051808303815f87803b158015611c75575f80fd5b505af1158015611c87573d5f803e3d5ffd5b5050600154611ca392506001600160a01b031690503384611e9d565b604080518481526020810184905233917fe5b754fb1abb7f01b499791d0b820ae3b6af3424ac1c59768edb53f4ec31a929910160405180910390a2611ce6612615565b5050610c1a60015f55565b6005545f906001600160a01b0316611d09575f611d7d565b60055f9054906101000a90046001600160a01b03166001600160a01b03166301e1d1146040518163ffffffff1660e01b8152600401602060405180830381865afa158015611d59573d5f803e3d5ffd5b505050506040513d601f19601f82011682018060405250810190611d7d9190613047565b611d856113b7565b6111f091906130bb565b611d97611e6b565b600680546001600160a01b0319166001600160a01b0383169081179091556040517f3c864541ef71378c6229510ed90f376565ee42d9c5e0904a984a9e863e6db44f905f90a250565b611de8611e6b565b6001600160a01b038116611e1157604051631e4fbdf760e01b81525f60048201526024016109e7565b610c1a816124ee565b611e22611e6b565b600880548215156101000261ff00199091161790556040517f78fc20422fbd33cc7aef5e4e1c182fdc815f20c1c15af2ff53e83c223017dbf89061099590831515815260200190565b33611e74611421565b6001600160a01b031614610e6f5760405163118cdaa760e01b81523360048201526024016109e7565b6040516001600160a01b03838116602483015260448201839052611efc91859182169063a9059cbb906064015b604051602081830303815290604052915060e01b6020820180516001600160e01b0383818316178352505050506129b3565b505050565b611f09612a14565b5f80516020613362833981519152805460ff191681557f5db9ee0a495bf2e6ff9c91a7834c1ba4fdd244a5e8aa4e537bd38aeae4b073aa335b6040516001600160a01b039091168152602001610995565b306001600160a01b037f0000000000000000000000000000000000000000000000000000000000000000161480611fe057507f00000000000000000000000000000000000000000000000000000000000000006001600160a01b0316611fd45f80516020613342833981519152546001600160a01b031690565b6001600160a01b031614155b15610e6f5760405163703e46dd60e11b815260040160405180910390fd5b610c1a611e6b565b816001600160a01b03166352d1902d6040518163ffffffff1660e01b8152600401602060405180830381865afa925050508015612060575060408051601f3d908101601f1916820190925261205d91810190613047565b60015b61208857604051634c9c8ce360e01b81526001600160a01b03831660048201526024016109e7565b5f8051602061334283398151915281146120b857604051632a87526960e21b8152600481018290526024016109e7565b611efc8383612a43565b306001600160a01b037f00000000000000000000000000000000000000000000000000000000000000001614610e6f5760405163703e46dd60e11b815260040160405180910390fd5b60025f540361212d57604051633ee5aeb560e01b815260040160405180910390fd5b60025f55565b6001546040516370a0823160e01b81523060048201525f916001600160a01b0316906370a0823190602401602060405180830381865afa158015612179573d5f803e3d5ffd5b505050506040513d601f19601f8201168201806040525081019061219d9190613047565b9050828110156121b4576121b4611c158285613091565b6006545f90612710906121d290600160c01b900461ffff16866130a4565b6121dc9190613072565b90505f6121e98286613091565b90505f8211801561220457506006546001600160a01b031615155b1561222657600654600154612226916001600160a01b03918216911684611e9d565b60015460035460405163095ea7b360e01b81526001600160a01b0391821660048201526024810184905291169063095ea7b3906044016020604051808303815f875af1158015612278573d5f803e3d5ffd5b505050506040513d601f19601f8201168201806040525081019061229c91906130ef565b506040805160018082528183019092525f91816020015b604080516080810182525f8082526020808301829052928201819052606082015282525f199092019101816122b357905050604080516080810182526001546001600160a01b0390811682526002548116602083015260085462010000900460ff16151592820192909252600454909116606082015281519192509082905f9061233f5761233f61310a565b60209081029190910101526003545f906001600160a01b031663cac88ea98488853061236d426102586130bb565b6040518663ffffffff1660e01b815260040161238d95949392919061311e565b5f604051808303815f875af11580156123a8573d5f803e3d5ffd5b505050506040513d5f823e601f3d908101601f191682016040526123cf91908101906131c1565b90505f81600183516123e19190613091565b815181106123f1576123f161310a565b60200260200101519050868110156124365760405162461bcd60e51b8152602060048201526008602482015267736c69707061676560c01b60448201526064016109e7565b600254604051630852cd8d60e31b8152600481018390526001600160a01b03909116906342966c68906024015f604051808303815f87803b158015612479575f80fd5b505af115801561248b573d5f803e3d5ffd5b505042600755503090507f43d5ca07d16cb34153ec6a6da0a7d227c02bd8d588f899c1195cf377bf2db0aa8983886124c1610d88565b60408051948552602085019390935291830152606082015260800160405180910390a25050505050505050565b7f9016d09d72d40fdae2fd8ceac6b6234c7706214fd39c1cd1e609a0528c19930080546001600160a01b031981166001600160a01b03848116918217845560405192169182907f8be0079c531659141344cd1fd0a4f28419497f9722a3daafe3b4186f6b6457e0905f90a3505050565b6125666125a6565b5f80516020613362833981519152805460ff191660011781557f62e78cea01bee320cd4e420270b5ea74000d11b0c9f74754ebdbfc544b05a25833611f42565b5f805160206133628339815191525460ff1615610e6f5760405163d93c066560e01b815260040160405180910390fd5b6040516001600160a01b03848116602483015283811660448301526064820183905261260f9186918216906323b872dd90608401611eca565b50505050565b600854610100900460ff16158061262f575060085460ff16155b1561263657565b600654600160a01b900461ffff1661264c611857565b1080612673575060065460075461267091600160e01b900463ffffffff16906130bb565b42105b1561267a57565b5f612683611684565b9050805f0361268f5750565b5f61269b600283613072565b9050620f42408110156126ac575050565b6006545f90612710906126ca90600160c01b900461ffff16846130a4565b6126d49190613072565b90505f6126e18284613091565b6006549091505f906127109061270290600160d01b900461ffff1682613263565b61ffff1661271564e8d4a51000856130a4565b61271f91906130a4565b6127299190613072565b60405163628bad0f60e11b81526004810186905260248101829052909150309063c5175a1e906044015f604051808303815f87803b158015612769575f80fd5b505af192505050801561277a575060015b61283657612786613285565b806308c379a0036127e2575061279a61329d565b806127a557506127e4565b7fd314414cc11b710b92b9ef782f355a959b4d2023600c36fd87115ca5b4683a8b816040516127d49190612ecc565b60405180910390a150612836565b505b7fd314414cc11b710b92b9ef782f355a959b4d2023600c36fd87115ca5b4683a8b60405161282d906020808252600790820152663ab735b737bbb760c91b604082015260600190565b60405180910390a15b5050505050565b612845612a98565b610c1a81612ae1565b610e6f612a98565b6005546001600160a01b031661289c5760405162461bcd60e51b815260206004820152600b60248201526a6e6f20737472617465677960a81b60448201526064016109e7565b600554604080516278744560e21b8152905183926001600160a01b0316916301e1d1149160048083019260209291908290030181865afa1580156128e2573d5f803e3d5ffd5b505050506040513d601f19601f820116820180604052508101906129069190613047565b10156129435760405162461bcd60e51b815260206004820152600c60248201526b1a5b9cdd59999a58da595b9d60a21b60448201526064016109e7565b600554604051627b8a6760e11b8152600481018390523060248201526001600160a01b039091169062f714ce906044016020604051808303815f875af115801561298f573d5f803e3d5ffd5b505050506040513d601f19601f82011682018060405250810190610e8c9190613047565b5f6129c76001600160a01b03841683612ae9565b905080515f141580156129eb5750808060200190518101906129e991906130ef565b155b15611efc57604051635274afe760e01b81526001600160a01b03841660048201526024016109e7565b5f805160206133628339815191525460ff16610e6f57604051638dfc202b60e01b815260040160405180910390fd5b612a4c82612aff565b6040516001600160a01b038316907fbc7cd75a20ee27fd9adebab32041f755214dbc6bffa90cc0225b39da2e5c2d3b905f90a2805115612a9057611efc8282612b62565b610e8c612bd4565b7ff0c57e16840df040f15088dc2f81fe391c3923bec73e23a9662efc9c229c6a0054600160401b900460ff16610e6f57604051631afcd79f60e31b815260040160405180910390fd5b611de8612a98565b6060612af683835f612bf3565b90505b92915050565b806001600160a01b03163b5f03612b3457604051634c9c8ce360e01b81526001600160a01b03821660048201526024016109e7565b5f8051602061334283398151915280546001600160a01b0319166001600160a01b0392909216919091179055565b60605f80846001600160a01b031684604051612b7e9190613326565b5f60405180830381855af49150503d805f8114612bb6576040519150601f19603f3d011682016040523d82523d5f602084013e612bbb565b606091505b5091509150612bcb858383612c8e565b95945050505050565b3415610e6f5760405163b398979f60e01b815260040160405180910390fd5b606081471015612c185760405163cd78605960e01b81523060048201526024016109e7565b5f80856001600160a01b03168486604051612c339190613326565b5f6040518083038185875af1925050503d805f8114612c6d576040519150601f19603f3d011682016040523d82523d5f602084013e612c72565b606091505b5091509150612c82868383612c8e565b925050505b9392505050565b606082612ca357612c9e82612cea565b612c87565b8151158015612cba57506001600160a01b0384163b155b15612ce357604051639996b31560e01b81526001600160a01b03851660048201526024016109e7565b5080612c87565b805115612cfa5780518082602001fd5b604051630a12f52160e11b815260040160405180910390fd5b8015158114610c1a575f80fd5b5f60208284031215612d30575f80fd5b8135612c8781612d13565b803561ffff81168114612d4c575f80fd5b919050565b5f60208284031215612d61575f80fd5b612af682612d3b565b6001600160a01b0381168114610c1a575f80fd5b5f60208284031215612d8e575f80fd5b8135612c8781612d6a565b5f8060408385031215612daa575f80fd5b8235612db581612d6a565b946020939093013593505050565b634e487b7160e01b5f52604160045260245ffd5b601f8201601f1916810167ffffffffffffffff81118282101715612dfd57612dfd612dc3565b6040525050565b5f8060408385031215612e15575f80fd5b8235612e2081612d6a565b915060208381013567ffffffffffffffff80821115612e3d575f80fd5b818601915086601f830112612e50575f80fd5b813581811115612e6257612e62612dc3565b6040519150612e7a601f8201601f1916850183612dd7565b8082528784828501011115612e8d575f80fd5b80848401858401375f848284010152508093505050509250929050565b5f5b83811015612ec4578181015183820152602001612eac565b50505f910152565b602081525f8251806020840152612eea816040850160208701612eaa565b601f01601f19169190910160400192915050565b5f8060408385031215612f0f575f80fd5b50508035926020909101359150565b5f60208284031215612f2e575f80fd5b5035919050565b5f805f8060808587031215612f48575f80fd5b612f5185612d3b565b9350612f5f60208601612d3b565b9250612f6d60408601612d3b565b9150606085013563ffffffff81168114612f85575f80fd5b939692955090935050565b5f805f805f8060c08789031215612fa5575f80fd5b8635612fb081612d6a565b95506020870135612fc081612d6a565b94506040870135612fd081612d6a565b93506060870135612fe081612d6a565b92506080870135612ff081612d6a565b915060a087013561300081612d6a565b809150509295509295509295565b6020808252600490820152637a65726f60e01b604082015260600190565b5f6020828403121561303c575f80fd5b8151612c8781612d6a565b5f60208284031215613057575f80fd5b5051919050565b634e487b7160e01b5f52601160045260245ffd5b5f8261308c57634e487b7160e01b5f52601260045260245ffd5b500490565b81810381811115612af957612af961305e565b8082028115828204841417612af957612af961305e565b80820180821115612af957612af961305e565b6020808252600790820152661a5b9d985b1a5960ca1b604082015260600190565b5f602082840312156130ff575f80fd5b8151612c8781612d13565b634e487b7160e01b5f52603260045260245ffd5b5f60a082018783526020876020850152604060a0604086015282885180855260c08701915060208a0194505f5b8181101561319557855180516001600160a01b039081168552868201518116878601528582015115158686015260609182015116908401529484019460809092019160010161314b565b50506001600160a01b038816606087015293506131b192505050565b8260808301529695505050505050565b5f60208083850312156131d2575f80fd5b825167ffffffffffffffff808211156131e9575f80fd5b818501915085601f8301126131fc575f80fd5b81518181111561320e5761320e612dc3565b8060051b915060405161322385840182612dd7565b8181529183018401918481018884111561323b575f80fd5b938501935b838510156132575784518152938501938501613240565b50979650505050505050565b61ffff82811682821603908082111561327e5761327e61305e565b5092915050565b5f60033d1115610ea95760045f803e505f5160e01c90565b5f60443d10156132aa5790565b6040516003193d81016004833e81513d67ffffffffffffffff81602484011181841117156132da57505050505090565b82850191508151818111156132f25750505050505090565b843d870101602082850101111561330c5750505050505090565b61331b60208286010187612dd7565b509095945050505050565b5f8251613337818460208701612eaa565b919091019291505056fe360894a13ba1a3210667c828492db98dca3e2076cc3735a920a3ca505d382bbccd5ed15c6e187e77e9aee88184c21f4f2182ab5827cb3b7e07fbedcd63f03300a26469706673582212204f9889e9f1a491a486c04b2374a1b02a1f5f8118604922d863001ec8219d9eb764736f6c63430008180033","linkReferences":{}},"methodIdentifiers":{"BPS_DENOMINATOR()":"e1a45218","UPGRADE_INTERFACE_VERSION()":"ad3cb1cc","allocate(uint256)":"90ca796b","autoBurnEnabled()":"9dd255da","autoSlippageBps()":"df80a523","backingBps()":"36109455","bufferBps()":"c37b6337","bufferUSDC()":"89b968dc","buyAndBurn(uint256,uint256)":"670cdc4f","buyAndBurnEnabled()":"a6b857d0","canBuyAndBurn()":"820dfa0a","cooldown()":"787a08a6","deallocate(uint256)":"6f6c441f","deposit(uint256)":"b6b55f25","executeBuyAndBurn(uint256,uint256)":"c5175a1e","factory()":"c45a0155","initialize(address,address,address,address,address,address)":"cc2a9a5b","lastBuyAndBurn()":"cac71bb6","maxBuyAndBurnUSDC()":"ab5ab48c","maxBuyBps()":"dfb3f51a","novis()":"37eb4f8f","owner()":"8da5cb5b","pause()":"8456cb59","paused()":"5c975abb","poolStable()":"cb50d0ba","proxiableUUID()":"52d1902d","redeem(uint256)":"db006a75","renounceOwnership()":"715018a6","rescueETH(uint256)":"9e252f00","rescueToken(address,uint256)":"33f3d628","router()":"f887ea40","setAutoSlippageBps(uint16)":"19a56b01","setBuyAndBurnParams(uint16,uint16,uint16,uint32)":"89842e92","setFactory(address)":"5bb47808","setPoolStable(bool)":"759d5844","setRouter(address)":"c0d78655","setStrategy(address)":"33a100ca","setTreasury(address)":"f0f44260","strategy()":"a8c62e76","toggleAutoBurn(bool)":"ffc149da","toggleBuyAndBurn(bool)":"09ad7cad","totalBackingUSDC()":"ef2046a7","transferOwnership(address)":"f2fde38b","transferTokenOwnership(address)":"21e6b53d","treasury()":"61d027b3","treasuryFeeBps()":"e80cfa5e","triggerBufferBps()":"edc8b8e5","unpause()":"3f4ba83a","upgradeToAndCall(address,bytes)":"4f1ef286","usdc()":"3e413bee","vaultUSDC()":"8a8f773f","version()":"54fd4d50"},"id":15}