{"abi":[{"type":"constructor","inputs":[{"name":"_owner","type":"address","internalType":"address"},{"name":"_vault","type":"address","internalType":"address"},{"name":"_usdc","type":"address","internalType":"address"},{"name":"_fortUSD","type":"address","internalType":"address"},{"name":"_router","type":"address","internalType":"address"},{"name":"_factory","type":"address","internalType":"address"},{"name":"_stable","type":"bool","internalType":"bool"},{"name":"_triggerBufferBps","type":"uint16","internalType":"uint16"},{"name":"_maxBuyBufferPctBps","type":"uint16","internalType":"uint16"},{"name":"_cooldown","type":"uint32","internalType":"uint32"}],"stateMutability":"nonpayable"},{"type":"function","name":"BPS_DENOMINATOR","inputs":[],"outputs":[{"name":"","type":"uint16","internalType":"uint16"}],"stateMutability":"view"},{"type":"function","name":"backingBps","inputs":[],"outputs":[{"name":"","type":"uint256","internalType":"uint256"}],"stateMutability":"view"},{"type":"function","name":"bufferBps","inputs":[],"outputs":[{"name":"","type":"uint256","internalType":"uint256"}],"stateMutability":"view"},{"type":"function","name":"bufferUSDC","inputs":[],"outputs":[{"name":"buffer","type":"uint256","internalType":"uint256"},{"name":"theoreticalUSDC","type":"uint256","internalType":"uint256"}],"stateMutability":"view"},{"type":"function","name":"buyAndBurn","inputs":[{"name":"usdcAmount","type":"uint256","internalType":"uint256"},{"name":"minFortOut","type":"uint256","internalType":"uint256"}],"outputs":[],"stateMutability":"nonpayable"},{"type":"function","name":"cooldown","inputs":[],"outputs":[{"name":"","type":"uint32","internalType":"uint32"}],"stateMutability":"view"},{"type":"function","name":"fortUSD","inputs":[],"outputs":[{"name":"","type":"address","internalType":"contract EUSDv3Premint"}],"stateMutability":"view"},{"type":"function","name":"lastBuyAndBurn","inputs":[],"outputs":[{"name":"","type":"uint256","internalType":"uint256"}],"stateMutability":"view"},{"type":"function","name":"maxBuyBufferPctBps","inputs":[],"outputs":[{"name":"","type":"uint16","internalType":"uint16"}],"stateMutability":"view"},{"type":"function","name":"owner","inputs":[],"outputs":[{"name":"","type":"address","internalType":"address"}],"stateMutability":"view"},{"type":"function","name":"renounceOwnership","inputs":[],"outputs":[],"stateMutability":"nonpayable"},{"type":"function","name":"route","inputs":[{"name":"","type":"uint256","internalType":"uint256"}],"outputs":[{"name":"from","type":"address","internalType":"address"},{"name":"to","type":"address","internalType":"address"},{"name":"stable","type":"bool","internalType":"bool"},{"name":"factory","type":"address","internalType":"address"}],"stateMutability":"view"},{"type":"function","name":"router","inputs":[],"outputs":[{"name":"","type":"address","internalType":"contract IAerodromeRouter"}],"stateMutability":"view"},{"type":"function","name":"setCooldown","inputs":[{"name":"_cooldown","type":"uint32","internalType":"uint32"}],"outputs":[],"stateMutability":"nonpayable"},{"type":"function","name":"setMaxBuyBufferPctBps","inputs":[{"name":"_maxBuyBufferPctBps","type":"uint16","internalType":"uint16"}],"outputs":[],"stateMutability":"nonpayable"},{"type":"function","name":"setRoute","inputs":[{"name":"_from","type":"address","internalType":"address"},{"name":"_to","type":"address","internalType":"address"},{"name":"_stable","type":"bool","internalType":"bool"},{"name":"_factory","type":"address","internalType":"address"}],"outputs":[],"stateMutability":"nonpayable"},{"type":"function","name":"setTriggerBufferBps","inputs":[{"name":"_triggerBufferBps","type":"uint16","internalType":"uint16"}],"outputs":[],"stateMutability":"nonpayable"},{"type":"function","name":"transferOwnership","inputs":[{"name":"newOwner","type":"address","internalType":"address"}],"outputs":[],"stateMutability":"nonpayable"},{"type":"function","name":"triggerBufferBps","inputs":[],"outputs":[{"name":"","type":"uint16","internalType":"uint16"}],"stateMutability":"view"},{"type":"function","name":"usdc","inputs":[],"outputs":[{"name":"","type":"address","internalType":"contract IERC20"}],"stateMutability":"view"},{"type":"function","name":"vault","inputs":[],"outputs":[{"name":"","type":"address","internalType":"contract IVaultLike"}],"stateMutability":"view"},{"type":"event","name":"BuyAndBurn","inputs":[{"name":"caller","type":"address","indexed":true,"internalType":"address"},{"name":"usdcIn","type":"uint256","indexed":false,"internalType":"uint256"},{"name":"fortBurned","type":"uint256","indexed":false,"internalType":"uint256"},{"name":"backingBps","type":"uint256","indexed":false,"internalType":"uint256"},{"name":"bufferBps","type":"uint256","indexed":false,"internalType":"uint256"}],"anonymous":false},{"type":"event","name":"OwnershipTransferred","inputs":[{"name":"previousOwner","type":"address","indexed":true,"internalType":"address"},{"name":"newOwner","type":"address","indexed":true,"internalType":"address"}],"anonymous":false},{"type":"error","name":"OwnableInvalidOwner","inputs":[{"name":"owner","type":"address","internalType":"address"}]},{"type":"error","name":"OwnableUnauthorizedAccount","inputs":[{"name":"account","type":"address","internalType":"address"}]},{"type":"error","name":"ReentrancyGuardReentrantCall","inputs":[]}],"bytecode":{"object":"0x61010060405234801562000011575f80fd5b50604051620019c2380380620019c2833981016040819052620000349162000406565b896001600160a01b0381166200006457604051631e4fbdf760e01b81525f60048201526024015b60405180910390fd5b6200006f8162000389565b50600180556001600160a01b038a16620000bd5760405162461bcd60e51b815260206004820152600e60248201526d42423a206f776e6572207a65726f60901b60448201526064016200005b565b6001600160a01b038916620001065760405162461bcd60e51b815260206004820152600e60248201526d42423a207661756c74207a65726f60901b60448201526064016200005b565b6001600160a01b0388166200014e5760405162461bcd60e51b815260206004820152600d60248201526c42423a2075736463207a65726f60981b60448201526064016200005b565b6001600160a01b038716620001965760405162461bcd60e51b815260206004820152600d60248201526c42423a20666f7274207a65726f60981b60448201526064016200005b565b6001600160a01b038616620001e05760405162461bcd60e51b815260206004820152600f60248201526e42423a20726f75746572207a65726f60881b60448201526064016200005b565b6001600160a01b0385166200022b5760405162461bcd60e51b815260206004820152601060248201526f42423a20666163746f7279207a65726f60801b60448201526064016200005b565b6001600160a01b03988916608090815297891660a081905296891660c081905295891660e0526003805463ffffffff9092166401000000000263ffffffff60201b1961ffff948516620100000263ffffffff19909416949095169390931791909117929092161781556040805196870181529486526020860193845290151593850193845290851660608501908152600280546001810182555f919091529451949091027f405787fa12a823e0f2b7631cc41b3ba8828b3321ca811111fa75cd3aa3bb5ace810180549587166001600160a01b031996871617905591517f405787fa12a823e0f2b7631cc41b3ba8828b3321ca811111fa75cd3aa3bb5acf8301805494511515600160a01b026001600160a81b0319909516918716919091179390931790925590517f405787fa12a823e0f2b7631cc41b3ba8828b3321ca811111fa75cd3aa3bb5ad0909101805491909316911617905550620004df565b5f80546001600160a01b038381166001600160a01b0319831681178455604051919092169283917f8be0079c531659141344cd1fd0a4f28419497f9722a3daafe3b4186f6b6457e09190a35050565b80516001600160a01b0381168114620003ef575f80fd5b919050565b805161ffff81168114620003ef575f80fd5b5f805f805f805f805f806101408b8d03121562000421575f80fd5b6200042c8b620003d8565b99506200043c60208c01620003d8565b98506200044c60408c01620003d8565b97506200045c60608c01620003d8565b96506200046c60808c01620003d8565b95506200047c60a08c01620003d8565b945060c08b0151801515811462000491575f80fd5b9350620004a160e08c01620003f4565b9250620004b26101008c01620003f4565b91506101208b015163ffffffff81168114620004cc575f80fd5b809150509295989b9194979a5092959850565b60805160a05160c05160e051611462620005605f395f8181610327015281816109b101528181610a610152610b9101525f81816101bd0152818161046601528181610cba0152610e3001525f818161016b015281816108df015281816109df0152610a9001525f818161034e015281816103e30152610dad01526114625ff3fe608060405234801561000f575f80fd5b5060043610610132575f3560e01c8063b980c78f116100b4578063e1a4521811610079578063e1a45218146102e5578063edc8b8e5146102ee578063f2fde38b146102fc578063f8718c5a1461030f578063f887ea4014610322578063fbfa77cf14610349575f80fd5b8063b980c78f14610254578063be7cfc331461029a578063c37b6337146102ad578063cac71bb6146102b5578063dd857df8146102be575f80fd5b8063670cdc4f116100fa578063670cdc4f146101df578063715018a6146101f2578063787a08a6146101fa57806389b968dc146102275780638da5cb5b14610244575f80fd5b80630c79a48214610136578063361094551461014b5780633e413bee1461016657806342fc0fac146101a55780634b4cb884146101b8575b5f80fd5b6101496101443660046110ea565b610370565b005b6101536103df565b6040519081526020015b60405180910390f35b61018d7f000000000000000000000000000000000000000000000000000000000000000081565b6040516001600160a01b03909116815260200161015d565b6101496101b336600461113a565b610536565b61018d7f000000000000000000000000000000000000000000000000000000000000000081565b6101496101ed36600461118d565b6106b7565b610149610d95565b60035461021290640100000000900463ffffffff1681565b60405163ffffffff909116815260200161015d565b61022f610da8565b6040805192835260208301919091520161015d565b5f546001600160a01b031661018d565b6102676102623660046111ad565b610ee4565b604080516001600160a01b039586168152938516602085015291151591830191909152909116606082015260800161015d565b6101496102a83660046110ea565b610f2f565b610153610f4f565b61015360045481565b6003546102d29062010000900461ffff1681565b60405161ffff909116815260200161015d565b6102d261271081565b6003546102d29061ffff1681565b61014961030a3660046111c4565b610f7d565b61014961031d3660046111dd565b610fba565b61018d7f000000000000000000000000000000000000000000000000000000000000000081565b61018d7f000000000000000000000000000000000000000000000000000000000000000081565b610378610fea565b61271061ffff821611156103bf5760405162461bcd60e51b815260206004820152600960248201526842423a203e3130302560b81b60448201526064015b60405180910390fd5b6003805461ffff909216620100000263ffff000019909216919091179055565b5f807f00000000000000000000000000000000000000000000000000000000000000006001600160a01b031663ef2046a76040518163ffffffff1660e01b8152600401602060405180830381865afa15801561043d573d5f803e3d5ffd5b505050506040513d601f19601f820116820180604052508101906104619190611200565b90505f7f00000000000000000000000000000000000000000000000000000000000000006001600160a01b03166318160ddd6040518163ffffffff1660e01b8152600401602060405180830381865afa1580156104c0573d5f803e3d5ffd5b505050506040513d601f19601f820116820180604052508101906104e49190611200565b9050805f036104f5575f9250505090565b5f61050564e8d4a510008361122b565b9050805f03610517575f935050505090565b806105246127108561124a565b61052e919061122b565b935050505090565b61053e610fea565b6001600160a01b0384161580159061055e57506001600160a01b03831615155b801561057257506001600160a01b03811615155b6105ae5760405162461bcd60e51b815260206004820152600d60248201526c21211d103d32b9379030b2323960991b60448201526064016103b6565b6105b960025f61108f565b604080516080810182526001600160a01b0395861681529385166020850190815292151590840190815290841660608401908152600280546001810182555f91909152935160039094027f405787fa12a823e0f2b7631cc41b3ba8828b3321ca811111fa75cd3aa3bb5ace810180549587166001600160a01b031996871617905592517f405787fa12a823e0f2b7631cc41b3ba8828b3321ca811111fa75cd3aa3bb5acf8401805493511515600160a01b026001600160a81b03199094169187169190911792909217909155517f405787fa12a823e0f2b7631cc41b3ba8828b3321ca811111fa75cd3aa3bb5ad09091018054919093169116179055565b6106bf611016565b5f82116106fd5760405162461bcd60e51b815260206004820152600c60248201526b042423a20616d6f756e743d360a41b60448201526064016103b6565b5f811161073b5760405162461bcd60e51b815260206004820152600c60248201526b042423a206d696e4f75743d360a41b60448201526064016103b6565b5f610744610f4f565b60035490915061ffff168110156107925760405162461bcd60e51b815260206004820152601260248201527142423a2062756666657220746f6f206c6f7760701b60448201526064016103b6565b600354640100000000900463ffffffff1615610804576003546004546107c691640100000000900463ffffffff1690611267565b4210156108045760405162461bcd60e51b815260206004820152600c60248201526b21211d1031b7b7b63237bbb760a11b60448201526064016103b6565b5f61080d610da8565b5090505f811161084f5760405162461bcd60e51b815260206004820152600d60248201526c21211d10373790313ab33332b960991b60448201526064016103b6565b6003545f906127109061086c9062010000900461ffff168461124a565b610876919061122b565b9050808511156108c85760405162461bcd60e51b815260206004820152601960248201527f42423a2065786365656473207065722d7478206275666665720000000000000060448201526064016103b6565b6040516370a0823160e01b81523060048201525f907f00000000000000000000000000000000000000000000000000000000000000006001600160a01b0316906370a0823190602401602060405180830381865afa15801561092c573d5f803e3d5ffd5b505050506040513d601f19601f820116820180604052508101906109509190611200565b90508581101561099a5760405162461bcd60e51b815260206004820152601560248201527442423a20696e73756666696369656e74205553444360581b60448201526064016103b6565b60405163095ea7b360e01b81526001600160a01b037f0000000000000000000000000000000000000000000000000000000000000000811660048301525f60248301527f0000000000000000000000000000000000000000000000000000000000000000169063095ea7b3906044016020604051808303815f875af1158015610a25573d5f803e3d5ffd5b505050506040513d601f19601f82011682018060405250810190610a49919061127a565b5060405163095ea7b360e01b81526001600160a01b037f000000000000000000000000000000000000000000000000000000000000000081166004830152602482018890527f0000000000000000000000000000000000000000000000000000000000000000169063095ea7b3906044016020604051808303815f875af1158015610ad6573d5f803e3d5ffd5b505050506040513d601f19601f82011682018060405250810190610afa919061127a565b505f6002805480602002602001604051908101604052809291908181526020015f905b82821015610b88575f848152602090819020604080516080810182526003860290920180546001600160a01b03908116845260018083015480831686880152600160a01b900460ff161515938501939093526002909101541660608301529083529092019101610b1d565b5050505090505f7f00000000000000000000000000000000000000000000000000000000000000006001600160a01b031663cac88ea98989853042610258610bd09190611267565b6040518663ffffffff1660e01b8152600401610bf0959493929190611295565b5f604051808303815f875af1158015610c0b573d5f803e3d5ffd5b505050506040513d5f823e601f3d908101601f19168201604052610c32919081019061134c565b90505f8160018351610c449190611405565b81518110610c5457610c54611418565b6020026020010151905087811015610ca45760405162461bcd60e51b815260206004820152601360248201527210908e881d1bdbc81b1a5d1d1b1948119bdc9d606a1b60448201526064016103b6565b604051630852cd8d60e31b8152600481018290527f00000000000000000000000000000000000000000000000000000000000000006001600160a01b0316906342966c68906024015f604051808303815f87803b158015610d03575f80fd5b505af1158015610d15573d5f803e3d5ffd5b505042600455505f9050610d276103df565b90505f610d32610f4f565b604080518d8152602081018690529081018490526060810182905290915033907f43d5ca07d16cb34153ec6a6da0a7d227c02bd8d588f899c1195cf377bf2db0aa9060800160405180910390a2505050505050505050610d9160018055565b5050565b610d9d610fea565b610da65f611040565b565b5f805f7f00000000000000000000000000000000000000000000000000000000000000006001600160a01b031663ef2046a76040518163ffffffff1660e01b8152600401602060405180830381865afa158015610e07573d5f803e3d5ffd5b505050506040513d601f19601f82011682018060405250810190610e2b9190611200565b90505f7f00000000000000000000000000000000000000000000000000000000000000006001600160a01b03166318160ddd6040518163ffffffff1660e01b8152600401602060405180830381865afa158015610e8a573d5f803e3d5ffd5b505050506040513d601f19601f82011682018060405250810190610eae9190611200565b9050610ebf64e8d4a510008261122b565b925082821115610eda57610ed38383611405565b9350610ede565b5f93505b50509091565b60028181548110610ef3575f80fd5b5f9182526020909120600390910201805460018201546002909201546001600160a01b03918216935081831692600160a01b900460ff16911684565b610f37610fea565b6003805461ffff191661ffff92909216919091179055565b5f80610f596103df565b90506127108111610f6b575f91505090565b610f7761271082611405565b91505090565b610f85610fea565b6001600160a01b038116610fae57604051631e4fbdf760e01b81525f60048201526024016103b6565b610fb781611040565b50565b610fc2610fea565b6003805463ffffffff9092166401000000000267ffffffff0000000019909216919091179055565b5f546001600160a01b03163314610da65760405163118cdaa760e01b81523360048201526024016103b6565b60026001540361103957604051633ee5aeb560e01b815260040160405180910390fd5b6002600155565b5f80546001600160a01b038381166001600160a01b0319831681178455604051919092169283917f8be0079c531659141344cd1fd0a4f28419497f9722a3daafe3b4186f6b6457e09190a35050565b5080545f8255600302905f5260205f2090810190610fb791905b808211156110e65780546001600160a01b031990811682556001820180546001600160a81b031916905560028201805490911690556003016110a9565b5090565b5f602082840312156110fa575f80fd5b813561ffff8116811461110b575f80fd5b9392505050565b80356001600160a01b0381168114611128575f80fd5b919050565b8015158114610fb7575f80fd5b5f805f806080858703121561114d575f80fd5b61115685611112565b935061116460208601611112565b925060408501356111748161112d565b915061118260608601611112565b905092959194509250565b5f806040838503121561119e575f80fd5b50508035926020909101359150565b5f602082840312156111bd575f80fd5b5035919050565b5f602082840312156111d4575f80fd5b61110b82611112565b5f602082840312156111ed575f80fd5b813563ffffffff8116811461110b575f80fd5b5f60208284031215611210575f80fd5b5051919050565b634e487b7160e01b5f52601160045260245ffd5b5f8261124557634e487b7160e01b5f52601260045260245ffd5b500490565b808202811582820484141761126157611261611217565b92915050565b8082018082111561126157611261611217565b5f6020828403121561128a575f80fd5b815161110b8161112d565b5f60a082018783526020876020850152604060a0604086015282885180855260c08701915060208a0194505f5b8181101561130c57855180516001600160a01b03908116855286820151811687860152858201511515868601526060918201511690840152948401946080909201916001016112c2565b50506001600160a01b0388166060870152935061132892505050565b8260808301529695505050505050565b634e487b7160e01b5f52604160045260245ffd5b5f602080838503121561135d575f80fd5b825167ffffffffffffffff80821115611374575f80fd5b818501915085601f830112611387575f80fd5b81518181111561139957611399611338565b8060051b604051601f19603f830116810181811085821117156113be576113be611338565b6040529182528482019250838101850191888311156113db575f80fd5b938501935b828510156113f9578451845293850193928501926113e0565b98975050505050505050565b8181038181111561126157611261611217565b634e487b7160e01b5f52603260045260245ffdfea264697066735822122016545e31ddc2b88d5a1c4ffd7d9036881394a0451330662d9e78f7e38c4dbd8964736f6c63430008180033","linkReferences":{}},"methodIdentifiers":{"BPS_DENOMINATOR()":"e1a45218","backingBps()":"36109455","bufferBps()":"c37b6337","bufferUSDC()":"89b968dc","buyAndBurn(uint256,uint256)":"670cdc4f","cooldown()":"787a08a6","fortUSD()":"4b4cb884","lastBuyAndBurn()":"cac71bb6","maxBuyBufferPctBps()":"dd857df8","owner()":"8da5cb5b","renounceOwnership()":"715018a6","route(uint256)":"b980c78f","router()":"f887ea40","setCooldown(uint32)":"f8718c5a","setMaxBuyBufferPctBps(uint16)":"0c79a482","setRoute(address,address,bool,address)":"42fc0fac","setTriggerBufferBps(uint16)":"be7cfc33","transferOwnership(address)":"f2fde38b","triggerBufferBps()":"edc8b8e5","usdc()":"3e413bee","vault()":"fbfa77cf"},"id":70}