{"abi":[{"type":"constructor","inputs":[{"name":"_vault","type":"address","internalType":"address"},{"name":"_eusd","type":"address","internalType":"address"},{"name":"_usdc","type":"address","internalType":"address"},{"name":"_strategy","type":"address","internalType":"address"}],"stateMutability":"nonpayable"},{"type":"function","name":"allocatedToday","inputs":[],"outputs":[{"name":"","type":"uint256","internalType":"uint256"}],"stateMutability":"view"},{"type":"function","name":"bandLowerUsdc","inputs":[],"outputs":[{"name":"","type":"uint256","internalType":"uint256"}],"stateMutability":"view"},{"type":"function","name":"bandUpperUsdc","inputs":[],"outputs":[{"name":"","type":"uint256","internalType":"uint256"}],"stateMutability":"view"},{"type":"function","name":"capsLeft","inputs":[],"outputs":[{"name":"allocLeft","type":"uint256","internalType":"uint256"},{"name":"deallocLeft","type":"uint256","internalType":"uint256"}],"stateMutability":"view"},{"type":"function","name":"dailyAllocateCap","inputs":[],"outputs":[{"name":"","type":"uint256","internalType":"uint256"}],"stateMutability":"view"},{"type":"function","name":"dailyDeallocateCap","inputs":[],"outputs":[{"name":"","type":"uint256","internalType":"uint256"}],"stateMutability":"view"},{"type":"function","name":"deallocatedToday","inputs":[],"outputs":[{"name":"","type":"uint256","internalType":"uint256"}],"stateMutability":"view"},{"type":"function","name":"deviationUsdc","inputs":[],"outputs":[{"name":"","type":"int256","internalType":"int256"}],"stateMutability":"view"},{"type":"function","name":"eusd","inputs":[],"outputs":[{"name":"","type":"address","internalType":"address"}],"stateMutability":"view"},{"type":"function","name":"guardian","inputs":[],"outputs":[{"name":"","type":"address","internalType":"address"}],"stateMutability":"view"},{"type":"function","name":"lastReset","inputs":[],"outputs":[{"name":"","type":"uint256","internalType":"uint256"}],"stateMutability":"view"},{"type":"function","name":"lowerBps","inputs":[],"outputs":[{"name":"","type":"uint256","internalType":"uint256"}],"stateMutability":"view"},{"type":"function","name":"maxAllocatePerTx","inputs":[],"outputs":[{"name":"","type":"uint256","internalType":"uint256"}],"stateMutability":"view"},{"type":"function","name":"maxDeallocatePerTx","inputs":[],"outputs":[{"name":"","type":"uint256","internalType":"uint256"}],"stateMutability":"view"},{"type":"function","name":"owner","inputs":[],"outputs":[{"name":"","type":"address","internalType":"address"}],"stateMutability":"view"},{"type":"function","name":"pause","inputs":[],"outputs":[],"stateMutability":"nonpayable"},{"type":"function","name":"paused","inputs":[],"outputs":[{"name":"","type":"bool","internalType":"bool"}],"stateMutability":"view"},{"type":"function","name":"rebalance","inputs":[],"outputs":[],"stateMutability":"nonpayable"},{"type":"function","name":"setDailyCaps","inputs":[{"name":"_allocCap","type":"uint256","internalType":"uint256"},{"name":"_deallocCap","type":"uint256","internalType":"uint256"}],"outputs":[],"stateMutability":"nonpayable"},{"type":"function","name":"setGuardian","inputs":[{"name":"_guardian","type":"address","internalType":"address"}],"outputs":[],"stateMutability":"nonpayable"},{"type":"function","name":"setOwner","inputs":[{"name":"_owner","type":"address","internalType":"address"}],"outputs":[],"stateMutability":"nonpayable"},{"type":"function","name":"setParams","inputs":[{"name":"_targetBps","type":"uint256","internalType":"uint256"},{"name":"_upperBps","type":"uint256","internalType":"uint256"},{"name":"_lowerBps","type":"uint256","internalType":"uint256"}],"outputs":[],"stateMutability":"nonpayable"},{"type":"function","name":"setTxCaps","inputs":[{"name":"_maxAllocPerTx","type":"uint256","internalType":"uint256"},{"name":"_maxDeallocPerTx","type":"uint256","internalType":"uint256"}],"outputs":[],"stateMutability":"nonpayable"},{"type":"function","name":"strategy","inputs":[],"outputs":[{"name":"","type":"address","internalType":"address"}],"stateMutability":"view"},{"type":"function","name":"supplyEusd","inputs":[],"outputs":[{"name":"","type":"uint256","internalType":"uint256"}],"stateMutability":"view"},{"type":"function","name":"targetBps","inputs":[],"outputs":[{"name":"","type":"uint256","internalType":"uint256"}],"stateMutability":"view"},{"type":"function","name":"targetUsdc","inputs":[],"outputs":[{"name":"","type":"uint256","internalType":"uint256"}],"stateMutability":"view"},{"type":"function","name":"unpause","inputs":[],"outputs":[],"stateMutability":"nonpayable"},{"type":"function","name":"upperBps","inputs":[],"outputs":[{"name":"","type":"uint256","internalType":"uint256"}],"stateMutability":"view"},{"type":"function","name":"usdc","inputs":[],"outputs":[{"name":"","type":"address","internalType":"address"}],"stateMutability":"view"},{"type":"function","name":"vault","inputs":[],"outputs":[{"name":"","type":"address","internalType":"contract IVaultV2"}],"stateMutability":"view"},{"type":"event","name":"DailyCapsSet","inputs":[{"name":"dailyAllocateCap","type":"uint256","indexed":false,"internalType":"uint256"},{"name":"dailyDeallocateCap","type":"uint256","indexed":false,"internalType":"uint256"}],"anonymous":false},{"type":"event","name":"GuardianSet","inputs":[{"name":"guardian","type":"address","indexed":true,"internalType":"address"}],"anonymous":false},{"type":"event","name":"OwnerSet","inputs":[{"name":"owner","type":"address","indexed":true,"internalType":"address"}],"anonymous":false},{"type":"event","name":"ParamsSet","inputs":[{"name":"targetBps","type":"uint256","indexed":false,"internalType":"uint256"},{"name":"upperBps","type":"uint256","indexed":false,"internalType":"uint256"},{"name":"lowerBps","type":"uint256","indexed":false,"internalType":"uint256"}],"anonymous":false},{"type":"event","name":"Paused","inputs":[{"name":"by","type":"address","indexed":true,"internalType":"address"}],"anonymous":false},{"type":"event","name":"Rebalanced","inputs":[{"name":"deviationUSDC","type":"int256","indexed":false,"internalType":"int256"},{"name":"actionUSDC","type":"uint256","indexed":false,"internalType":"uint256"},{"name":"allocated","type":"bool","indexed":false,"internalType":"bool"}],"anonymous":false},{"type":"event","name":"TxCapsSet","inputs":[{"name":"maxAllocatePerTx","type":"uint256","indexed":false,"internalType":"uint256"},{"name":"maxDeallocatePerTx","type":"uint256","indexed":false,"internalType":"uint256"}],"anonymous":false},{"type":"event","name":"Unpaused","inputs":[{"name":"by","type":"address","indexed":true,"internalType":"address"}],"anonymous":false}],"bytecode":{"object":"0x6101006040526109c460025560c860035560c8600455640ba43b7400600555640ba43b7400600655642e90edd000600755642e90edd00060085534801562000045575f80fd5b50604051620012383803806200123883398101604081905262000068916200015f565b6001600160a01b038416158015906200008957506001600160a01b03831615155b80156200009e57506001600160a01b03821615155b620000db5760405162461bcd60e51b81526020600482015260096024820152683d32b9379030b2323960b91b604482015260640160405180910390fd5b6001600160a01b0380851660805283811660a05282811660c052811660e0525f80546001600160a01b03191633908117825542600b5560405190917f50146d0e3c60aa1d17a70635b05494f864e86144a2201275021014fbf08bafe291a250505050620001b9565b80516001600160a01b03811681146200015a575f80fd5b919050565b5f805f806080858703121562000173575f80fd5b6200017e8562000143565b93506200018e6020860162000143565b92506200019e6040860162000143565b9150620001ae6060860162000143565b905092959194509250565b60805160a05160c05160e051611028620002105f395f61037101525f61023201525f81816102e9015261058c01525f81816103d601528181610808015281816108e601528181610a2b0152610ca801526110285ff3fe608060405234801561000f575f80fd5b50600436106101dc575f3560e01c80637d9efce611610109578063b1d0fae21161009e578063e25824241161006e578063e2582424146103b6578063e3ee8ad0146103be578063fbfa77cf146103d1578063ff83734e146103f8575f80fd5b8063b1d0fae214610393578063b9074dec1461039b578063c9a1e7b2146103a4578063db6aee3e146103ad575f80fd5b80638da5cb5b116100d95780638da5cb5b1461034957806393a6912b1461035b5780639f16390514610363578063a8c62e761461036c575f80fd5b80637d9efce61461031c5780638456cb59146103255780638a0dac4a1461032d5780638d0a5fec14610340575f80fd5b8063452a93201161017f5780635edd2f3d1161014f5780635edd2f3d146102dc5780636019f28a146102e45780637834eed21461030b5780637d7c2a1c14610314575f80fd5b8063452a93201461027c5780635a0ce6761461028f5780635c975abb146102a25780635d6d240c146102bf575f80fd5b80632def8b3f116101ba5780632def8b3f146102245780633e413bee1461022d5780633f4ba83a1461026c578063411bdee114610274575f80fd5b806301ae6d72146101e057806313af4035146101f55780632c4abcdc14610208575b5f80fd5b6101f36101ee366004610e86565b610401565b005b6101f3610203366004610ea6565b61047b565b61021160055481565b6040519081526020015b60405180910390f35b61021160085481565b6102547f000000000000000000000000000000000000000000000000000000000000000081565b6040516001600160a01b03909116815260200161021b565b6101f361052a565b610211610589565b600154610254906001600160a01b031681565b6101f361029d366004610ed3565b61060f565b600c546102af9060ff1681565b604051901515815260200161021b565b6102c7610720565b6040805192835260208301919091520161021b565b610211610781565b6102547f000000000000000000000000000000000000000000000000000000000000000081565b61021160035481565b6101f36107c1565b61021160045481565b6101f3610b52565b6101f361033b366004610ea6565b610bee565b61021160095481565b5f54610254906001600160a01b031681565b610211610c60565b61021160025481565b6102547f000000000000000000000000000000000000000000000000000000000000000081565b610211610c90565b61021160075481565b610211600b5481565b61021160065481565b610211610ca4565b6101f36103cc366004610e86565b610d3d565b6102547f000000000000000000000000000000000000000000000000000000000000000081565b610211600a5481565b5f546001600160a01b031633146104335760405162461bcd60e51b815260040161042a90610efc565b60405180910390fd5b6005829055600681905560408051838152602081018390527f83ef3b9c3fe7e23def4aada1151baf06abbab9264074ae7756e72734ba69a08491015b60405180910390a15050565b5f546001600160a01b031633146104a45760405162461bcd60e51b815260040161042a90610efc565b6001600160a01b0381166104e35760405162461bcd60e51b815260040161042a906020808252600490820152637a65726f60e01b604082015260600190565b5f80546001600160a01b0319166001600160a01b038316908117825560405190917f50146d0e3c60aa1d17a70635b05494f864e86144a2201275021014fbf08bafe291a250565b5f546001600160a01b031633146105535760405162461bcd60e51b815260040161042a90610efc565b600c805460ff1916905560405133907f5db9ee0a495bf2e6ff9c91a7834c1ba4fdd244a5e8aa4e537bd38aeae4b073aa905f90a2565b5f7f00000000000000000000000000000000000000000000000000000000000000006001600160a01b03166318160ddd6040518163ffffffff1660e01b8152600401602060405180830381865afa1580156105e6573d5f803e3d5ffd5b505050506040513d601f19601f8201168201806040525081019061060a9190610f1f565b905090565b5f546001600160a01b031633146106385760405162461bcd60e51b815260040161042a90610efc565b6127108311156106775760405162461bcd60e51b815260206004820152600a602482015269189859081d185c99d95d60b21b604482015260640161042a565b6107d0821115801561068b57506107d08111155b6106ca5760405162461bcd60e51b815260206004820152601060248201526f0c4eacccccae4e640e8dede40d0d2ced60831b604482015260640161042a565b60028390556003829055600481905560408051848152602081018490529081018290527fee5d147c6dd8b96e80762594bab87a5a80c4c7ec653bdb804933445386340b01906060015b60405180910390a1505050565b5f805f80610735600954600a54600b54610da6565b9150915060075482101561075657816007546107519190610f4a565b610758565b5f5b935060085481101561077757806008546107729190610f4a565b610779565b5f5b925050509091565b5f8061078b610589565b90505f61079d64e8d4a5100083610f63565b9050612710600254826107b09190610f82565b6107ba9190610f63565b9250505090565b600c5460ff16156107fd5760405162461bcd60e51b81526020600482015260066024820152651c185d5cd95960d21b604482015260640161042a565b610805610dc5565b5f7f00000000000000000000000000000000000000000000000000000000000000006001600160a01b0316638a8f773f6040518163ffffffff1660e01b8152600401602060405180830381865afa158015610862573d5f803e3d5ffd5b505050506040513d601f19601f820116820180604052508101906108869190610f1f565b90505f610891610c60565b90505f61089c610c90565b9050808311156109e8575f6108b18285610f4a565b90505f6108c8826005546108c3610de2565b610e03565b905080156109a1576040516390ca796b60e01b8152600481018290527f00000000000000000000000000000000000000000000000000000000000000006001600160a01b0316906390ca796b906024015f604051808303815f87803b15801561092f575f80fd5b505af1158015610941573d5f803e3d5ffd5b505050508060095f8282546109569190610f99565b909155505f80516020610fd38339815191529050610972610781565b61097c9087610fac565b60408051918252602082018490526001908201526060015b60405180910390a16109e1565b5f80516020610fd38339815191526109b7610781565b6109c19087610fac565b604080519182525f60208301526001908201526060015b60405180910390a15b5050505050565b81831015610b17575f6109fb8484610f4a565b90505f610a0d826006546108c3610e2e565b90508015610adc576040516348b1933560e01b8152600481018290527f00000000000000000000000000000000000000000000000000000000000000006001600160a01b0316906348b19335906024015f604051808303815f87803b158015610a74575f80fd5b505af1158015610a86573d5f803e3d5ffd5b5050505080600a5f828254610a9b9190610f99565b909155505f80516020610fd38339815191529050610ab7610781565b610ac19087610fac565b60408051918252602082018490525f90820152606001610994565b5f80516020610fd3833981519152610af2610781565b610afc9087610fac565b604080519182525f60208301819052908201526060016109d8565b5f80516020610fd3833981519152610b2d610781565b610b379085610fac565b604080519182525f6020830152600190820152606001610713565b5f546001600160a01b0316331480610b7457506001546001600160a01b031633145b610bb55760405162461bcd60e51b81526020600482015260126024820152713737ba1033bab0b93234b0b717b7bbb732b960711b604482015260640161042a565b600c805460ff1916600117905560405133907f62e78cea01bee320cd4e420270b5ea74000d11b0c9f74754ebdbfc544b05a258905f90a2565b5f546001600160a01b03163314610c175760405162461bcd60e51b815260040161042a90610efc565b600180546001600160a01b0319166001600160a01b0383169081179091556040517fe6c09ffe4572dc9ceaa5ddde4ae41befa655d6fdfe8052077af0970f700e942e905f90a250565b5f612710600454612710610c749190610f4a565b610c7c610781565b610c869190610f82565b61060a9190610f63565b5f612710600354612710610c749190610f99565b5f807f00000000000000000000000000000000000000000000000000000000000000006001600160a01b0316638a8f773f6040518163ffffffff1660e01b8152600401602060405180830381865afa158015610d02573d5f803e3d5ffd5b505050506040513d601f19601f82011682018060405250810190610d269190610f1f565b90505f610d31610781565b90506107ba8183610fac565b5f546001600160a01b03163314610d665760405162461bcd60e51b815260040161042a90610efc565b6007829055600881905560408051838152602081018390527f61a278a4f7e970f0899221d3d683cc29ecb4944197451752e79bcdc194449666910161046f565b5f805f80610db687878742610e4f565b50909890975095505050505050565b610dd7600954600a54600b5442610e4f565b600b55600a55600955565b5f60075460095410610df357505f90565b60095460075461060a9190610f4a565b5f80838510610e125783610e14565b845b9050828110610e235782610e25565b805b95945050505050565b5f600854600a5410610e3f57505f90565b600a5460085461060a9190610f4a565b5f8080610e5f8562015180610f99565b841115610e7357505f915081905082610e7c565b50859150849050835b9450945094915050565b5f8060408385031215610e97575f80fd5b50508035926020909101359150565b5f60208284031215610eb6575f80fd5b81356001600160a01b0381168114610ecc575f80fd5b9392505050565b5f805f60608486031215610ee5575f80fd5b505081359360208301359350604090920135919050565b6020808252600990820152683737ba1037bbb732b960b91b604082015260600190565b5f60208284031215610f2f575f80fd5b5051919050565b634e487b7160e01b5f52601160045260245ffd5b81810381811115610f5d57610f5d610f36565b92915050565b5f82610f7d57634e487b7160e01b5f52601260045260245ffd5b500490565b8082028115828204841417610f5d57610f5d610f36565b80820180821115610f5d57610f5d610f36565b8181035f831280158383131683831282161715610fcb57610fcb610f36565b509291505056fefbc45737a25a876e15ac9979f7cf0b93863930de1aa26180f2aec1bd89cfc882a2646970667358221220cb4af224ce28d57cafe23cc6161e22d50b410310c88fb501fac447145c2f2ccb64736f6c63430008180033","linkReferences":{}},"methodIdentifiers":{"allocatedToday()":"8d0a5fec","bandLowerUsdc()":"93a6912b","bandUpperUsdc()":"b1d0fae2","capsLeft()":"5d6d240c","dailyAllocateCap()":"b9074dec","dailyDeallocateCap()":"2def8b3f","deallocatedToday()":"ff83734e","deviationUsdc()":"e2582424","eusd()":"6019f28a","guardian()":"452a9320","lastReset()":"c9a1e7b2","lowerBps()":"7d9efce6","maxAllocatePerTx()":"2c4abcdc","maxDeallocatePerTx()":"db6aee3e","owner()":"8da5cb5b","pause()":"8456cb59","paused()":"5c975abb","rebalance()":"7d7c2a1c","setDailyCaps(uint256,uint256)":"e3ee8ad0","setGuardian(address)":"8a0dac4a","setOwner(address)":"13af4035","setParams(uint256,uint256,uint256)":"5a0ce676","setTxCaps(uint256,uint256)":"01ae6d72","strategy()":"a8c62e76","supplyEusd()":"411bdee1","targetBps()":"9f163905","targetUsdc()":"5edd2f3d","unpause()":"3f4ba83a","upperBps()":"7834eed2","usdc()":"3e413bee","vault()":"fbfa77cf"},"id":82}